{
	"FundMe.sol": {
		"FundMe": {
			"abi": [
				{
					"inputs": [],
					"stateMutability": "nonpayable",
					"type": "constructor"
				},
				{
					"inputs": [],
					"name": "fund",
					"outputs": [],
					"stateMutability": "payable",
					"type": "function"
				},
				{
					"inputs": [
						{
							"internalType": "uint256",
							"name": "",
							"type": "uint256"
						}
					],
					"name": "funders",
					"outputs": [
						{
							"internalType": "address",
							"name": "",
							"type": "address"
						}
					],
					"stateMutability": "view",
					"type": "function"
				},
				{
					"inputs": [],
					"name": "minUSD",
					"outputs": [
						{
							"internalType": "uint256",
							"name": "",
							"type": "uint256"
						}
					],
					"stateMutability": "view",
					"type": "function"
				},
				{
					"inputs": [],
					"name": "owner",
					"outputs": [
						{
							"internalType": "address",
							"name": "",
							"type": "address"
						}
					],
					"stateMutability": "view",
					"type": "function"
				},
				{
					"inputs": [
						{
							"internalType": "address",
							"name": "funder",
							"type": "address"
						}
					],
					"name": "valueSent",
					"outputs": [
						{
							"internalType": "uint256",
							"name": "amountFunded",
							"type": "uint256"
						}
					],
					"stateMutability": "view",
					"type": "function"
				},
				{
					"inputs": [],
					"name": "withdraw",
					"outputs": [],
					"stateMutability": "nonpayable",
					"type": "function"
				}
			],
			"devdoc": {
				"kind": "dev",
				"methods": {},
				"version": 1
			},
			"evm": {
				"assembly": "    /* \"FundMe.sol\":325:3295  contract FundMe... */\n  mstore(0x40, 0x80)\n    /* \"FundMe.sol\":407:411  5e18 */\n  0x4563918244f40000\n    /* \"FundMe.sol\":386:411  uint public minUSD = 5e18 */\n  0x00\n  sstore\n    /* \"FundMe.sol\":1632:1684  constructor()... */\n  callvalue\n  dup1\n  iszero\n  tag_1\n  jumpi\n  0x00\n  dup1\n  revert\ntag_1:\n  pop\n    /* \"FundMe.sol\":1666:1676  msg.sender */\n  caller\n    /* \"FundMe.sol\":1660:1665  owner */\n  0x03\n  0x00\n    /* \"FundMe.sol\":1660:1676  owner=msg.sender */\n  0x0100\n  exp\n  dup2\n  sload\n  dup2\n  0xffffffffffffffffffffffffffffffffffffffff\n  mul\n  not\n  and\n  swap1\n  dup4\n  0xffffffffffffffffffffffffffffffffffffffff\n  and\n  mul\n  or\n  swap1\n  sstore\n  pop\n    /* \"FundMe.sol\":325:3295  contract FundMe... */\n  dataSize(sub_0)\n  dup1\n  dataOffset(sub_0)\n  0x00\n  codecopy\n  0x00\n  return\nstop\n\nsub_0: assembly {\n        /* \"FundMe.sol\":325:3295  contract FundMe... */\n      mstore(0x40, 0x80)\n      jumpi(tag_1, lt(calldatasize, 0x04))\n      shr(0xe0, calldataload(0x00))\n      dup1\n      0x3ccfd60b\n      eq\n      tag_2\n      jumpi\n      dup1\n      0x8da5cb5b\n      eq\n      tag_3\n      jumpi\n      dup1\n      0x942ccc98\n      eq\n      tag_4\n      jumpi\n      dup1\n      0xb60d4288\n      eq\n      tag_5\n      jumpi\n      dup1\n      0xdc0d3dff\n      eq\n      tag_6\n      jumpi\n      dup1\n      0xdc992aa0\n      eq\n      tag_7\n      jumpi\n    tag_1:\n      0x00\n      dup1\n      revert\n        /* \"FundMe.sol\":1694:3292  function withdraw() public... */\n    tag_2:\n      callvalue\n      dup1\n      iszero\n      tag_8\n      jumpi\n      0x00\n      dup1\n      revert\n    tag_8:\n      pop\n      tag_9\n      tag_10\n      jump\t// in\n    tag_9:\n      stop\n        /* \"FundMe.sol\":516:536  address public owner */\n    tag_3:\n      callvalue\n      dup1\n      iszero\n      tag_11\n      jumpi\n      0x00\n      dup1\n      revert\n    tag_11:\n      pop\n      tag_12\n      tag_13\n      jump\t// in\n    tag_12:\n      mload(0x40)\n      tag_14\n      swap2\n      swap1\n      tag_15\n      jump\t// in\n    tag_14:\n      mload(0x40)\n      dup1\n      swap2\n      sub\n      swap1\n      return\n        /* \"FundMe.sol\":449:509  mapping(address funder =>uint amountFunded) public valueSent */\n    tag_4:\n      callvalue\n      dup1\n      iszero\n      tag_16\n      jumpi\n      0x00\n      dup1\n      revert\n    tag_16:\n      pop\n      tag_17\n      0x04\n      dup1\n      calldatasize\n      sub\n      dup2\n      add\n      swap1\n      tag_18\n      swap2\n      swap1\n      tag_19\n      jump\t// in\n    tag_18:\n      tag_20\n      jump\t// in\n    tag_17:\n      mload(0x40)\n      tag_21\n      swap2\n      swap1\n      tag_22\n      jump\t// in\n    tag_21:\n      mload(0x40)\n      dup1\n      swap2\n      sub\n      swap1\n      return\n        /* \"FundMe.sol\":545:954  function fund() public payable... */\n    tag_5:\n      tag_23\n      tag_24\n      jump\t// in\n    tag_23:\n      stop\n        /* \"FundMe.sol\":418:442  address[] public funders */\n    tag_6:\n      callvalue\n      dup1\n      iszero\n      tag_25\n      jumpi\n      0x00\n      dup1\n      revert\n    tag_25:\n      pop\n      tag_26\n      0x04\n      dup1\n      calldatasize\n      sub\n      dup2\n      add\n      swap1\n      tag_27\n      swap2\n      swap1\n      tag_28\n      jump\t// in\n    tag_27:\n      tag_29\n      jump\t// in\n    tag_26:\n      mload(0x40)\n      tag_30\n      swap2\n      swap1\n      tag_15\n      jump\t// in\n    tag_30:\n      mload(0x40)\n      dup1\n      swap2\n      sub\n      swap1\n      return\n        /* \"FundMe.sol\":386:411  uint public minUSD = 5e18 */\n    tag_7:\n      callvalue\n      dup1\n      iszero\n      tag_31\n      jumpi\n      0x00\n      dup1\n      revert\n    tag_31:\n      pop\n      tag_32\n      tag_33\n      jump\t// in\n    tag_32:\n      mload(0x40)\n      tag_34\n      swap2\n      swap1\n      tag_22\n      jump\t// in\n    tag_34:\n      mload(0x40)\n      dup1\n      swap2\n      sub\n      swap1\n      return\n        /* \"FundMe.sol\":1694:3292  function withdraw() public... */\n    tag_10:\n        /* \"FundMe.sol\":1827:1832  owner */\n      0x03\n      0x00\n      swap1\n      sload\n      swap1\n      0x0100\n      exp\n      swap1\n      div\n      0xffffffffffffffffffffffffffffffffffffffff\n      and\n        /* \"FundMe.sol\":1815:1832  msg.sender==owner */\n      0xffffffffffffffffffffffffffffffffffffffff\n      and\n        /* \"FundMe.sol\":1815:1825  msg.sender */\n      caller\n        /* \"FundMe.sol\":1815:1832  msg.sender==owner */\n      0xffffffffffffffffffffffffffffffffffffffff\n      and\n      eq\n        /* \"FundMe.sol\":1807:1860  require(msg.sender==owner, \"Only owner can Withdraw\") */\n      tag_36\n      jumpi\n      mload(0x40)\n      0x08c379a000000000000000000000000000000000000000000000000000000000\n      dup2\n      mstore\n      0x04\n      add\n      tag_37\n      swap1\n      tag_38\n      jump\t// in\n    tag_37:\n      mload(0x40)\n      dup1\n      swap2\n      sub\n      swap1\n      revert\n    tag_36:\n        /* \"FundMe.sol\":1873:1879  uint i */\n      0x00\n        /* \"FundMe.sol\":1869:2003  for(uint i=0; i<funders.length; i++)... */\n    tag_39:\n        /* \"FundMe.sol\":1885:1892  funders */\n      0x01\n        /* \"FundMe.sol\":1885:1899  funders.length */\n      dup1\n      sload\n      swap1\n      pop\n        /* \"FundMe.sol\":1883:1884  i */\n      dup2\n        /* \"FundMe.sol\":1883:1899  i<funders.length */\n      lt\n        /* \"FundMe.sol\":1869:2003  for(uint i=0; i<funders.length; i++)... */\n      iszero\n      tag_40\n      jumpi\n        /* \"FundMe.sol\":1924:1944  address addOfFunders */\n      0x00\n        /* \"FundMe.sol\":1947:1954  funders */\n      0x01\n        /* \"FundMe.sol\":1955:1956  i */\n      dup3\n        /* \"FundMe.sol\":1947:1957  funders[i] */\n      dup2\n      sload\n      dup2\n      lt\n      tag_42\n      jumpi\n      tag_43\n      tag_44\n      jump\t// in\n    tag_43:\n    tag_42:\n      swap1\n      0x00\n      mstore\n      keccak256(0x00, 0x20)\n      add\n      0x00\n      swap1\n      sload\n      swap1\n      0x0100\n      exp\n      swap1\n      div\n      0xffffffffffffffffffffffffffffffffffffffff\n      and\n        /* \"FundMe.sol\":1924:1957  address addOfFunders = funders[i] */\n      swap1\n      pop\n        /* \"FundMe.sol\":1992:1993  0 */\n      0x00\n        /* \"FundMe.sol\":1968:1977  valueSent */\n      0x02\n        /* \"FundMe.sol\":1968:1991  valueSent[addOfFunders] */\n      0x00\n        /* \"FundMe.sol\":1978:1990  addOfFunders */\n      dup4\n        /* \"FundMe.sol\":1968:1991  valueSent[addOfFunders] */\n      0xffffffffffffffffffffffffffffffffffffffff\n      and\n      0xffffffffffffffffffffffffffffffffffffffff\n      and\n      dup2\n      mstore\n      0x20\n      add\n      swap1\n      dup2\n      mstore\n      0x20\n      add\n      0x00\n      keccak256\n        /* \"FundMe.sol\":1968:1993  valueSent[addOfFunders]=0 */\n      dup2\n      swap1\n      sstore\n      pop\n        /* \"FundMe.sol\":1913:2003  {... */\n      pop\n        /* \"FundMe.sol\":1901:1904  i++ */\n      dup1\n      dup1\n      0x01\n      add\n      swap2\n      pop\n      pop\n        /* \"FundMe.sol\":1869:2003  for(uint i=0; i<funders.length; i++)... */\n      jump(tag_39)\n    tag_40:\n      pop\n        /* \"FundMe.sol\":2033:2034  0 */\n      0x00\n        /* \"FundMe.sol\":2019:2035  new address[](0) */\n      0xffffffffffffffff\n      dup2\n      gt\n      iszero\n      tag_46\n      jumpi\n      tag_47\n      tag_48\n      jump\t// in\n    tag_47:\n    tag_46:\n      mload(0x40)\n      swap1\n      dup1\n      dup3\n      mstore\n      dup1\n      0x20\n      mul\n      0x20\n      add\n      dup3\n      add\n      0x40\n      mstore\n      dup1\n      iszero\n      tag_49\n      jumpi\n      dup2\n      0x20\n      add\n      0x20\n      dup3\n      mul\n      dup1\n      calldatasize\n      dup4\n      calldatacopy\n      dup1\n      dup3\n      add\n      swap2\n      pop\n      pop\n      swap1\n      pop\n    tag_49:\n      pop\n        /* \"FundMe.sol\":2011:2018  funders */\n      0x01\n        /* \"FundMe.sol\":2011:2035  funders=new address[](0) */\n      swap1\n      dup1\n      mload\n      swap1\n      0x20\n      add\n      swap1\n      tag_50\n      swap3\n      swap2\n      swap1\n      tag_51\n      jump\t// in\n    tag_50:\n      pop\n        /* \"FundMe.sol\":3162:3178  bool callSuccess */\n      0x00\n        /* \"FundMe.sol\":3190:3200  msg.sender */\n      caller\n        /* \"FundMe.sol\":3182:3206  payable(msg.sender).call */\n      0xffffffffffffffffffffffffffffffffffffffff\n      and\n        /* \"FundMe.sol\":3214:3235  address(this).balance */\n      selfbalance\n        /* \"FundMe.sol\":3182:3240  payable(msg.sender).call{value: address(this).balance}(\"\") */\n      mload(0x40)\n      tag_52\n      swap1\n      tag_53\n      jump\t// in\n    tag_52:\n      0x00\n      mload(0x40)\n      dup1\n      dup4\n      sub\n      dup2\n      dup6\n      dup8\n      gas\n      call\n      swap3\n      pop\n      pop\n      pop\n      returndatasize\n      dup1\n      0x00\n      dup2\n      eq\n      tag_56\n      jumpi\n      mload(0x40)\n      swap2\n      pop\n      and(add(returndatasize, 0x3f), not(0x1f))\n      dup3\n      add\n      0x40\n      mstore\n      returndatasize\n      dup3\n      mstore\n      returndatasize\n      0x00\n      0x20\n      dup5\n      add\n      returndatacopy\n      jump(tag_55)\n    tag_56:\n      0x60\n      swap2\n      pop\n    tag_55:\n      pop\n        /* \"FundMe.sol\":3161:3240  (bool callSuccess, )=payable(msg.sender).call{value: address(this).balance}(\"\") */\n      pop\n      swap1\n      pop\n        /* \"FundMe.sol\":3257:3268  callSuccess */\n      dup1\n        /* \"FundMe.sol\":3249:3284  require(callSuccess, \"Call Failed\") */\n      tag_57\n      jumpi\n      mload(0x40)\n      0x08c379a000000000000000000000000000000000000000000000000000000000\n      dup2\n      mstore\n      0x04\n      add\n      tag_58\n      swap1\n      tag_59\n      jump\t// in\n    tag_58:\n      mload(0x40)\n      dup1\n      swap2\n      sub\n      swap1\n      revert\n    tag_57:\n        /* \"FundMe.sol\":1726:3292  {... */\n      pop\n        /* \"FundMe.sol\":1694:3292  function withdraw() public... */\n      jump\t// out\n        /* \"FundMe.sol\":516:536  address public owner */\n    tag_13:\n      0x03\n      0x00\n      swap1\n      sload\n      swap1\n      0x0100\n      exp\n      swap1\n      div\n      0xffffffffffffffffffffffffffffffffffffffff\n      and\n      dup2\n      jump\t// out\n        /* \"FundMe.sol\":449:509  mapping(address funder =>uint amountFunded) public valueSent */\n    tag_20:\n      mstore(0x20, 0x02)\n      dup1\n      0x00\n      mstore\n      keccak256(0x00, 0x40)\n      0x00\n      swap2\n      pop\n      swap1\n      pop\n      sload\n      dup2\n      jump\t// out\n        /* \"FundMe.sol\":545:954  function fund() public payable... */\n    tag_24:\n        /* \"FundMe.sol\":785:791  minUSD */\n      sload(0x00)\n        /* \"FundMe.sol\":753:783  msg.value.getConversionRates() */\n      tag_61\n        /* \"FundMe.sol\":753:762  msg.value */\n      callvalue\n        /* \"FundMe.sol\":753:781  msg.value.getConversionRates */\n      tag_62\n        /* \"FundMe.sol\":753:783  msg.value.getConversionRates() */\n      jump\t// in\n    tag_61:\n        /* \"FundMe.sol\":753:791  msg.value.getConversionRates()>=minUSD */\n      lt\n      iszero\n        /* \"FundMe.sol\":745:825  require(msg.value.getConversionRates()>=minUSD, \" You didn't sent enough ETH. \") */\n      tag_63\n      jumpi\n      mload(0x40)\n      0x08c379a000000000000000000000000000000000000000000000000000000000\n      dup2\n      mstore\n      0x04\n      add\n      tag_64\n      swap1\n      tag_65\n      jump\t// in\n    tag_64:\n      mload(0x40)\n      dup1\n      swap2\n      sub\n      swap1\n      revert\n    tag_63:\n        /* \"FundMe.sol\":834:841  funders */\n      0x01\n        /* \"FundMe.sol\":847:857  msg.sender */\n      caller\n        /* \"FundMe.sol\":834:858  funders.push(msg.sender) */\n      swap1\n      dup1\n      0x01\n      dup2\n      sload\n      add\n      dup1\n      dup3\n      sstore\n      dup1\n      swap2\n      pop\n      pop\n      0x01\n      swap1\n      sub\n      swap1\n      0x00\n      mstore\n      keccak256(0x00, 0x20)\n      add\n      0x00\n      swap1\n      swap2\n      swap1\n      swap2\n      swap1\n      swap2\n      0x0100\n      exp\n      dup2\n      sload\n      dup2\n      0xffffffffffffffffffffffffffffffffffffffff\n      mul\n      not\n      and\n      swap1\n      dup4\n      0xffffffffffffffffffffffffffffffffffffffff\n      and\n      mul\n      or\n      swap1\n      sstore\n      pop\n        /* \"FundMe.sol\":890:899  msg.value */\n      callvalue\n        /* \"FundMe.sol\":867:876  valueSent */\n      0x02\n        /* \"FundMe.sol\":867:888  valueSent[msg.sender] */\n      0x00\n        /* \"FundMe.sol\":877:887  msg.sender */\n      caller\n        /* \"FundMe.sol\":867:888  valueSent[msg.sender] */\n      0xffffffffffffffffffffffffffffffffffffffff\n      and\n      0xffffffffffffffffffffffffffffffffffffffff\n      and\n      dup2\n      mstore\n      0x20\n      add\n      swap1\n      dup2\n      mstore\n      0x20\n      add\n      0x00\n      keccak256\n      0x00\n        /* \"FundMe.sol\":867:899  valueSent[msg.sender]+=msg.value */\n      dup3\n      dup3\n      sload\n      tag_67\n      swap2\n      swap1\n      tag_68\n      jump\t// in\n    tag_67:\n      swap3\n      pop\n      pop\n      dup2\n      swap1\n      sstore\n      pop\n        /* \"FundMe.sol\":545:954  function fund() public payable... */\n      jump\t// out\n        /* \"FundMe.sol\":418:442  address[] public funders */\n    tag_29:\n      0x01\n      dup2\n      dup2\n      sload\n      dup2\n      lt\n      tag_69\n      jumpi\n      0x00\n      dup1\n      revert\n    tag_69:\n      swap1\n      0x00\n      mstore\n      keccak256(0x00, 0x20)\n      add\n      0x00\n      swap2\n      pop\n      sload\n      swap1\n      0x0100\n      exp\n      swap1\n      div\n      0xffffffffffffffffffffffffffffffffffffffff\n      and\n      dup2\n      jump\t// out\n        /* \"FundMe.sol\":386:411  uint public minUSD = 5e18 */\n    tag_33:\n      sload(0x00)\n      dup2\n      jump\t// out\n        /* \"PriceConverter.sol\":545:1158  function getConversionRates(uint256 ethAmount) internal view returns(uint256)... */\n    tag_62:\n        /* \"PriceConverter.sol\":614:621  uint256 */\n      0x00\n        /* \"PriceConverter.sol\":1032:1048  uint256 ethPrice */\n      dup1\n        /* \"PriceConverter.sol\":1049:1059  getPrice() */\n      tag_72\n        /* \"PriceConverter.sol\":1049:1057  getPrice */\n      tag_73\n        /* \"PriceConverter.sol\":1049:1059  getPrice() */\n      jump\t// in\n    tag_72:\n        /* \"PriceConverter.sol\":1032:1059  uint256 ethPrice=getPrice() */\n      swap1\n      pop\n        /* \"PriceConverter.sol\":1070:1092  uint256 ethAmountinUSD */\n      0x00\n        /* \"PriceConverter.sol\":1114:1118  1e18 */\n      0x0de0b6b3a7640000\n        /* \"PriceConverter.sol\":1103:1112  ethAmount */\n      dup5\n        /* \"PriceConverter.sol\":1094:1102  ethPrice */\n      dup4\n        /* \"PriceConverter.sol\":1094:1112  ethPrice*ethAmount */\n      tag_74\n      swap2\n      swap1\n      tag_75\n      jump\t// in\n    tag_74:\n        /* \"PriceConverter.sol\":1093:1118  (ethPrice*ethAmount)/1e18 */\n      tag_76\n      swap2\n      swap1\n      tag_77\n      jump\t// in\n    tag_76:\n        /* \"PriceConverter.sol\":1070:1118  uint256 ethAmountinUSD=(ethPrice*ethAmount)/1e18 */\n      swap1\n      pop\n        /* \"PriceConverter.sol\":1136:1150  ethAmountinUSD */\n      dup1\n        /* \"PriceConverter.sol\":1129:1150  return ethAmountinUSD */\n      swap3\n      pop\n      pop\n      pop\n        /* \"PriceConverter.sol\":545:1158  function getConversionRates(uint256 ethAmount) internal view returns(uint256)... */\n      swap2\n      swap1\n      pop\n      jump\t// out\n        /* \"PriceConverter.sol\":267:537  function getPrice() internal view returns(uint256)... */\n    tag_73:\n        /* \"PriceConverter.sol\":309:316  uint256 */\n      0x00\n        /* \"PriceConverter.sol\":334:365  AggregatorV3Interface priceFeed */\n      dup1\n        /* \"PriceConverter.sol\":390:432  0x694AA1769357215DE4FAC081bf1f309aDC325306 */\n      0x694aa1769357215de4fac081bf1f309adc325306\n        /* \"PriceConverter.sol\":334:433  AggregatorV3Interface priceFeed = AggregatorV3Interface(0x694AA1769357215DE4FAC081bf1f309aDC325306) */\n      swap1\n      pop\n        /* \"PriceConverter.sol\":446:458  int256 price */\n      0x00\n        /* \"PriceConverter.sol\":465:474  priceFeed */\n      dup2\n        /* \"PriceConverter.sol\":465:490  priceFeed.latestRoundData */\n      0xffffffffffffffffffffffffffffffffffffffff\n      and\n      0xfeaf968c\n        /* \"PriceConverter.sol\":465:492  priceFeed.latestRoundData() */\n      mload(0x40)\n      dup2\n      0xffffffff\n      and\n      0xe0\n      shl\n      dup2\n      mstore\n      0x04\n      add\n      0xa0\n      mload(0x40)\n      dup1\n      dup4\n      sub\n      dup2\n      dup7\n      gas\n      staticcall\n      iszero\n      dup1\n      iszero\n      tag_80\n      jumpi\n      returndatasize\n      0x00\n      dup1\n      returndatacopy\n      revert(0x00, returndatasize)\n    tag_80:\n      pop\n      pop\n      pop\n      pop\n      mload(0x40)\n      returndatasize\n      not(0x1f)\n      0x1f\n      dup3\n      add\n      and\n      dup3\n      add\n      dup1\n      0x40\n      mstore\n      pop\n      dup2\n      add\n      swap1\n      tag_81\n      swap2\n      swap1\n      tag_82\n      jump\t// in\n    tag_81:\n        /* \"PriceConverter.sol\":444:492  (,int256 price,,,) = priceFeed.latestRoundData() */\n      pop\n      pop\n      pop\n      swap2\n      pop\n      pop\n        /* \"PriceConverter.sol\":524:528  1e10 */\n      0x02540be400\n        /* \"PriceConverter.sol\":518:523  price */\n      dup2\n        /* \"PriceConverter.sol\":518:528  price*1e10 */\n      tag_83\n      swap2\n      swap1\n      tag_84\n      jump\t// in\n    tag_83:\n        /* \"PriceConverter.sol\":503:529  return uint256(price*1e10) */\n      swap3\n      pop\n      pop\n      pop\n        /* \"PriceConverter.sol\":267:537  function getPrice() internal view returns(uint256)... */\n      swap1\n      jump\t// out\n    tag_51:\n      dup3\n      dup1\n      sload\n      dup3\n      dup3\n      sstore\n      swap1\n      0x00\n      mstore\n      keccak256(0x00, 0x20)\n      swap1\n      dup2\n      add\n      swap3\n      dup3\n      iszero\n      tag_85\n      jumpi\n      swap2\n      0x20\n      mul\n      dup3\n      add\n    tag_86:\n      dup3\n      dup2\n      gt\n      iszero\n      tag_87\n      jumpi\n      dup3\n      mload\n      dup3\n      exp(0x0100, 0x00)\n      dup2\n      sload\n      dup2\n      0xffffffffffffffffffffffffffffffffffffffff\n      mul\n      not\n      and\n      swap1\n      dup4\n      0xffffffffffffffffffffffffffffffffffffffff\n      and\n      mul\n      or\n      swap1\n      sstore\n      pop\n      swap2\n      0x20\n      add\n      swap2\n      swap1\n      0x01\n      add\n      swap1\n      jump(tag_86)\n    tag_87:\n    tag_85:\n      pop\n      swap1\n      pop\n      tag_88\n      swap2\n      swap1\n      tag_89\n      jump\t// in\n    tag_88:\n      pop\n      swap1\n      jump\t// out\n    tag_89:\n    tag_90:\n      dup1\n      dup3\n      gt\n      iszero\n      tag_91\n      jumpi\n      0x00\n      dup2\n      0x00\n      swap1\n      sstore\n      pop\n      0x01\n      add\n      jump(tag_90)\n    tag_91:\n      pop\n      swap1\n      jump\t// out\n        /* \"#utility.yul\":7:133   */\n    tag_92:\n        /* \"#utility.yul\":44:51   */\n      0x00\n        /* \"#utility.yul\":84:126   */\n      0xffffffffffffffffffffffffffffffffffffffff\n        /* \"#utility.yul\":77:82   */\n      dup3\n        /* \"#utility.yul\":73:127   */\n      and\n        /* \"#utility.yul\":62:127   */\n      swap1\n      pop\n        /* \"#utility.yul\":7:133   */\n      swap2\n      swap1\n      pop\n      jump\t// out\n        /* \"#utility.yul\":139:235   */\n    tag_93:\n        /* \"#utility.yul\":176:183   */\n      0x00\n        /* \"#utility.yul\":205:229   */\n      tag_126\n        /* \"#utility.yul\":223:228   */\n      dup3\n        /* \"#utility.yul\":205:229   */\n      tag_92\n      jump\t// in\n    tag_126:\n        /* \"#utility.yul\":194:229   */\n      swap1\n      pop\n        /* \"#utility.yul\":139:235   */\n      swap2\n      swap1\n      pop\n      jump\t// out\n        /* \"#utility.yul\":241:359   */\n    tag_94:\n        /* \"#utility.yul\":328:352   */\n      tag_128\n        /* \"#utility.yul\":346:351   */\n      dup2\n        /* \"#utility.yul\":328:352   */\n      tag_93\n      jump\t// in\n    tag_128:\n        /* \"#utility.yul\":323:326   */\n      dup3\n        /* \"#utility.yul\":316:353   */\n      mstore\n        /* \"#utility.yul\":241:359   */\n      pop\n      pop\n      jump\t// out\n        /* \"#utility.yul\":365:587   */\n    tag_15:\n        /* \"#utility.yul\":458:462   */\n      0x00\n        /* \"#utility.yul\":496:498   */\n      0x20\n        /* \"#utility.yul\":485:494   */\n      dup3\n        /* \"#utility.yul\":481:499   */\n      add\n        /* \"#utility.yul\":473:499   */\n      swap1\n      pop\n        /* \"#utility.yul\":509:580   */\n      tag_130\n        /* \"#utility.yul\":577:578   */\n      0x00\n        /* \"#utility.yul\":566:575   */\n      dup4\n        /* \"#utility.yul\":562:579   */\n      add\n        /* \"#utility.yul\":553:559   */\n      dup5\n        /* \"#utility.yul\":509:580   */\n      tag_94\n      jump\t// in\n    tag_130:\n        /* \"#utility.yul\":365:587   */\n      swap3\n      swap2\n      pop\n      pop\n      jump\t// out\n        /* \"#utility.yul\":674:791   */\n    tag_96:\n        /* \"#utility.yul\":783:784   */\n      0x00\n        /* \"#utility.yul\":780:781   */\n      dup1\n        /* \"#utility.yul\":773:785   */\n      revert\n        /* \"#utility.yul\":920:1042   */\n    tag_98:\n        /* \"#utility.yul\":993:1017   */\n      tag_135\n        /* \"#utility.yul\":1011:1016   */\n      dup2\n        /* \"#utility.yul\":993:1017   */\n      tag_93\n      jump\t// in\n    tag_135:\n        /* \"#utility.yul\":986:991   */\n      dup2\n        /* \"#utility.yul\":983:1018   */\n      eq\n        /* \"#utility.yul\":973:1036   */\n      tag_136\n      jumpi\n        /* \"#utility.yul\":1032:1033   */\n      0x00\n        /* \"#utility.yul\":1029:1030   */\n      dup1\n        /* \"#utility.yul\":1022:1034   */\n      revert\n        /* \"#utility.yul\":973:1036   */\n    tag_136:\n        /* \"#utility.yul\":920:1042   */\n      pop\n      jump\t// out\n        /* \"#utility.yul\":1048:1187   */\n    tag_99:\n        /* \"#utility.yul\":1094:1099   */\n      0x00\n        /* \"#utility.yul\":1132:1138   */\n      dup2\n        /* \"#utility.yul\":1119:1139   */\n      calldataload\n        /* \"#utility.yul\":1110:1139   */\n      swap1\n      pop\n        /* \"#utility.yul\":1148:1181   */\n      tag_138\n        /* \"#utility.yul\":1175:1180   */\n      dup2\n        /* \"#utility.yul\":1148:1181   */\n      tag_98\n      jump\t// in\n    tag_138:\n        /* \"#utility.yul\":1048:1187   */\n      swap3\n      swap2\n      pop\n      pop\n      jump\t// out\n        /* \"#utility.yul\":1193:1522   */\n    tag_19:\n        /* \"#utility.yul\":1252:1258   */\n      0x00\n        /* \"#utility.yul\":1301:1303   */\n      0x20\n        /* \"#utility.yul\":1289:1298   */\n      dup3\n        /* \"#utility.yul\":1280:1287   */\n      dup5\n        /* \"#utility.yul\":1276:1299   */\n      sub\n        /* \"#utility.yul\":1272:1304   */\n      slt\n        /* \"#utility.yul\":1269:1388   */\n      iszero\n      tag_140\n      jumpi\n        /* \"#utility.yul\":1307:1386   */\n      tag_141\n      tag_96\n      jump\t// in\n    tag_141:\n        /* \"#utility.yul\":1269:1388   */\n    tag_140:\n        /* \"#utility.yul\":1427:1428   */\n      0x00\n        /* \"#utility.yul\":1452:1505   */\n      tag_142\n        /* \"#utility.yul\":1497:1504   */\n      dup5\n        /* \"#utility.yul\":1488:1494   */\n      dup3\n        /* \"#utility.yul\":1477:1486   */\n      dup6\n        /* \"#utility.yul\":1473:1495   */\n      add\n        /* \"#utility.yul\":1452:1505   */\n      tag_99\n      jump\t// in\n    tag_142:\n        /* \"#utility.yul\":1442:1505   */\n      swap2\n      pop\n        /* \"#utility.yul\":1398:1515   */\n      pop\n        /* \"#utility.yul\":1193:1522   */\n      swap3\n      swap2\n      pop\n      pop\n      jump\t// out\n        /* \"#utility.yul\":1528:1605   */\n    tag_100:\n        /* \"#utility.yul\":1565:1572   */\n      0x00\n        /* \"#utility.yul\":1594:1599   */\n      dup2\n        /* \"#utility.yul\":1583:1599   */\n      swap1\n      pop\n        /* \"#utility.yul\":1528:1605   */\n      swap2\n      swap1\n      pop\n      jump\t// out\n        /* \"#utility.yul\":1611:1729   */\n    tag_101:\n        /* \"#utility.yul\":1698:1722   */\n      tag_145\n        /* \"#utility.yul\":1716:1721   */\n      dup2\n        /* \"#utility.yul\":1698:1722   */\n      tag_100\n      jump\t// in\n    tag_145:\n        /* \"#utility.yul\":1693:1696   */\n      dup3\n        /* \"#utility.yul\":1686:1723   */\n      mstore\n        /* \"#utility.yul\":1611:1729   */\n      pop\n      pop\n      jump\t// out\n        /* \"#utility.yul\":1735:1957   */\n    tag_22:\n        /* \"#utility.yul\":1828:1832   */\n      0x00\n        /* \"#utility.yul\":1866:1868   */\n      0x20\n        /* \"#utility.yul\":1855:1864   */\n      dup3\n        /* \"#utility.yul\":1851:1869   */\n      add\n        /* \"#utility.yul\":1843:1869   */\n      swap1\n      pop\n        /* \"#utility.yul\":1879:1950   */\n      tag_147\n        /* \"#utility.yul\":1947:1948   */\n      0x00\n        /* \"#utility.yul\":1936:1945   */\n      dup4\n        /* \"#utility.yul\":1932:1949   */\n      add\n        /* \"#utility.yul\":1923:1929   */\n      dup5\n        /* \"#utility.yul\":1879:1950   */\n      tag_101\n      jump\t// in\n    tag_147:\n        /* \"#utility.yul\":1735:1957   */\n      swap3\n      swap2\n      pop\n      pop\n      jump\t// out\n        /* \"#utility.yul\":1963:2085   */\n    tag_102:\n        /* \"#utility.yul\":2036:2060   */\n      tag_149\n        /* \"#utility.yul\":2054:2059   */\n      dup2\n        /* \"#utility.yul\":2036:2060   */\n      tag_100\n      jump\t// in\n    tag_149:\n        /* \"#utility.yul\":2029:2034   */\n      dup2\n        /* \"#utility.yul\":2026:2061   */\n      eq\n        /* \"#utility.yul\":2016:2079   */\n      tag_150\n      jumpi\n        /* \"#utility.yul\":2075:2076   */\n      0x00\n        /* \"#utility.yul\":2072:2073   */\n      dup1\n        /* \"#utility.yul\":2065:2077   */\n      revert\n        /* \"#utility.yul\":2016:2079   */\n    tag_150:\n        /* \"#utility.yul\":1963:2085   */\n      pop\n      jump\t// out\n        /* \"#utility.yul\":2091:2230   */\n    tag_103:\n        /* \"#utility.yul\":2137:2142   */\n      0x00\n        /* \"#utility.yul\":2175:2181   */\n      dup2\n        /* \"#utility.yul\":2162:2182   */\n      calldataload\n        /* \"#utility.yul\":2153:2182   */\n      swap1\n      pop\n        /* \"#utility.yul\":2191:2224   */\n      tag_152\n        /* \"#utility.yul\":2218:2223   */\n      dup2\n        /* \"#utility.yul\":2191:2224   */\n      tag_102\n      jump\t// in\n    tag_152:\n        /* \"#utility.yul\":2091:2230   */\n      swap3\n      swap2\n      pop\n      pop\n      jump\t// out\n        /* \"#utility.yul\":2236:2565   */\n    tag_28:\n        /* \"#utility.yul\":2295:2301   */\n      0x00\n        /* \"#utility.yul\":2344:2346   */\n      0x20\n        /* \"#utility.yul\":2332:2341   */\n      dup3\n        /* \"#utility.yul\":2323:2330   */\n      dup5\n        /* \"#utility.yul\":2319:2342   */\n      sub\n        /* \"#utility.yul\":2315:2347   */\n      slt\n        /* \"#utility.yul\":2312:2431   */\n      iszero\n      tag_154\n      jumpi\n        /* \"#utility.yul\":2350:2429   */\n      tag_155\n      tag_96\n      jump\t// in\n    tag_155:\n        /* \"#utility.yul\":2312:2431   */\n    tag_154:\n        /* \"#utility.yul\":2470:2471   */\n      0x00\n        /* \"#utility.yul\":2495:2548   */\n      tag_156\n        /* \"#utility.yul\":2540:2547   */\n      dup5\n        /* \"#utility.yul\":2531:2537   */\n      dup3\n        /* \"#utility.yul\":2520:2529   */\n      dup6\n        /* \"#utility.yul\":2516:2538   */\n      add\n        /* \"#utility.yul\":2495:2548   */\n      tag_103\n      jump\t// in\n    tag_156:\n        /* \"#utility.yul\":2485:2548   */\n      swap2\n      pop\n        /* \"#utility.yul\":2441:2558   */\n      pop\n        /* \"#utility.yul\":2236:2565   */\n      swap3\n      swap2\n      pop\n      pop\n      jump\t// out\n        /* \"#utility.yul\":2571:2740   */\n    tag_104:\n        /* \"#utility.yul\":2655:2666   */\n      0x00\n        /* \"#utility.yul\":2689:2695   */\n      dup3\n        /* \"#utility.yul\":2684:2687   */\n      dup3\n        /* \"#utility.yul\":2677:2696   */\n      mstore\n        /* \"#utility.yul\":2729:2733   */\n      0x20\n        /* \"#utility.yul\":2724:2727   */\n      dup3\n        /* \"#utility.yul\":2720:2734   */\n      add\n        /* \"#utility.yul\":2705:2734   */\n      swap1\n      pop\n        /* \"#utility.yul\":2571:2740   */\n      swap3\n      swap2\n      pop\n      pop\n      jump\t// out\n        /* \"#utility.yul\":2746:2919   */\n    tag_105:\n        /* \"#utility.yul\":2886:2911   */\n      0x4f6e6c79206f776e65722063616e205769746864726177000000000000000000\n        /* \"#utility.yul\":2882:2883   */\n      0x00\n        /* \"#utility.yul\":2874:2880   */\n      dup3\n        /* \"#utility.yul\":2870:2884   */\n      add\n        /* \"#utility.yul\":2863:2912   */\n      mstore\n        /* \"#utility.yul\":2746:2919   */\n      pop\n      jump\t// out\n        /* \"#utility.yul\":2925:3291   */\n    tag_106:\n        /* \"#utility.yul\":3067:3070   */\n      0x00\n        /* \"#utility.yul\":3088:3155   */\n      tag_160\n        /* \"#utility.yul\":3152:3154   */\n      0x17\n        /* \"#utility.yul\":3147:3150   */\n      dup4\n        /* \"#utility.yul\":3088:3155   */\n      tag_104\n      jump\t// in\n    tag_160:\n        /* \"#utility.yul\":3081:3155   */\n      swap2\n      pop\n        /* \"#utility.yul\":3164:3257   */\n      tag_161\n        /* \"#utility.yul\":3253:3256   */\n      dup3\n        /* \"#utility.yul\":3164:3257   */\n      tag_105\n      jump\t// in\n    tag_161:\n        /* \"#utility.yul\":3282:3284   */\n      0x20\n        /* \"#utility.yul\":3277:3280   */\n      dup3\n        /* \"#utility.yul\":3273:3285   */\n      add\n        /* \"#utility.yul\":3266:3285   */\n      swap1\n      pop\n        /* \"#utility.yul\":2925:3291   */\n      swap2\n      swap1\n      pop\n      jump\t// out\n        /* \"#utility.yul\":3297:3716   */\n    tag_38:\n        /* \"#utility.yul\":3463:3467   */\n      0x00\n        /* \"#utility.yul\":3501:3503   */\n      0x20\n        /* \"#utility.yul\":3490:3499   */\n      dup3\n        /* \"#utility.yul\":3486:3504   */\n      add\n        /* \"#utility.yul\":3478:3504   */\n      swap1\n      pop\n        /* \"#utility.yul\":3550:3559   */\n      dup2\n        /* \"#utility.yul\":3544:3548   */\n      dup2\n        /* \"#utility.yul\":3540:3560   */\n      sub\n        /* \"#utility.yul\":3536:3537   */\n      0x00\n        /* \"#utility.yul\":3525:3534   */\n      dup4\n        /* \"#utility.yul\":3521:3538   */\n      add\n        /* \"#utility.yul\":3514:3561   */\n      mstore\n        /* \"#utility.yul\":3578:3709   */\n      tag_163\n        /* \"#utility.yul\":3704:3708   */\n      dup2\n        /* \"#utility.yul\":3578:3709   */\n      tag_106\n      jump\t// in\n    tag_163:\n        /* \"#utility.yul\":3570:3709   */\n      swap1\n      pop\n        /* \"#utility.yul\":3297:3716   */\n      swap2\n      swap1\n      pop\n      jump\t// out\n        /* \"#utility.yul\":3722:3902   */\n    tag_44:\n        /* \"#utility.yul\":3770:3847   */\n      0x4e487b7100000000000000000000000000000000000000000000000000000000\n        /* \"#utility.yul\":3767:3768   */\n      0x00\n        /* \"#utility.yul\":3760:3848   */\n      mstore\n        /* \"#utility.yul\":3867:3871   */\n      0x32\n        /* \"#utility.yul\":3864:3865   */\n      0x04\n        /* \"#utility.yul\":3857:3872   */\n      mstore\n        /* \"#utility.yul\":3891:3895   */\n      0x24\n        /* \"#utility.yul\":3888:3889   */\n      0x00\n        /* \"#utility.yul\":3881:3896   */\n      revert\n        /* \"#utility.yul\":3908:4088   */\n    tag_48:\n        /* \"#utility.yul\":3956:4033   */\n      0x4e487b7100000000000000000000000000000000000000000000000000000000\n        /* \"#utility.yul\":3953:3954   */\n      0x00\n        /* \"#utility.yul\":3946:4034   */\n      mstore\n        /* \"#utility.yul\":4053:4057   */\n      0x41\n        /* \"#utility.yul\":4050:4051   */\n      0x04\n        /* \"#utility.yul\":4043:4058   */\n      mstore\n        /* \"#utility.yul\":4077:4081   */\n      0x24\n        /* \"#utility.yul\":4074:4075   */\n      0x00\n        /* \"#utility.yul\":4067:4082   */\n      revert\n        /* \"#utility.yul\":4094:4241   */\n    tag_107:\n        /* \"#utility.yul\":4195:4206   */\n      0x00\n        /* \"#utility.yul\":4232:4235   */\n      dup2\n        /* \"#utility.yul\":4217:4235   */\n      swap1\n      pop\n        /* \"#utility.yul\":4094:4241   */\n      swap3\n      swap2\n      pop\n      pop\n      jump\t// out\n        /* \"#utility.yul\":4247:4361   */\n    tag_108:\n      pop\n      jump\t// out\n        /* \"#utility.yul\":4367:4765   */\n    tag_109:\n        /* \"#utility.yul\":4526:4529   */\n      0x00\n        /* \"#utility.yul\":4547:4630   */\n      tag_169\n        /* \"#utility.yul\":4628:4629   */\n      0x00\n        /* \"#utility.yul\":4623:4626   */\n      dup4\n        /* \"#utility.yul\":4547:4630   */\n      tag_107\n      jump\t// in\n    tag_169:\n        /* \"#utility.yul\":4540:4630   */\n      swap2\n      pop\n        /* \"#utility.yul\":4639:4732   */\n      tag_170\n        /* \"#utility.yul\":4728:4731   */\n      dup3\n        /* \"#utility.yul\":4639:4732   */\n      tag_108\n      jump\t// in\n    tag_170:\n        /* \"#utility.yul\":4757:4758   */\n      0x00\n        /* \"#utility.yul\":4752:4755   */\n      dup3\n        /* \"#utility.yul\":4748:4759   */\n      add\n        /* \"#utility.yul\":4741:4759   */\n      swap1\n      pop\n        /* \"#utility.yul\":4367:4765   */\n      swap2\n      swap1\n      pop\n      jump\t// out\n        /* \"#utility.yul\":4771:5150   */\n    tag_53:\n        /* \"#utility.yul\":4955:4958   */\n      0x00\n        /* \"#utility.yul\":4977:5124   */\n      tag_172\n        /* \"#utility.yul\":5120:5123   */\n      dup3\n        /* \"#utility.yul\":4977:5124   */\n      tag_109\n      jump\t// in\n    tag_172:\n        /* \"#utility.yul\":4970:5124   */\n      swap2\n      pop\n        /* \"#utility.yul\":5141:5144   */\n      dup2\n        /* \"#utility.yul\":5134:5144   */\n      swap1\n      pop\n        /* \"#utility.yul\":4771:5150   */\n      swap2\n      swap1\n      pop\n      jump\t// out\n        /* \"#utility.yul\":5156:5317   */\n    tag_110:\n        /* \"#utility.yul\":5296:5309   */\n      0x43616c6c204661696c6564000000000000000000000000000000000000000000\n        /* \"#utility.yul\":5292:5293   */\n      0x00\n        /* \"#utility.yul\":5284:5290   */\n      dup3\n        /* \"#utility.yul\":5280:5294   */\n      add\n        /* \"#utility.yul\":5273:5310   */\n      mstore\n        /* \"#utility.yul\":5156:5317   */\n      pop\n      jump\t// out\n        /* \"#utility.yul\":5323:5689   */\n    tag_111:\n        /* \"#utility.yul\":5465:5468   */\n      0x00\n        /* \"#utility.yul\":5486:5553   */\n      tag_175\n        /* \"#utility.yul\":5550:5552   */\n      0x0b\n        /* \"#utility.yul\":5545:5548   */\n      dup4\n        /* \"#utility.yul\":5486:5553   */\n      tag_104\n      jump\t// in\n    tag_175:\n        /* \"#utility.yul\":5479:5553   */\n      swap2\n      pop\n        /* \"#utility.yul\":5562:5655   */\n      tag_176\n        /* \"#utility.yul\":5651:5654   */\n      dup3\n        /* \"#utility.yul\":5562:5655   */\n      tag_110\n      jump\t// in\n    tag_176:\n        /* \"#utility.yul\":5680:5682   */\n      0x20\n        /* \"#utility.yul\":5675:5678   */\n      dup3\n        /* \"#utility.yul\":5671:5683   */\n      add\n        /* \"#utility.yul\":5664:5683   */\n      swap1\n      pop\n        /* \"#utility.yul\":5323:5689   */\n      swap2\n      swap1\n      pop\n      jump\t// out\n        /* \"#utility.yul\":5695:6114   */\n    tag_59:\n        /* \"#utility.yul\":5861:5865   */\n      0x00\n        /* \"#utility.yul\":5899:5901   */\n      0x20\n        /* \"#utility.yul\":5888:5897   */\n      dup3\n        /* \"#utility.yul\":5884:5902   */\n      add\n        /* \"#utility.yul\":5876:5902   */\n      swap1\n      pop\n        /* \"#utility.yul\":5948:5957   */\n      dup2\n        /* \"#utility.yul\":5942:5946   */\n      dup2\n        /* \"#utility.yul\":5938:5958   */\n      sub\n        /* \"#utility.yul\":5934:5935   */\n      0x00\n        /* \"#utility.yul\":5923:5932   */\n      dup4\n        /* \"#utility.yul\":5919:5936   */\n      add\n        /* \"#utility.yul\":5912:5959   */\n      mstore\n        /* \"#utility.yul\":5976:6107   */\n      tag_178\n        /* \"#utility.yul\":6102:6106   */\n      dup2\n        /* \"#utility.yul\":5976:6107   */\n      tag_111\n      jump\t// in\n    tag_178:\n        /* \"#utility.yul\":5968:6107   */\n      swap1\n      pop\n        /* \"#utility.yul\":5695:6114   */\n      swap2\n      swap1\n      pop\n      jump\t// out\n        /* \"#utility.yul\":6120:6299   */\n    tag_112:\n        /* \"#utility.yul\":6260:6291   */\n      0x20596f75206469646e27742073656e7420656e6f756768204554482e20000000\n        /* \"#utility.yul\":6256:6257   */\n      0x00\n        /* \"#utility.yul\":6248:6254   */\n      dup3\n        /* \"#utility.yul\":6244:6258   */\n      add\n        /* \"#utility.yul\":6237:6292   */\n      mstore\n        /* \"#utility.yul\":6120:6299   */\n      pop\n      jump\t// out\n        /* \"#utility.yul\":6305:6671   */\n    tag_113:\n        /* \"#utility.yul\":6447:6450   */\n      0x00\n        /* \"#utility.yul\":6468:6535   */\n      tag_181\n        /* \"#utility.yul\":6532:6534   */\n      0x1d\n        /* \"#utility.yul\":6527:6530   */\n      dup4\n        /* \"#utility.yul\":6468:6535   */\n      tag_104\n      jump\t// in\n    tag_181:\n        /* \"#utility.yul\":6461:6535   */\n      swap2\n      pop\n        /* \"#utility.yul\":6544:6637   */\n      tag_182\n        /* \"#utility.yul\":6633:6636   */\n      dup3\n        /* \"#utility.yul\":6544:6637   */\n      tag_112\n      jump\t// in\n    tag_182:\n        /* \"#utility.yul\":6662:6664   */\n      0x20\n        /* \"#utility.yul\":6657:6660   */\n      dup3\n        /* \"#utility.yul\":6653:6665   */\n      add\n        /* \"#utility.yul\":6646:6665   */\n      swap1\n      pop\n        /* \"#utility.yul\":6305:6671   */\n      swap2\n      swap1\n      pop\n      jump\t// out\n        /* \"#utility.yul\":6677:7096   */\n    tag_65:\n        /* \"#utility.yul\":6843:6847   */\n      0x00\n        /* \"#utility.yul\":6881:6883   */\n      0x20\n        /* \"#utility.yul\":6870:6879   */\n      dup3\n        /* \"#utility.yul\":6866:6884   */\n      add\n        /* \"#utility.yul\":6858:6884   */\n      swap1\n      pop\n        /* \"#utility.yul\":6930:6939   */\n      dup2\n        /* \"#utility.yul\":6924:6928   */\n      dup2\n        /* \"#utility.yul\":6920:6940   */\n      sub\n        /* \"#utility.yul\":6916:6917   */\n      0x00\n        /* \"#utility.yul\":6905:6914   */\n      dup4\n        /* \"#utility.yul\":6901:6918   */\n      add\n        /* \"#utility.yul\":6894:6941   */\n      mstore\n        /* \"#utility.yul\":6958:7089   */\n      tag_184\n        /* \"#utility.yul\":7084:7088   */\n      dup2\n        /* \"#utility.yul\":6958:7089   */\n      tag_113\n      jump\t// in\n    tag_184:\n        /* \"#utility.yul\":6950:7089   */\n      swap1\n      pop\n        /* \"#utility.yul\":6677:7096   */\n      swap2\n      swap1\n      pop\n      jump\t// out\n        /* \"#utility.yul\":7102:7282   */\n    tag_114:\n        /* \"#utility.yul\":7150:7227   */\n      0x4e487b7100000000000000000000000000000000000000000000000000000000\n        /* \"#utility.yul\":7147:7148   */\n      0x00\n        /* \"#utility.yul\":7140:7228   */\n      mstore\n        /* \"#utility.yul\":7247:7251   */\n      0x11\n        /* \"#utility.yul\":7244:7245   */\n      0x04\n        /* \"#utility.yul\":7237:7252   */\n      mstore\n        /* \"#utility.yul\":7271:7275   */\n      0x24\n        /* \"#utility.yul\":7268:7269   */\n      0x00\n        /* \"#utility.yul\":7261:7276   */\n      revert\n        /* \"#utility.yul\":7288:7479   */\n    tag_68:\n        /* \"#utility.yul\":7328:7331   */\n      0x00\n        /* \"#utility.yul\":7347:7367   */\n      tag_187\n        /* \"#utility.yul\":7365:7366   */\n      dup3\n        /* \"#utility.yul\":7347:7367   */\n      tag_100\n      jump\t// in\n    tag_187:\n        /* \"#utility.yul\":7342:7367   */\n      swap2\n      pop\n        /* \"#utility.yul\":7381:7401   */\n      tag_188\n        /* \"#utility.yul\":7399:7400   */\n      dup4\n        /* \"#utility.yul\":7381:7401   */\n      tag_100\n      jump\t// in\n    tag_188:\n        /* \"#utility.yul\":7376:7401   */\n      swap3\n      pop\n        /* \"#utility.yul\":7424:7425   */\n      dup3\n        /* \"#utility.yul\":7421:7422   */\n      dup3\n        /* \"#utility.yul\":7417:7426   */\n      add\n        /* \"#utility.yul\":7410:7426   */\n      swap1\n      pop\n        /* \"#utility.yul\":7445:7448   */\n      dup1\n        /* \"#utility.yul\":7442:7443   */\n      dup3\n        /* \"#utility.yul\":7439:7449   */\n      gt\n        /* \"#utility.yul\":7436:7472   */\n      iszero\n      tag_189\n      jumpi\n        /* \"#utility.yul\":7452:7470   */\n      tag_190\n      tag_114\n      jump\t// in\n    tag_190:\n        /* \"#utility.yul\":7436:7472   */\n    tag_189:\n        /* \"#utility.yul\":7288:7479   */\n      swap3\n      swap2\n      pop\n      pop\n      jump\t// out\n        /* \"#utility.yul\":7485:7895   */\n    tag_75:\n        /* \"#utility.yul\":7525:7532   */\n      0x00\n        /* \"#utility.yul\":7548:7568   */\n      tag_192\n        /* \"#utility.yul\":7566:7567   */\n      dup3\n        /* \"#utility.yul\":7548:7568   */\n      tag_100\n      jump\t// in\n    tag_192:\n        /* \"#utility.yul\":7543:7568   */\n      swap2\n      pop\n        /* \"#utility.yul\":7582:7602   */\n      tag_193\n        /* \"#utility.yul\":7600:7601   */\n      dup4\n        /* \"#utility.yul\":7582:7602   */\n      tag_100\n      jump\t// in\n    tag_193:\n        /* \"#utility.yul\":7577:7602   */\n      swap3\n      pop\n        /* \"#utility.yul\":7637:7638   */\n      dup3\n        /* \"#utility.yul\":7634:7635   */\n      dup3\n        /* \"#utility.yul\":7630:7639   */\n      mul\n        /* \"#utility.yul\":7659:7689   */\n      tag_194\n        /* \"#utility.yul\":7677:7688   */\n      dup2\n        /* \"#utility.yul\":7659:7689   */\n      tag_100\n      jump\t// in\n    tag_194:\n        /* \"#utility.yul\":7648:7689   */\n      swap2\n      pop\n        /* \"#utility.yul\":7838:7839   */\n      dup3\n        /* \"#utility.yul\":7829:7836   */\n      dup3\n        /* \"#utility.yul\":7825:7840   */\n      div\n        /* \"#utility.yul\":7822:7823   */\n      dup5\n        /* \"#utility.yul\":7819:7841   */\n      eq\n        /* \"#utility.yul\":7799:7800   */\n      dup4\n        /* \"#utility.yul\":7792:7801   */\n      iszero\n        /* \"#utility.yul\":7772:7855   */\n      or\n        /* \"#utility.yul\":7749:7888   */\n      tag_195\n      jumpi\n        /* \"#utility.yul\":7868:7886   */\n      tag_196\n      tag_114\n      jump\t// in\n    tag_196:\n        /* \"#utility.yul\":7749:7888   */\n    tag_195:\n        /* \"#utility.yul\":7533:7895   */\n      pop\n        /* \"#utility.yul\":7485:7895   */\n      swap3\n      swap2\n      pop\n      pop\n      jump\t// out\n        /* \"#utility.yul\":7901:8081   */\n    tag_115:\n        /* \"#utility.yul\":7949:8026   */\n      0x4e487b7100000000000000000000000000000000000000000000000000000000\n        /* \"#utility.yul\":7946:7947   */\n      0x00\n        /* \"#utility.yul\":7939:8027   */\n      mstore\n        /* \"#utility.yul\":8046:8050   */\n      0x12\n        /* \"#utility.yul\":8043:8044   */\n      0x04\n        /* \"#utility.yul\":8036:8051   */\n      mstore\n        /* \"#utility.yul\":8070:8074   */\n      0x24\n        /* \"#utility.yul\":8067:8068   */\n      0x00\n        /* \"#utility.yul\":8060:8075   */\n      revert\n        /* \"#utility.yul\":8087:8272   */\n    tag_77:\n        /* \"#utility.yul\":8127:8128   */\n      0x00\n        /* \"#utility.yul\":8144:8164   */\n      tag_199\n        /* \"#utility.yul\":8162:8163   */\n      dup3\n        /* \"#utility.yul\":8144:8164   */\n      tag_100\n      jump\t// in\n    tag_199:\n        /* \"#utility.yul\":8139:8164   */\n      swap2\n      pop\n        /* \"#utility.yul\":8178:8198   */\n      tag_200\n        /* \"#utility.yul\":8196:8197   */\n      dup4\n        /* \"#utility.yul\":8178:8198   */\n      tag_100\n      jump\t// in\n    tag_200:\n        /* \"#utility.yul\":8173:8198   */\n      swap3\n      pop\n        /* \"#utility.yul\":8217:8218   */\n      dup3\n        /* \"#utility.yul\":8207:8242   */\n      tag_201\n      jumpi\n        /* \"#utility.yul\":8222:8240   */\n      tag_202\n      tag_115\n      jump\t// in\n    tag_202:\n        /* \"#utility.yul\":8207:8242   */\n    tag_201:\n        /* \"#utility.yul\":8264:8265   */\n      dup3\n        /* \"#utility.yul\":8261:8262   */\n      dup3\n        /* \"#utility.yul\":8257:8266   */\n      div\n        /* \"#utility.yul\":8252:8266   */\n      swap1\n      pop\n        /* \"#utility.yul\":8087:8272   */\n      swap3\n      swap2\n      pop\n      pop\n      jump\t// out\n        /* \"#utility.yul\":8278:8383   */\n    tag_116:\n        /* \"#utility.yul\":8314:8321   */\n      0x00\n        /* \"#utility.yul\":8354:8376   */\n      0xffffffffffffffffffff\n        /* \"#utility.yul\":8347:8352   */\n      dup3\n        /* \"#utility.yul\":8343:8377   */\n      and\n        /* \"#utility.yul\":8332:8377   */\n      swap1\n      pop\n        /* \"#utility.yul\":8278:8383   */\n      swap2\n      swap1\n      pop\n      jump\t// out\n        /* \"#utility.yul\":8389:8509   */\n    tag_117:\n        /* \"#utility.yul\":8461:8484   */\n      tag_205\n        /* \"#utility.yul\":8478:8483   */\n      dup2\n        /* \"#utility.yul\":8461:8484   */\n      tag_116\n      jump\t// in\n    tag_205:\n        /* \"#utility.yul\":8454:8459   */\n      dup2\n        /* \"#utility.yul\":8451:8485   */\n      eq\n        /* \"#utility.yul\":8441:8503   */\n      tag_206\n      jumpi\n        /* \"#utility.yul\":8499:8500   */\n      0x00\n        /* \"#utility.yul\":8496:8497   */\n      dup1\n        /* \"#utility.yul\":8489:8501   */\n      revert\n        /* \"#utility.yul\":8441:8503   */\n    tag_206:\n        /* \"#utility.yul\":8389:8509   */\n      pop\n      jump\t// out\n        /* \"#utility.yul\":8515:8656   */\n    tag_118:\n        /* \"#utility.yul\":8571:8576   */\n      0x00\n        /* \"#utility.yul\":8602:8608   */\n      dup2\n        /* \"#utility.yul\":8596:8609   */\n      mload\n        /* \"#utility.yul\":8587:8609   */\n      swap1\n      pop\n        /* \"#utility.yul\":8618:8650   */\n      tag_208\n        /* \"#utility.yul\":8644:8649   */\n      dup2\n        /* \"#utility.yul\":8618:8650   */\n      tag_117\n      jump\t// in\n    tag_208:\n        /* \"#utility.yul\":8515:8656   */\n      swap3\n      swap2\n      pop\n      pop\n      jump\t// out\n        /* \"#utility.yul\":8662:8738   */\n    tag_119:\n        /* \"#utility.yul\":8698:8705   */\n      0x00\n        /* \"#utility.yul\":8727:8732   */\n      dup2\n        /* \"#utility.yul\":8716:8732   */\n      swap1\n      pop\n        /* \"#utility.yul\":8662:8738   */\n      swap2\n      swap1\n      pop\n      jump\t// out\n        /* \"#utility.yul\":8744:8864   */\n    tag_120:\n        /* \"#utility.yul\":8816:8839   */\n      tag_211\n        /* \"#utility.yul\":8833:8838   */\n      dup2\n        /* \"#utility.yul\":8816:8839   */\n      tag_119\n      jump\t// in\n    tag_211:\n        /* \"#utility.yul\":8809:8814   */\n      dup2\n        /* \"#utility.yul\":8806:8840   */\n      eq\n        /* \"#utility.yul\":8796:8858   */\n      tag_212\n      jumpi\n        /* \"#utility.yul\":8854:8855   */\n      0x00\n        /* \"#utility.yul\":8851:8852   */\n      dup1\n        /* \"#utility.yul\":8844:8856   */\n      revert\n        /* \"#utility.yul\":8796:8858   */\n    tag_212:\n        /* \"#utility.yul\":8744:8864   */\n      pop\n      jump\t// out\n        /* \"#utility.yul\":8870:9011   */\n    tag_121:\n        /* \"#utility.yul\":8926:8931   */\n      0x00\n        /* \"#utility.yul\":8957:8963   */\n      dup2\n        /* \"#utility.yul\":8951:8964   */\n      mload\n        /* \"#utility.yul\":8942:8964   */\n      swap1\n      pop\n        /* \"#utility.yul\":8973:9005   */\n      tag_214\n        /* \"#utility.yul\":8999:9004   */\n      dup2\n        /* \"#utility.yul\":8973:9005   */\n      tag_120\n      jump\t// in\n    tag_214:\n        /* \"#utility.yul\":8870:9011   */\n      swap3\n      swap2\n      pop\n      pop\n      jump\t// out\n        /* \"#utility.yul\":9017:9160   */\n    tag_122:\n        /* \"#utility.yul\":9074:9079   */\n      0x00\n        /* \"#utility.yul\":9105:9111   */\n      dup2\n        /* \"#utility.yul\":9099:9112   */\n      mload\n        /* \"#utility.yul\":9090:9112   */\n      swap1\n      pop\n        /* \"#utility.yul\":9121:9154   */\n      tag_216\n        /* \"#utility.yul\":9148:9153   */\n      dup2\n        /* \"#utility.yul\":9121:9154   */\n      tag_102\n      jump\t// in\n    tag_216:\n        /* \"#utility.yul\":9017:9160   */\n      swap3\n      swap2\n      pop\n      pop\n      jump\t// out\n        /* \"#utility.yul\":9166:10137   */\n    tag_82:\n        /* \"#utility.yul\":9269:9275   */\n      0x00\n        /* \"#utility.yul\":9277:9283   */\n      dup1\n        /* \"#utility.yul\":9285:9291   */\n      0x00\n        /* \"#utility.yul\":9293:9299   */\n      dup1\n        /* \"#utility.yul\":9301:9307   */\n      0x00\n        /* \"#utility.yul\":9350:9353   */\n      0xa0\n        /* \"#utility.yul\":9338:9347   */\n      dup7\n        /* \"#utility.yul\":9329:9336   */\n      dup9\n        /* \"#utility.yul\":9325:9348   */\n      sub\n        /* \"#utility.yul\":9321:9354   */\n      slt\n        /* \"#utility.yul\":9318:9438   */\n      iszero\n      tag_218\n      jumpi\n        /* \"#utility.yul\":9357:9436   */\n      tag_219\n      tag_96\n      jump\t// in\n    tag_219:\n        /* \"#utility.yul\":9318:9438   */\n    tag_218:\n        /* \"#utility.yul\":9477:9478   */\n      0x00\n        /* \"#utility.yul\":9502:9565   */\n      tag_220\n        /* \"#utility.yul\":9557:9564   */\n      dup9\n        /* \"#utility.yul\":9548:9554   */\n      dup3\n        /* \"#utility.yul\":9537:9546   */\n      dup10\n        /* \"#utility.yul\":9533:9555   */\n      add\n        /* \"#utility.yul\":9502:9565   */\n      tag_118\n      jump\t// in\n    tag_220:\n        /* \"#utility.yul\":9492:9565   */\n      swap6\n      pop\n        /* \"#utility.yul\":9448:9575   */\n      pop\n        /* \"#utility.yul\":9614:9616   */\n      0x20\n        /* \"#utility.yul\":9640:9703   */\n      tag_221\n        /* \"#utility.yul\":9695:9702   */\n      dup9\n        /* \"#utility.yul\":9686:9692   */\n      dup3\n        /* \"#utility.yul\":9675:9684   */\n      dup10\n        /* \"#utility.yul\":9671:9693   */\n      add\n        /* \"#utility.yul\":9640:9703   */\n      tag_121\n      jump\t// in\n    tag_221:\n        /* \"#utility.yul\":9630:9703   */\n      swap5\n      pop\n        /* \"#utility.yul\":9585:9713   */\n      pop\n        /* \"#utility.yul\":9752:9754   */\n      0x40\n        /* \"#utility.yul\":9778:9842   */\n      tag_222\n        /* \"#utility.yul\":9834:9841   */\n      dup9\n        /* \"#utility.yul\":9825:9831   */\n      dup3\n        /* \"#utility.yul\":9814:9823   */\n      dup10\n        /* \"#utility.yul\":9810:9832   */\n      add\n        /* \"#utility.yul\":9778:9842   */\n      tag_122\n      jump\t// in\n    tag_222:\n        /* \"#utility.yul\":9768:9842   */\n      swap4\n      pop\n        /* \"#utility.yul\":9723:9852   */\n      pop\n        /* \"#utility.yul\":9891:9893   */\n      0x60\n        /* \"#utility.yul\":9917:9981   */\n      tag_223\n        /* \"#utility.yul\":9973:9980   */\n      dup9\n        /* \"#utility.yul\":9964:9970   */\n      dup3\n        /* \"#utility.yul\":9953:9962   */\n      dup10\n        /* \"#utility.yul\":9949:9971   */\n      add\n        /* \"#utility.yul\":9917:9981   */\n      tag_122\n      jump\t// in\n    tag_223:\n        /* \"#utility.yul\":9907:9981   */\n      swap3\n      pop\n        /* \"#utility.yul\":9862:9991   */\n      pop\n        /* \"#utility.yul\":10030:10033   */\n      0x80\n        /* \"#utility.yul\":10057:10120   */\n      tag_224\n        /* \"#utility.yul\":10112:10119   */\n      dup9\n        /* \"#utility.yul\":10103:10109   */\n      dup3\n        /* \"#utility.yul\":10092:10101   */\n      dup10\n        /* \"#utility.yul\":10088:10110   */\n      add\n        /* \"#utility.yul\":10057:10120   */\n      tag_118\n      jump\t// in\n    tag_224:\n        /* \"#utility.yul\":10047:10120   */\n      swap2\n      pop\n        /* \"#utility.yul\":10001:10130   */\n      pop\n        /* \"#utility.yul\":9166:10137   */\n      swap3\n      swap6\n      pop\n      swap3\n      swap6\n      swap1\n      swap4\n      pop\n      jump\t// out\n        /* \"#utility.yul\":10143:10699   */\n    tag_84:\n        /* \"#utility.yul\":10182:10189   */\n      0x00\n        /* \"#utility.yul\":10205:10224   */\n      tag_226\n        /* \"#utility.yul\":10222:10223   */\n      dup3\n        /* \"#utility.yul\":10205:10224   */\n      tag_119\n      jump\t// in\n    tag_226:\n        /* \"#utility.yul\":10200:10224   */\n      swap2\n      pop\n        /* \"#utility.yul\":10238:10257   */\n      tag_227\n        /* \"#utility.yul\":10255:10256   */\n      dup4\n        /* \"#utility.yul\":10238:10257   */\n      tag_119\n      jump\t// in\n    tag_227:\n        /* \"#utility.yul\":10233:10257   */\n      swap3\n      pop\n        /* \"#utility.yul\":10292:10293   */\n      dup3\n        /* \"#utility.yul\":10289:10290   */\n      dup3\n        /* \"#utility.yul\":10285:10294   */\n      mul\n        /* \"#utility.yul\":10314:10343   */\n      tag_228\n        /* \"#utility.yul\":10331:10342   */\n      dup2\n        /* \"#utility.yul\":10314:10343   */\n      tag_119\n      jump\t// in\n    tag_228:\n        /* \"#utility.yul\":10303:10343   */\n      swap2\n      pop\n        /* \"#utility.yul\":10401:10467   */\n      0x8000000000000000000000000000000000000000000000000000000000000000\n        /* \"#utility.yul\":10398:10399   */\n      dup5\n        /* \"#utility.yul\":10395:10468   */\n      eq\n        /* \"#utility.yul\":10391:10392   */\n      0x00\n        /* \"#utility.yul\":10388:10389   */\n      dup5\n        /* \"#utility.yul\":10384:10393   */\n      slt\n        /* \"#utility.yul\":10380:10469   */\n      and\n        /* \"#utility.yul\":10377:10492   */\n      iszero\n      tag_229\n      jumpi\n        /* \"#utility.yul\":10472:10490   */\n      tag_230\n      tag_114\n      jump\t// in\n    tag_230:\n        /* \"#utility.yul\":10377:10492   */\n    tag_229:\n        /* \"#utility.yul\":10642:10643   */\n      dup3\n        /* \"#utility.yul\":10633:10640   */\n      dup3\n        /* \"#utility.yul\":10628:10644   */\n      sdiv\n        /* \"#utility.yul\":10625:10626   */\n      dup5\n        /* \"#utility.yul\":10622:10645   */\n      eq\n        /* \"#utility.yul\":10602:10603   */\n      dup4\n        /* \"#utility.yul\":10595:10604   */\n      iszero\n        /* \"#utility.yul\":10575:10659   */\n      or\n        /* \"#utility.yul\":10552:10692   */\n      tag_231\n      jumpi\n        /* \"#utility.yul\":10672:10690   */\n      tag_232\n      tag_114\n      jump\t// in\n    tag_232:\n        /* \"#utility.yul\":10552:10692   */\n    tag_231:\n        /* \"#utility.yul\":10190:10699   */\n      pop\n        /* \"#utility.yul\":10143:10699   */\n      swap3\n      swap2\n      pop\n      pop\n      jump\t// out\n\n    auxdata: 0xa26469706673582212200dfc7ff05555806068d135587fab78320dd74681a6d2e7f640ed8ba041c7c61764736f6c634300081a0033\n}\n",
				"bytecode": {
					"linkReferences": {},
					"object": "6080604052674563918244f400005f553480156019575f80fd5b503360035f6101000a81548173ffffffffffffffffffffffffffffffffffffffff021916908373ffffffffffffffffffffffffffffffffffffffff160217905550610c37806100675f395ff3fe608060405260043610610054575f3560e01c80633ccfd60b146100585780638da5cb5b1461006e578063942ccc9814610098578063b60d4288146100d4578063dc0d3dff146100de578063dc992aa01461011a575b5f80fd5b348015610063575f80fd5b5061006c610144565b005b348015610079575f80fd5b5061008261037c565b60405161008f91906106b5565b60405180910390f35b3480156100a3575f80fd5b506100be60048036038101906100b991906106fc565b6103a1565b6040516100cb919061073f565b60405180910390f35b6100dc6103b6565b005b3480156100e9575f80fd5b5061010460048036038101906100ff9190610782565b6104b7565b60405161011191906106b5565b60405180910390f35b348015610125575f80fd5b5061012e6104f2565b60405161013b919061073f565b60405180910390f35b60035f9054906101000a900473ffffffffffffffffffffffffffffffffffffffff1673ffffffffffffffffffffffffffffffffffffffff163373ffffffffffffffffffffffffffffffffffffffff16146101d3576040517f08c379a00000000000000000000000000000000000000000000000000000000081526004016101ca90610807565b60405180910390fd5b5f5b600180549050811015610271575f600182815481106101f7576101f6610825565b5b905f5260205f20015f9054906101000a900473ffffffffffffffffffffffffffffffffffffffff1690505f60025f8373ffffffffffffffffffffffffffffffffffffffff1673ffffffffffffffffffffffffffffffffffffffff1681526020019081526020015f20819055505080806001019150506101d5565b505f67ffffffffffffffff81111561028c5761028b610852565b5b6040519080825280602002602001820160405280156102ba5781602001602082028036833780820191505090505b50600190805190602001906102d09291906105d4565b505f3373ffffffffffffffffffffffffffffffffffffffff16476040516102f6906108ac565b5f6040518083038185875af1925050503d805f8114610330576040519150601f19603f3d011682016040523d82523d5f602084013e610335565b606091505b5050905080610379576040517f08c379a00000000000000000000000000000000000000000000000000000000081526004016103709061090a565b60405180910390fd5b50565b60035f9054906101000a900473ffffffffffffffffffffffffffffffffffffffff1681565b6002602052805f5260405f205f915090505481565b5f546103c1346104f7565b1015610402576040517f08c379a00000000000000000000000000000000000000000000000000000000081526004016103f990610972565b60405180910390fd5b600133908060018154018082558091505060019003905f5260205f20015f9091909190916101000a81548173ffffffffffffffffffffffffffffffffffffffff021916908373ffffffffffffffffffffffffffffffffffffffff1602179055503460025f3373ffffffffffffffffffffffffffffffffffffffff1673ffffffffffffffffffffffffffffffffffffffff1681526020019081526020015f205f8282546104ae91906109bd565b92505081905550565b600181815481106104c6575f80fd5b905f5260205f20015f915054906101000a900473ffffffffffffffffffffffffffffffffffffffff1681565b5f5481565b5f8061050161052f565b90505f670de0b6b3a7640000848361051991906109f0565b6105239190610a5e565b90508092505050919050565b5f8073694aa1769357215de4fac081bf1f309adc32530690505f8173ffffffffffffffffffffffffffffffffffffffff1663feaf968c6040518163ffffffff1660e01b815260040160a060405180830381865afa158015610592573d5f803e3d5ffd5b505050506040513d601f19601f820116820180604052508101906105b69190610b14565b5050509150506402540be400816105cd9190610b8b565b9250505090565b828054828255905f5260205f2090810192821561064a579160200282015b82811115610649578251825f6101000a81548173ffffffffffffffffffffffffffffffffffffffff021916908373ffffffffffffffffffffffffffffffffffffffff160217905550916020019190600101906105f2565b5b509050610657919061065b565b5090565b5b80821115610672575f815f90555060010161065c565b5090565b5f73ffffffffffffffffffffffffffffffffffffffff82169050919050565b5f61069f82610676565b9050919050565b6106af81610695565b82525050565b5f6020820190506106c85f8301846106a6565b92915050565b5f80fd5b6106db81610695565b81146106e5575f80fd5b50565b5f813590506106f6816106d2565b92915050565b5f60208284031215610711576107106106ce565b5b5f61071e848285016106e8565b91505092915050565b5f819050919050565b61073981610727565b82525050565b5f6020820190506107525f830184610730565b92915050565b61076181610727565b811461076b575f80fd5b50565b5f8135905061077c81610758565b92915050565b5f60208284031215610797576107966106ce565b5b5f6107a48482850161076e565b91505092915050565b5f82825260208201905092915050565b7f4f6e6c79206f776e65722063616e2057697468647261770000000000000000005f82015250565b5f6107f16017836107ad565b91506107fc826107bd565b602082019050919050565b5f6020820190508181035f83015261081e816107e5565b9050919050565b7f4e487b71000000000000000000000000000000000000000000000000000000005f52603260045260245ffd5b7f4e487b71000000000000000000000000000000000000000000000000000000005f52604160045260245ffd5b5f81905092915050565b50565b5f6108975f8361087f565b91506108a282610889565b5f82019050919050565b5f6108b68261088c565b9150819050919050565b7f43616c6c204661696c65640000000000000000000000000000000000000000005f82015250565b5f6108f4600b836107ad565b91506108ff826108c0565b602082019050919050565b5f6020820190508181035f830152610921816108e8565b9050919050565b7f20596f75206469646e27742073656e7420656e6f756768204554482e200000005f82015250565b5f61095c601d836107ad565b915061096782610928565b602082019050919050565b5f6020820190508181035f83015261098981610950565b9050919050565b7f4e487b71000000000000000000000000000000000000000000000000000000005f52601160045260245ffd5b5f6109c782610727565b91506109d283610727565b92508282019050808211156109ea576109e9610990565b5b92915050565b5f6109fa82610727565b9150610a0583610727565b9250828202610a1381610727565b91508282048414831517610a2a57610a29610990565b5b5092915050565b7f4e487b71000000000000000000000000000000000000000000000000000000005f52601260045260245ffd5b5f610a6882610727565b9150610a7383610727565b925082610a8357610a82610a31565b5b828204905092915050565b5f69ffffffffffffffffffff82169050919050565b610aac81610a8e565b8114610ab6575f80fd5b50565b5f81519050610ac781610aa3565b92915050565b5f819050919050565b610adf81610acd565b8114610ae9575f80fd5b50565b5f81519050610afa81610ad6565b92915050565b5f81519050610b0e81610758565b92915050565b5f805f805f60a08688031215610b2d57610b2c6106ce565b5b5f610b3a88828901610ab9565b9550506020610b4b88828901610aec565b9450506040610b5c88828901610b00565b9350506060610b6d88828901610b00565b9250506080610b7e88828901610ab9565b9150509295509295909350565b5f610b9582610acd565b9150610ba083610acd565b9250828202610bae81610acd565b91507f800000000000000000000000000000000000000000000000000000000000000084145f84121615610be557610be4610990565b5b8282058414831517610bfa57610bf9610990565b5b509291505056fea26469706673582212200dfc7ff05555806068d135587fab78320dd74681a6d2e7f640ed8ba041c7c61764736f6c634300081a0033",
					"opcodes": "PUSH1 0x80 PUSH1 0x40 MSTORE PUSH8 0x4563918244F40000 PUSH0 SSTORE CALLVALUE DUP1 ISZERO PUSH1 0x19 JUMPI PUSH0 DUP1 REVERT JUMPDEST POP CALLER PUSH1 0x3 PUSH0 PUSH2 0x100 EXP DUP2 SLOAD DUP2 PUSH20 0xFFFFFFFFFFFFFFFFFFFFFFFFFFFFFFFFFFFFFFFF MUL NOT AND SWAP1 DUP4 PUSH20 0xFFFFFFFFFFFFFFFFFFFFFFFFFFFFFFFFFFFFFFFF AND MUL OR SWAP1 SSTORE POP PUSH2 0xC37 DUP1 PUSH2 0x67 PUSH0 CODECOPY PUSH0 RETURN INVALID PUSH1 0x80 PUSH1 0x40 MSTORE PUSH1 0x4 CALLDATASIZE LT PUSH2 0x54 JUMPI PUSH0 CALLDATALOAD PUSH1 0xE0 SHR DUP1 PUSH4 0x3CCFD60B EQ PUSH2 0x58 JUMPI DUP1 PUSH4 0x8DA5CB5B EQ PUSH2 0x6E JUMPI DUP1 PUSH4 0x942CCC98 EQ PUSH2 0x98 JUMPI DUP1 PUSH4 0xB60D4288 EQ PUSH2 0xD4 JUMPI DUP1 PUSH4 0xDC0D3DFF EQ PUSH2 0xDE JUMPI DUP1 PUSH4 0xDC992AA0 EQ PUSH2 0x11A JUMPI JUMPDEST PUSH0 DUP1 REVERT JUMPDEST CALLVALUE DUP1 ISZERO PUSH2 0x63 JUMPI PUSH0 DUP1 REVERT JUMPDEST POP PUSH2 0x6C PUSH2 0x144 JUMP JUMPDEST STOP JUMPDEST CALLVALUE DUP1 ISZERO PUSH2 0x79 JUMPI PUSH0 DUP1 REVERT JUMPDEST POP PUSH2 0x82 PUSH2 0x37C JUMP JUMPDEST PUSH1 0x40 MLOAD PUSH2 0x8F SWAP2 SWAP1 PUSH2 0x6B5 JUMP JUMPDEST PUSH1 0x40 MLOAD DUP1 SWAP2 SUB SWAP1 RETURN JUMPDEST CALLVALUE DUP1 ISZERO PUSH2 0xA3 JUMPI PUSH0 DUP1 REVERT JUMPDEST POP PUSH2 0xBE PUSH1 0x4 DUP1 CALLDATASIZE SUB DUP2 ADD SWAP1 PUSH2 0xB9 SWAP2 SWAP1 PUSH2 0x6FC JUMP JUMPDEST PUSH2 0x3A1 JUMP JUMPDEST PUSH1 0x40 MLOAD PUSH2 0xCB SWAP2 SWAP1 PUSH2 0x73F JUMP JUMPDEST PUSH1 0x40 MLOAD DUP1 SWAP2 SUB SWAP1 RETURN JUMPDEST PUSH2 0xDC PUSH2 0x3B6 JUMP JUMPDEST STOP JUMPDEST CALLVALUE DUP1 ISZERO PUSH2 0xE9 JUMPI PUSH0 DUP1 REVERT JUMPDEST POP PUSH2 0x104 PUSH1 0x4 DUP1 CALLDATASIZE SUB DUP2 ADD SWAP1 PUSH2 0xFF SWAP2 SWAP1 PUSH2 0x782 JUMP JUMPDEST PUSH2 0x4B7 JUMP JUMPDEST PUSH1 0x40 MLOAD PUSH2 0x111 SWAP2 SWAP1 PUSH2 0x6B5 JUMP JUMPDEST PUSH1 0x40 MLOAD DUP1 SWAP2 SUB SWAP1 RETURN JUMPDEST CALLVALUE DUP1 ISZERO PUSH2 0x125 JUMPI PUSH0 DUP1 REVERT JUMPDEST POP PUSH2 0x12E PUSH2 0x4F2 JUMP JUMPDEST PUSH1 0x40 MLOAD PUSH2 0x13B SWAP2 SWAP1 PUSH2 0x73F JUMP JUMPDEST PUSH1 0x40 MLOAD DUP1 SWAP2 SUB SWAP1 RETURN JUMPDEST PUSH1 0x3 PUSH0 SWAP1 SLOAD SWAP1 PUSH2 0x100 EXP SWAP1 DIV PUSH20 0xFFFFFFFFFFFFFFFFFFFFFFFFFFFFFFFFFFFFFFFF AND PUSH20 0xFFFFFFFFFFFFFFFFFFFFFFFFFFFFFFFFFFFFFFFF AND CALLER PUSH20 0xFFFFFFFFFFFFFFFFFFFFFFFFFFFFFFFFFFFFFFFF AND EQ PUSH2 0x1D3 JUMPI PUSH1 0x40 MLOAD PUSH32 0x8C379A000000000000000000000000000000000000000000000000000000000 DUP2 MSTORE PUSH1 0x4 ADD PUSH2 0x1CA SWAP1 PUSH2 0x807 JUMP JUMPDEST PUSH1 0x40 MLOAD DUP1 SWAP2 SUB SWAP1 REVERT JUMPDEST PUSH0 JUMPDEST PUSH1 0x1 DUP1 SLOAD SWAP1 POP DUP2 LT ISZERO PUSH2 0x271 JUMPI PUSH0 PUSH1 0x1 DUP3 DUP2 SLOAD DUP2 LT PUSH2 0x1F7 JUMPI PUSH2 0x1F6 PUSH2 0x825 JUMP JUMPDEST JUMPDEST SWAP1 PUSH0 MSTORE PUSH1 0x20 PUSH0 KECCAK256 ADD PUSH0 SWAP1 SLOAD SWAP1 PUSH2 0x100 EXP SWAP1 DIV PUSH20 0xFFFFFFFFFFFFFFFFFFFFFFFFFFFFFFFFFFFFFFFF AND SWAP1 POP PUSH0 PUSH1 0x2 PUSH0 DUP4 PUSH20 0xFFFFFFFFFFFFFFFFFFFFFFFFFFFFFFFFFFFFFFFF AND PUSH20 0xFFFFFFFFFFFFFFFFFFFFFFFFFFFFFFFFFFFFFFFF AND DUP2 MSTORE PUSH1 0x20 ADD SWAP1 DUP2 MSTORE PUSH1 0x20 ADD PUSH0 KECCAK256 DUP2 SWAP1 SSTORE POP POP DUP1 DUP1 PUSH1 0x1 ADD SWAP2 POP POP PUSH2 0x1D5 JUMP JUMPDEST POP PUSH0 PUSH8 0xFFFFFFFFFFFFFFFF DUP2 GT ISZERO PUSH2 0x28C JUMPI PUSH2 0x28B PUSH2 0x852 JUMP JUMPDEST JUMPDEST PUSH1 0x40 MLOAD SWAP1 DUP1 DUP3 MSTORE DUP1 PUSH1 0x20 MUL PUSH1 0x20 ADD DUP3 ADD PUSH1 0x40 MSTORE DUP1 ISZERO PUSH2 0x2BA JUMPI DUP2 PUSH1 0x20 ADD PUSH1 0x20 DUP3 MUL DUP1 CALLDATASIZE DUP4 CALLDATACOPY DUP1 DUP3 ADD SWAP2 POP POP SWAP1 POP JUMPDEST POP PUSH1 0x1 SWAP1 DUP1 MLOAD SWAP1 PUSH1 0x20 ADD SWAP1 PUSH2 0x2D0 SWAP3 SWAP2 SWAP1 PUSH2 0x5D4 JUMP JUMPDEST POP PUSH0 CALLER PUSH20 0xFFFFFFFFFFFFFFFFFFFFFFFFFFFFFFFFFFFFFFFF AND SELFBALANCE PUSH1 0x40 MLOAD PUSH2 0x2F6 SWAP1 PUSH2 0x8AC JUMP JUMPDEST PUSH0 PUSH1 0x40 MLOAD DUP1 DUP4 SUB DUP2 DUP6 DUP8 GAS CALL SWAP3 POP POP POP RETURNDATASIZE DUP1 PUSH0 DUP2 EQ PUSH2 0x330 JUMPI PUSH1 0x40 MLOAD SWAP2 POP PUSH1 0x1F NOT PUSH1 0x3F RETURNDATASIZE ADD AND DUP3 ADD PUSH1 0x40 MSTORE RETURNDATASIZE DUP3 MSTORE RETURNDATASIZE PUSH0 PUSH1 0x20 DUP5 ADD RETURNDATACOPY PUSH2 0x335 JUMP JUMPDEST PUSH1 0x60 SWAP2 POP JUMPDEST POP POP SWAP1 POP DUP1 PUSH2 0x379 JUMPI PUSH1 0x40 MLOAD PUSH32 0x8C379A000000000000000000000000000000000000000000000000000000000 DUP2 MSTORE PUSH1 0x4 ADD PUSH2 0x370 SWAP1 PUSH2 0x90A JUMP JUMPDEST PUSH1 0x40 MLOAD DUP1 SWAP2 SUB SWAP1 REVERT JUMPDEST POP JUMP JUMPDEST PUSH1 0x3 PUSH0 SWAP1 SLOAD SWAP1 PUSH2 0x100 EXP SWAP1 DIV PUSH20 0xFFFFFFFFFFFFFFFFFFFFFFFFFFFFFFFFFFFFFFFF AND DUP2 JUMP JUMPDEST PUSH1 0x2 PUSH1 0x20 MSTORE DUP1 PUSH0 MSTORE PUSH1 0x40 PUSH0 KECCAK256 PUSH0 SWAP2 POP SWAP1 POP SLOAD DUP2 JUMP JUMPDEST PUSH0 SLOAD PUSH2 0x3C1 CALLVALUE PUSH2 0x4F7 JUMP JUMPDEST LT ISZERO PUSH2 0x402 JUMPI PUSH1 0x40 MLOAD PUSH32 0x8C379A000000000000000000000000000000000000000000000000000000000 DUP2 MSTORE PUSH1 0x4 ADD PUSH2 0x3F9 SWAP1 PUSH2 0x972 JUMP JUMPDEST PUSH1 0x40 MLOAD DUP1 SWAP2 SUB SWAP1 REVERT JUMPDEST PUSH1 0x1 CALLER SWAP1 DUP1 PUSH1 0x1 DUP2 SLOAD ADD DUP1 DUP3 SSTORE DUP1 SWAP2 POP POP PUSH1 0x1 SWAP1 SUB SWAP1 PUSH0 MSTORE PUSH1 0x20 PUSH0 KECCAK256 ADD PUSH0 SWAP1 SWAP2 SWAP1 SWAP2 SWAP1 SWAP2 PUSH2 0x100 EXP DUP2 SLOAD DUP2 PUSH20 0xFFFFFFFFFFFFFFFFFFFFFFFFFFFFFFFFFFFFFFFF MUL NOT AND SWAP1 DUP4 PUSH20 0xFFFFFFFFFFFFFFFFFFFFFFFFFFFFFFFFFFFFFFFF AND MUL OR SWAP1 SSTORE POP CALLVALUE PUSH1 0x2 PUSH0 CALLER PUSH20 0xFFFFFFFFFFFFFFFFFFFFFFFFFFFFFFFFFFFFFFFF AND PUSH20 0xFFFFFFFFFFFFFFFFFFFFFFFFFFFFFFFFFFFFFFFF AND DUP2 MSTORE PUSH1 0x20 ADD SWAP1 DUP2 MSTORE PUSH1 0x20 ADD PUSH0 KECCAK256 PUSH0 DUP3 DUP3 SLOAD PUSH2 0x4AE SWAP2 SWAP1 PUSH2 0x9BD JUMP JUMPDEST SWAP3 POP POP DUP2 SWAP1 SSTORE POP JUMP JUMPDEST PUSH1 0x1 DUP2 DUP2 SLOAD DUP2 LT PUSH2 0x4C6 JUMPI PUSH0 DUP1 REVERT JUMPDEST SWAP1 PUSH0 MSTORE PUSH1 0x20 PUSH0 KECCAK256 ADD PUSH0 SWAP2 POP SLOAD SWAP1 PUSH2 0x100 EXP SWAP1 DIV PUSH20 0xFFFFFFFFFFFFFFFFFFFFFFFFFFFFFFFFFFFFFFFF AND DUP2 JUMP JUMPDEST PUSH0 SLOAD DUP2 JUMP JUMPDEST PUSH0 DUP1 PUSH2 0x501 PUSH2 0x52F JUMP JUMPDEST SWAP1 POP PUSH0 PUSH8 0xDE0B6B3A7640000 DUP5 DUP4 PUSH2 0x519 SWAP2 SWAP1 PUSH2 0x9F0 JUMP JUMPDEST PUSH2 0x523 SWAP2 SWAP1 PUSH2 0xA5E JUMP JUMPDEST SWAP1 POP DUP1 SWAP3 POP POP POP SWAP2 SWAP1 POP JUMP JUMPDEST PUSH0 DUP1 PUSH20 0x694AA1769357215DE4FAC081BF1F309ADC325306 SWAP1 POP PUSH0 DUP2 PUSH20 0xFFFFFFFFFFFFFFFFFFFFFFFFFFFFFFFFFFFFFFFF AND PUSH4 0xFEAF968C PUSH1 0x40 MLOAD DUP2 PUSH4 0xFFFFFFFF AND PUSH1 0xE0 SHL DUP2 MSTORE PUSH1 0x4 ADD PUSH1 0xA0 PUSH1 0x40 MLOAD DUP1 DUP4 SUB DUP2 DUP7 GAS STATICCALL ISZERO DUP1 ISZERO PUSH2 0x592 JUMPI RETURNDATASIZE PUSH0 DUP1 RETURNDATACOPY RETURNDATASIZE PUSH0 REVERT JUMPDEST POP POP POP POP PUSH1 0x40 MLOAD RETURNDATASIZE PUSH1 0x1F NOT PUSH1 0x1F DUP3 ADD AND DUP3 ADD DUP1 PUSH1 0x40 MSTORE POP DUP2 ADD SWAP1 PUSH2 0x5B6 SWAP2 SWAP1 PUSH2 0xB14 JUMP JUMPDEST POP POP POP SWAP2 POP POP PUSH5 0x2540BE400 DUP2 PUSH2 0x5CD SWAP2 SWAP1 PUSH2 0xB8B JUMP JUMPDEST SWAP3 POP POP POP SWAP1 JUMP JUMPDEST DUP3 DUP1 SLOAD DUP3 DUP3 SSTORE SWAP1 PUSH0 MSTORE PUSH1 0x20 PUSH0 KECCAK256 SWAP1 DUP2 ADD SWAP3 DUP3 ISZERO PUSH2 0x64A JUMPI SWAP2 PUSH1 0x20 MUL DUP3 ADD JUMPDEST DUP3 DUP2 GT ISZERO PUSH2 0x649 JUMPI DUP3 MLOAD DUP3 PUSH0 PUSH2 0x100 EXP DUP2 SLOAD DUP2 PUSH20 0xFFFFFFFFFFFFFFFFFFFFFFFFFFFFFFFFFFFFFFFF MUL NOT AND SWAP1 DUP4 PUSH20 0xFFFFFFFFFFFFFFFFFFFFFFFFFFFFFFFFFFFFFFFF AND MUL OR SWAP1 SSTORE POP SWAP2 PUSH1 0x20 ADD SWAP2 SWAP1 PUSH1 0x1 ADD SWAP1 PUSH2 0x5F2 JUMP JUMPDEST JUMPDEST POP SWAP1 POP PUSH2 0x657 SWAP2 SWAP1 PUSH2 0x65B JUMP JUMPDEST POP SWAP1 JUMP JUMPDEST JUMPDEST DUP1 DUP3 GT ISZERO PUSH2 0x672 JUMPI PUSH0 DUP2 PUSH0 SWAP1 SSTORE POP PUSH1 0x1 ADD PUSH2 0x65C JUMP JUMPDEST POP SWAP1 JUMP JUMPDEST PUSH0 PUSH20 0xFFFFFFFFFFFFFFFFFFFFFFFFFFFFFFFFFFFFFFFF DUP3 AND SWAP1 POP SWAP2 SWAP1 POP JUMP JUMPDEST PUSH0 PUSH2 0x69F DUP3 PUSH2 0x676 JUMP JUMPDEST SWAP1 POP SWAP2 SWAP1 POP JUMP JUMPDEST PUSH2 0x6AF DUP2 PUSH2 0x695 JUMP JUMPDEST DUP3 MSTORE POP POP JUMP JUMPDEST PUSH0 PUSH1 0x20 DUP3 ADD SWAP1 POP PUSH2 0x6C8 PUSH0 DUP4 ADD DUP5 PUSH2 0x6A6 JUMP JUMPDEST SWAP3 SWAP2 POP POP JUMP JUMPDEST PUSH0 DUP1 REVERT JUMPDEST PUSH2 0x6DB DUP2 PUSH2 0x695 JUMP JUMPDEST DUP2 EQ PUSH2 0x6E5 JUMPI PUSH0 DUP1 REVERT JUMPDEST POP JUMP JUMPDEST PUSH0 DUP2 CALLDATALOAD SWAP1 POP PUSH2 0x6F6 DUP2 PUSH2 0x6D2 JUMP JUMPDEST SWAP3 SWAP2 POP POP JUMP JUMPDEST PUSH0 PUSH1 0x20 DUP3 DUP5 SUB SLT ISZERO PUSH2 0x711 JUMPI PUSH2 0x710 PUSH2 0x6CE JUMP JUMPDEST JUMPDEST PUSH0 PUSH2 0x71E DUP5 DUP3 DUP6 ADD PUSH2 0x6E8 JUMP JUMPDEST SWAP2 POP POP SWAP3 SWAP2 POP POP JUMP JUMPDEST PUSH0 DUP2 SWAP1 POP SWAP2 SWAP1 POP JUMP JUMPDEST PUSH2 0x739 DUP2 PUSH2 0x727 JUMP JUMPDEST DUP3 MSTORE POP POP JUMP JUMPDEST PUSH0 PUSH1 0x20 DUP3 ADD SWAP1 POP PUSH2 0x752 PUSH0 DUP4 ADD DUP5 PUSH2 0x730 JUMP JUMPDEST SWAP3 SWAP2 POP POP JUMP JUMPDEST PUSH2 0x761 DUP2 PUSH2 0x727 JUMP JUMPDEST DUP2 EQ PUSH2 0x76B JUMPI PUSH0 DUP1 REVERT JUMPDEST POP JUMP JUMPDEST PUSH0 DUP2 CALLDATALOAD SWAP1 POP PUSH2 0x77C DUP2 PUSH2 0x758 JUMP JUMPDEST SWAP3 SWAP2 POP POP JUMP JUMPDEST PUSH0 PUSH1 0x20 DUP3 DUP5 SUB SLT ISZERO PUSH2 0x797 JUMPI PUSH2 0x796 PUSH2 0x6CE JUMP JUMPDEST JUMPDEST PUSH0 PUSH2 0x7A4 DUP5 DUP3 DUP6 ADD PUSH2 0x76E JUMP JUMPDEST SWAP2 POP POP SWAP3 SWAP2 POP POP JUMP JUMPDEST PUSH0 DUP3 DUP3 MSTORE PUSH1 0x20 DUP3 ADD SWAP1 POP SWAP3 SWAP2 POP POP JUMP JUMPDEST PUSH32 0x4F6E6C79206F776E65722063616E205769746864726177000000000000000000 PUSH0 DUP3 ADD MSTORE POP JUMP JUMPDEST PUSH0 PUSH2 0x7F1 PUSH1 0x17 DUP4 PUSH2 0x7AD JUMP JUMPDEST SWAP2 POP PUSH2 0x7FC DUP3 PUSH2 0x7BD JUMP JUMPDEST PUSH1 0x20 DUP3 ADD SWAP1 POP SWAP2 SWAP1 POP JUMP JUMPDEST PUSH0 PUSH1 0x20 DUP3 ADD SWAP1 POP DUP2 DUP2 SUB PUSH0 DUP4 ADD MSTORE PUSH2 0x81E DUP2 PUSH2 0x7E5 JUMP JUMPDEST SWAP1 POP SWAP2 SWAP1 POP JUMP JUMPDEST PUSH32 0x4E487B7100000000000000000000000000000000000000000000000000000000 PUSH0 MSTORE PUSH1 0x32 PUSH1 0x4 MSTORE PUSH1 0x24 PUSH0 REVERT JUMPDEST PUSH32 0x4E487B7100000000000000000000000000000000000000000000000000000000 PUSH0 MSTORE PUSH1 0x41 PUSH1 0x4 MSTORE PUSH1 0x24 PUSH0 REVERT JUMPDEST PUSH0 DUP2 SWAP1 POP SWAP3 SWAP2 POP POP JUMP JUMPDEST POP JUMP JUMPDEST PUSH0 PUSH2 0x897 PUSH0 DUP4 PUSH2 0x87F JUMP JUMPDEST SWAP2 POP PUSH2 0x8A2 DUP3 PUSH2 0x889 JUMP JUMPDEST PUSH0 DUP3 ADD SWAP1 POP SWAP2 SWAP1 POP JUMP JUMPDEST PUSH0 PUSH2 0x8B6 DUP3 PUSH2 0x88C JUMP JUMPDEST SWAP2 POP DUP2 SWAP1 POP SWAP2 SWAP1 POP JUMP JUMPDEST PUSH32 0x43616C6C204661696C6564000000000000000000000000000000000000000000 PUSH0 DUP3 ADD MSTORE POP JUMP JUMPDEST PUSH0 PUSH2 0x8F4 PUSH1 0xB DUP4 PUSH2 0x7AD JUMP JUMPDEST SWAP2 POP PUSH2 0x8FF DUP3 PUSH2 0x8C0 JUMP JUMPDEST PUSH1 0x20 DUP3 ADD SWAP1 POP SWAP2 SWAP1 POP JUMP JUMPDEST PUSH0 PUSH1 0x20 DUP3 ADD SWAP1 POP DUP2 DUP2 SUB PUSH0 DUP4 ADD MSTORE PUSH2 0x921 DUP2 PUSH2 0x8E8 JUMP JUMPDEST SWAP1 POP SWAP2 SWAP1 POP JUMP JUMPDEST PUSH32 0x20596F75206469646E27742073656E7420656E6F756768204554482E20000000 PUSH0 DUP3 ADD MSTORE POP JUMP JUMPDEST PUSH0 PUSH2 0x95C PUSH1 0x1D DUP4 PUSH2 0x7AD JUMP JUMPDEST SWAP2 POP PUSH2 0x967 DUP3 PUSH2 0x928 JUMP JUMPDEST PUSH1 0x20 DUP3 ADD SWAP1 POP SWAP2 SWAP1 POP JUMP JUMPDEST PUSH0 PUSH1 0x20 DUP3 ADD SWAP1 POP DUP2 DUP2 SUB PUSH0 DUP4 ADD MSTORE PUSH2 0x989 DUP2 PUSH2 0x950 JUMP JUMPDEST SWAP1 POP SWAP2 SWAP1 POP JUMP JUMPDEST PUSH32 0x4E487B7100000000000000000000000000000000000000000000000000000000 PUSH0 MSTORE PUSH1 0x11 PUSH1 0x4 MSTORE PUSH1 0x24 PUSH0 REVERT JUMPDEST PUSH0 PUSH2 0x9C7 DUP3 PUSH2 0x727 JUMP JUMPDEST SWAP2 POP PUSH2 0x9D2 DUP4 PUSH2 0x727 JUMP JUMPDEST SWAP3 POP DUP3 DUP3 ADD SWAP1 POP DUP1 DUP3 GT ISZERO PUSH2 0x9EA JUMPI PUSH2 0x9E9 PUSH2 0x990 JUMP JUMPDEST JUMPDEST SWAP3 SWAP2 POP POP JUMP JUMPDEST PUSH0 PUSH2 0x9FA DUP3 PUSH2 0x727 JUMP JUMPDEST SWAP2 POP PUSH2 0xA05 DUP4 PUSH2 0x727 JUMP JUMPDEST SWAP3 POP DUP3 DUP3 MUL PUSH2 0xA13 DUP2 PUSH2 0x727 JUMP JUMPDEST SWAP2 POP DUP3 DUP3 DIV DUP5 EQ DUP4 ISZERO OR PUSH2 0xA2A JUMPI PUSH2 0xA29 PUSH2 0x990 JUMP JUMPDEST JUMPDEST POP SWAP3 SWAP2 POP POP JUMP JUMPDEST PUSH32 0x4E487B7100000000000000000000000000000000000000000000000000000000 PUSH0 MSTORE PUSH1 0x12 PUSH1 0x4 MSTORE PUSH1 0x24 PUSH0 REVERT JUMPDEST PUSH0 PUSH2 0xA68 DUP3 PUSH2 0x727 JUMP JUMPDEST SWAP2 POP PUSH2 0xA73 DUP4 PUSH2 0x727 JUMP JUMPDEST SWAP3 POP DUP3 PUSH2 0xA83 JUMPI PUSH2 0xA82 PUSH2 0xA31 JUMP JUMPDEST JUMPDEST DUP3 DUP3 DIV SWAP1 POP SWAP3 SWAP2 POP POP JUMP JUMPDEST PUSH0 PUSH10 0xFFFFFFFFFFFFFFFFFFFF DUP3 AND SWAP1 POP SWAP2 SWAP1 POP JUMP JUMPDEST PUSH2 0xAAC DUP2 PUSH2 0xA8E JUMP JUMPDEST DUP2 EQ PUSH2 0xAB6 JUMPI PUSH0 DUP1 REVERT JUMPDEST POP JUMP JUMPDEST PUSH0 DUP2 MLOAD SWAP1 POP PUSH2 0xAC7 DUP2 PUSH2 0xAA3 JUMP JUMPDEST SWAP3 SWAP2 POP POP JUMP JUMPDEST PUSH0 DUP2 SWAP1 POP SWAP2 SWAP1 POP JUMP JUMPDEST PUSH2 0xADF DUP2 PUSH2 0xACD JUMP JUMPDEST DUP2 EQ PUSH2 0xAE9 JUMPI PUSH0 DUP1 REVERT JUMPDEST POP JUMP JUMPDEST PUSH0 DUP2 MLOAD SWAP1 POP PUSH2 0xAFA DUP2 PUSH2 0xAD6 JUMP JUMPDEST SWAP3 SWAP2 POP POP JUMP JUMPDEST PUSH0 DUP2 MLOAD SWAP1 POP PUSH2 0xB0E DUP2 PUSH2 0x758 JUMP JUMPDEST SWAP3 SWAP2 POP POP JUMP JUMPDEST PUSH0 DUP1 PUSH0 DUP1 PUSH0 PUSH1 0xA0 DUP7 DUP9 SUB SLT ISZERO PUSH2 0xB2D JUMPI PUSH2 0xB2C PUSH2 0x6CE JUMP JUMPDEST JUMPDEST PUSH0 PUSH2 0xB3A DUP9 DUP3 DUP10 ADD PUSH2 0xAB9 JUMP JUMPDEST SWAP6 POP POP PUSH1 0x20 PUSH2 0xB4B DUP9 DUP3 DUP10 ADD PUSH2 0xAEC JUMP JUMPDEST SWAP5 POP POP PUSH1 0x40 PUSH2 0xB5C DUP9 DUP3 DUP10 ADD PUSH2 0xB00 JUMP JUMPDEST SWAP4 POP POP PUSH1 0x60 PUSH2 0xB6D DUP9 DUP3 DUP10 ADD PUSH2 0xB00 JUMP JUMPDEST SWAP3 POP POP PUSH1 0x80 PUSH2 0xB7E DUP9 DUP3 DUP10 ADD PUSH2 0xAB9 JUMP JUMPDEST SWAP2 POP POP SWAP3 SWAP6 POP SWAP3 SWAP6 SWAP1 SWAP4 POP JUMP JUMPDEST PUSH0 PUSH2 0xB95 DUP3 PUSH2 0xACD JUMP JUMPDEST SWAP2 POP PUSH2 0xBA0 DUP4 PUSH2 0xACD JUMP JUMPDEST SWAP3 POP DUP3 DUP3 MUL PUSH2 0xBAE DUP2 PUSH2 0xACD JUMP JUMPDEST SWAP2 POP PUSH32 0x8000000000000000000000000000000000000000000000000000000000000000 DUP5 EQ PUSH0 DUP5 SLT AND ISZERO PUSH2 0xBE5 JUMPI PUSH2 0xBE4 PUSH2 0x990 JUMP JUMPDEST JUMPDEST DUP3 DUP3 SDIV DUP5 EQ DUP4 ISZERO OR PUSH2 0xBFA JUMPI PUSH2 0xBF9 PUSH2 0x990 JUMP JUMPDEST JUMPDEST POP SWAP3 SWAP2 POP POP JUMP INVALID LOG2 PUSH5 0x6970667358 0x22 SLT KECCAK256 0xD 0xFC PUSH32 0xF05555806068D135587FAB78320DD74681A6D2E7F640ED8BA041C7C61764736F PUSH13 0x634300081A0033000000000000 "
				},
				"gasEstimates": {
					"creation": {
						"codeDepositCost": "625400",
						"executionCost": "47025",
						"totalCost": "672425"
					},
					"external": {
						"fund()": "infinite",
						"funders(uint256)": "5010",
						"minUSD()": "2512",
						"owner()": "2508",
						"valueSent(address)": "2824",
						"withdraw()": "infinite"
					}
				},
				"methodIdentifiers": {
					"fund()": "b60d4288",
					"funders(uint256)": "dc0d3dff",
					"minUSD()": "dc992aa0",
					"owner()": "8da5cb5b",
					"valueSent(address)": "942ccc98",
					"withdraw()": "3ccfd60b"
				}
			},
			"storageLayout": {
				"storage": [
					{
						"astId": 55,
						"contract": "FundMe.sol:FundMe",
						"label": "minUSD",
						"offset": 0,
						"slot": "0",
						"type": "t_uint256"
					},
					{
						"astId": 58,
						"contract": "FundMe.sol:FundMe",
						"label": "funders",
						"offset": 0,
						"slot": "1",
						"type": "t_array(t_address)dyn_storage"
					},
					{
						"astId": 62,
						"contract": "FundMe.sol:FundMe",
						"label": "valueSent",
						"offset": 0,
						"slot": "2",
						"type": "t_mapping(t_address,t_uint256)"
					},
					{
						"astId": 64,
						"contract": "FundMe.sol:FundMe",
						"label": "owner",
						"offset": 0,
						"slot": "3",
						"type": "t_address"
					}
				],
				"types": {
					"t_address": {
						"encoding": "inplace",
						"label": "address",
						"numberOfBytes": "20"
					},
					"t_array(t_address)dyn_storage": {
						"base": "t_address",
						"encoding": "dynamic_array",
						"label": "address[]",
						"numberOfBytes": "32"
					},
					"t_mapping(t_address,t_uint256)": {
						"encoding": "mapping",
						"key": "t_address",
						"label": "mapping(address => uint256)",
						"numberOfBytes": "32",
						"value": "t_uint256"
					},
					"t_uint256": {
						"encoding": "inplace",
						"label": "uint256",
						"numberOfBytes": "32"
					}
				}
			},
			"userdoc": {
				"kind": "user",
				"methods": {},
				"version": 1
			}
		}
	}
}