{
	"FundMe.sol": {
		"FundMe": {
			"abi": [
				{
					"inputs": [],
					"name": "fund",
					"outputs": [],
					"stateMutability": "payable",
					"type": "function"
				},
				{
					"inputs": [
						{
							"internalType": "uint256",
							"name": "",
							"type": "uint256"
						}
					],
					"name": "funders",
					"outputs": [
						{
							"internalType": "address",
							"name": "",
							"type": "address"
						}
					],
					"stateMutability": "view",
					"type": "function"
				},
				{
					"inputs": [],
					"name": "minUSD",
					"outputs": [
						{
							"internalType": "uint256",
							"name": "",
							"type": "uint256"
						}
					],
					"stateMutability": "view",
					"type": "function"
				},
				{
					"inputs": [
						{
							"internalType": "address",
							"name": "funder",
							"type": "address"
						}
					],
					"name": "valueSent",
					"outputs": [
						{
							"internalType": "uint256",
							"name": "amountFunded",
							"type": "uint256"
						}
					],
					"stateMutability": "view",
					"type": "function"
				},
				{
					"inputs": [],
					"name": "withdraw",
					"outputs": [],
					"stateMutability": "nonpayable",
					"type": "function"
				}
			],
			"devdoc": {
				"kind": "dev",
				"methods": {},
				"version": 1
			},
			"evm": {
				"assembly": "    /* \"FundMe.sol\":325:2792  contract FundMe... */\n  mstore(0x40, 0x80)\n    /* \"FundMe.sol\":407:411  5e18 */\n  0x4563918244f40000\n    /* \"FundMe.sol\":386:411  uint public minUSD = 5e18 */\n  0x00\n  sstore\n    /* \"FundMe.sol\":325:2792  contract FundMe... */\n  callvalue\n  dup1\n  iszero\n  tag_1\n  jumpi\n  0x00\n  dup1\n  revert\ntag_1:\n  pop\n  dataSize(sub_0)\n  dup1\n  dataOffset(sub_0)\n  0x00\n  codecopy\n  0x00\n  return\nstop\n\nsub_0: assembly {\n        /* \"FundMe.sol\":325:2792  contract FundMe... */\n      mstore(0x40, 0x80)\n      jumpi(tag_1, lt(calldatasize, 0x04))\n      shr(0xe0, calldataload(0x00))\n      dup1\n      0x3ccfd60b\n      eq\n      tag_2\n      jumpi\n      dup1\n      0x942ccc98\n      eq\n      tag_3\n      jumpi\n      dup1\n      0xb60d4288\n      eq\n      tag_4\n      jumpi\n      dup1\n      0xdc0d3dff\n      eq\n      tag_5\n      jumpi\n      dup1\n      0xdc992aa0\n      eq\n      tag_6\n      jumpi\n    tag_1:\n      0x00\n      dup1\n      revert\n        /* \"FundMe.sol\":1325:2789  function withdraw() public... */\n    tag_2:\n      callvalue\n      dup1\n      iszero\n      tag_7\n      jumpi\n      0x00\n      dup1\n      revert\n    tag_7:\n      pop\n      tag_8\n      tag_9\n      jump\t// in\n    tag_8:\n      stop\n        /* \"FundMe.sol\":449:509  mapping(address funder =>uint amountFunded) public valueSent */\n    tag_3:\n      callvalue\n      dup1\n      iszero\n      tag_10\n      jumpi\n      0x00\n      dup1\n      revert\n    tag_10:\n      pop\n      tag_11\n      0x04\n      dup1\n      calldatasize\n      sub\n      dup2\n      add\n      swap1\n      tag_12\n      swap2\n      swap1\n      tag_13\n      jump\t// in\n    tag_12:\n      tag_14\n      jump\t// in\n    tag_11:\n      mload(0x40)\n      tag_15\n      swap2\n      swap1\n      tag_16\n      jump\t// in\n    tag_15:\n      mload(0x40)\n      dup1\n      swap2\n      sub\n      swap1\n      return\n        /* \"FundMe.sol\":518:927  function fund() public payable... */\n    tag_4:\n      tag_17\n      tag_18\n      jump\t// in\n    tag_17:\n      stop\n        /* \"FundMe.sol\":418:442  address[] public funders */\n    tag_5:\n      callvalue\n      dup1\n      iszero\n      tag_19\n      jumpi\n      0x00\n      dup1\n      revert\n    tag_19:\n      pop\n      tag_20\n      0x04\n      dup1\n      calldatasize\n      sub\n      dup2\n      add\n      swap1\n      tag_21\n      swap2\n      swap1\n      tag_22\n      jump\t// in\n    tag_21:\n      tag_23\n      jump\t// in\n    tag_20:\n      mload(0x40)\n      tag_24\n      swap2\n      swap1\n      tag_25\n      jump\t// in\n    tag_24:\n      mload(0x40)\n      dup1\n      swap2\n      sub\n      swap1\n      return\n        /* \"FundMe.sol\":386:411  uint public minUSD = 5e18 */\n    tag_6:\n      callvalue\n      dup1\n      iszero\n      tag_26\n      jumpi\n      0x00\n      dup1\n      revert\n    tag_26:\n      pop\n      tag_27\n      tag_28\n      jump\t// in\n    tag_27:\n      mload(0x40)\n      tag_29\n      swap2\n      swap1\n      tag_16\n      jump\t// in\n    tag_29:\n      mload(0x40)\n      dup1\n      swap2\n      sub\n      swap1\n      return\n        /* \"FundMe.sol\":1325:2789  function withdraw() public... */\n    tag_9:\n        /* \"FundMe.sol\":1370:1376  uint i */\n      0x00\n        /* \"FundMe.sol\":1366:1500  for(uint i=0; i<funders.length; i++)... */\n    tag_31:\n        /* \"FundMe.sol\":1382:1389  funders */\n      0x01\n        /* \"FundMe.sol\":1382:1396  funders.length */\n      dup1\n      sload\n      swap1\n      pop\n        /* \"FundMe.sol\":1380:1381  i */\n      dup2\n        /* \"FundMe.sol\":1380:1396  i<funders.length */\n      lt\n        /* \"FundMe.sol\":1366:1500  for(uint i=0; i<funders.length; i++)... */\n      iszero\n      tag_32\n      jumpi\n        /* \"FundMe.sol\":1421:1441  address addOfFunders */\n      0x00\n        /* \"FundMe.sol\":1444:1451  funders */\n      0x01\n        /* \"FundMe.sol\":1452:1453  i */\n      dup3\n        /* \"FundMe.sol\":1444:1454  funders[i] */\n      dup2\n      sload\n      dup2\n      lt\n      tag_34\n      jumpi\n      tag_35\n      tag_36\n      jump\t// in\n    tag_35:\n    tag_34:\n      swap1\n      0x00\n      mstore\n      keccak256(0x00, 0x20)\n      add\n      0x00\n      swap1\n      sload\n      swap1\n      0x0100\n      exp\n      swap1\n      div\n      0xffffffffffffffffffffffffffffffffffffffff\n      and\n        /* \"FundMe.sol\":1421:1454  address addOfFunders = funders[i] */\n      swap1\n      pop\n        /* \"FundMe.sol\":1489:1490  0 */\n      0x00\n        /* \"FundMe.sol\":1465:1474  valueSent */\n      0x02\n        /* \"FundMe.sol\":1465:1488  valueSent[addOfFunders] */\n      0x00\n        /* \"FundMe.sol\":1475:1487  addOfFunders */\n      dup4\n        /* \"FundMe.sol\":1465:1488  valueSent[addOfFunders] */\n      0xffffffffffffffffffffffffffffffffffffffff\n      and\n      0xffffffffffffffffffffffffffffffffffffffff\n      and\n      dup2\n      mstore\n      0x20\n      add\n      swap1\n      dup2\n      mstore\n      0x20\n      add\n      0x00\n      keccak256\n        /* \"FundMe.sol\":1465:1490  valueSent[addOfFunders]=0 */\n      dup2\n      swap1\n      sstore\n      pop\n        /* \"FundMe.sol\":1410:1500  {... */\n      pop\n        /* \"FundMe.sol\":1398:1401  i++ */\n      dup1\n      dup1\n      0x01\n      add\n      swap2\n      pop\n      pop\n        /* \"FundMe.sol\":1366:1500  for(uint i=0; i<funders.length; i++)... */\n      jump(tag_31)\n    tag_32:\n      pop\n        /* \"FundMe.sol\":1530:1531  0 */\n      0x00\n        /* \"FundMe.sol\":1516:1532  new address[](0) */\n      0xffffffffffffffff\n      dup2\n      gt\n      iszero\n      tag_38\n      jumpi\n      tag_39\n      tag_40\n      jump\t// in\n    tag_39:\n    tag_38:\n      mload(0x40)\n      swap1\n      dup1\n      dup3\n      mstore\n      dup1\n      0x20\n      mul\n      0x20\n      add\n      dup3\n      add\n      0x40\n      mstore\n      dup1\n      iszero\n      tag_41\n      jumpi\n      dup2\n      0x20\n      add\n      0x20\n      dup3\n      mul\n      dup1\n      calldatasize\n      dup4\n      calldatacopy\n      dup1\n      dup3\n      add\n      swap2\n      pop\n      pop\n      swap1\n      pop\n    tag_41:\n      pop\n        /* \"FundMe.sol\":1508:1515  funders */\n      0x01\n        /* \"FundMe.sol\":1508:1532  funders=new address[](0) */\n      swap1\n      dup1\n      mload\n      swap1\n      0x20\n      add\n      swap1\n      tag_42\n      swap3\n      swap2\n      swap1\n      tag_43\n      jump\t// in\n    tag_42:\n      pop\n        /* \"FundMe.sol\":2659:2675  bool callSuccess */\n      0x00\n        /* \"FundMe.sol\":2687:2697  msg.sender */\n      caller\n        /* \"FundMe.sol\":2679:2703  payable(msg.sender).call */\n      0xffffffffffffffffffffffffffffffffffffffff\n      and\n        /* \"FundMe.sol\":2711:2732  address(this).balance */\n      selfbalance\n        /* \"FundMe.sol\":2679:2737  payable(msg.sender).call{value: address(this).balance}(\"\") */\n      mload(0x40)\n      tag_44\n      swap1\n      tag_45\n      jump\t// in\n    tag_44:\n      0x00\n      mload(0x40)\n      dup1\n      dup4\n      sub\n      dup2\n      dup6\n      dup8\n      gas\n      call\n      swap3\n      pop\n      pop\n      pop\n      returndatasize\n      dup1\n      0x00\n      dup2\n      eq\n      tag_48\n      jumpi\n      mload(0x40)\n      swap2\n      pop\n      and(add(returndatasize, 0x3f), not(0x1f))\n      dup3\n      add\n      0x40\n      mstore\n      returndatasize\n      dup3\n      mstore\n      returndatasize\n      0x00\n      0x20\n      dup5\n      add\n      returndatacopy\n      jump(tag_47)\n    tag_48:\n      0x60\n      swap2\n      pop\n    tag_47:\n      pop\n        /* \"FundMe.sol\":2658:2737  (bool callSuccess, )=payable(msg.sender).call{value: address(this).balance}(\"\") */\n      pop\n      swap1\n      pop\n        /* \"FundMe.sol\":2754:2765  callSuccess */\n      dup1\n        /* \"FundMe.sol\":2746:2781  require(callSuccess, \"Call Failed\") */\n      tag_49\n      jumpi\n      mload(0x40)\n      0x08c379a000000000000000000000000000000000000000000000000000000000\n      dup2\n      mstore\n      0x04\n      add\n      tag_50\n      swap1\n      tag_51\n      jump\t// in\n    tag_50:\n      mload(0x40)\n      dup1\n      swap2\n      sub\n      swap1\n      revert\n    tag_49:\n        /* \"FundMe.sol\":1357:2789  {... */\n      pop\n        /* \"FundMe.sol\":1325:2789  function withdraw() public... */\n      jump\t// out\n        /* \"FundMe.sol\":449:509  mapping(address funder =>uint amountFunded) public valueSent */\n    tag_14:\n      mstore(0x20, 0x02)\n      dup1\n      0x00\n      mstore\n      keccak256(0x00, 0x40)\n      0x00\n      swap2\n      pop\n      swap1\n      pop\n      sload\n      dup2\n      jump\t// out\n        /* \"FundMe.sol\":518:927  function fund() public payable... */\n    tag_18:\n        /* \"FundMe.sol\":758:764  minUSD */\n      sload(0x00)\n        /* \"FundMe.sol\":726:756  msg.value.getConversionRates() */\n      tag_53\n        /* \"FundMe.sol\":726:735  msg.value */\n      callvalue\n        /* \"FundMe.sol\":726:754  msg.value.getConversionRates */\n      tag_54\n        /* \"FundMe.sol\":726:756  msg.value.getConversionRates() */\n      jump\t// in\n    tag_53:\n        /* \"FundMe.sol\":726:764  msg.value.getConversionRates()>=minUSD */\n      lt\n      iszero\n        /* \"FundMe.sol\":718:798  require(msg.value.getConversionRates()>=minUSD, \" You didn't sent enough ETH. \") */\n      tag_55\n      jumpi\n      mload(0x40)\n      0x08c379a000000000000000000000000000000000000000000000000000000000\n      dup2\n      mstore\n      0x04\n      add\n      tag_56\n      swap1\n      tag_57\n      jump\t// in\n    tag_56:\n      mload(0x40)\n      dup1\n      swap2\n      sub\n      swap1\n      revert\n    tag_55:\n        /* \"FundMe.sol\":807:814  funders */\n      0x01\n        /* \"FundMe.sol\":820:830  msg.sender */\n      caller\n        /* \"FundMe.sol\":807:831  funders.push(msg.sender) */\n      swap1\n      dup1\n      0x01\n      dup2\n      sload\n      add\n      dup1\n      dup3\n      sstore\n      dup1\n      swap2\n      pop\n      pop\n      0x01\n      swap1\n      sub\n      swap1\n      0x00\n      mstore\n      keccak256(0x00, 0x20)\n      add\n      0x00\n      swap1\n      swap2\n      swap1\n      swap2\n      swap1\n      swap2\n      0x0100\n      exp\n      dup2\n      sload\n      dup2\n      0xffffffffffffffffffffffffffffffffffffffff\n      mul\n      not\n      and\n      swap1\n      dup4\n      0xffffffffffffffffffffffffffffffffffffffff\n      and\n      mul\n      or\n      swap1\n      sstore\n      pop\n        /* \"FundMe.sol\":863:872  msg.value */\n      callvalue\n        /* \"FundMe.sol\":840:849  valueSent */\n      0x02\n        /* \"FundMe.sol\":840:861  valueSent[msg.sender] */\n      0x00\n        /* \"FundMe.sol\":850:860  msg.sender */\n      caller\n        /* \"FundMe.sol\":840:861  valueSent[msg.sender] */\n      0xffffffffffffffffffffffffffffffffffffffff\n      and\n      0xffffffffffffffffffffffffffffffffffffffff\n      and\n      dup2\n      mstore\n      0x20\n      add\n      swap1\n      dup2\n      mstore\n      0x20\n      add\n      0x00\n      keccak256\n      0x00\n        /* \"FundMe.sol\":840:872  valueSent[msg.sender]+=msg.value */\n      dup3\n      dup3\n      sload\n      tag_59\n      swap2\n      swap1\n      tag_60\n      jump\t// in\n    tag_59:\n      swap3\n      pop\n      pop\n      dup2\n      swap1\n      sstore\n      pop\n        /* \"FundMe.sol\":518:927  function fund() public payable... */\n      jump\t// out\n        /* \"FundMe.sol\":418:442  address[] public funders */\n    tag_23:\n      0x01\n      dup2\n      dup2\n      sload\n      dup2\n      lt\n      tag_61\n      jumpi\n      0x00\n      dup1\n      revert\n    tag_61:\n      swap1\n      0x00\n      mstore\n      keccak256(0x00, 0x20)\n      add\n      0x00\n      swap2\n      pop\n      sload\n      swap1\n      0x0100\n      exp\n      swap1\n      div\n      0xffffffffffffffffffffffffffffffffffffffff\n      and\n      dup2\n      jump\t// out\n        /* \"FundMe.sol\":386:411  uint public minUSD = 5e18 */\n    tag_28:\n      sload(0x00)\n      dup2\n      jump\t// out\n        /* \"PriceConverter.sol\":545:1158  function getConversionRates(uint256 ethAmount) internal view returns(uint256)... */\n    tag_54:\n        /* \"PriceConverter.sol\":614:621  uint256 */\n      0x00\n        /* \"PriceConverter.sol\":1032:1048  uint256 ethPrice */\n      dup1\n        /* \"PriceConverter.sol\":1049:1059  getPrice() */\n      tag_64\n        /* \"PriceConverter.sol\":1049:1057  getPrice */\n      tag_65\n        /* \"PriceConverter.sol\":1049:1059  getPrice() */\n      jump\t// in\n    tag_64:\n        /* \"PriceConverter.sol\":1032:1059  uint256 ethPrice=getPrice() */\n      swap1\n      pop\n        /* \"PriceConverter.sol\":1070:1092  uint256 ethAmountinUSD */\n      0x00\n        /* \"PriceConverter.sol\":1114:1118  1e18 */\n      0x0de0b6b3a7640000\n        /* \"PriceConverter.sol\":1103:1112  ethAmount */\n      dup5\n        /* \"PriceConverter.sol\":1094:1102  ethPrice */\n      dup4\n        /* \"PriceConverter.sol\":1094:1112  ethPrice*ethAmount */\n      tag_66\n      swap2\n      swap1\n      tag_67\n      jump\t// in\n    tag_66:\n        /* \"PriceConverter.sol\":1093:1118  (ethPrice*ethAmount)/1e18 */\n      tag_68\n      swap2\n      swap1\n      tag_69\n      jump\t// in\n    tag_68:\n        /* \"PriceConverter.sol\":1070:1118  uint256 ethAmountinUSD=(ethPrice*ethAmount)/1e18 */\n      swap1\n      pop\n        /* \"PriceConverter.sol\":1136:1150  ethAmountinUSD */\n      dup1\n        /* \"PriceConverter.sol\":1129:1150  return ethAmountinUSD */\n      swap3\n      pop\n      pop\n      pop\n        /* \"PriceConverter.sol\":545:1158  function getConversionRates(uint256 ethAmount) internal view returns(uint256)... */\n      swap2\n      swap1\n      pop\n      jump\t// out\n        /* \"PriceConverter.sol\":267:537  function getPrice() internal view returns(uint256)... */\n    tag_65:\n        /* \"PriceConverter.sol\":309:316  uint256 */\n      0x00\n        /* \"PriceConverter.sol\":334:365  AggregatorV3Interface priceFeed */\n      dup1\n        /* \"PriceConverter.sol\":390:432  0x694AA1769357215DE4FAC081bf1f309aDC325306 */\n      0x694aa1769357215de4fac081bf1f309adc325306\n        /* \"PriceConverter.sol\":334:433  AggregatorV3Interface priceFeed = AggregatorV3Interface(0x694AA1769357215DE4FAC081bf1f309aDC325306) */\n      swap1\n      pop\n        /* \"PriceConverter.sol\":446:458  int256 price */\n      0x00\n        /* \"PriceConverter.sol\":465:474  priceFeed */\n      dup2\n        /* \"PriceConverter.sol\":465:490  priceFeed.latestRoundData */\n      0xffffffffffffffffffffffffffffffffffffffff\n      and\n      0xfeaf968c\n        /* \"PriceConverter.sol\":465:492  priceFeed.latestRoundData() */\n      mload(0x40)\n      dup2\n      0xffffffff\n      and\n      0xe0\n      shl\n      dup2\n      mstore\n      0x04\n      add\n      0xa0\n      mload(0x40)\n      dup1\n      dup4\n      sub\n      dup2\n      dup7\n      gas\n      staticcall\n      iszero\n      dup1\n      iszero\n      tag_72\n      jumpi\n      returndatasize\n      0x00\n      dup1\n      returndatacopy\n      revert(0x00, returndatasize)\n    tag_72:\n      pop\n      pop\n      pop\n      pop\n      mload(0x40)\n      returndatasize\n      not(0x1f)\n      0x1f\n      dup3\n      add\n      and\n      dup3\n      add\n      dup1\n      0x40\n      mstore\n      pop\n      dup2\n      add\n      swap1\n      tag_73\n      swap2\n      swap1\n      tag_74\n      jump\t// in\n    tag_73:\n        /* \"PriceConverter.sol\":444:492  (,int256 price,,,) = priceFeed.latestRoundData() */\n      pop\n      pop\n      pop\n      swap2\n      pop\n      pop\n        /* \"PriceConverter.sol\":524:528  1e10 */\n      0x02540be400\n        /* \"PriceConverter.sol\":518:523  price */\n      dup2\n        /* \"PriceConverter.sol\":518:528  price*1e10 */\n      tag_75\n      swap2\n      swap1\n      tag_76\n      jump\t// in\n    tag_75:\n        /* \"PriceConverter.sol\":503:529  return uint256(price*1e10) */\n      swap3\n      pop\n      pop\n      pop\n        /* \"PriceConverter.sol\":267:537  function getPrice() internal view returns(uint256)... */\n      swap1\n      jump\t// out\n    tag_43:\n      dup3\n      dup1\n      sload\n      dup3\n      dup3\n      sstore\n      swap1\n      0x00\n      mstore\n      keccak256(0x00, 0x20)\n      swap1\n      dup2\n      add\n      swap3\n      dup3\n      iszero\n      tag_77\n      jumpi\n      swap2\n      0x20\n      mul\n      dup3\n      add\n    tag_78:\n      dup3\n      dup2\n      gt\n      iszero\n      tag_79\n      jumpi\n      dup3\n      mload\n      dup3\n      exp(0x0100, 0x00)\n      dup2\n      sload\n      dup2\n      0xffffffffffffffffffffffffffffffffffffffff\n      mul\n      not\n      and\n      swap1\n      dup4\n      0xffffffffffffffffffffffffffffffffffffffff\n      and\n      mul\n      or\n      swap1\n      sstore\n      pop\n      swap2\n      0x20\n      add\n      swap2\n      swap1\n      0x01\n      add\n      swap1\n      jump(tag_78)\n    tag_79:\n    tag_77:\n      pop\n      swap1\n      pop\n      tag_80\n      swap2\n      swap1\n      tag_81\n      jump\t// in\n    tag_80:\n      pop\n      swap1\n      jump\t// out\n    tag_81:\n    tag_82:\n      dup1\n      dup3\n      gt\n      iszero\n      tag_83\n      jumpi\n      0x00\n      dup2\n      0x00\n      swap1\n      sstore\n      pop\n      0x01\n      add\n      jump(tag_82)\n    tag_83:\n      pop\n      swap1\n      jump\t// out\n        /* \"#utility.yul\":88:205   */\n    tag_85:\n        /* \"#utility.yul\":197:198   */\n      0x00\n        /* \"#utility.yul\":194:195   */\n      dup1\n        /* \"#utility.yul\":187:199   */\n      revert\n        /* \"#utility.yul\":334:460   */\n    tag_87:\n        /* \"#utility.yul\":371:378   */\n      0x00\n        /* \"#utility.yul\":411:453   */\n      0xffffffffffffffffffffffffffffffffffffffff\n        /* \"#utility.yul\":404:409   */\n      dup3\n        /* \"#utility.yul\":400:454   */\n      and\n        /* \"#utility.yul\":389:454   */\n      swap1\n      pop\n        /* \"#utility.yul\":334:460   */\n      swap2\n      swap1\n      pop\n      jump\t// out\n        /* \"#utility.yul\":466:562   */\n    tag_88:\n        /* \"#utility.yul\":503:510   */\n      0x00\n        /* \"#utility.yul\":532:556   */\n      tag_119\n        /* \"#utility.yul\":550:555   */\n      dup3\n        /* \"#utility.yul\":532:556   */\n      tag_87\n      jump\t// in\n    tag_119:\n        /* \"#utility.yul\":521:556   */\n      swap1\n      pop\n        /* \"#utility.yul\":466:562   */\n      swap2\n      swap1\n      pop\n      jump\t// out\n        /* \"#utility.yul\":568:690   */\n    tag_89:\n        /* \"#utility.yul\":641:665   */\n      tag_121\n        /* \"#utility.yul\":659:664   */\n      dup2\n        /* \"#utility.yul\":641:665   */\n      tag_88\n      jump\t// in\n    tag_121:\n        /* \"#utility.yul\":634:639   */\n      dup2\n        /* \"#utility.yul\":631:666   */\n      eq\n        /* \"#utility.yul\":621:684   */\n      tag_122\n      jumpi\n        /* \"#utility.yul\":680:681   */\n      0x00\n        /* \"#utility.yul\":677:678   */\n      dup1\n        /* \"#utility.yul\":670:682   */\n      revert\n        /* \"#utility.yul\":621:684   */\n    tag_122:\n        /* \"#utility.yul\":568:690   */\n      pop\n      jump\t// out\n        /* \"#utility.yul\":696:835   */\n    tag_90:\n        /* \"#utility.yul\":742:747   */\n      0x00\n        /* \"#utility.yul\":780:786   */\n      dup2\n        /* \"#utility.yul\":767:787   */\n      calldataload\n        /* \"#utility.yul\":758:787   */\n      swap1\n      pop\n        /* \"#utility.yul\":796:829   */\n      tag_124\n        /* \"#utility.yul\":823:828   */\n      dup2\n        /* \"#utility.yul\":796:829   */\n      tag_89\n      jump\t// in\n    tag_124:\n        /* \"#utility.yul\":696:835   */\n      swap3\n      swap2\n      pop\n      pop\n      jump\t// out\n        /* \"#utility.yul\":841:1170   */\n    tag_13:\n        /* \"#utility.yul\":900:906   */\n      0x00\n        /* \"#utility.yul\":949:951   */\n      0x20\n        /* \"#utility.yul\":937:946   */\n      dup3\n        /* \"#utility.yul\":928:935   */\n      dup5\n        /* \"#utility.yul\":924:947   */\n      sub\n        /* \"#utility.yul\":920:952   */\n      slt\n        /* \"#utility.yul\":917:1036   */\n      iszero\n      tag_126\n      jumpi\n        /* \"#utility.yul\":955:1034   */\n      tag_127\n      tag_85\n      jump\t// in\n    tag_127:\n        /* \"#utility.yul\":917:1036   */\n    tag_126:\n        /* \"#utility.yul\":1075:1076   */\n      0x00\n        /* \"#utility.yul\":1100:1153   */\n      tag_128\n        /* \"#utility.yul\":1145:1152   */\n      dup5\n        /* \"#utility.yul\":1136:1142   */\n      dup3\n        /* \"#utility.yul\":1125:1134   */\n      dup6\n        /* \"#utility.yul\":1121:1143   */\n      add\n        /* \"#utility.yul\":1100:1153   */\n      tag_90\n      jump\t// in\n    tag_128:\n        /* \"#utility.yul\":1090:1153   */\n      swap2\n      pop\n        /* \"#utility.yul\":1046:1163   */\n      pop\n        /* \"#utility.yul\":841:1170   */\n      swap3\n      swap2\n      pop\n      pop\n      jump\t// out\n        /* \"#utility.yul\":1176:1253   */\n    tag_91:\n        /* \"#utility.yul\":1213:1220   */\n      0x00\n        /* \"#utility.yul\":1242:1247   */\n      dup2\n        /* \"#utility.yul\":1231:1247   */\n      swap1\n      pop\n        /* \"#utility.yul\":1176:1253   */\n      swap2\n      swap1\n      pop\n      jump\t// out\n        /* \"#utility.yul\":1259:1377   */\n    tag_92:\n        /* \"#utility.yul\":1346:1370   */\n      tag_131\n        /* \"#utility.yul\":1364:1369   */\n      dup2\n        /* \"#utility.yul\":1346:1370   */\n      tag_91\n      jump\t// in\n    tag_131:\n        /* \"#utility.yul\":1341:1344   */\n      dup3\n        /* \"#utility.yul\":1334:1371   */\n      mstore\n        /* \"#utility.yul\":1259:1377   */\n      pop\n      pop\n      jump\t// out\n        /* \"#utility.yul\":1383:1605   */\n    tag_16:\n        /* \"#utility.yul\":1476:1480   */\n      0x00\n        /* \"#utility.yul\":1514:1516   */\n      0x20\n        /* \"#utility.yul\":1503:1512   */\n      dup3\n        /* \"#utility.yul\":1499:1517   */\n      add\n        /* \"#utility.yul\":1491:1517   */\n      swap1\n      pop\n        /* \"#utility.yul\":1527:1598   */\n      tag_133\n        /* \"#utility.yul\":1595:1596   */\n      0x00\n        /* \"#utility.yul\":1584:1593   */\n      dup4\n        /* \"#utility.yul\":1580:1597   */\n      add\n        /* \"#utility.yul\":1571:1577   */\n      dup5\n        /* \"#utility.yul\":1527:1598   */\n      tag_92\n      jump\t// in\n    tag_133:\n        /* \"#utility.yul\":1383:1605   */\n      swap3\n      swap2\n      pop\n      pop\n      jump\t// out\n        /* \"#utility.yul\":1611:1733   */\n    tag_93:\n        /* \"#utility.yul\":1684:1708   */\n      tag_135\n        /* \"#utility.yul\":1702:1707   */\n      dup2\n        /* \"#utility.yul\":1684:1708   */\n      tag_91\n      jump\t// in\n    tag_135:\n        /* \"#utility.yul\":1677:1682   */\n      dup2\n        /* \"#utility.yul\":1674:1709   */\n      eq\n        /* \"#utility.yul\":1664:1727   */\n      tag_136\n      jumpi\n        /* \"#utility.yul\":1723:1724   */\n      0x00\n        /* \"#utility.yul\":1720:1721   */\n      dup1\n        /* \"#utility.yul\":1713:1725   */\n      revert\n        /* \"#utility.yul\":1664:1727   */\n    tag_136:\n        /* \"#utility.yul\":1611:1733   */\n      pop\n      jump\t// out\n        /* \"#utility.yul\":1739:1878   */\n    tag_94:\n        /* \"#utility.yul\":1785:1790   */\n      0x00\n        /* \"#utility.yul\":1823:1829   */\n      dup2\n        /* \"#utility.yul\":1810:1830   */\n      calldataload\n        /* \"#utility.yul\":1801:1830   */\n      swap1\n      pop\n        /* \"#utility.yul\":1839:1872   */\n      tag_138\n        /* \"#utility.yul\":1866:1871   */\n      dup2\n        /* \"#utility.yul\":1839:1872   */\n      tag_93\n      jump\t// in\n    tag_138:\n        /* \"#utility.yul\":1739:1878   */\n      swap3\n      swap2\n      pop\n      pop\n      jump\t// out\n        /* \"#utility.yul\":1884:2213   */\n    tag_22:\n        /* \"#utility.yul\":1943:1949   */\n      0x00\n        /* \"#utility.yul\":1992:1994   */\n      0x20\n        /* \"#utility.yul\":1980:1989   */\n      dup3\n        /* \"#utility.yul\":1971:1978   */\n      dup5\n        /* \"#utility.yul\":1967:1990   */\n      sub\n        /* \"#utility.yul\":1963:1995   */\n      slt\n        /* \"#utility.yul\":1960:2079   */\n      iszero\n      tag_140\n      jumpi\n        /* \"#utility.yul\":1998:2077   */\n      tag_141\n      tag_85\n      jump\t// in\n    tag_141:\n        /* \"#utility.yul\":1960:2079   */\n    tag_140:\n        /* \"#utility.yul\":2118:2119   */\n      0x00\n        /* \"#utility.yul\":2143:2196   */\n      tag_142\n        /* \"#utility.yul\":2188:2195   */\n      dup5\n        /* \"#utility.yul\":2179:2185   */\n      dup3\n        /* \"#utility.yul\":2168:2177   */\n      dup6\n        /* \"#utility.yul\":2164:2186   */\n      add\n        /* \"#utility.yul\":2143:2196   */\n      tag_94\n      jump\t// in\n    tag_142:\n        /* \"#utility.yul\":2133:2196   */\n      swap2\n      pop\n        /* \"#utility.yul\":2089:2206   */\n      pop\n        /* \"#utility.yul\":1884:2213   */\n      swap3\n      swap2\n      pop\n      pop\n      jump\t// out\n        /* \"#utility.yul\":2219:2337   */\n    tag_95:\n        /* \"#utility.yul\":2306:2330   */\n      tag_144\n        /* \"#utility.yul\":2324:2329   */\n      dup2\n        /* \"#utility.yul\":2306:2330   */\n      tag_88\n      jump\t// in\n    tag_144:\n        /* \"#utility.yul\":2301:2304   */\n      dup3\n        /* \"#utility.yul\":2294:2331   */\n      mstore\n        /* \"#utility.yul\":2219:2337   */\n      pop\n      pop\n      jump\t// out\n        /* \"#utility.yul\":2343:2565   */\n    tag_25:\n        /* \"#utility.yul\":2436:2440   */\n      0x00\n        /* \"#utility.yul\":2474:2476   */\n      0x20\n        /* \"#utility.yul\":2463:2472   */\n      dup3\n        /* \"#utility.yul\":2459:2477   */\n      add\n        /* \"#utility.yul\":2451:2477   */\n      swap1\n      pop\n        /* \"#utility.yul\":2487:2558   */\n      tag_146\n        /* \"#utility.yul\":2555:2556   */\n      0x00\n        /* \"#utility.yul\":2544:2553   */\n      dup4\n        /* \"#utility.yul\":2540:2557   */\n      add\n        /* \"#utility.yul\":2531:2537   */\n      dup5\n        /* \"#utility.yul\":2487:2558   */\n      tag_95\n      jump\t// in\n    tag_146:\n        /* \"#utility.yul\":2343:2565   */\n      swap3\n      swap2\n      pop\n      pop\n      jump\t// out\n        /* \"#utility.yul\":2571:2751   */\n    tag_36:\n        /* \"#utility.yul\":2619:2696   */\n      0x4e487b7100000000000000000000000000000000000000000000000000000000\n        /* \"#utility.yul\":2616:2617   */\n      0x00\n        /* \"#utility.yul\":2609:2697   */\n      mstore\n        /* \"#utility.yul\":2716:2720   */\n      0x32\n        /* \"#utility.yul\":2713:2714   */\n      0x04\n        /* \"#utility.yul\":2706:2721   */\n      mstore\n        /* \"#utility.yul\":2740:2744   */\n      0x24\n        /* \"#utility.yul\":2737:2738   */\n      0x00\n        /* \"#utility.yul\":2730:2745   */\n      revert\n        /* \"#utility.yul\":2757:2937   */\n    tag_40:\n        /* \"#utility.yul\":2805:2882   */\n      0x4e487b7100000000000000000000000000000000000000000000000000000000\n        /* \"#utility.yul\":2802:2803   */\n      0x00\n        /* \"#utility.yul\":2795:2883   */\n      mstore\n        /* \"#utility.yul\":2902:2906   */\n      0x41\n        /* \"#utility.yul\":2899:2900   */\n      0x04\n        /* \"#utility.yul\":2892:2907   */\n      mstore\n        /* \"#utility.yul\":2926:2930   */\n      0x24\n        /* \"#utility.yul\":2923:2924   */\n      0x00\n        /* \"#utility.yul\":2916:2931   */\n      revert\n        /* \"#utility.yul\":2943:3090   */\n    tag_96:\n        /* \"#utility.yul\":3044:3055   */\n      0x00\n        /* \"#utility.yul\":3081:3084   */\n      dup2\n        /* \"#utility.yul\":3066:3084   */\n      swap1\n      pop\n        /* \"#utility.yul\":2943:3090   */\n      swap3\n      swap2\n      pop\n      pop\n      jump\t// out\n        /* \"#utility.yul\":3096:3210   */\n    tag_97:\n      pop\n      jump\t// out\n        /* \"#utility.yul\":3216:3614   */\n    tag_98:\n        /* \"#utility.yul\":3375:3378   */\n      0x00\n        /* \"#utility.yul\":3396:3479   */\n      tag_152\n        /* \"#utility.yul\":3477:3478   */\n      0x00\n        /* \"#utility.yul\":3472:3475   */\n      dup4\n        /* \"#utility.yul\":3396:3479   */\n      tag_96\n      jump\t// in\n    tag_152:\n        /* \"#utility.yul\":3389:3479   */\n      swap2\n      pop\n        /* \"#utility.yul\":3488:3581   */\n      tag_153\n        /* \"#utility.yul\":3577:3580   */\n      dup3\n        /* \"#utility.yul\":3488:3581   */\n      tag_97\n      jump\t// in\n    tag_153:\n        /* \"#utility.yul\":3606:3607   */\n      0x00\n        /* \"#utility.yul\":3601:3604   */\n      dup3\n        /* \"#utility.yul\":3597:3608   */\n      add\n        /* \"#utility.yul\":3590:3608   */\n      swap1\n      pop\n        /* \"#utility.yul\":3216:3614   */\n      swap2\n      swap1\n      pop\n      jump\t// out\n        /* \"#utility.yul\":3620:3999   */\n    tag_45:\n        /* \"#utility.yul\":3804:3807   */\n      0x00\n        /* \"#utility.yul\":3826:3973   */\n      tag_155\n        /* \"#utility.yul\":3969:3972   */\n      dup3\n        /* \"#utility.yul\":3826:3973   */\n      tag_98\n      jump\t// in\n    tag_155:\n        /* \"#utility.yul\":3819:3973   */\n      swap2\n      pop\n        /* \"#utility.yul\":3990:3993   */\n      dup2\n        /* \"#utility.yul\":3983:3993   */\n      swap1\n      pop\n        /* \"#utility.yul\":3620:3999   */\n      swap2\n      swap1\n      pop\n      jump\t// out\n        /* \"#utility.yul\":4005:4174   */\n    tag_99:\n        /* \"#utility.yul\":4089:4100   */\n      0x00\n        /* \"#utility.yul\":4123:4129   */\n      dup3\n        /* \"#utility.yul\":4118:4121   */\n      dup3\n        /* \"#utility.yul\":4111:4130   */\n      mstore\n        /* \"#utility.yul\":4163:4167   */\n      0x20\n        /* \"#utility.yul\":4158:4161   */\n      dup3\n        /* \"#utility.yul\":4154:4168   */\n      add\n        /* \"#utility.yul\":4139:4168   */\n      swap1\n      pop\n        /* \"#utility.yul\":4005:4174   */\n      swap3\n      swap2\n      pop\n      pop\n      jump\t// out\n        /* \"#utility.yul\":4180:4341   */\n    tag_100:\n        /* \"#utility.yul\":4320:4333   */\n      0x43616c6c204661696c6564000000000000000000000000000000000000000000\n        /* \"#utility.yul\":4316:4317   */\n      0x00\n        /* \"#utility.yul\":4308:4314   */\n      dup3\n        /* \"#utility.yul\":4304:4318   */\n      add\n        /* \"#utility.yul\":4297:4334   */\n      mstore\n        /* \"#utility.yul\":4180:4341   */\n      pop\n      jump\t// out\n        /* \"#utility.yul\":4347:4713   */\n    tag_101:\n        /* \"#utility.yul\":4489:4492   */\n      0x00\n        /* \"#utility.yul\":4510:4577   */\n      tag_159\n        /* \"#utility.yul\":4574:4576   */\n      0x0b\n        /* \"#utility.yul\":4569:4572   */\n      dup4\n        /* \"#utility.yul\":4510:4577   */\n      tag_99\n      jump\t// in\n    tag_159:\n        /* \"#utility.yul\":4503:4577   */\n      swap2\n      pop\n        /* \"#utility.yul\":4586:4679   */\n      tag_160\n        /* \"#utility.yul\":4675:4678   */\n      dup3\n        /* \"#utility.yul\":4586:4679   */\n      tag_100\n      jump\t// in\n    tag_160:\n        /* \"#utility.yul\":4704:4706   */\n      0x20\n        /* \"#utility.yul\":4699:4702   */\n      dup3\n        /* \"#utility.yul\":4695:4707   */\n      add\n        /* \"#utility.yul\":4688:4707   */\n      swap1\n      pop\n        /* \"#utility.yul\":4347:4713   */\n      swap2\n      swap1\n      pop\n      jump\t// out\n        /* \"#utility.yul\":4719:5138   */\n    tag_51:\n        /* \"#utility.yul\":4885:4889   */\n      0x00\n        /* \"#utility.yul\":4923:4925   */\n      0x20\n        /* \"#utility.yul\":4912:4921   */\n      dup3\n        /* \"#utility.yul\":4908:4926   */\n      add\n        /* \"#utility.yul\":4900:4926   */\n      swap1\n      pop\n        /* \"#utility.yul\":4972:4981   */\n      dup2\n        /* \"#utility.yul\":4966:4970   */\n      dup2\n        /* \"#utility.yul\":4962:4982   */\n      sub\n        /* \"#utility.yul\":4958:4959   */\n      0x00\n        /* \"#utility.yul\":4947:4956   */\n      dup4\n        /* \"#utility.yul\":4943:4960   */\n      add\n        /* \"#utility.yul\":4936:4983   */\n      mstore\n        /* \"#utility.yul\":5000:5131   */\n      tag_162\n        /* \"#utility.yul\":5126:5130   */\n      dup2\n        /* \"#utility.yul\":5000:5131   */\n      tag_101\n      jump\t// in\n    tag_162:\n        /* \"#utility.yul\":4992:5131   */\n      swap1\n      pop\n        /* \"#utility.yul\":4719:5138   */\n      swap2\n      swap1\n      pop\n      jump\t// out\n        /* \"#utility.yul\":5144:5323   */\n    tag_102:\n        /* \"#utility.yul\":5284:5315   */\n      0x20596f75206469646e27742073656e7420656e6f756768204554482e20000000\n        /* \"#utility.yul\":5280:5281   */\n      0x00\n        /* \"#utility.yul\":5272:5278   */\n      dup3\n        /* \"#utility.yul\":5268:5282   */\n      add\n        /* \"#utility.yul\":5261:5316   */\n      mstore\n        /* \"#utility.yul\":5144:5323   */\n      pop\n      jump\t// out\n        /* \"#utility.yul\":5329:5695   */\n    tag_103:\n        /* \"#utility.yul\":5471:5474   */\n      0x00\n        /* \"#utility.yul\":5492:5559   */\n      tag_165\n        /* \"#utility.yul\":5556:5558   */\n      0x1d\n        /* \"#utility.yul\":5551:5554   */\n      dup4\n        /* \"#utility.yul\":5492:5559   */\n      tag_99\n      jump\t// in\n    tag_165:\n        /* \"#utility.yul\":5485:5559   */\n      swap2\n      pop\n        /* \"#utility.yul\":5568:5661   */\n      tag_166\n        /* \"#utility.yul\":5657:5660   */\n      dup3\n        /* \"#utility.yul\":5568:5661   */\n      tag_102\n      jump\t// in\n    tag_166:\n        /* \"#utility.yul\":5686:5688   */\n      0x20\n        /* \"#utility.yul\":5681:5684   */\n      dup3\n        /* \"#utility.yul\":5677:5689   */\n      add\n        /* \"#utility.yul\":5670:5689   */\n      swap1\n      pop\n        /* \"#utility.yul\":5329:5695   */\n      swap2\n      swap1\n      pop\n      jump\t// out\n        /* \"#utility.yul\":5701:6120   */\n    tag_57:\n        /* \"#utility.yul\":5867:5871   */\n      0x00\n        /* \"#utility.yul\":5905:5907   */\n      0x20\n        /* \"#utility.yul\":5894:5903   */\n      dup3\n        /* \"#utility.yul\":5890:5908   */\n      add\n        /* \"#utility.yul\":5882:5908   */\n      swap1\n      pop\n        /* \"#utility.yul\":5954:5963   */\n      dup2\n        /* \"#utility.yul\":5948:5952   */\n      dup2\n        /* \"#utility.yul\":5944:5964   */\n      sub\n        /* \"#utility.yul\":5940:5941   */\n      0x00\n        /* \"#utility.yul\":5929:5938   */\n      dup4\n        /* \"#utility.yul\":5925:5942   */\n      add\n        /* \"#utility.yul\":5918:5965   */\n      mstore\n        /* \"#utility.yul\":5982:6113   */\n      tag_168\n        /* \"#utility.yul\":6108:6112   */\n      dup2\n        /* \"#utility.yul\":5982:6113   */\n      tag_103\n      jump\t// in\n    tag_168:\n        /* \"#utility.yul\":5974:6113   */\n      swap1\n      pop\n        /* \"#utility.yul\":5701:6120   */\n      swap2\n      swap1\n      pop\n      jump\t// out\n        /* \"#utility.yul\":6126:6306   */\n    tag_104:\n        /* \"#utility.yul\":6174:6251   */\n      0x4e487b7100000000000000000000000000000000000000000000000000000000\n        /* \"#utility.yul\":6171:6172   */\n      0x00\n        /* \"#utility.yul\":6164:6252   */\n      mstore\n        /* \"#utility.yul\":6271:6275   */\n      0x11\n        /* \"#utility.yul\":6268:6269   */\n      0x04\n        /* \"#utility.yul\":6261:6276   */\n      mstore\n        /* \"#utility.yul\":6295:6299   */\n      0x24\n        /* \"#utility.yul\":6292:6293   */\n      0x00\n        /* \"#utility.yul\":6285:6300   */\n      revert\n        /* \"#utility.yul\":6312:6503   */\n    tag_60:\n        /* \"#utility.yul\":6352:6355   */\n      0x00\n        /* \"#utility.yul\":6371:6391   */\n      tag_171\n        /* \"#utility.yul\":6389:6390   */\n      dup3\n        /* \"#utility.yul\":6371:6391   */\n      tag_91\n      jump\t// in\n    tag_171:\n        /* \"#utility.yul\":6366:6391   */\n      swap2\n      pop\n        /* \"#utility.yul\":6405:6425   */\n      tag_172\n        /* \"#utility.yul\":6423:6424   */\n      dup4\n        /* \"#utility.yul\":6405:6425   */\n      tag_91\n      jump\t// in\n    tag_172:\n        /* \"#utility.yul\":6400:6425   */\n      swap3\n      pop\n        /* \"#utility.yul\":6448:6449   */\n      dup3\n        /* \"#utility.yul\":6445:6446   */\n      dup3\n        /* \"#utility.yul\":6441:6450   */\n      add\n        /* \"#utility.yul\":6434:6450   */\n      swap1\n      pop\n        /* \"#utility.yul\":6469:6472   */\n      dup1\n        /* \"#utility.yul\":6466:6467   */\n      dup3\n        /* \"#utility.yul\":6463:6473   */\n      gt\n        /* \"#utility.yul\":6460:6496   */\n      iszero\n      tag_173\n      jumpi\n        /* \"#utility.yul\":6476:6494   */\n      tag_174\n      tag_104\n      jump\t// in\n    tag_174:\n        /* \"#utility.yul\":6460:6496   */\n    tag_173:\n        /* \"#utility.yul\":6312:6503   */\n      swap3\n      swap2\n      pop\n      pop\n      jump\t// out\n        /* \"#utility.yul\":6509:6919   */\n    tag_67:\n        /* \"#utility.yul\":6549:6556   */\n      0x00\n        /* \"#utility.yul\":6572:6592   */\n      tag_176\n        /* \"#utility.yul\":6590:6591   */\n      dup3\n        /* \"#utility.yul\":6572:6592   */\n      tag_91\n      jump\t// in\n    tag_176:\n        /* \"#utility.yul\":6567:6592   */\n      swap2\n      pop\n        /* \"#utility.yul\":6606:6626   */\n      tag_177\n        /* \"#utility.yul\":6624:6625   */\n      dup4\n        /* \"#utility.yul\":6606:6626   */\n      tag_91\n      jump\t// in\n    tag_177:\n        /* \"#utility.yul\":6601:6626   */\n      swap3\n      pop\n        /* \"#utility.yul\":6661:6662   */\n      dup3\n        /* \"#utility.yul\":6658:6659   */\n      dup3\n        /* \"#utility.yul\":6654:6663   */\n      mul\n        /* \"#utility.yul\":6683:6713   */\n      tag_178\n        /* \"#utility.yul\":6701:6712   */\n      dup2\n        /* \"#utility.yul\":6683:6713   */\n      tag_91\n      jump\t// in\n    tag_178:\n        /* \"#utility.yul\":6672:6713   */\n      swap2\n      pop\n        /* \"#utility.yul\":6862:6863   */\n      dup3\n        /* \"#utility.yul\":6853:6860   */\n      dup3\n        /* \"#utility.yul\":6849:6864   */\n      div\n        /* \"#utility.yul\":6846:6847   */\n      dup5\n        /* \"#utility.yul\":6843:6865   */\n      eq\n        /* \"#utility.yul\":6823:6824   */\n      dup4\n        /* \"#utility.yul\":6816:6825   */\n      iszero\n        /* \"#utility.yul\":6796:6879   */\n      or\n        /* \"#utility.yul\":6773:6912   */\n      tag_179\n      jumpi\n        /* \"#utility.yul\":6892:6910   */\n      tag_180\n      tag_104\n      jump\t// in\n    tag_180:\n        /* \"#utility.yul\":6773:6912   */\n    tag_179:\n        /* \"#utility.yul\":6557:6919   */\n      pop\n        /* \"#utility.yul\":6509:6919   */\n      swap3\n      swap2\n      pop\n      pop\n      jump\t// out\n        /* \"#utility.yul\":6925:7105   */\n    tag_105:\n        /* \"#utility.yul\":6973:7050   */\n      0x4e487b7100000000000000000000000000000000000000000000000000000000\n        /* \"#utility.yul\":6970:6971   */\n      0x00\n        /* \"#utility.yul\":6963:7051   */\n      mstore\n        /* \"#utility.yul\":7070:7074   */\n      0x12\n        /* \"#utility.yul\":7067:7068   */\n      0x04\n        /* \"#utility.yul\":7060:7075   */\n      mstore\n        /* \"#utility.yul\":7094:7098   */\n      0x24\n        /* \"#utility.yul\":7091:7092   */\n      0x00\n        /* \"#utility.yul\":7084:7099   */\n      revert\n        /* \"#utility.yul\":7111:7296   */\n    tag_69:\n        /* \"#utility.yul\":7151:7152   */\n      0x00\n        /* \"#utility.yul\":7168:7188   */\n      tag_183\n        /* \"#utility.yul\":7186:7187   */\n      dup3\n        /* \"#utility.yul\":7168:7188   */\n      tag_91\n      jump\t// in\n    tag_183:\n        /* \"#utility.yul\":7163:7188   */\n      swap2\n      pop\n        /* \"#utility.yul\":7202:7222   */\n      tag_184\n        /* \"#utility.yul\":7220:7221   */\n      dup4\n        /* \"#utility.yul\":7202:7222   */\n      tag_91\n      jump\t// in\n    tag_184:\n        /* \"#utility.yul\":7197:7222   */\n      swap3\n      pop\n        /* \"#utility.yul\":7241:7242   */\n      dup3\n        /* \"#utility.yul\":7231:7266   */\n      tag_185\n      jumpi\n        /* \"#utility.yul\":7246:7264   */\n      tag_186\n      tag_105\n      jump\t// in\n    tag_186:\n        /* \"#utility.yul\":7231:7266   */\n    tag_185:\n        /* \"#utility.yul\":7288:7289   */\n      dup3\n        /* \"#utility.yul\":7285:7286   */\n      dup3\n        /* \"#utility.yul\":7281:7290   */\n      div\n        /* \"#utility.yul\":7276:7290   */\n      swap1\n      pop\n        /* \"#utility.yul\":7111:7296   */\n      swap3\n      swap2\n      pop\n      pop\n      jump\t// out\n        /* \"#utility.yul\":7302:7407   */\n    tag_106:\n        /* \"#utility.yul\":7338:7345   */\n      0x00\n        /* \"#utility.yul\":7378:7400   */\n      0xffffffffffffffffffff\n        /* \"#utility.yul\":7371:7376   */\n      dup3\n        /* \"#utility.yul\":7367:7401   */\n      and\n        /* \"#utility.yul\":7356:7401   */\n      swap1\n      pop\n        /* \"#utility.yul\":7302:7407   */\n      swap2\n      swap1\n      pop\n      jump\t// out\n        /* \"#utility.yul\":7413:7533   */\n    tag_107:\n        /* \"#utility.yul\":7485:7508   */\n      tag_189\n        /* \"#utility.yul\":7502:7507   */\n      dup2\n        /* \"#utility.yul\":7485:7508   */\n      tag_106\n      jump\t// in\n    tag_189:\n        /* \"#utility.yul\":7478:7483   */\n      dup2\n        /* \"#utility.yul\":7475:7509   */\n      eq\n        /* \"#utility.yul\":7465:7527   */\n      tag_190\n      jumpi\n        /* \"#utility.yul\":7523:7524   */\n      0x00\n        /* \"#utility.yul\":7520:7521   */\n      dup1\n        /* \"#utility.yul\":7513:7525   */\n      revert\n        /* \"#utility.yul\":7465:7527   */\n    tag_190:\n        /* \"#utility.yul\":7413:7533   */\n      pop\n      jump\t// out\n        /* \"#utility.yul\":7539:7680   */\n    tag_108:\n        /* \"#utility.yul\":7595:7600   */\n      0x00\n        /* \"#utility.yul\":7626:7632   */\n      dup2\n        /* \"#utility.yul\":7620:7633   */\n      mload\n        /* \"#utility.yul\":7611:7633   */\n      swap1\n      pop\n        /* \"#utility.yul\":7642:7674   */\n      tag_192\n        /* \"#utility.yul\":7668:7673   */\n      dup2\n        /* \"#utility.yul\":7642:7674   */\n      tag_107\n      jump\t// in\n    tag_192:\n        /* \"#utility.yul\":7539:7680   */\n      swap3\n      swap2\n      pop\n      pop\n      jump\t// out\n        /* \"#utility.yul\":7686:7762   */\n    tag_109:\n        /* \"#utility.yul\":7722:7729   */\n      0x00\n        /* \"#utility.yul\":7751:7756   */\n      dup2\n        /* \"#utility.yul\":7740:7756   */\n      swap1\n      pop\n        /* \"#utility.yul\":7686:7762   */\n      swap2\n      swap1\n      pop\n      jump\t// out\n        /* \"#utility.yul\":7768:7888   */\n    tag_110:\n        /* \"#utility.yul\":7840:7863   */\n      tag_195\n        /* \"#utility.yul\":7857:7862   */\n      dup2\n        /* \"#utility.yul\":7840:7863   */\n      tag_109\n      jump\t// in\n    tag_195:\n        /* \"#utility.yul\":7833:7838   */\n      dup2\n        /* \"#utility.yul\":7830:7864   */\n      eq\n        /* \"#utility.yul\":7820:7882   */\n      tag_196\n      jumpi\n        /* \"#utility.yul\":7878:7879   */\n      0x00\n        /* \"#utility.yul\":7875:7876   */\n      dup1\n        /* \"#utility.yul\":7868:7880   */\n      revert\n        /* \"#utility.yul\":7820:7882   */\n    tag_196:\n        /* \"#utility.yul\":7768:7888   */\n      pop\n      jump\t// out\n        /* \"#utility.yul\":7894:8035   */\n    tag_111:\n        /* \"#utility.yul\":7950:7955   */\n      0x00\n        /* \"#utility.yul\":7981:7987   */\n      dup2\n        /* \"#utility.yul\":7975:7988   */\n      mload\n        /* \"#utility.yul\":7966:7988   */\n      swap1\n      pop\n        /* \"#utility.yul\":7997:8029   */\n      tag_198\n        /* \"#utility.yul\":8023:8028   */\n      dup2\n        /* \"#utility.yul\":7997:8029   */\n      tag_110\n      jump\t// in\n    tag_198:\n        /* \"#utility.yul\":7894:8035   */\n      swap3\n      swap2\n      pop\n      pop\n      jump\t// out\n        /* \"#utility.yul\":8041:8184   */\n    tag_112:\n        /* \"#utility.yul\":8098:8103   */\n      0x00\n        /* \"#utility.yul\":8129:8135   */\n      dup2\n        /* \"#utility.yul\":8123:8136   */\n      mload\n        /* \"#utility.yul\":8114:8136   */\n      swap1\n      pop\n        /* \"#utility.yul\":8145:8178   */\n      tag_200\n        /* \"#utility.yul\":8172:8177   */\n      dup2\n        /* \"#utility.yul\":8145:8178   */\n      tag_93\n      jump\t// in\n    tag_200:\n        /* \"#utility.yul\":8041:8184   */\n      swap3\n      swap2\n      pop\n      pop\n      jump\t// out\n        /* \"#utility.yul\":8190:9161   */\n    tag_74:\n        /* \"#utility.yul\":8293:8299   */\n      0x00\n        /* \"#utility.yul\":8301:8307   */\n      dup1\n        /* \"#utility.yul\":8309:8315   */\n      0x00\n        /* \"#utility.yul\":8317:8323   */\n      dup1\n        /* \"#utility.yul\":8325:8331   */\n      0x00\n        /* \"#utility.yul\":8374:8377   */\n      0xa0\n        /* \"#utility.yul\":8362:8371   */\n      dup7\n        /* \"#utility.yul\":8353:8360   */\n      dup9\n        /* \"#utility.yul\":8349:8372   */\n      sub\n        /* \"#utility.yul\":8345:8378   */\n      slt\n        /* \"#utility.yul\":8342:8462   */\n      iszero\n      tag_202\n      jumpi\n        /* \"#utility.yul\":8381:8460   */\n      tag_203\n      tag_85\n      jump\t// in\n    tag_203:\n        /* \"#utility.yul\":8342:8462   */\n    tag_202:\n        /* \"#utility.yul\":8501:8502   */\n      0x00\n        /* \"#utility.yul\":8526:8589   */\n      tag_204\n        /* \"#utility.yul\":8581:8588   */\n      dup9\n        /* \"#utility.yul\":8572:8578   */\n      dup3\n        /* \"#utility.yul\":8561:8570   */\n      dup10\n        /* \"#utility.yul\":8557:8579   */\n      add\n        /* \"#utility.yul\":8526:8589   */\n      tag_108\n      jump\t// in\n    tag_204:\n        /* \"#utility.yul\":8516:8589   */\n      swap6\n      pop\n        /* \"#utility.yul\":8472:8599   */\n      pop\n        /* \"#utility.yul\":8638:8640   */\n      0x20\n        /* \"#utility.yul\":8664:8727   */\n      tag_205\n        /* \"#utility.yul\":8719:8726   */\n      dup9\n        /* \"#utility.yul\":8710:8716   */\n      dup3\n        /* \"#utility.yul\":8699:8708   */\n      dup10\n        /* \"#utility.yul\":8695:8717   */\n      add\n        /* \"#utility.yul\":8664:8727   */\n      tag_111\n      jump\t// in\n    tag_205:\n        /* \"#utility.yul\":8654:8727   */\n      swap5\n      pop\n        /* \"#utility.yul\":8609:8737   */\n      pop\n        /* \"#utility.yul\":8776:8778   */\n      0x40\n        /* \"#utility.yul\":8802:8866   */\n      tag_206\n        /* \"#utility.yul\":8858:8865   */\n      dup9\n        /* \"#utility.yul\":8849:8855   */\n      dup3\n        /* \"#utility.yul\":8838:8847   */\n      dup10\n        /* \"#utility.yul\":8834:8856   */\n      add\n        /* \"#utility.yul\":8802:8866   */\n      tag_112\n      jump\t// in\n    tag_206:\n        /* \"#utility.yul\":8792:8866   */\n      swap4\n      pop\n        /* \"#utility.yul\":8747:8876   */\n      pop\n        /* \"#utility.yul\":8915:8917   */\n      0x60\n        /* \"#utility.yul\":8941:9005   */\n      tag_207\n        /* \"#utility.yul\":8997:9004   */\n      dup9\n        /* \"#utility.yul\":8988:8994   */\n      dup3\n        /* \"#utility.yul\":8977:8986   */\n      dup10\n        /* \"#utility.yul\":8973:8995   */\n      add\n        /* \"#utility.yul\":8941:9005   */\n      tag_112\n      jump\t// in\n    tag_207:\n        /* \"#utility.yul\":8931:9005   */\n      swap3\n      pop\n        /* \"#utility.yul\":8886:9015   */\n      pop\n        /* \"#utility.yul\":9054:9057   */\n      0x80\n        /* \"#utility.yul\":9081:9144   */\n      tag_208\n        /* \"#utility.yul\":9136:9143   */\n      dup9\n        /* \"#utility.yul\":9127:9133   */\n      dup3\n        /* \"#utility.yul\":9116:9125   */\n      dup10\n        /* \"#utility.yul\":9112:9134   */\n      add\n        /* \"#utility.yul\":9081:9144   */\n      tag_108\n      jump\t// in\n    tag_208:\n        /* \"#utility.yul\":9071:9144   */\n      swap2\n      pop\n        /* \"#utility.yul\":9025:9154   */\n      pop\n        /* \"#utility.yul\":8190:9161   */\n      swap3\n      swap6\n      pop\n      swap3\n      swap6\n      swap1\n      swap4\n      pop\n      jump\t// out\n        /* \"#utility.yul\":9167:9723   */\n    tag_76:\n        /* \"#utility.yul\":9206:9213   */\n      0x00\n        /* \"#utility.yul\":9229:9248   */\n      tag_210\n        /* \"#utility.yul\":9246:9247   */\n      dup3\n        /* \"#utility.yul\":9229:9248   */\n      tag_109\n      jump\t// in\n    tag_210:\n        /* \"#utility.yul\":9224:9248   */\n      swap2\n      pop\n        /* \"#utility.yul\":9262:9281   */\n      tag_211\n        /* \"#utility.yul\":9279:9280   */\n      dup4\n        /* \"#utility.yul\":9262:9281   */\n      tag_109\n      jump\t// in\n    tag_211:\n        /* \"#utility.yul\":9257:9281   */\n      swap3\n      pop\n        /* \"#utility.yul\":9316:9317   */\n      dup3\n        /* \"#utility.yul\":9313:9314   */\n      dup3\n        /* \"#utility.yul\":9309:9318   */\n      mul\n        /* \"#utility.yul\":9338:9367   */\n      tag_212\n        /* \"#utility.yul\":9355:9366   */\n      dup2\n        /* \"#utility.yul\":9338:9367   */\n      tag_109\n      jump\t// in\n    tag_212:\n        /* \"#utility.yul\":9327:9367   */\n      swap2\n      pop\n        /* \"#utility.yul\":9425:9491   */\n      0x8000000000000000000000000000000000000000000000000000000000000000\n        /* \"#utility.yul\":9422:9423   */\n      dup5\n        /* \"#utility.yul\":9419:9492   */\n      eq\n        /* \"#utility.yul\":9415:9416   */\n      0x00\n        /* \"#utility.yul\":9412:9413   */\n      dup5\n        /* \"#utility.yul\":9408:9417   */\n      slt\n        /* \"#utility.yul\":9404:9493   */\n      and\n        /* \"#utility.yul\":9401:9516   */\n      iszero\n      tag_213\n      jumpi\n        /* \"#utility.yul\":9496:9514   */\n      tag_214\n      tag_104\n      jump\t// in\n    tag_214:\n        /* \"#utility.yul\":9401:9516   */\n    tag_213:\n        /* \"#utility.yul\":9666:9667   */\n      dup3\n        /* \"#utility.yul\":9657:9664   */\n      dup3\n        /* \"#utility.yul\":9652:9668   */\n      sdiv\n        /* \"#utility.yul\":9649:9650   */\n      dup5\n        /* \"#utility.yul\":9646:9669   */\n      eq\n        /* \"#utility.yul\":9626:9627   */\n      dup4\n        /* \"#utility.yul\":9619:9628   */\n      iszero\n        /* \"#utility.yul\":9599:9683   */\n      or\n        /* \"#utility.yul\":9576:9716   */\n      tag_215\n      jumpi\n        /* \"#utility.yul\":9696:9714   */\n      tag_216\n      tag_104\n      jump\t// in\n    tag_216:\n        /* \"#utility.yul\":9576:9716   */\n    tag_215:\n        /* \"#utility.yul\":9214:9723   */\n      pop\n        /* \"#utility.yul\":9167:9723   */\n      swap3\n      swap2\n      pop\n      pop\n      jump\t// out\n\n    auxdata: 0xa264697066735822122095730e82ed5f1ec3a271360cfe00bbba303028077946c1ef69b5ae51fcb618c264736f6c634300081a0033\n}\n",
				"bytecode": {
					"linkReferences": {},
					"object": "6080604052674563918244f400005f553480156019575f80fd5b50610ae6806100275f395ff3fe608060405260043610610049575f3560e01c80633ccfd60b1461004d578063942ccc9814610063578063b60d42881461009f578063dc0d3dff146100a9578063dc992aa0146100e5575b5f80fd5b348015610058575f80fd5b5061006161010f565b005b34801561006e575f80fd5b50610089600480360381019061008491906105eb565b6102b8565b604051610096919061062e565b60405180910390f35b6100a76102cd565b005b3480156100b4575f80fd5b506100cf60048036038101906100ca9190610671565b6103ce565b6040516100dc91906106ab565b60405180910390f35b3480156100f0575f80fd5b506100f9610409565b604051610106919061062e565b60405180910390f35b5f5b6001805490508110156101ad575f60018281548110610133576101326106c4565b5b905f5260205f20015f9054906101000a900473ffffffffffffffffffffffffffffffffffffffff1690505f60025f8373ffffffffffffffffffffffffffffffffffffffff1673ffffffffffffffffffffffffffffffffffffffff1681526020019081526020015f2081905550508080600101915050610111565b505f67ffffffffffffffff8111156101c8576101c76106f1565b5b6040519080825280602002602001820160405280156101f65781602001602082028036833780820191505090505b506001908051906020019061020c9291906104eb565b505f3373ffffffffffffffffffffffffffffffffffffffff16476040516102329061074b565b5f6040518083038185875af1925050503d805f811461026c576040519150601f19603f3d011682016040523d82523d5f602084013e610271565b606091505b50509050806102b5576040517f08c379a00000000000000000000000000000000000000000000000000000000081526004016102ac906107b9565b60405180910390fd5b50565b6002602052805f5260405f205f915090505481565b5f546102d83461040e565b1015610319576040517f08c379a000000000000000000000000000000000000000000000000000000000815260040161031090610821565b60405180910390fd5b600133908060018154018082558091505060019003905f5260205f20015f9091909190916101000a81548173ffffffffffffffffffffffffffffffffffffffff021916908373ffffffffffffffffffffffffffffffffffffffff1602179055503460025f3373ffffffffffffffffffffffffffffffffffffffff1673ffffffffffffffffffffffffffffffffffffffff1681526020019081526020015f205f8282546103c5919061086c565b92505081905550565b600181815481106103dd575f80fd5b905f5260205f20015f915054906101000a900473ffffffffffffffffffffffffffffffffffffffff1681565b5f5481565b5f80610418610446565b90505f670de0b6b3a76400008483610430919061089f565b61043a919061090d565b90508092505050919050565b5f8073694aa1769357215de4fac081bf1f309adc32530690505f8173ffffffffffffffffffffffffffffffffffffffff1663feaf968c6040518163ffffffff1660e01b815260040160a060405180830381865afa1580156104a9573d5f803e3d5ffd5b505050506040513d601f19601f820116820180604052508101906104cd91906109c3565b5050509150506402540be400816104e49190610a3a565b9250505090565b828054828255905f5260205f20908101928215610561579160200282015b82811115610560578251825f6101000a81548173ffffffffffffffffffffffffffffffffffffffff021916908373ffffffffffffffffffffffffffffffffffffffff16021790555091602001919060010190610509565b5b50905061056e9190610572565b5090565b5b80821115610589575f815f905550600101610573565b5090565b5f80fd5b5f73ffffffffffffffffffffffffffffffffffffffff82169050919050565b5f6105ba82610591565b9050919050565b6105ca816105b0565b81146105d4575f80fd5b50565b5f813590506105e5816105c1565b92915050565b5f60208284031215610600576105ff61058d565b5b5f61060d848285016105d7565b91505092915050565b5f819050919050565b61062881610616565b82525050565b5f6020820190506106415f83018461061f565b92915050565b61065081610616565b811461065a575f80fd5b50565b5f8135905061066b81610647565b92915050565b5f602082840312156106865761068561058d565b5b5f6106938482850161065d565b91505092915050565b6106a5816105b0565b82525050565b5f6020820190506106be5f83018461069c565b92915050565b7f4e487b71000000000000000000000000000000000000000000000000000000005f52603260045260245ffd5b7f4e487b71000000000000000000000000000000000000000000000000000000005f52604160045260245ffd5b5f81905092915050565b50565b5f6107365f8361071e565b915061074182610728565b5f82019050919050565b5f6107558261072b565b9150819050919050565b5f82825260208201905092915050565b7f43616c6c204661696c65640000000000000000000000000000000000000000005f82015250565b5f6107a3600b8361075f565b91506107ae8261076f565b602082019050919050565b5f6020820190508181035f8301526107d081610797565b9050919050565b7f20596f75206469646e27742073656e7420656e6f756768204554482e200000005f82015250565b5f61080b601d8361075f565b9150610816826107d7565b602082019050919050565b5f6020820190508181035f830152610838816107ff565b9050919050565b7f4e487b71000000000000000000000000000000000000000000000000000000005f52601160045260245ffd5b5f61087682610616565b915061088183610616565b92508282019050808211156108995761089861083f565b5b92915050565b5f6108a982610616565b91506108b483610616565b92508282026108c281610616565b915082820484148315176108d9576108d861083f565b5b5092915050565b7f4e487b71000000000000000000000000000000000000000000000000000000005f52601260045260245ffd5b5f61091782610616565b915061092283610616565b925082610932576109316108e0565b5b828204905092915050565b5f69ffffffffffffffffffff82169050919050565b61095b8161093d565b8114610965575f80fd5b50565b5f8151905061097681610952565b92915050565b5f819050919050565b61098e8161097c565b8114610998575f80fd5b50565b5f815190506109a981610985565b92915050565b5f815190506109bd81610647565b92915050565b5f805f805f60a086880312156109dc576109db61058d565b5b5f6109e988828901610968565b95505060206109fa8882890161099b565b9450506040610a0b888289016109af565b9350506060610a1c888289016109af565b9250506080610a2d88828901610968565b9150509295509295909350565b5f610a448261097c565b9150610a4f8361097c565b9250828202610a5d8161097c565b91507f800000000000000000000000000000000000000000000000000000000000000084145f84121615610a9457610a9361083f565b5b8282058414831517610aa957610aa861083f565b5b509291505056fea264697066735822122095730e82ed5f1ec3a271360cfe00bbba303028077946c1ef69b5ae51fcb618c264736f6c634300081a0033",
					"opcodes": "PUSH1 0x80 PUSH1 0x40 MSTORE PUSH8 0x4563918244F40000 PUSH0 SSTORE CALLVALUE DUP1 ISZERO PUSH1 0x19 JUMPI PUSH0 DUP1 REVERT JUMPDEST POP PUSH2 0xAE6 DUP1 PUSH2 0x27 PUSH0 CODECOPY PUSH0 RETURN INVALID PUSH1 0x80 PUSH1 0x40 MSTORE PUSH1 0x4 CALLDATASIZE LT PUSH2 0x49 JUMPI PUSH0 CALLDATALOAD PUSH1 0xE0 SHR DUP1 PUSH4 0x3CCFD60B EQ PUSH2 0x4D JUMPI DUP1 PUSH4 0x942CCC98 EQ PUSH2 0x63 JUMPI DUP1 PUSH4 0xB60D4288 EQ PUSH2 0x9F JUMPI DUP1 PUSH4 0xDC0D3DFF EQ PUSH2 0xA9 JUMPI DUP1 PUSH4 0xDC992AA0 EQ PUSH2 0xE5 JUMPI JUMPDEST PUSH0 DUP1 REVERT JUMPDEST CALLVALUE DUP1 ISZERO PUSH2 0x58 JUMPI PUSH0 DUP1 REVERT JUMPDEST POP PUSH2 0x61 PUSH2 0x10F JUMP JUMPDEST STOP JUMPDEST CALLVALUE DUP1 ISZERO PUSH2 0x6E JUMPI PUSH0 DUP1 REVERT JUMPDEST POP PUSH2 0x89 PUSH1 0x4 DUP1 CALLDATASIZE SUB DUP2 ADD SWAP1 PUSH2 0x84 SWAP2 SWAP1 PUSH2 0x5EB JUMP JUMPDEST PUSH2 0x2B8 JUMP JUMPDEST PUSH1 0x40 MLOAD PUSH2 0x96 SWAP2 SWAP1 PUSH2 0x62E JUMP JUMPDEST PUSH1 0x40 MLOAD DUP1 SWAP2 SUB SWAP1 RETURN JUMPDEST PUSH2 0xA7 PUSH2 0x2CD JUMP JUMPDEST STOP JUMPDEST CALLVALUE DUP1 ISZERO PUSH2 0xB4 JUMPI PUSH0 DUP1 REVERT JUMPDEST POP PUSH2 0xCF PUSH1 0x4 DUP1 CALLDATASIZE SUB DUP2 ADD SWAP1 PUSH2 0xCA SWAP2 SWAP1 PUSH2 0x671 JUMP JUMPDEST PUSH2 0x3CE JUMP JUMPDEST PUSH1 0x40 MLOAD PUSH2 0xDC SWAP2 SWAP1 PUSH2 0x6AB JUMP JUMPDEST PUSH1 0x40 MLOAD DUP1 SWAP2 SUB SWAP1 RETURN JUMPDEST CALLVALUE DUP1 ISZERO PUSH2 0xF0 JUMPI PUSH0 DUP1 REVERT JUMPDEST POP PUSH2 0xF9 PUSH2 0x409 JUMP JUMPDEST PUSH1 0x40 MLOAD PUSH2 0x106 SWAP2 SWAP1 PUSH2 0x62E JUMP JUMPDEST PUSH1 0x40 MLOAD DUP1 SWAP2 SUB SWAP1 RETURN JUMPDEST PUSH0 JUMPDEST PUSH1 0x1 DUP1 SLOAD SWAP1 POP DUP2 LT ISZERO PUSH2 0x1AD JUMPI PUSH0 PUSH1 0x1 DUP3 DUP2 SLOAD DUP2 LT PUSH2 0x133 JUMPI PUSH2 0x132 PUSH2 0x6C4 JUMP JUMPDEST JUMPDEST SWAP1 PUSH0 MSTORE PUSH1 0x20 PUSH0 KECCAK256 ADD PUSH0 SWAP1 SLOAD SWAP1 PUSH2 0x100 EXP SWAP1 DIV PUSH20 0xFFFFFFFFFFFFFFFFFFFFFFFFFFFFFFFFFFFFFFFF AND SWAP1 POP PUSH0 PUSH1 0x2 PUSH0 DUP4 PUSH20 0xFFFFFFFFFFFFFFFFFFFFFFFFFFFFFFFFFFFFFFFF AND PUSH20 0xFFFFFFFFFFFFFFFFFFFFFFFFFFFFFFFFFFFFFFFF AND DUP2 MSTORE PUSH1 0x20 ADD SWAP1 DUP2 MSTORE PUSH1 0x20 ADD PUSH0 KECCAK256 DUP2 SWAP1 SSTORE POP POP DUP1 DUP1 PUSH1 0x1 ADD SWAP2 POP POP PUSH2 0x111 JUMP JUMPDEST POP PUSH0 PUSH8 0xFFFFFFFFFFFFFFFF DUP2 GT ISZERO PUSH2 0x1C8 JUMPI PUSH2 0x1C7 PUSH2 0x6F1 JUMP JUMPDEST JUMPDEST PUSH1 0x40 MLOAD SWAP1 DUP1 DUP3 MSTORE DUP1 PUSH1 0x20 MUL PUSH1 0x20 ADD DUP3 ADD PUSH1 0x40 MSTORE DUP1 ISZERO PUSH2 0x1F6 JUMPI DUP2 PUSH1 0x20 ADD PUSH1 0x20 DUP3 MUL DUP1 CALLDATASIZE DUP4 CALLDATACOPY DUP1 DUP3 ADD SWAP2 POP POP SWAP1 POP JUMPDEST POP PUSH1 0x1 SWAP1 DUP1 MLOAD SWAP1 PUSH1 0x20 ADD SWAP1 PUSH2 0x20C SWAP3 SWAP2 SWAP1 PUSH2 0x4EB JUMP JUMPDEST POP PUSH0 CALLER PUSH20 0xFFFFFFFFFFFFFFFFFFFFFFFFFFFFFFFFFFFFFFFF AND SELFBALANCE PUSH1 0x40 MLOAD PUSH2 0x232 SWAP1 PUSH2 0x74B JUMP JUMPDEST PUSH0 PUSH1 0x40 MLOAD DUP1 DUP4 SUB DUP2 DUP6 DUP8 GAS CALL SWAP3 POP POP POP RETURNDATASIZE DUP1 PUSH0 DUP2 EQ PUSH2 0x26C JUMPI PUSH1 0x40 MLOAD SWAP2 POP PUSH1 0x1F NOT PUSH1 0x3F RETURNDATASIZE ADD AND DUP3 ADD PUSH1 0x40 MSTORE RETURNDATASIZE DUP3 MSTORE RETURNDATASIZE PUSH0 PUSH1 0x20 DUP5 ADD RETURNDATACOPY PUSH2 0x271 JUMP JUMPDEST PUSH1 0x60 SWAP2 POP JUMPDEST POP POP SWAP1 POP DUP1 PUSH2 0x2B5 JUMPI PUSH1 0x40 MLOAD PUSH32 0x8C379A000000000000000000000000000000000000000000000000000000000 DUP2 MSTORE PUSH1 0x4 ADD PUSH2 0x2AC SWAP1 PUSH2 0x7B9 JUMP JUMPDEST PUSH1 0x40 MLOAD DUP1 SWAP2 SUB SWAP1 REVERT JUMPDEST POP JUMP JUMPDEST PUSH1 0x2 PUSH1 0x20 MSTORE DUP1 PUSH0 MSTORE PUSH1 0x40 PUSH0 KECCAK256 PUSH0 SWAP2 POP SWAP1 POP SLOAD DUP2 JUMP JUMPDEST PUSH0 SLOAD PUSH2 0x2D8 CALLVALUE PUSH2 0x40E JUMP JUMPDEST LT ISZERO PUSH2 0x319 JUMPI PUSH1 0x40 MLOAD PUSH32 0x8C379A000000000000000000000000000000000000000000000000000000000 DUP2 MSTORE PUSH1 0x4 ADD PUSH2 0x310 SWAP1 PUSH2 0x821 JUMP JUMPDEST PUSH1 0x40 MLOAD DUP1 SWAP2 SUB SWAP1 REVERT JUMPDEST PUSH1 0x1 CALLER SWAP1 DUP1 PUSH1 0x1 DUP2 SLOAD ADD DUP1 DUP3 SSTORE DUP1 SWAP2 POP POP PUSH1 0x1 SWAP1 SUB SWAP1 PUSH0 MSTORE PUSH1 0x20 PUSH0 KECCAK256 ADD PUSH0 SWAP1 SWAP2 SWAP1 SWAP2 SWAP1 SWAP2 PUSH2 0x100 EXP DUP2 SLOAD DUP2 PUSH20 0xFFFFFFFFFFFFFFFFFFFFFFFFFFFFFFFFFFFFFFFF MUL NOT AND SWAP1 DUP4 PUSH20 0xFFFFFFFFFFFFFFFFFFFFFFFFFFFFFFFFFFFFFFFF AND MUL OR SWAP1 SSTORE POP CALLVALUE PUSH1 0x2 PUSH0 CALLER PUSH20 0xFFFFFFFFFFFFFFFFFFFFFFFFFFFFFFFFFFFFFFFF AND PUSH20 0xFFFFFFFFFFFFFFFFFFFFFFFFFFFFFFFFFFFFFFFF AND DUP2 MSTORE PUSH1 0x20 ADD SWAP1 DUP2 MSTORE PUSH1 0x20 ADD PUSH0 KECCAK256 PUSH0 DUP3 DUP3 SLOAD PUSH2 0x3C5 SWAP2 SWAP1 PUSH2 0x86C JUMP JUMPDEST SWAP3 POP POP DUP2 SWAP1 SSTORE POP JUMP JUMPDEST PUSH1 0x1 DUP2 DUP2 SLOAD DUP2 LT PUSH2 0x3DD JUMPI PUSH0 DUP1 REVERT JUMPDEST SWAP1 PUSH0 MSTORE PUSH1 0x20 PUSH0 KECCAK256 ADD PUSH0 SWAP2 POP SLOAD SWAP1 PUSH2 0x100 EXP SWAP1 DIV PUSH20 0xFFFFFFFFFFFFFFFFFFFFFFFFFFFFFFFFFFFFFFFF AND DUP2 JUMP JUMPDEST PUSH0 SLOAD DUP2 JUMP JUMPDEST PUSH0 DUP1 PUSH2 0x418 PUSH2 0x446 JUMP JUMPDEST SWAP1 POP PUSH0 PUSH8 0xDE0B6B3A7640000 DUP5 DUP4 PUSH2 0x430 SWAP2 SWAP1 PUSH2 0x89F JUMP JUMPDEST PUSH2 0x43A SWAP2 SWAP1 PUSH2 0x90D JUMP JUMPDEST SWAP1 POP DUP1 SWAP3 POP POP POP SWAP2 SWAP1 POP JUMP JUMPDEST PUSH0 DUP1 PUSH20 0x694AA1769357215DE4FAC081BF1F309ADC325306 SWAP1 POP PUSH0 DUP2 PUSH20 0xFFFFFFFFFFFFFFFFFFFFFFFFFFFFFFFFFFFFFFFF AND PUSH4 0xFEAF968C PUSH1 0x40 MLOAD DUP2 PUSH4 0xFFFFFFFF AND PUSH1 0xE0 SHL DUP2 MSTORE PUSH1 0x4 ADD PUSH1 0xA0 PUSH1 0x40 MLOAD DUP1 DUP4 SUB DUP2 DUP7 GAS STATICCALL ISZERO DUP1 ISZERO PUSH2 0x4A9 JUMPI RETURNDATASIZE PUSH0 DUP1 RETURNDATACOPY RETURNDATASIZE PUSH0 REVERT JUMPDEST POP POP POP POP PUSH1 0x40 MLOAD RETURNDATASIZE PUSH1 0x1F NOT PUSH1 0x1F DUP3 ADD AND DUP3 ADD DUP1 PUSH1 0x40 MSTORE POP DUP2 ADD SWAP1 PUSH2 0x4CD SWAP2 SWAP1 PUSH2 0x9C3 JUMP JUMPDEST POP POP POP SWAP2 POP POP PUSH5 0x2540BE400 DUP2 PUSH2 0x4E4 SWAP2 SWAP1 PUSH2 0xA3A JUMP JUMPDEST SWAP3 POP POP POP SWAP1 JUMP JUMPDEST DUP3 DUP1 SLOAD DUP3 DUP3 SSTORE SWAP1 PUSH0 MSTORE PUSH1 0x20 PUSH0 KECCAK256 SWAP1 DUP2 ADD SWAP3 DUP3 ISZERO PUSH2 0x561 JUMPI SWAP2 PUSH1 0x20 MUL DUP3 ADD JUMPDEST DUP3 DUP2 GT ISZERO PUSH2 0x560 JUMPI DUP3 MLOAD DUP3 PUSH0 PUSH2 0x100 EXP DUP2 SLOAD DUP2 PUSH20 0xFFFFFFFFFFFFFFFFFFFFFFFFFFFFFFFFFFFFFFFF MUL NOT AND SWAP1 DUP4 PUSH20 0xFFFFFFFFFFFFFFFFFFFFFFFFFFFFFFFFFFFFFFFF AND MUL OR SWAP1 SSTORE POP SWAP2 PUSH1 0x20 ADD SWAP2 SWAP1 PUSH1 0x1 ADD SWAP1 PUSH2 0x509 JUMP JUMPDEST JUMPDEST POP SWAP1 POP PUSH2 0x56E SWAP2 SWAP1 PUSH2 0x572 JUMP JUMPDEST POP SWAP1 JUMP JUMPDEST JUMPDEST DUP1 DUP3 GT ISZERO PUSH2 0x589 JUMPI PUSH0 DUP2 PUSH0 SWAP1 SSTORE POP PUSH1 0x1 ADD PUSH2 0x573 JUMP JUMPDEST POP SWAP1 JUMP JUMPDEST PUSH0 DUP1 REVERT JUMPDEST PUSH0 PUSH20 0xFFFFFFFFFFFFFFFFFFFFFFFFFFFFFFFFFFFFFFFF DUP3 AND SWAP1 POP SWAP2 SWAP1 POP JUMP JUMPDEST PUSH0 PUSH2 0x5BA DUP3 PUSH2 0x591 JUMP JUMPDEST SWAP1 POP SWAP2 SWAP1 POP JUMP JUMPDEST PUSH2 0x5CA DUP2 PUSH2 0x5B0 JUMP JUMPDEST DUP2 EQ PUSH2 0x5D4 JUMPI PUSH0 DUP1 REVERT JUMPDEST POP JUMP JUMPDEST PUSH0 DUP2 CALLDATALOAD SWAP1 POP PUSH2 0x5E5 DUP2 PUSH2 0x5C1 JUMP JUMPDEST SWAP3 SWAP2 POP POP JUMP JUMPDEST PUSH0 PUSH1 0x20 DUP3 DUP5 SUB SLT ISZERO PUSH2 0x600 JUMPI PUSH2 0x5FF PUSH2 0x58D JUMP JUMPDEST JUMPDEST PUSH0 PUSH2 0x60D DUP5 DUP3 DUP6 ADD PUSH2 0x5D7 JUMP JUMPDEST SWAP2 POP POP SWAP3 SWAP2 POP POP JUMP JUMPDEST PUSH0 DUP2 SWAP1 POP SWAP2 SWAP1 POP JUMP JUMPDEST PUSH2 0x628 DUP2 PUSH2 0x616 JUMP JUMPDEST DUP3 MSTORE POP POP JUMP JUMPDEST PUSH0 PUSH1 0x20 DUP3 ADD SWAP1 POP PUSH2 0x641 PUSH0 DUP4 ADD DUP5 PUSH2 0x61F JUMP JUMPDEST SWAP3 SWAP2 POP POP JUMP JUMPDEST PUSH2 0x650 DUP2 PUSH2 0x616 JUMP JUMPDEST DUP2 EQ PUSH2 0x65A JUMPI PUSH0 DUP1 REVERT JUMPDEST POP JUMP JUMPDEST PUSH0 DUP2 CALLDATALOAD SWAP1 POP PUSH2 0x66B DUP2 PUSH2 0x647 JUMP JUMPDEST SWAP3 SWAP2 POP POP JUMP JUMPDEST PUSH0 PUSH1 0x20 DUP3 DUP5 SUB SLT ISZERO PUSH2 0x686 JUMPI PUSH2 0x685 PUSH2 0x58D JUMP JUMPDEST JUMPDEST PUSH0 PUSH2 0x693 DUP5 DUP3 DUP6 ADD PUSH2 0x65D JUMP JUMPDEST SWAP2 POP POP SWAP3 SWAP2 POP POP JUMP JUMPDEST PUSH2 0x6A5 DUP2 PUSH2 0x5B0 JUMP JUMPDEST DUP3 MSTORE POP POP JUMP JUMPDEST PUSH0 PUSH1 0x20 DUP3 ADD SWAP1 POP PUSH2 0x6BE PUSH0 DUP4 ADD DUP5 PUSH2 0x69C JUMP JUMPDEST SWAP3 SWAP2 POP POP JUMP JUMPDEST PUSH32 0x4E487B7100000000000000000000000000000000000000000000000000000000 PUSH0 MSTORE PUSH1 0x32 PUSH1 0x4 MSTORE PUSH1 0x24 PUSH0 REVERT JUMPDEST PUSH32 0x4E487B7100000000000000000000000000000000000000000000000000000000 PUSH0 MSTORE PUSH1 0x41 PUSH1 0x4 MSTORE PUSH1 0x24 PUSH0 REVERT JUMPDEST PUSH0 DUP2 SWAP1 POP SWAP3 SWAP2 POP POP JUMP JUMPDEST POP JUMP JUMPDEST PUSH0 PUSH2 0x736 PUSH0 DUP4 PUSH2 0x71E JUMP JUMPDEST SWAP2 POP PUSH2 0x741 DUP3 PUSH2 0x728 JUMP JUMPDEST PUSH0 DUP3 ADD SWAP1 POP SWAP2 SWAP1 POP JUMP JUMPDEST PUSH0 PUSH2 0x755 DUP3 PUSH2 0x72B JUMP JUMPDEST SWAP2 POP DUP2 SWAP1 POP SWAP2 SWAP1 POP JUMP JUMPDEST PUSH0 DUP3 DUP3 MSTORE PUSH1 0x20 DUP3 ADD SWAP1 POP SWAP3 SWAP2 POP POP JUMP JUMPDEST PUSH32 0x43616C6C204661696C6564000000000000000000000000000000000000000000 PUSH0 DUP3 ADD MSTORE POP JUMP JUMPDEST PUSH0 PUSH2 0x7A3 PUSH1 0xB DUP4 PUSH2 0x75F JUMP JUMPDEST SWAP2 POP PUSH2 0x7AE DUP3 PUSH2 0x76F JUMP JUMPDEST PUSH1 0x20 DUP3 ADD SWAP1 POP SWAP2 SWAP1 POP JUMP JUMPDEST PUSH0 PUSH1 0x20 DUP3 ADD SWAP1 POP DUP2 DUP2 SUB PUSH0 DUP4 ADD MSTORE PUSH2 0x7D0 DUP2 PUSH2 0x797 JUMP JUMPDEST SWAP1 POP SWAP2 SWAP1 POP JUMP JUMPDEST PUSH32 0x20596F75206469646E27742073656E7420656E6F756768204554482E20000000 PUSH0 DUP3 ADD MSTORE POP JUMP JUMPDEST PUSH0 PUSH2 0x80B PUSH1 0x1D DUP4 PUSH2 0x75F JUMP JUMPDEST SWAP2 POP PUSH2 0x816 DUP3 PUSH2 0x7D7 JUMP JUMPDEST PUSH1 0x20 DUP3 ADD SWAP1 POP SWAP2 SWAP1 POP JUMP JUMPDEST PUSH0 PUSH1 0x20 DUP3 ADD SWAP1 POP DUP2 DUP2 SUB PUSH0 DUP4 ADD MSTORE PUSH2 0x838 DUP2 PUSH2 0x7FF JUMP JUMPDEST SWAP1 POP SWAP2 SWAP1 POP JUMP JUMPDEST PUSH32 0x4E487B7100000000000000000000000000000000000000000000000000000000 PUSH0 MSTORE PUSH1 0x11 PUSH1 0x4 MSTORE PUSH1 0x24 PUSH0 REVERT JUMPDEST PUSH0 PUSH2 0x876 DUP3 PUSH2 0x616 JUMP JUMPDEST SWAP2 POP PUSH2 0x881 DUP4 PUSH2 0x616 JUMP JUMPDEST SWAP3 POP DUP3 DUP3 ADD SWAP1 POP DUP1 DUP3 GT ISZERO PUSH2 0x899 JUMPI PUSH2 0x898 PUSH2 0x83F JUMP JUMPDEST JUMPDEST SWAP3 SWAP2 POP POP JUMP JUMPDEST PUSH0 PUSH2 0x8A9 DUP3 PUSH2 0x616 JUMP JUMPDEST SWAP2 POP PUSH2 0x8B4 DUP4 PUSH2 0x616 JUMP JUMPDEST SWAP3 POP DUP3 DUP3 MUL PUSH2 0x8C2 DUP2 PUSH2 0x616 JUMP JUMPDEST SWAP2 POP DUP3 DUP3 DIV DUP5 EQ DUP4 ISZERO OR PUSH2 0x8D9 JUMPI PUSH2 0x8D8 PUSH2 0x83F JUMP JUMPDEST JUMPDEST POP SWAP3 SWAP2 POP POP JUMP JUMPDEST PUSH32 0x4E487B7100000000000000000000000000000000000000000000000000000000 PUSH0 MSTORE PUSH1 0x12 PUSH1 0x4 MSTORE PUSH1 0x24 PUSH0 REVERT JUMPDEST PUSH0 PUSH2 0x917 DUP3 PUSH2 0x616 JUMP JUMPDEST SWAP2 POP PUSH2 0x922 DUP4 PUSH2 0x616 JUMP JUMPDEST SWAP3 POP DUP3 PUSH2 0x932 JUMPI PUSH2 0x931 PUSH2 0x8E0 JUMP JUMPDEST JUMPDEST DUP3 DUP3 DIV SWAP1 POP SWAP3 SWAP2 POP POP JUMP JUMPDEST PUSH0 PUSH10 0xFFFFFFFFFFFFFFFFFFFF DUP3 AND SWAP1 POP SWAP2 SWAP1 POP JUMP JUMPDEST PUSH2 0x95B DUP2 PUSH2 0x93D JUMP JUMPDEST DUP2 EQ PUSH2 0x965 JUMPI PUSH0 DUP1 REVERT JUMPDEST POP JUMP JUMPDEST PUSH0 DUP2 MLOAD SWAP1 POP PUSH2 0x976 DUP2 PUSH2 0x952 JUMP JUMPDEST SWAP3 SWAP2 POP POP JUMP JUMPDEST PUSH0 DUP2 SWAP1 POP SWAP2 SWAP1 POP JUMP JUMPDEST PUSH2 0x98E DUP2 PUSH2 0x97C JUMP JUMPDEST DUP2 EQ PUSH2 0x998 JUMPI PUSH0 DUP1 REVERT JUMPDEST POP JUMP JUMPDEST PUSH0 DUP2 MLOAD SWAP1 POP PUSH2 0x9A9 DUP2 PUSH2 0x985 JUMP JUMPDEST SWAP3 SWAP2 POP POP JUMP JUMPDEST PUSH0 DUP2 MLOAD SWAP1 POP PUSH2 0x9BD DUP2 PUSH2 0x647 JUMP JUMPDEST SWAP3 SWAP2 POP POP JUMP JUMPDEST PUSH0 DUP1 PUSH0 DUP1 PUSH0 PUSH1 0xA0 DUP7 DUP9 SUB SLT ISZERO PUSH2 0x9DC JUMPI PUSH2 0x9DB PUSH2 0x58D JUMP JUMPDEST JUMPDEST PUSH0 PUSH2 0x9E9 DUP9 DUP3 DUP10 ADD PUSH2 0x968 JUMP JUMPDEST SWAP6 POP POP PUSH1 0x20 PUSH2 0x9FA DUP9 DUP3 DUP10 ADD PUSH2 0x99B JUMP JUMPDEST SWAP5 POP POP PUSH1 0x40 PUSH2 0xA0B DUP9 DUP3 DUP10 ADD PUSH2 0x9AF JUMP JUMPDEST SWAP4 POP POP PUSH1 0x60 PUSH2 0xA1C DUP9 DUP3 DUP10 ADD PUSH2 0x9AF JUMP JUMPDEST SWAP3 POP POP PUSH1 0x80 PUSH2 0xA2D DUP9 DUP3 DUP10 ADD PUSH2 0x968 JUMP JUMPDEST SWAP2 POP POP SWAP3 SWAP6 POP SWAP3 SWAP6 SWAP1 SWAP4 POP JUMP JUMPDEST PUSH0 PUSH2 0xA44 DUP3 PUSH2 0x97C JUMP JUMPDEST SWAP2 POP PUSH2 0xA4F DUP4 PUSH2 0x97C JUMP JUMPDEST SWAP3 POP DUP3 DUP3 MUL PUSH2 0xA5D DUP2 PUSH2 0x97C JUMP JUMPDEST SWAP2 POP PUSH32 0x8000000000000000000000000000000000000000000000000000000000000000 DUP5 EQ PUSH0 DUP5 SLT AND ISZERO PUSH2 0xA94 JUMPI PUSH2 0xA93 PUSH2 0x83F JUMP JUMPDEST JUMPDEST DUP3 DUP3 SDIV DUP5 EQ DUP4 ISZERO OR PUSH2 0xAA9 JUMPI PUSH2 0xAA8 PUSH2 0x83F JUMP JUMPDEST JUMPDEST POP SWAP3 SWAP2 POP POP JUMP INVALID LOG2 PUSH5 0x6970667358 0x22 SLT KECCAK256 SWAP6 PUSH20 0xE82ED5F1EC3A271360CFE00BBBA303028077946 0xC1 0xEF PUSH10 0xB5AE51FCB618C264736F PUSH13 0x634300081A0033000000000000 "
				},
				"gasEstimates": {
					"creation": {
						"codeDepositCost": "558000",
						"executionCost": "22697",
						"totalCost": "580697"
					},
					"external": {
						"fund()": "infinite",
						"funders(uint256)": "4988",
						"minUSD()": "2490",
						"valueSent(address)": "2802",
						"withdraw()": "infinite"
					}
				},
				"methodIdentifiers": {
					"fund()": "b60d4288",
					"funders(uint256)": "dc0d3dff",
					"minUSD()": "dc992aa0",
					"valueSent(address)": "942ccc98",
					"withdraw()": "3ccfd60b"
				}
			},
			"storageLayout": {
				"storage": [
					{
						"astId": 55,
						"contract": "FundMe.sol:FundMe",
						"label": "minUSD",
						"offset": 0,
						"slot": "0",
						"type": "t_uint256"
					},
					{
						"astId": 58,
						"contract": "FundMe.sol:FundMe",
						"label": "funders",
						"offset": 0,
						"slot": "1",
						"type": "t_array(t_address)dyn_storage"
					},
					{
						"astId": 62,
						"contract": "FundMe.sol:FundMe",
						"label": "valueSent",
						"offset": 0,
						"slot": "2",
						"type": "t_mapping(t_address,t_uint256)"
					}
				],
				"types": {
					"t_address": {
						"encoding": "inplace",
						"label": "address",
						"numberOfBytes": "20"
					},
					"t_array(t_address)dyn_storage": {
						"base": "t_address",
						"encoding": "dynamic_array",
						"label": "address[]",
						"numberOfBytes": "32"
					},
					"t_mapping(t_address,t_uint256)": {
						"encoding": "mapping",
						"key": "t_address",
						"label": "mapping(address => uint256)",
						"numberOfBytes": "32",
						"value": "t_uint256"
					},
					"t_uint256": {
						"encoding": "inplace",
						"label": "uint256",
						"numberOfBytes": "32"
					}
				}
			},
			"userdoc": {
				"kind": "user",
				"methods": {},
				"version": 1
			}
		}
	}
}