{
	"FundMe.sol": {
		"FundMe": {
			"abi": [
				{
					"inputs": [],
					"stateMutability": "nonpayable",
					"type": "constructor"
				},
				{
					"inputs": [],
					"name": "lessAmount",
					"type": "error"
				},
				{
					"inputs": [],
					"name": "notOwner",
					"type": "error"
				},
				{
					"stateMutability": "payable",
					"type": "fallback"
				},
				{
					"inputs": [],
					"name": "MIN_USD",
					"outputs": [
						{
							"internalType": "uint256",
							"name": "",
							"type": "uint256"
						}
					],
					"stateMutability": "view",
					"type": "function"
				},
				{
					"inputs": [],
					"name": "fund",
					"outputs": [],
					"stateMutability": "payable",
					"type": "function"
				},
				{
					"inputs": [
						{
							"internalType": "uint256",
							"name": "",
							"type": "uint256"
						}
					],
					"name": "funders",
					"outputs": [
						{
							"internalType": "address",
							"name": "",
							"type": "address"
						}
					],
					"stateMutability": "view",
					"type": "function"
				},
				{
					"inputs": [],
					"name": "i_owner",
					"outputs": [
						{
							"internalType": "address",
							"name": "",
							"type": "address"
						}
					],
					"stateMutability": "view",
					"type": "function"
				},
				{
					"inputs": [
						{
							"internalType": "address",
							"name": "funder",
							"type": "address"
						}
					],
					"name": "valueSent",
					"outputs": [
						{
							"internalType": "uint256",
							"name": "amountFunded",
							"type": "uint256"
						}
					],
					"stateMutability": "view",
					"type": "function"
				},
				{
					"inputs": [],
					"name": "withdraw",
					"outputs": [],
					"stateMutability": "nonpayable",
					"type": "function"
				},
				{
					"stateMutability": "payable",
					"type": "receive"
				}
			],
			"devdoc": {
				"kind": "dev",
				"methods": {},
				"version": 1
			},
			"evm": {
				"assembly": "    /* \"FundMe.sol\":367:4260  contract FundMe... */\n  mstore(0x40, 0xa0)\n    /* \"FundMe.sol\":1810:1864  constructor()... */\n  callvalue\n  dup1\n  iszero\n  tag_1\n  jumpi\n  0x00\n  dup1\n  revert\ntag_1:\n  pop\n    /* \"FundMe.sol\":1846:1856  msg.sender */\n  caller\n    /* \"FundMe.sol\":1838:1856  i_owner=msg.sender */\n  0xffffffffffffffffffffffffffffffffffffffff\n  and\n  0x80\n  dup2\n  0xffffffffffffffffffffffffffffffffffffffff\n  and\n  dup2\n  mstore\n  pop\n  pop\n    /* \"FundMe.sol\":367:4260  contract FundMe... */\n  mload(0x80)\n  codecopy(0x00, dataOffset(sub_0), dataSize(sub_0))\n  0x00\n  assignImmutable(\"0xcc143a676b82d5e07b2c9d57717b403ab3c58caa273a42cdb95b15980141a86c\")\n  return(0x00, dataSize(sub_0))\nstop\n\nsub_0: assembly {\n        /* \"FundMe.sol\":367:4260  contract FundMe... */\n      mstore(0x40, 0x80)\n      jumpi(tag_1, lt(calldatasize, 0x04))\n      shr(0xe0, calldataload(0x00))\n      dup1\n      0x213dbea2\n      eq\n      tag_3\n      jumpi\n      dup1\n      0x3ccfd60b\n      eq\n      tag_4\n      jumpi\n      dup1\n      0x942ccc98\n      eq\n      tag_5\n      jumpi\n      dup1\n      0xb60d4288\n      eq\n      tag_6\n      jumpi\n      dup1\n      0xdba6335f\n      eq\n      tag_7\n      jumpi\n      dup1\n      0xdc0d3dff\n      eq\n      tag_8\n      jumpi\n      jump(tag_2)\n    tag_1:\n      jumpi(tag_2, calldatasize)\n        /* \"FundMe.sol\":4179:4185  fund() */\n      tag_11\n        /* \"FundMe.sol\":4179:4183  fund */\n      tag_12\n        /* \"FundMe.sol\":4179:4185  fund() */\n      jump\t// in\n    tag_11:\n        /* \"FundMe.sol\":367:4260  contract FundMe... */\n      stop\n    tag_2:\n        /* \"FundMe.sol\":4243:4249  fund() */\n      tag_15\n        /* \"FundMe.sol\":4243:4247  fund */\n      tag_12\n        /* \"FundMe.sol\":4243:4249  fund() */\n      jump\t// in\n    tag_15:\n        /* \"FundMe.sol\":367:4260  contract FundMe... */\n      stop\n        /* \"FundMe.sol\":428:463  uint public constant MIN_USD = 5e18 */\n    tag_3:\n      callvalue\n      dup1\n      iszero\n      tag_16\n      jumpi\n      0x00\n      dup1\n      revert\n    tag_16:\n      pop\n      tag_17\n      tag_18\n      jump\t// in\n    tag_17:\n      mload(0x40)\n      tag_19\n      swap2\n      swap1\n      tag_20\n      jump\t// in\n    tag_19:\n      mload(0x40)\n      dup1\n      swap2\n      sub\n      swap1\n      return\n        /* \"FundMe.sol\":1872:3346  function withdraw() onlyOwner public... */\n    tag_4:\n      callvalue\n      dup1\n      iszero\n      tag_21\n      jumpi\n      0x00\n      dup1\n      revert\n    tag_21:\n      pop\n      tag_22\n      tag_23\n      jump\t// in\n    tag_22:\n      stop\n        /* \"FundMe.sol\":501:561  mapping(address funder =>uint amountFunded) public valueSent */\n    tag_5:\n      callvalue\n      dup1\n      iszero\n      tag_24\n      jumpi\n      0x00\n      dup1\n      revert\n    tag_24:\n      pop\n      tag_25\n      0x04\n      dup1\n      calldatasize\n      sub\n      dup2\n      add\n      swap1\n      tag_26\n      swap2\n      swap1\n      tag_27\n      jump\t// in\n    tag_26:\n      tag_28\n      jump\t// in\n    tag_25:\n      mload(0x40)\n      tag_29\n      swap2\n      swap1\n      tag_20\n      jump\t// in\n    tag_29:\n      mload(0x40)\n      dup1\n      swap2\n      sub\n      swap1\n      return\n        /* \"FundMe.sol\":648:1132  function fund() public payable... */\n    tag_6:\n      tag_30\n      tag_12\n      jump\t// in\n    tag_30:\n      stop\n        /* \"FundMe.sol\":568:600  address public immutable i_owner */\n    tag_7:\n      callvalue\n      dup1\n      iszero\n      tag_31\n      jumpi\n      0x00\n      dup1\n      revert\n    tag_31:\n      pop\n      tag_32\n      tag_33\n      jump\t// in\n    tag_32:\n      mload(0x40)\n      tag_34\n      swap2\n      swap1\n      tag_35\n      jump\t// in\n    tag_34:\n      mload(0x40)\n      dup1\n      swap2\n      sub\n      swap1\n      return\n        /* \"FundMe.sol\":470:494  address[] public funders */\n    tag_8:\n      callvalue\n      dup1\n      iszero\n      tag_36\n      jumpi\n      0x00\n      dup1\n      revert\n    tag_36:\n      pop\n      tag_37\n      0x04\n      dup1\n      calldatasize\n      sub\n      dup2\n      add\n      swap1\n      tag_38\n      swap2\n      swap1\n      tag_39\n      jump\t// in\n    tag_38:\n      tag_40\n      jump\t// in\n    tag_37:\n      mload(0x40)\n      tag_41\n      swap2\n      swap1\n      tag_35\n      jump\t// in\n    tag_41:\n      mload(0x40)\n      dup1\n      swap2\n      sub\n      swap1\n      return\n        /* \"FundMe.sol\":648:1132  function fund() public payable... */\n    tag_12:\n        /* \"FundMe.sol\":459:463  5e18 */\n      0x4563918244f40000\n        /* \"FundMe.sol\":943:973  msg.value.getConversionRates() */\n      tag_43\n        /* \"FundMe.sol\":943:952  msg.value */\n      callvalue\n        /* \"FundMe.sol\":943:971  msg.value.getConversionRates */\n      tag_44\n        /* \"FundMe.sol\":943:973  msg.value.getConversionRates() */\n      jump\t// in\n    tag_43:\n        /* \"FundMe.sol\":943:981  msg.value.getConversionRates()<MIN_USD */\n      lt\n        /* \"FundMe.sol\":940:1004  if(msg.value.getConversionRates()<MIN_USD){revert lessAmount();} */\n      iszero\n      tag_45\n      jumpi\n        /* \"FundMe.sol\":990:1002  lessAmount() */\n      mload(0x40)\n      0x99d735ce00000000000000000000000000000000000000000000000000000000\n      dup2\n      mstore\n      0x04\n      add\n      mload(0x40)\n      dup1\n      swap2\n      sub\n      swap1\n      revert\n        /* \"FundMe.sol\":940:1004  if(msg.value.getConversionRates()<MIN_USD){revert lessAmount();} */\n    tag_45:\n        /* \"FundMe.sol\":1012:1019  funders */\n      0x00\n        /* \"FundMe.sol\":1025:1035  msg.sender */\n      caller\n        /* \"FundMe.sol\":1012:1036  funders.push(msg.sender) */\n      swap1\n      dup1\n      0x01\n      dup2\n      sload\n      add\n      dup1\n      dup3\n      sstore\n      dup1\n      swap2\n      pop\n      pop\n      0x01\n      swap1\n      sub\n      swap1\n      0x00\n      mstore\n      keccak256(0x00, 0x20)\n      add\n      0x00\n      swap1\n      swap2\n      swap1\n      swap2\n      swap1\n      swap2\n      0x0100\n      exp\n      dup2\n      sload\n      dup2\n      0xffffffffffffffffffffffffffffffffffffffff\n      mul\n      not\n      and\n      swap1\n      dup4\n      0xffffffffffffffffffffffffffffffffffffffff\n      and\n      mul\n      or\n      swap1\n      sstore\n      pop\n        /* \"FundMe.sol\":1068:1077  msg.value */\n      callvalue\n        /* \"FundMe.sol\":1045:1054  valueSent */\n      0x01\n        /* \"FundMe.sol\":1045:1066  valueSent[msg.sender] */\n      0x00\n        /* \"FundMe.sol\":1055:1065  msg.sender */\n      caller\n        /* \"FundMe.sol\":1045:1066  valueSent[msg.sender] */\n      0xffffffffffffffffffffffffffffffffffffffff\n      and\n      0xffffffffffffffffffffffffffffffffffffffff\n      and\n      dup2\n      mstore\n      0x20\n      add\n      swap1\n      dup2\n      mstore\n      0x20\n      add\n      0x00\n      keccak256\n      0x00\n        /* \"FundMe.sol\":1045:1077  valueSent[msg.sender]+=msg.value */\n      dup3\n      dup3\n      sload\n      tag_47\n      swap2\n      swap1\n      tag_48\n      jump\t// in\n    tag_47:\n      swap3\n      pop\n      pop\n      dup2\n      swap1\n      sstore\n      pop\n        /* \"FundMe.sol\":648:1132  function fund() public payable... */\n      jump\t// out\n        /* \"FundMe.sol\":428:463  uint public constant MIN_USD = 5e18 */\n    tag_18:\n        /* \"FundMe.sol\":459:463  5e18 */\n      0x4563918244f40000\n        /* \"FundMe.sol\":428:463  uint public constant MIN_USD = 5e18 */\n      dup2\n      jump\t// out\n        /* \"FundMe.sol\":1872:3346  function withdraw() onlyOwner public... */\n    tag_23:\n        /* \"FundMe.sol\":4026:4033  i_owner */\n      immutable(\"0xcc143a676b82d5e07b2c9d57717b403ab3c58caa273a42cdb95b15980141a86c\")\n        /* \"FundMe.sol\":4014:4033  msg.sender!=i_owner */\n      0xffffffffffffffffffffffffffffffffffffffff\n      and\n        /* \"FundMe.sol\":4014:4024  msg.sender */\n      caller\n        /* \"FundMe.sol\":4014:4033  msg.sender!=i_owner */\n      0xffffffffffffffffffffffffffffffffffffffff\n      and\n      eq\n        /* \"FundMe.sol\":4011:4080  if(msg.sender!=i_owner)... */\n      tag_50\n      jumpi\n        /* \"FundMe.sol\":4060:4070  notOwner() */\n      mload(0x40)\n      0x251c9d6300000000000000000000000000000000000000000000000000000000\n      dup2\n      mstore\n      0x04\n      add\n      mload(0x40)\n      dup1\n      swap2\n      sub\n      swap1\n      revert\n        /* \"FundMe.sol\":4011:4080  if(msg.sender!=i_owner)... */\n    tag_50:\n        /* \"FundMe.sol\":1927:1933  uint i */\n      0x00\n        /* \"FundMe.sol\":1923:2057  for(uint i=0; i<funders.length; i++)... */\n    tag_52:\n        /* \"FundMe.sol\":1939:1946  funders */\n      0x00\n        /* \"FundMe.sol\":1939:1953  funders.length */\n      dup1\n      sload\n      swap1\n      pop\n        /* \"FundMe.sol\":1937:1938  i */\n      dup2\n        /* \"FundMe.sol\":1937:1953  i<funders.length */\n      lt\n        /* \"FundMe.sol\":1923:2057  for(uint i=0; i<funders.length; i++)... */\n      iszero\n      tag_53\n      jumpi\n        /* \"FundMe.sol\":1978:1998  address addOfFunders */\n      0x00\n        /* \"FundMe.sol\":2001:2008  funders */\n      dup1\n        /* \"FundMe.sol\":2009:2010  i */\n      dup3\n        /* \"FundMe.sol\":2001:2011  funders[i] */\n      dup2\n      sload\n      dup2\n      lt\n      tag_55\n      jumpi\n      tag_56\n      tag_57\n      jump\t// in\n    tag_56:\n    tag_55:\n      swap1\n      0x00\n      mstore\n      keccak256(0x00, 0x20)\n      add\n      0x00\n      swap1\n      sload\n      swap1\n      0x0100\n      exp\n      swap1\n      div\n      0xffffffffffffffffffffffffffffffffffffffff\n      and\n        /* \"FundMe.sol\":1978:2011  address addOfFunders = funders[i] */\n      swap1\n      pop\n        /* \"FundMe.sol\":2046:2047  0 */\n      0x00\n        /* \"FundMe.sol\":2022:2031  valueSent */\n      0x01\n        /* \"FundMe.sol\":2022:2045  valueSent[addOfFunders] */\n      0x00\n        /* \"FundMe.sol\":2032:2044  addOfFunders */\n      dup4\n        /* \"FundMe.sol\":2022:2045  valueSent[addOfFunders] */\n      0xffffffffffffffffffffffffffffffffffffffff\n      and\n      0xffffffffffffffffffffffffffffffffffffffff\n      and\n      dup2\n      mstore\n      0x20\n      add\n      swap1\n      dup2\n      mstore\n      0x20\n      add\n      0x00\n      keccak256\n        /* \"FundMe.sol\":2022:2047  valueSent[addOfFunders]=0 */\n      dup2\n      swap1\n      sstore\n      pop\n        /* \"FundMe.sol\":1967:2057  {... */\n      pop\n        /* \"FundMe.sol\":1955:1958  i++ */\n      dup1\n      dup1\n      0x01\n      add\n      swap2\n      pop\n      pop\n        /* \"FundMe.sol\":1923:2057  for(uint i=0; i<funders.length; i++)... */\n      jump(tag_52)\n    tag_53:\n      pop\n        /* \"FundMe.sol\":2087:2088  0 */\n      0x00\n        /* \"FundMe.sol\":2073:2089  new address[](0) */\n      0xffffffffffffffff\n      dup2\n      gt\n      iszero\n      tag_59\n      jumpi\n      tag_60\n      tag_61\n      jump\t// in\n    tag_60:\n    tag_59:\n      mload(0x40)\n      swap1\n      dup1\n      dup3\n      mstore\n      dup1\n      0x20\n      mul\n      0x20\n      add\n      dup3\n      add\n      0x40\n      mstore\n      dup1\n      iszero\n      tag_62\n      jumpi\n      dup2\n      0x20\n      add\n      0x20\n      dup3\n      mul\n      dup1\n      calldatasize\n      dup4\n      calldatacopy\n      dup1\n      dup3\n      add\n      swap2\n      pop\n      pop\n      swap1\n      pop\n    tag_62:\n      pop\n        /* \"FundMe.sol\":2065:2072  funders */\n      0x00\n        /* \"FundMe.sol\":2065:2089  funders=new address[](0) */\n      swap1\n      dup1\n      mload\n      swap1\n      0x20\n      add\n      swap1\n      tag_63\n      swap3\n      swap2\n      swap1\n      tag_64\n      jump\t// in\n    tag_63:\n      pop\n        /* \"FundMe.sol\":3216:3232  bool callSuccess */\n      0x00\n        /* \"FundMe.sol\":3244:3254  msg.sender */\n      caller\n        /* \"FundMe.sol\":3236:3260  payable(msg.sender).call */\n      0xffffffffffffffffffffffffffffffffffffffff\n      and\n        /* \"FundMe.sol\":3268:3289  address(this).balance */\n      selfbalance\n        /* \"FundMe.sol\":3236:3294  payable(msg.sender).call{value: address(this).balance}(\"\") */\n      mload(0x40)\n      tag_65\n      swap1\n      tag_66\n      jump\t// in\n    tag_65:\n      0x00\n      mload(0x40)\n      dup1\n      dup4\n      sub\n      dup2\n      dup6\n      dup8\n      gas\n      call\n      swap3\n      pop\n      pop\n      pop\n      returndatasize\n      dup1\n      0x00\n      dup2\n      eq\n      tag_69\n      jumpi\n      mload(0x40)\n      swap2\n      pop\n      and(add(returndatasize, 0x3f), not(0x1f))\n      dup3\n      add\n      0x40\n      mstore\n      returndatasize\n      dup3\n      mstore\n      returndatasize\n      0x00\n      0x20\n      dup5\n      add\n      returndatacopy\n      jump(tag_68)\n    tag_69:\n      0x60\n      swap2\n      pop\n    tag_68:\n      pop\n        /* \"FundMe.sol\":3215:3294  (bool callSuccess, )=payable(msg.sender).call{value: address(this).balance}(\"\") */\n      pop\n      swap1\n      pop\n        /* \"FundMe.sol\":3311:3322  callSuccess */\n      dup1\n        /* \"FundMe.sol\":3303:3338  require(callSuccess, \"Call Failed\") */\n      tag_70\n      jumpi\n      mload(0x40)\n      0x08c379a000000000000000000000000000000000000000000000000000000000\n      dup2\n      mstore\n      0x04\n      add\n      tag_71\n      swap1\n      tag_72\n      jump\t// in\n    tag_71:\n      mload(0x40)\n      dup1\n      swap2\n      sub\n      swap1\n      revert\n    tag_70:\n        /* \"FundMe.sol\":1914:3346  {... */\n      pop\n        /* \"FundMe.sol\":1872:3346  function withdraw() onlyOwner public... */\n      jump\t// out\n        /* \"FundMe.sol\":501:561  mapping(address funder =>uint amountFunded) public valueSent */\n    tag_28:\n      mstore(0x20, 0x01)\n      dup1\n      0x00\n      mstore\n      keccak256(0x00, 0x40)\n      0x00\n      swap2\n      pop\n      swap1\n      pop\n      sload\n      dup2\n      jump\t// out\n        /* \"FundMe.sol\":568:600  address public immutable i_owner */\n    tag_33:\n      immutable(\"0xcc143a676b82d5e07b2c9d57717b403ab3c58caa273a42cdb95b15980141a86c\")\n      dup2\n      jump\t// out\n        /* \"FundMe.sol\":470:494  address[] public funders */\n    tag_40:\n      0x00\n      dup2\n      dup2\n      sload\n      dup2\n      lt\n      tag_73\n      jumpi\n      0x00\n      dup1\n      revert\n    tag_73:\n      swap1\n      0x00\n      mstore\n      keccak256(0x00, 0x20)\n      add\n      0x00\n      swap2\n      pop\n      sload\n      swap1\n      0x0100\n      exp\n      swap1\n      div\n      0xffffffffffffffffffffffffffffffffffffffff\n      and\n      dup2\n      jump\t// out\n        /* \"PriceConverter.sol\":545:1158  function getConversionRates(uint256 ethAmount) internal view returns(uint256)... */\n    tag_44:\n        /* \"PriceConverter.sol\":614:621  uint256 */\n      0x00\n        /* \"PriceConverter.sol\":1032:1048  uint256 ethPrice */\n      dup1\n        /* \"PriceConverter.sol\":1049:1059  getPrice() */\n      tag_76\n        /* \"PriceConverter.sol\":1049:1057  getPrice */\n      tag_77\n        /* \"PriceConverter.sol\":1049:1059  getPrice() */\n      jump\t// in\n    tag_76:\n        /* \"PriceConverter.sol\":1032:1059  uint256 ethPrice=getPrice() */\n      swap1\n      pop\n        /* \"PriceConverter.sol\":1070:1092  uint256 ethAmountinUSD */\n      0x00\n        /* \"PriceConverter.sol\":1114:1118  1e18 */\n      0x0de0b6b3a7640000\n        /* \"PriceConverter.sol\":1103:1112  ethAmount */\n      dup5\n        /* \"PriceConverter.sol\":1094:1102  ethPrice */\n      dup4\n        /* \"PriceConverter.sol\":1094:1112  ethPrice*ethAmount */\n      tag_78\n      swap2\n      swap1\n      tag_79\n      jump\t// in\n    tag_78:\n        /* \"PriceConverter.sol\":1093:1118  (ethPrice*ethAmount)/1e18 */\n      tag_80\n      swap2\n      swap1\n      tag_81\n      jump\t// in\n    tag_80:\n        /* \"PriceConverter.sol\":1070:1118  uint256 ethAmountinUSD=(ethPrice*ethAmount)/1e18 */\n      swap1\n      pop\n        /* \"PriceConverter.sol\":1136:1150  ethAmountinUSD */\n      dup1\n        /* \"PriceConverter.sol\":1129:1150  return ethAmountinUSD */\n      swap3\n      pop\n      pop\n      pop\n        /* \"PriceConverter.sol\":545:1158  function getConversionRates(uint256 ethAmount) internal view returns(uint256)... */\n      swap2\n      swap1\n      pop\n      jump\t// out\n        /* \"PriceConverter.sol\":267:537  function getPrice() internal view returns(uint256)... */\n    tag_77:\n        /* \"PriceConverter.sol\":309:316  uint256 */\n      0x00\n        /* \"PriceConverter.sol\":334:365  AggregatorV3Interface priceFeed */\n      dup1\n        /* \"PriceConverter.sol\":390:432  0x694AA1769357215DE4FAC081bf1f309aDC325306 */\n      0x694aa1769357215de4fac081bf1f309adc325306\n        /* \"PriceConverter.sol\":334:433  AggregatorV3Interface priceFeed = AggregatorV3Interface(0x694AA1769357215DE4FAC081bf1f309aDC325306) */\n      swap1\n      pop\n        /* \"PriceConverter.sol\":446:458  int256 price */\n      0x00\n        /* \"PriceConverter.sol\":465:474  priceFeed */\n      dup2\n        /* \"PriceConverter.sol\":465:490  priceFeed.latestRoundData */\n      0xffffffffffffffffffffffffffffffffffffffff\n      and\n      0xfeaf968c\n        /* \"PriceConverter.sol\":465:492  priceFeed.latestRoundData() */\n      mload(0x40)\n      dup2\n      0xffffffff\n      and\n      0xe0\n      shl\n      dup2\n      mstore\n      0x04\n      add\n      0xa0\n      mload(0x40)\n      dup1\n      dup4\n      sub\n      dup2\n      dup7\n      gas\n      staticcall\n      iszero\n      dup1\n      iszero\n      tag_84\n      jumpi\n      returndatasize\n      0x00\n      dup1\n      returndatacopy\n      revert(0x00, returndatasize)\n    tag_84:\n      pop\n      pop\n      pop\n      pop\n      mload(0x40)\n      returndatasize\n      not(0x1f)\n      0x1f\n      dup3\n      add\n      and\n      dup3\n      add\n      dup1\n      0x40\n      mstore\n      pop\n      dup2\n      add\n      swap1\n      tag_85\n      swap2\n      swap1\n      tag_86\n      jump\t// in\n    tag_85:\n        /* \"PriceConverter.sol\":444:492  (,int256 price,,,) = priceFeed.latestRoundData() */\n      pop\n      pop\n      pop\n      swap2\n      pop\n      pop\n        /* \"PriceConverter.sol\":524:528  1e10 */\n      0x02540be400\n        /* \"PriceConverter.sol\":518:523  price */\n      dup2\n        /* \"PriceConverter.sol\":518:528  price*1e10 */\n      tag_87\n      swap2\n      swap1\n      tag_88\n      jump\t// in\n    tag_87:\n        /* \"PriceConverter.sol\":503:529  return uint256(price*1e10) */\n      swap3\n      pop\n      pop\n      pop\n        /* \"PriceConverter.sol\":267:537  function getPrice() internal view returns(uint256)... */\n      swap1\n      jump\t// out\n    tag_64:\n      dup3\n      dup1\n      sload\n      dup3\n      dup3\n      sstore\n      swap1\n      0x00\n      mstore\n      keccak256(0x00, 0x20)\n      swap1\n      dup2\n      add\n      swap3\n      dup3\n      iszero\n      tag_89\n      jumpi\n      swap2\n      0x20\n      mul\n      dup3\n      add\n    tag_90:\n      dup3\n      dup2\n      gt\n      iszero\n      tag_91\n      jumpi\n      dup3\n      mload\n      dup3\n      exp(0x0100, 0x00)\n      dup2\n      sload\n      dup2\n      0xffffffffffffffffffffffffffffffffffffffff\n      mul\n      not\n      and\n      swap1\n      dup4\n      0xffffffffffffffffffffffffffffffffffffffff\n      and\n      mul\n      or\n      swap1\n      sstore\n      pop\n      swap2\n      0x20\n      add\n      swap2\n      swap1\n      0x01\n      add\n      swap1\n      jump(tag_90)\n    tag_91:\n    tag_89:\n      pop\n      swap1\n      pop\n      tag_92\n      swap2\n      swap1\n      tag_93\n      jump\t// in\n    tag_92:\n      pop\n      swap1\n      jump\t// out\n    tag_93:\n    tag_94:\n      dup1\n      dup3\n      gt\n      iszero\n      tag_95\n      jumpi\n      0x00\n      dup2\n      0x00\n      swap1\n      sstore\n      pop\n      0x01\n      add\n      jump(tag_94)\n    tag_95:\n      pop\n      swap1\n      jump\t// out\n        /* \"#utility.yul\":7:84   */\n    tag_96:\n        /* \"#utility.yul\":44:51   */\n      0x00\n        /* \"#utility.yul\":73:78   */\n      dup2\n        /* \"#utility.yul\":62:78   */\n      swap1\n      pop\n        /* \"#utility.yul\":7:84   */\n      swap2\n      swap1\n      pop\n      jump\t// out\n        /* \"#utility.yul\":90:208   */\n    tag_97:\n        /* \"#utility.yul\":177:201   */\n      tag_126\n        /* \"#utility.yul\":195:200   */\n      dup2\n        /* \"#utility.yul\":177:201   */\n      tag_96\n      jump\t// in\n    tag_126:\n        /* \"#utility.yul\":172:175   */\n      dup3\n        /* \"#utility.yul\":165:202   */\n      mstore\n        /* \"#utility.yul\":90:208   */\n      pop\n      pop\n      jump\t// out\n        /* \"#utility.yul\":214:436   */\n    tag_20:\n        /* \"#utility.yul\":307:311   */\n      0x00\n        /* \"#utility.yul\":345:347   */\n      0x20\n        /* \"#utility.yul\":334:343   */\n      dup3\n        /* \"#utility.yul\":330:348   */\n      add\n        /* \"#utility.yul\":322:348   */\n      swap1\n      pop\n        /* \"#utility.yul\":358:429   */\n      tag_128\n        /* \"#utility.yul\":426:427   */\n      0x00\n        /* \"#utility.yul\":415:424   */\n      dup4\n        /* \"#utility.yul\":411:428   */\n      add\n        /* \"#utility.yul\":402:408   */\n      dup5\n        /* \"#utility.yul\":358:429   */\n      tag_97\n      jump\t// in\n    tag_128:\n        /* \"#utility.yul\":214:436   */\n      swap3\n      swap2\n      pop\n      pop\n      jump\t// out\n        /* \"#utility.yul\":523:640   */\n    tag_99:\n        /* \"#utility.yul\":632:633   */\n      0x00\n        /* \"#utility.yul\":629:630   */\n      dup1\n        /* \"#utility.yul\":622:634   */\n      revert\n        /* \"#utility.yul\":769:895   */\n    tag_101:\n        /* \"#utility.yul\":806:813   */\n      0x00\n        /* \"#utility.yul\":846:888   */\n      0xffffffffffffffffffffffffffffffffffffffff\n        /* \"#utility.yul\":839:844   */\n      dup3\n        /* \"#utility.yul\":835:889   */\n      and\n        /* \"#utility.yul\":824:889   */\n      swap1\n      pop\n        /* \"#utility.yul\":769:895   */\n      swap2\n      swap1\n      pop\n      jump\t// out\n        /* \"#utility.yul\":901:997   */\n    tag_102:\n        /* \"#utility.yul\":938:945   */\n      0x00\n        /* \"#utility.yul\":967:991   */\n      tag_134\n        /* \"#utility.yul\":985:990   */\n      dup3\n        /* \"#utility.yul\":967:991   */\n      tag_101\n      jump\t// in\n    tag_134:\n        /* \"#utility.yul\":956:991   */\n      swap1\n      pop\n        /* \"#utility.yul\":901:997   */\n      swap2\n      swap1\n      pop\n      jump\t// out\n        /* \"#utility.yul\":1003:1125   */\n    tag_103:\n        /* \"#utility.yul\":1076:1100   */\n      tag_136\n        /* \"#utility.yul\":1094:1099   */\n      dup2\n        /* \"#utility.yul\":1076:1100   */\n      tag_102\n      jump\t// in\n    tag_136:\n        /* \"#utility.yul\":1069:1074   */\n      dup2\n        /* \"#utility.yul\":1066:1101   */\n      eq\n        /* \"#utility.yul\":1056:1119   */\n      tag_137\n      jumpi\n        /* \"#utility.yul\":1115:1116   */\n      0x00\n        /* \"#utility.yul\":1112:1113   */\n      dup1\n        /* \"#utility.yul\":1105:1117   */\n      revert\n        /* \"#utility.yul\":1056:1119   */\n    tag_137:\n        /* \"#utility.yul\":1003:1125   */\n      pop\n      jump\t// out\n        /* \"#utility.yul\":1131:1270   */\n    tag_104:\n        /* \"#utility.yul\":1177:1182   */\n      0x00\n        /* \"#utility.yul\":1215:1221   */\n      dup2\n        /* \"#utility.yul\":1202:1222   */\n      calldataload\n        /* \"#utility.yul\":1193:1222   */\n      swap1\n      pop\n        /* \"#utility.yul\":1231:1264   */\n      tag_139\n        /* \"#utility.yul\":1258:1263   */\n      dup2\n        /* \"#utility.yul\":1231:1264   */\n      tag_103\n      jump\t// in\n    tag_139:\n        /* \"#utility.yul\":1131:1270   */\n      swap3\n      swap2\n      pop\n      pop\n      jump\t// out\n        /* \"#utility.yul\":1276:1605   */\n    tag_27:\n        /* \"#utility.yul\":1335:1341   */\n      0x00\n        /* \"#utility.yul\":1384:1386   */\n      0x20\n        /* \"#utility.yul\":1372:1381   */\n      dup3\n        /* \"#utility.yul\":1363:1370   */\n      dup5\n        /* \"#utility.yul\":1359:1382   */\n      sub\n        /* \"#utility.yul\":1355:1387   */\n      slt\n        /* \"#utility.yul\":1352:1471   */\n      iszero\n      tag_141\n      jumpi\n        /* \"#utility.yul\":1390:1469   */\n      tag_142\n      tag_99\n      jump\t// in\n    tag_142:\n        /* \"#utility.yul\":1352:1471   */\n    tag_141:\n        /* \"#utility.yul\":1510:1511   */\n      0x00\n        /* \"#utility.yul\":1535:1588   */\n      tag_143\n        /* \"#utility.yul\":1580:1587   */\n      dup5\n        /* \"#utility.yul\":1571:1577   */\n      dup3\n        /* \"#utility.yul\":1560:1569   */\n      dup6\n        /* \"#utility.yul\":1556:1578   */\n      add\n        /* \"#utility.yul\":1535:1588   */\n      tag_104\n      jump\t// in\n    tag_143:\n        /* \"#utility.yul\":1525:1588   */\n      swap2\n      pop\n        /* \"#utility.yul\":1481:1598   */\n      pop\n        /* \"#utility.yul\":1276:1605   */\n      swap3\n      swap2\n      pop\n      pop\n      jump\t// out\n        /* \"#utility.yul\":1611:1729   */\n    tag_105:\n        /* \"#utility.yul\":1698:1722   */\n      tag_145\n        /* \"#utility.yul\":1716:1721   */\n      dup2\n        /* \"#utility.yul\":1698:1722   */\n      tag_102\n      jump\t// in\n    tag_145:\n        /* \"#utility.yul\":1693:1696   */\n      dup3\n        /* \"#utility.yul\":1686:1723   */\n      mstore\n        /* \"#utility.yul\":1611:1729   */\n      pop\n      pop\n      jump\t// out\n        /* \"#utility.yul\":1735:1957   */\n    tag_35:\n        /* \"#utility.yul\":1828:1832   */\n      0x00\n        /* \"#utility.yul\":1866:1868   */\n      0x20\n        /* \"#utility.yul\":1855:1864   */\n      dup3\n        /* \"#utility.yul\":1851:1869   */\n      add\n        /* \"#utility.yul\":1843:1869   */\n      swap1\n      pop\n        /* \"#utility.yul\":1879:1950   */\n      tag_147\n        /* \"#utility.yul\":1947:1948   */\n      0x00\n        /* \"#utility.yul\":1936:1945   */\n      dup4\n        /* \"#utility.yul\":1932:1949   */\n      add\n        /* \"#utility.yul\":1923:1929   */\n      dup5\n        /* \"#utility.yul\":1879:1950   */\n      tag_105\n      jump\t// in\n    tag_147:\n        /* \"#utility.yul\":1735:1957   */\n      swap3\n      swap2\n      pop\n      pop\n      jump\t// out\n        /* \"#utility.yul\":1963:2085   */\n    tag_106:\n        /* \"#utility.yul\":2036:2060   */\n      tag_149\n        /* \"#utility.yul\":2054:2059   */\n      dup2\n        /* \"#utility.yul\":2036:2060   */\n      tag_96\n      jump\t// in\n    tag_149:\n        /* \"#utility.yul\":2029:2034   */\n      dup2\n        /* \"#utility.yul\":2026:2061   */\n      eq\n        /* \"#utility.yul\":2016:2079   */\n      tag_150\n      jumpi\n        /* \"#utility.yul\":2075:2076   */\n      0x00\n        /* \"#utility.yul\":2072:2073   */\n      dup1\n        /* \"#utility.yul\":2065:2077   */\n      revert\n        /* \"#utility.yul\":2016:2079   */\n    tag_150:\n        /* \"#utility.yul\":1963:2085   */\n      pop\n      jump\t// out\n        /* \"#utility.yul\":2091:2230   */\n    tag_107:\n        /* \"#utility.yul\":2137:2142   */\n      0x00\n        /* \"#utility.yul\":2175:2181   */\n      dup2\n        /* \"#utility.yul\":2162:2182   */\n      calldataload\n        /* \"#utility.yul\":2153:2182   */\n      swap1\n      pop\n        /* \"#utility.yul\":2191:2224   */\n      tag_152\n        /* \"#utility.yul\":2218:2223   */\n      dup2\n        /* \"#utility.yul\":2191:2224   */\n      tag_106\n      jump\t// in\n    tag_152:\n        /* \"#utility.yul\":2091:2230   */\n      swap3\n      swap2\n      pop\n      pop\n      jump\t// out\n        /* \"#utility.yul\":2236:2565   */\n    tag_39:\n        /* \"#utility.yul\":2295:2301   */\n      0x00\n        /* \"#utility.yul\":2344:2346   */\n      0x20\n        /* \"#utility.yul\":2332:2341   */\n      dup3\n        /* \"#utility.yul\":2323:2330   */\n      dup5\n        /* \"#utility.yul\":2319:2342   */\n      sub\n        /* \"#utility.yul\":2315:2347   */\n      slt\n        /* \"#utility.yul\":2312:2431   */\n      iszero\n      tag_154\n      jumpi\n        /* \"#utility.yul\":2350:2429   */\n      tag_155\n      tag_99\n      jump\t// in\n    tag_155:\n        /* \"#utility.yul\":2312:2431   */\n    tag_154:\n        /* \"#utility.yul\":2470:2471   */\n      0x00\n        /* \"#utility.yul\":2495:2548   */\n      tag_156\n        /* \"#utility.yul\":2540:2547   */\n      dup5\n        /* \"#utility.yul\":2531:2537   */\n      dup3\n        /* \"#utility.yul\":2520:2529   */\n      dup6\n        /* \"#utility.yul\":2516:2538   */\n      add\n        /* \"#utility.yul\":2495:2548   */\n      tag_107\n      jump\t// in\n    tag_156:\n        /* \"#utility.yul\":2485:2548   */\n      swap2\n      pop\n        /* \"#utility.yul\":2441:2558   */\n      pop\n        /* \"#utility.yul\":2236:2565   */\n      swap3\n      swap2\n      pop\n      pop\n      jump\t// out\n        /* \"#utility.yul\":2571:2751   */\n    tag_108:\n        /* \"#utility.yul\":2619:2696   */\n      0x4e487b7100000000000000000000000000000000000000000000000000000000\n        /* \"#utility.yul\":2616:2617   */\n      0x00\n        /* \"#utility.yul\":2609:2697   */\n      mstore\n        /* \"#utility.yul\":2716:2720   */\n      0x11\n        /* \"#utility.yul\":2713:2714   */\n      0x04\n        /* \"#utility.yul\":2706:2721   */\n      mstore\n        /* \"#utility.yul\":2740:2744   */\n      0x24\n        /* \"#utility.yul\":2737:2738   */\n      0x00\n        /* \"#utility.yul\":2730:2745   */\n      revert\n        /* \"#utility.yul\":2757:2948   */\n    tag_48:\n        /* \"#utility.yul\":2797:2800   */\n      0x00\n        /* \"#utility.yul\":2816:2836   */\n      tag_159\n        /* \"#utility.yul\":2834:2835   */\n      dup3\n        /* \"#utility.yul\":2816:2836   */\n      tag_96\n      jump\t// in\n    tag_159:\n        /* \"#utility.yul\":2811:2836   */\n      swap2\n      pop\n        /* \"#utility.yul\":2850:2870   */\n      tag_160\n        /* \"#utility.yul\":2868:2869   */\n      dup4\n        /* \"#utility.yul\":2850:2870   */\n      tag_96\n      jump\t// in\n    tag_160:\n        /* \"#utility.yul\":2845:2870   */\n      swap3\n      pop\n        /* \"#utility.yul\":2893:2894   */\n      dup3\n        /* \"#utility.yul\":2890:2891   */\n      dup3\n        /* \"#utility.yul\":2886:2895   */\n      add\n        /* \"#utility.yul\":2879:2895   */\n      swap1\n      pop\n        /* \"#utility.yul\":2914:2917   */\n      dup1\n        /* \"#utility.yul\":2911:2912   */\n      dup3\n        /* \"#utility.yul\":2908:2918   */\n      gt\n        /* \"#utility.yul\":2905:2941   */\n      iszero\n      tag_161\n      jumpi\n        /* \"#utility.yul\":2921:2939   */\n      tag_162\n      tag_108\n      jump\t// in\n    tag_162:\n        /* \"#utility.yul\":2905:2941   */\n    tag_161:\n        /* \"#utility.yul\":2757:2948   */\n      swap3\n      swap2\n      pop\n      pop\n      jump\t// out\n        /* \"#utility.yul\":2954:3134   */\n    tag_57:\n        /* \"#utility.yul\":3002:3079   */\n      0x4e487b7100000000000000000000000000000000000000000000000000000000\n        /* \"#utility.yul\":2999:3000   */\n      0x00\n        /* \"#utility.yul\":2992:3080   */\n      mstore\n        /* \"#utility.yul\":3099:3103   */\n      0x32\n        /* \"#utility.yul\":3096:3097   */\n      0x04\n        /* \"#utility.yul\":3089:3104   */\n      mstore\n        /* \"#utility.yul\":3123:3127   */\n      0x24\n        /* \"#utility.yul\":3120:3121   */\n      0x00\n        /* \"#utility.yul\":3113:3128   */\n      revert\n        /* \"#utility.yul\":3140:3320   */\n    tag_61:\n        /* \"#utility.yul\":3188:3265   */\n      0x4e487b7100000000000000000000000000000000000000000000000000000000\n        /* \"#utility.yul\":3185:3186   */\n      0x00\n        /* \"#utility.yul\":3178:3266   */\n      mstore\n        /* \"#utility.yul\":3285:3289   */\n      0x41\n        /* \"#utility.yul\":3282:3283   */\n      0x04\n        /* \"#utility.yul\":3275:3290   */\n      mstore\n        /* \"#utility.yul\":3309:3313   */\n      0x24\n        /* \"#utility.yul\":3306:3307   */\n      0x00\n        /* \"#utility.yul\":3299:3314   */\n      revert\n        /* \"#utility.yul\":3326:3473   */\n    tag_109:\n        /* \"#utility.yul\":3427:3438   */\n      0x00\n        /* \"#utility.yul\":3464:3467   */\n      dup2\n        /* \"#utility.yul\":3449:3467   */\n      swap1\n      pop\n        /* \"#utility.yul\":3326:3473   */\n      swap3\n      swap2\n      pop\n      pop\n      jump\t// out\n        /* \"#utility.yul\":3479:3593   */\n    tag_110:\n      pop\n      jump\t// out\n        /* \"#utility.yul\":3599:3997   */\n    tag_111:\n        /* \"#utility.yul\":3758:3761   */\n      0x00\n        /* \"#utility.yul\":3779:3862   */\n      tag_168\n        /* \"#utility.yul\":3860:3861   */\n      0x00\n        /* \"#utility.yul\":3855:3858   */\n      dup4\n        /* \"#utility.yul\":3779:3862   */\n      tag_109\n      jump\t// in\n    tag_168:\n        /* \"#utility.yul\":3772:3862   */\n      swap2\n      pop\n        /* \"#utility.yul\":3871:3964   */\n      tag_169\n        /* \"#utility.yul\":3960:3963   */\n      dup3\n        /* \"#utility.yul\":3871:3964   */\n      tag_110\n      jump\t// in\n    tag_169:\n        /* \"#utility.yul\":3989:3990   */\n      0x00\n        /* \"#utility.yul\":3984:3987   */\n      dup3\n        /* \"#utility.yul\":3980:3991   */\n      add\n        /* \"#utility.yul\":3973:3991   */\n      swap1\n      pop\n        /* \"#utility.yul\":3599:3997   */\n      swap2\n      swap1\n      pop\n      jump\t// out\n        /* \"#utility.yul\":4003:4382   */\n    tag_66:\n        /* \"#utility.yul\":4187:4190   */\n      0x00\n        /* \"#utility.yul\":4209:4356   */\n      tag_171\n        /* \"#utility.yul\":4352:4355   */\n      dup3\n        /* \"#utility.yul\":4209:4356   */\n      tag_111\n      jump\t// in\n    tag_171:\n        /* \"#utility.yul\":4202:4356   */\n      swap2\n      pop\n        /* \"#utility.yul\":4373:4376   */\n      dup2\n        /* \"#utility.yul\":4366:4376   */\n      swap1\n      pop\n        /* \"#utility.yul\":4003:4382   */\n      swap2\n      swap1\n      pop\n      jump\t// out\n        /* \"#utility.yul\":4388:4557   */\n    tag_112:\n        /* \"#utility.yul\":4472:4483   */\n      0x00\n        /* \"#utility.yul\":4506:4512   */\n      dup3\n        /* \"#utility.yul\":4501:4504   */\n      dup3\n        /* \"#utility.yul\":4494:4513   */\n      mstore\n        /* \"#utility.yul\":4546:4550   */\n      0x20\n        /* \"#utility.yul\":4541:4544   */\n      dup3\n        /* \"#utility.yul\":4537:4551   */\n      add\n        /* \"#utility.yul\":4522:4551   */\n      swap1\n      pop\n        /* \"#utility.yul\":4388:4557   */\n      swap3\n      swap2\n      pop\n      pop\n      jump\t// out\n        /* \"#utility.yul\":4563:4724   */\n    tag_113:\n        /* \"#utility.yul\":4703:4716   */\n      0x43616c6c204661696c6564000000000000000000000000000000000000000000\n        /* \"#utility.yul\":4699:4700   */\n      0x00\n        /* \"#utility.yul\":4691:4697   */\n      dup3\n        /* \"#utility.yul\":4687:4701   */\n      add\n        /* \"#utility.yul\":4680:4717   */\n      mstore\n        /* \"#utility.yul\":4563:4724   */\n      pop\n      jump\t// out\n        /* \"#utility.yul\":4730:5096   */\n    tag_114:\n        /* \"#utility.yul\":4872:4875   */\n      0x00\n        /* \"#utility.yul\":4893:4960   */\n      tag_175\n        /* \"#utility.yul\":4957:4959   */\n      0x0b\n        /* \"#utility.yul\":4952:4955   */\n      dup4\n        /* \"#utility.yul\":4893:4960   */\n      tag_112\n      jump\t// in\n    tag_175:\n        /* \"#utility.yul\":4886:4960   */\n      swap2\n      pop\n        /* \"#utility.yul\":4969:5062   */\n      tag_176\n        /* \"#utility.yul\":5058:5061   */\n      dup3\n        /* \"#utility.yul\":4969:5062   */\n      tag_113\n      jump\t// in\n    tag_176:\n        /* \"#utility.yul\":5087:5089   */\n      0x20\n        /* \"#utility.yul\":5082:5085   */\n      dup3\n        /* \"#utility.yul\":5078:5090   */\n      add\n        /* \"#utility.yul\":5071:5090   */\n      swap1\n      pop\n        /* \"#utility.yul\":4730:5096   */\n      swap2\n      swap1\n      pop\n      jump\t// out\n        /* \"#utility.yul\":5102:5521   */\n    tag_72:\n        /* \"#utility.yul\":5268:5272   */\n      0x00\n        /* \"#utility.yul\":5306:5308   */\n      0x20\n        /* \"#utility.yul\":5295:5304   */\n      dup3\n        /* \"#utility.yul\":5291:5309   */\n      add\n        /* \"#utility.yul\":5283:5309   */\n      swap1\n      pop\n        /* \"#utility.yul\":5355:5364   */\n      dup2\n        /* \"#utility.yul\":5349:5353   */\n      dup2\n        /* \"#utility.yul\":5345:5365   */\n      sub\n        /* \"#utility.yul\":5341:5342   */\n      0x00\n        /* \"#utility.yul\":5330:5339   */\n      dup4\n        /* \"#utility.yul\":5326:5343   */\n      add\n        /* \"#utility.yul\":5319:5366   */\n      mstore\n        /* \"#utility.yul\":5383:5514   */\n      tag_178\n        /* \"#utility.yul\":5509:5513   */\n      dup2\n        /* \"#utility.yul\":5383:5514   */\n      tag_114\n      jump\t// in\n    tag_178:\n        /* \"#utility.yul\":5375:5514   */\n      swap1\n      pop\n        /* \"#utility.yul\":5102:5521   */\n      swap2\n      swap1\n      pop\n      jump\t// out\n        /* \"#utility.yul\":5527:5937   */\n    tag_79:\n        /* \"#utility.yul\":5567:5574   */\n      0x00\n        /* \"#utility.yul\":5590:5610   */\n      tag_180\n        /* \"#utility.yul\":5608:5609   */\n      dup3\n        /* \"#utility.yul\":5590:5610   */\n      tag_96\n      jump\t// in\n    tag_180:\n        /* \"#utility.yul\":5585:5610   */\n      swap2\n      pop\n        /* \"#utility.yul\":5624:5644   */\n      tag_181\n        /* \"#utility.yul\":5642:5643   */\n      dup4\n        /* \"#utility.yul\":5624:5644   */\n      tag_96\n      jump\t// in\n    tag_181:\n        /* \"#utility.yul\":5619:5644   */\n      swap3\n      pop\n        /* \"#utility.yul\":5679:5680   */\n      dup3\n        /* \"#utility.yul\":5676:5677   */\n      dup3\n        /* \"#utility.yul\":5672:5681   */\n      mul\n        /* \"#utility.yul\":5701:5731   */\n      tag_182\n        /* \"#utility.yul\":5719:5730   */\n      dup2\n        /* \"#utility.yul\":5701:5731   */\n      tag_96\n      jump\t// in\n    tag_182:\n        /* \"#utility.yul\":5690:5731   */\n      swap2\n      pop\n        /* \"#utility.yul\":5880:5881   */\n      dup3\n        /* \"#utility.yul\":5871:5878   */\n      dup3\n        /* \"#utility.yul\":5867:5882   */\n      div\n        /* \"#utility.yul\":5864:5865   */\n      dup5\n        /* \"#utility.yul\":5861:5883   */\n      eq\n        /* \"#utility.yul\":5841:5842   */\n      dup4\n        /* \"#utility.yul\":5834:5843   */\n      iszero\n        /* \"#utility.yul\":5814:5897   */\n      or\n        /* \"#utility.yul\":5791:5930   */\n      tag_183\n      jumpi\n        /* \"#utility.yul\":5910:5928   */\n      tag_184\n      tag_108\n      jump\t// in\n    tag_184:\n        /* \"#utility.yul\":5791:5930   */\n    tag_183:\n        /* \"#utility.yul\":5575:5937   */\n      pop\n        /* \"#utility.yul\":5527:5937   */\n      swap3\n      swap2\n      pop\n      pop\n      jump\t// out\n        /* \"#utility.yul\":5943:6123   */\n    tag_115:\n        /* \"#utility.yul\":5991:6068   */\n      0x4e487b7100000000000000000000000000000000000000000000000000000000\n        /* \"#utility.yul\":5988:5989   */\n      0x00\n        /* \"#utility.yul\":5981:6069   */\n      mstore\n        /* \"#utility.yul\":6088:6092   */\n      0x12\n        /* \"#utility.yul\":6085:6086   */\n      0x04\n        /* \"#utility.yul\":6078:6093   */\n      mstore\n        /* \"#utility.yul\":6112:6116   */\n      0x24\n        /* \"#utility.yul\":6109:6110   */\n      0x00\n        /* \"#utility.yul\":6102:6117   */\n      revert\n        /* \"#utility.yul\":6129:6314   */\n    tag_81:\n        /* \"#utility.yul\":6169:6170   */\n      0x00\n        /* \"#utility.yul\":6186:6206   */\n      tag_187\n        /* \"#utility.yul\":6204:6205   */\n      dup3\n        /* \"#utility.yul\":6186:6206   */\n      tag_96\n      jump\t// in\n    tag_187:\n        /* \"#utility.yul\":6181:6206   */\n      swap2\n      pop\n        /* \"#utility.yul\":6220:6240   */\n      tag_188\n        /* \"#utility.yul\":6238:6239   */\n      dup4\n        /* \"#utility.yul\":6220:6240   */\n      tag_96\n      jump\t// in\n    tag_188:\n        /* \"#utility.yul\":6215:6240   */\n      swap3\n      pop\n        /* \"#utility.yul\":6259:6260   */\n      dup3\n        /* \"#utility.yul\":6249:6284   */\n      tag_189\n      jumpi\n        /* \"#utility.yul\":6264:6282   */\n      tag_190\n      tag_115\n      jump\t// in\n    tag_190:\n        /* \"#utility.yul\":6249:6284   */\n    tag_189:\n        /* \"#utility.yul\":6306:6307   */\n      dup3\n        /* \"#utility.yul\":6303:6304   */\n      dup3\n        /* \"#utility.yul\":6299:6308   */\n      div\n        /* \"#utility.yul\":6294:6308   */\n      swap1\n      pop\n        /* \"#utility.yul\":6129:6314   */\n      swap3\n      swap2\n      pop\n      pop\n      jump\t// out\n        /* \"#utility.yul\":6320:6425   */\n    tag_116:\n        /* \"#utility.yul\":6356:6363   */\n      0x00\n        /* \"#utility.yul\":6396:6418   */\n      0xffffffffffffffffffff\n        /* \"#utility.yul\":6389:6394   */\n      dup3\n        /* \"#utility.yul\":6385:6419   */\n      and\n        /* \"#utility.yul\":6374:6419   */\n      swap1\n      pop\n        /* \"#utility.yul\":6320:6425   */\n      swap2\n      swap1\n      pop\n      jump\t// out\n        /* \"#utility.yul\":6431:6551   */\n    tag_117:\n        /* \"#utility.yul\":6503:6526   */\n      tag_193\n        /* \"#utility.yul\":6520:6525   */\n      dup2\n        /* \"#utility.yul\":6503:6526   */\n      tag_116\n      jump\t// in\n    tag_193:\n        /* \"#utility.yul\":6496:6501   */\n      dup2\n        /* \"#utility.yul\":6493:6527   */\n      eq\n        /* \"#utility.yul\":6483:6545   */\n      tag_194\n      jumpi\n        /* \"#utility.yul\":6541:6542   */\n      0x00\n        /* \"#utility.yul\":6538:6539   */\n      dup1\n        /* \"#utility.yul\":6531:6543   */\n      revert\n        /* \"#utility.yul\":6483:6545   */\n    tag_194:\n        /* \"#utility.yul\":6431:6551   */\n      pop\n      jump\t// out\n        /* \"#utility.yul\":6557:6698   */\n    tag_118:\n        /* \"#utility.yul\":6613:6618   */\n      0x00\n        /* \"#utility.yul\":6644:6650   */\n      dup2\n        /* \"#utility.yul\":6638:6651   */\n      mload\n        /* \"#utility.yul\":6629:6651   */\n      swap1\n      pop\n        /* \"#utility.yul\":6660:6692   */\n      tag_196\n        /* \"#utility.yul\":6686:6691   */\n      dup2\n        /* \"#utility.yul\":6660:6692   */\n      tag_117\n      jump\t// in\n    tag_196:\n        /* \"#utility.yul\":6557:6698   */\n      swap3\n      swap2\n      pop\n      pop\n      jump\t// out\n        /* \"#utility.yul\":6704:6780   */\n    tag_119:\n        /* \"#utility.yul\":6740:6747   */\n      0x00\n        /* \"#utility.yul\":6769:6774   */\n      dup2\n        /* \"#utility.yul\":6758:6774   */\n      swap1\n      pop\n        /* \"#utility.yul\":6704:6780   */\n      swap2\n      swap1\n      pop\n      jump\t// out\n        /* \"#utility.yul\":6786:6906   */\n    tag_120:\n        /* \"#utility.yul\":6858:6881   */\n      tag_199\n        /* \"#utility.yul\":6875:6880   */\n      dup2\n        /* \"#utility.yul\":6858:6881   */\n      tag_119\n      jump\t// in\n    tag_199:\n        /* \"#utility.yul\":6851:6856   */\n      dup2\n        /* \"#utility.yul\":6848:6882   */\n      eq\n        /* \"#utility.yul\":6838:6900   */\n      tag_200\n      jumpi\n        /* \"#utility.yul\":6896:6897   */\n      0x00\n        /* \"#utility.yul\":6893:6894   */\n      dup1\n        /* \"#utility.yul\":6886:6898   */\n      revert\n        /* \"#utility.yul\":6838:6900   */\n    tag_200:\n        /* \"#utility.yul\":6786:6906   */\n      pop\n      jump\t// out\n        /* \"#utility.yul\":6912:7053   */\n    tag_121:\n        /* \"#utility.yul\":6968:6973   */\n      0x00\n        /* \"#utility.yul\":6999:7005   */\n      dup2\n        /* \"#utility.yul\":6993:7006   */\n      mload\n        /* \"#utility.yul\":6984:7006   */\n      swap1\n      pop\n        /* \"#utility.yul\":7015:7047   */\n      tag_202\n        /* \"#utility.yul\":7041:7046   */\n      dup2\n        /* \"#utility.yul\":7015:7047   */\n      tag_120\n      jump\t// in\n    tag_202:\n        /* \"#utility.yul\":6912:7053   */\n      swap3\n      swap2\n      pop\n      pop\n      jump\t// out\n        /* \"#utility.yul\":7059:7202   */\n    tag_122:\n        /* \"#utility.yul\":7116:7121   */\n      0x00\n        /* \"#utility.yul\":7147:7153   */\n      dup2\n        /* \"#utility.yul\":7141:7154   */\n      mload\n        /* \"#utility.yul\":7132:7154   */\n      swap1\n      pop\n        /* \"#utility.yul\":7163:7196   */\n      tag_204\n        /* \"#utility.yul\":7190:7195   */\n      dup2\n        /* \"#utility.yul\":7163:7196   */\n      tag_106\n      jump\t// in\n    tag_204:\n        /* \"#utility.yul\":7059:7202   */\n      swap3\n      swap2\n      pop\n      pop\n      jump\t// out\n        /* \"#utility.yul\":7208:8179   */\n    tag_86:\n        /* \"#utility.yul\":7311:7317   */\n      0x00\n        /* \"#utility.yul\":7319:7325   */\n      dup1\n        /* \"#utility.yul\":7327:7333   */\n      0x00\n        /* \"#utility.yul\":7335:7341   */\n      dup1\n        /* \"#utility.yul\":7343:7349   */\n      0x00\n        /* \"#utility.yul\":7392:7395   */\n      0xa0\n        /* \"#utility.yul\":7380:7389   */\n      dup7\n        /* \"#utility.yul\":7371:7378   */\n      dup9\n        /* \"#utility.yul\":7367:7390   */\n      sub\n        /* \"#utility.yul\":7363:7396   */\n      slt\n        /* \"#utility.yul\":7360:7480   */\n      iszero\n      tag_206\n      jumpi\n        /* \"#utility.yul\":7399:7478   */\n      tag_207\n      tag_99\n      jump\t// in\n    tag_207:\n        /* \"#utility.yul\":7360:7480   */\n    tag_206:\n        /* \"#utility.yul\":7519:7520   */\n      0x00\n        /* \"#utility.yul\":7544:7607   */\n      tag_208\n        /* \"#utility.yul\":7599:7606   */\n      dup9\n        /* \"#utility.yul\":7590:7596   */\n      dup3\n        /* \"#utility.yul\":7579:7588   */\n      dup10\n        /* \"#utility.yul\":7575:7597   */\n      add\n        /* \"#utility.yul\":7544:7607   */\n      tag_118\n      jump\t// in\n    tag_208:\n        /* \"#utility.yul\":7534:7607   */\n      swap6\n      pop\n        /* \"#utility.yul\":7490:7617   */\n      pop\n        /* \"#utility.yul\":7656:7658   */\n      0x20\n        /* \"#utility.yul\":7682:7745   */\n      tag_209\n        /* \"#utility.yul\":7737:7744   */\n      dup9\n        /* \"#utility.yul\":7728:7734   */\n      dup3\n        /* \"#utility.yul\":7717:7726   */\n      dup10\n        /* \"#utility.yul\":7713:7735   */\n      add\n        /* \"#utility.yul\":7682:7745   */\n      tag_121\n      jump\t// in\n    tag_209:\n        /* \"#utility.yul\":7672:7745   */\n      swap5\n      pop\n        /* \"#utility.yul\":7627:7755   */\n      pop\n        /* \"#utility.yul\":7794:7796   */\n      0x40\n        /* \"#utility.yul\":7820:7884   */\n      tag_210\n        /* \"#utility.yul\":7876:7883   */\n      dup9\n        /* \"#utility.yul\":7867:7873   */\n      dup3\n        /* \"#utility.yul\":7856:7865   */\n      dup10\n        /* \"#utility.yul\":7852:7874   */\n      add\n        /* \"#utility.yul\":7820:7884   */\n      tag_122\n      jump\t// in\n    tag_210:\n        /* \"#utility.yul\":7810:7884   */\n      swap4\n      pop\n        /* \"#utility.yul\":7765:7894   */\n      pop\n        /* \"#utility.yul\":7933:7935   */\n      0x60\n        /* \"#utility.yul\":7959:8023   */\n      tag_211\n        /* \"#utility.yul\":8015:8022   */\n      dup9\n        /* \"#utility.yul\":8006:8012   */\n      dup3\n        /* \"#utility.yul\":7995:8004   */\n      dup10\n        /* \"#utility.yul\":7991:8013   */\n      add\n        /* \"#utility.yul\":7959:8023   */\n      tag_122\n      jump\t// in\n    tag_211:\n        /* \"#utility.yul\":7949:8023   */\n      swap3\n      pop\n        /* \"#utility.yul\":7904:8033   */\n      pop\n        /* \"#utility.yul\":8072:8075   */\n      0x80\n        /* \"#utility.yul\":8099:8162   */\n      tag_212\n        /* \"#utility.yul\":8154:8161   */\n      dup9\n        /* \"#utility.yul\":8145:8151   */\n      dup3\n        /* \"#utility.yul\":8134:8143   */\n      dup10\n        /* \"#utility.yul\":8130:8152   */\n      add\n        /* \"#utility.yul\":8099:8162   */\n      tag_118\n      jump\t// in\n    tag_212:\n        /* \"#utility.yul\":8089:8162   */\n      swap2\n      pop\n        /* \"#utility.yul\":8043:8172   */\n      pop\n        /* \"#utility.yul\":7208:8179   */\n      swap3\n      swap6\n      pop\n      swap3\n      swap6\n      swap1\n      swap4\n      pop\n      jump\t// out\n        /* \"#utility.yul\":8185:8741   */\n    tag_88:\n        /* \"#utility.yul\":8224:8231   */\n      0x00\n        /* \"#utility.yul\":8247:8266   */\n      tag_214\n        /* \"#utility.yul\":8264:8265   */\n      dup3\n        /* \"#utility.yul\":8247:8266   */\n      tag_119\n      jump\t// in\n    tag_214:\n        /* \"#utility.yul\":8242:8266   */\n      swap2\n      pop\n        /* \"#utility.yul\":8280:8299   */\n      tag_215\n        /* \"#utility.yul\":8297:8298   */\n      dup4\n        /* \"#utility.yul\":8280:8299   */\n      tag_119\n      jump\t// in\n    tag_215:\n        /* \"#utility.yul\":8275:8299   */\n      swap3\n      pop\n        /* \"#utility.yul\":8334:8335   */\n      dup3\n        /* \"#utility.yul\":8331:8332   */\n      dup3\n        /* \"#utility.yul\":8327:8336   */\n      mul\n        /* \"#utility.yul\":8356:8385   */\n      tag_216\n        /* \"#utility.yul\":8373:8384   */\n      dup2\n        /* \"#utility.yul\":8356:8385   */\n      tag_119\n      jump\t// in\n    tag_216:\n        /* \"#utility.yul\":8345:8385   */\n      swap2\n      pop\n        /* \"#utility.yul\":8443:8509   */\n      0x8000000000000000000000000000000000000000000000000000000000000000\n        /* \"#utility.yul\":8440:8441   */\n      dup5\n        /* \"#utility.yul\":8437:8510   */\n      eq\n        /* \"#utility.yul\":8433:8434   */\n      0x00\n        /* \"#utility.yul\":8430:8431   */\n      dup5\n        /* \"#utility.yul\":8426:8435   */\n      slt\n        /* \"#utility.yul\":8422:8511   */\n      and\n        /* \"#utility.yul\":8419:8534   */\n      iszero\n      tag_217\n      jumpi\n        /* \"#utility.yul\":8514:8532   */\n      tag_218\n      tag_108\n      jump\t// in\n    tag_218:\n        /* \"#utility.yul\":8419:8534   */\n    tag_217:\n        /* \"#utility.yul\":8684:8685   */\n      dup3\n        /* \"#utility.yul\":8675:8682   */\n      dup3\n        /* \"#utility.yul\":8670:8686   */\n      sdiv\n        /* \"#utility.yul\":8667:8668   */\n      dup5\n        /* \"#utility.yul\":8664:8687   */\n      eq\n        /* \"#utility.yul\":8644:8645   */\n      dup4\n        /* \"#utility.yul\":8637:8646   */\n      iszero\n        /* \"#utility.yul\":8617:8701   */\n      or\n        /* \"#utility.yul\":8594:8734   */\n      tag_219\n      jumpi\n        /* \"#utility.yul\":8714:8732   */\n      tag_220\n      tag_108\n      jump\t// in\n    tag_220:\n        /* \"#utility.yul\":8594:8734   */\n    tag_219:\n        /* \"#utility.yul\":8232:8741   */\n      pop\n        /* \"#utility.yul\":8185:8741   */\n      swap3\n      swap2\n      pop\n      pop\n      jump\t// out\n\n    auxdata: 0xa2646970667358221220b423b3e503fb20a40647430a74497900a3d3a2e1efc867b3e92cca18c3585f1664736f6c634300081a0033\n}\n",
				"bytecode": {
					"linkReferences": {},
					"object": "60a0604052348015600e575f80fd5b503373ffffffffffffffffffffffffffffffffffffffff1660808173ffffffffffffffffffffffffffffffffffffffff1681525050608051610b756100625f395f818161026901526104a90152610b755ff3fe608060405260043610610058575f3560e01c8063213dbea2146100715780633ccfd60b1461009b578063942ccc98146100b1578063b60d4288146100ed578063dba6335f146100f7578063dc0d3dff1461012157610067565b366100675761006561015d565b005b61006f61015d565b005b34801561007c575f80fd5b5061008561025b565b604051610092919061069c565b60405180910390f35b3480156100a6575f80fd5b506100af610267565b005b3480156100bc575f80fd5b506100d760048036038101906100d29190610713565b610492565b6040516100e4919061069c565b60405180910390f35b6100f561015d565b005b348015610102575f80fd5b5061010b6104a7565b604051610118919061074d565b60405180910390f35b34801561012c575f80fd5b5061014760048036038101906101429190610790565b6104cb565b604051610154919061074d565b60405180910390f35b674563918244f4000061016f34610505565b10156101a7576040517f99d735ce00000000000000000000000000000000000000000000000000000000815260040160405180910390fd5b5f33908060018154018082558091505060019003905f5260205f20015f9091909190916101000a81548173ffffffffffffffffffffffffffffffffffffffff021916908373ffffffffffffffffffffffffffffffffffffffff1602179055503460015f3373ffffffffffffffffffffffffffffffffffffffff1673ffffffffffffffffffffffffffffffffffffffff1681526020019081526020015f205f82825461025291906107e8565b92505081905550565b674563918244f4000081565b7f000000000000000000000000000000000000000000000000000000000000000073ffffffffffffffffffffffffffffffffffffffff163373ffffffffffffffffffffffffffffffffffffffff16146102ec576040517f251c9d6300000000000000000000000000000000000000000000000000000000815260040160405180910390fd5b5f5b5f80549050811015610388575f80828154811061030e5761030d61081b565b5b905f5260205f20015f9054906101000a900473ffffffffffffffffffffffffffffffffffffffff1690505f60015f8373ffffffffffffffffffffffffffffffffffffffff1673ffffffffffffffffffffffffffffffffffffffff1681526020019081526020015f20819055505080806001019150506102ee565b505f67ffffffffffffffff8111156103a3576103a2610848565b5b6040519080825280602002602001820160405280156103d15781602001602082028036833780820191505090505b505f90805190602001906103e69291906105e2565b505f3373ffffffffffffffffffffffffffffffffffffffff164760405161040c906108a2565b5f6040518083038185875af1925050503d805f8114610446576040519150601f19603f3d011682016040523d82523d5f602084013e61044b565b606091505b505090508061048f576040517f08c379a000000000000000000000000000000000000000000000000000000000815260040161048690610910565b60405180910390fd5b50565b6001602052805f5260405f205f915090505481565b7f000000000000000000000000000000000000000000000000000000000000000081565b5f81815481106104d9575f80fd5b905f5260205f20015f915054906101000a900473ffffffffffffffffffffffffffffffffffffffff1681565b5f8061050f61053d565b90505f670de0b6b3a76400008483610527919061092e565b610531919061099c565b90508092505050919050565b5f8073694aa1769357215de4fac081bf1f309adc32530690505f8173ffffffffffffffffffffffffffffffffffffffff1663feaf968c6040518163ffffffff1660e01b815260040160a060405180830381865afa1580156105a0573d5f803e3d5ffd5b505050506040513d601f19601f820116820180604052508101906105c49190610a52565b5050509150506402540be400816105db9190610ac9565b9250505090565b828054828255905f5260205f20908101928215610658579160200282015b82811115610657578251825f6101000a81548173ffffffffffffffffffffffffffffffffffffffff021916908373ffffffffffffffffffffffffffffffffffffffff16021790555091602001919060010190610600565b5b5090506106659190610669565b5090565b5b80821115610680575f815f90555060010161066a565b5090565b5f819050919050565b61069681610684565b82525050565b5f6020820190506106af5f83018461068d565b92915050565b5f80fd5b5f73ffffffffffffffffffffffffffffffffffffffff82169050919050565b5f6106e2826106b9565b9050919050565b6106f2816106d8565b81146106fc575f80fd5b50565b5f8135905061070d816106e9565b92915050565b5f60208284031215610728576107276106b5565b5b5f610735848285016106ff565b91505092915050565b610747816106d8565b82525050565b5f6020820190506107605f83018461073e565b92915050565b61076f81610684565b8114610779575f80fd5b50565b5f8135905061078a81610766565b92915050565b5f602082840312156107a5576107a46106b5565b5b5f6107b28482850161077c565b91505092915050565b7f4e487b71000000000000000000000000000000000000000000000000000000005f52601160045260245ffd5b5f6107f282610684565b91506107fd83610684565b9250828201905080821115610815576108146107bb565b5b92915050565b7f4e487b71000000000000000000000000000000000000000000000000000000005f52603260045260245ffd5b7f4e487b71000000000000000000000000000000000000000000000000000000005f52604160045260245ffd5b5f81905092915050565b50565b5f61088d5f83610875565b91506108988261087f565b5f82019050919050565b5f6108ac82610882565b9150819050919050565b5f82825260208201905092915050565b7f43616c6c204661696c65640000000000000000000000000000000000000000005f82015250565b5f6108fa600b836108b6565b9150610905826108c6565b602082019050919050565b5f6020820190508181035f830152610927816108ee565b9050919050565b5f61093882610684565b915061094383610684565b925082820261095181610684565b91508282048414831517610968576109676107bb565b5b5092915050565b7f4e487b71000000000000000000000000000000000000000000000000000000005f52601260045260245ffd5b5f6109a682610684565b91506109b183610684565b9250826109c1576109c061096f565b5b828204905092915050565b5f69ffffffffffffffffffff82169050919050565b6109ea816109cc565b81146109f4575f80fd5b50565b5f81519050610a05816109e1565b92915050565b5f819050919050565b610a1d81610a0b565b8114610a27575f80fd5b50565b5f81519050610a3881610a14565b92915050565b5f81519050610a4c81610766565b92915050565b5f805f805f60a08688031215610a6b57610a6a6106b5565b5b5f610a78888289016109f7565b9550506020610a8988828901610a2a565b9450506040610a9a88828901610a3e565b9350506060610aab88828901610a3e565b9250506080610abc888289016109f7565b9150509295509295909350565b5f610ad382610a0b565b9150610ade83610a0b565b9250828202610aec81610a0b565b91507f800000000000000000000000000000000000000000000000000000000000000084145f84121615610b2357610b226107bb565b5b8282058414831517610b3857610b376107bb565b5b509291505056fea2646970667358221220b423b3e503fb20a40647430a74497900a3d3a2e1efc867b3e92cca18c3585f1664736f6c634300081a0033",
					"opcodes": "PUSH1 0xA0 PUSH1 0x40 MSTORE CALLVALUE DUP1 ISZERO PUSH1 0xE JUMPI PUSH0 DUP1 REVERT JUMPDEST POP CALLER PUSH20 0xFFFFFFFFFFFFFFFFFFFFFFFFFFFFFFFFFFFFFFFF AND PUSH1 0x80 DUP2 PUSH20 0xFFFFFFFFFFFFFFFFFFFFFFFFFFFFFFFFFFFFFFFF AND DUP2 MSTORE POP POP PUSH1 0x80 MLOAD PUSH2 0xB75 PUSH2 0x62 PUSH0 CODECOPY PUSH0 DUP2 DUP2 PUSH2 0x269 ADD MSTORE PUSH2 0x4A9 ADD MSTORE PUSH2 0xB75 PUSH0 RETURN INVALID PUSH1 0x80 PUSH1 0x40 MSTORE PUSH1 0x4 CALLDATASIZE LT PUSH2 0x58 JUMPI PUSH0 CALLDATALOAD PUSH1 0xE0 SHR DUP1 PUSH4 0x213DBEA2 EQ PUSH2 0x71 JUMPI DUP1 PUSH4 0x3CCFD60B EQ PUSH2 0x9B JUMPI DUP1 PUSH4 0x942CCC98 EQ PUSH2 0xB1 JUMPI DUP1 PUSH4 0xB60D4288 EQ PUSH2 0xED JUMPI DUP1 PUSH4 0xDBA6335F EQ PUSH2 0xF7 JUMPI DUP1 PUSH4 0xDC0D3DFF EQ PUSH2 0x121 JUMPI PUSH2 0x67 JUMP JUMPDEST CALLDATASIZE PUSH2 0x67 JUMPI PUSH2 0x65 PUSH2 0x15D JUMP JUMPDEST STOP JUMPDEST PUSH2 0x6F PUSH2 0x15D JUMP JUMPDEST STOP JUMPDEST CALLVALUE DUP1 ISZERO PUSH2 0x7C JUMPI PUSH0 DUP1 REVERT JUMPDEST POP PUSH2 0x85 PUSH2 0x25B JUMP JUMPDEST PUSH1 0x40 MLOAD PUSH2 0x92 SWAP2 SWAP1 PUSH2 0x69C JUMP JUMPDEST PUSH1 0x40 MLOAD DUP1 SWAP2 SUB SWAP1 RETURN JUMPDEST CALLVALUE DUP1 ISZERO PUSH2 0xA6 JUMPI PUSH0 DUP1 REVERT JUMPDEST POP PUSH2 0xAF PUSH2 0x267 JUMP JUMPDEST STOP JUMPDEST CALLVALUE DUP1 ISZERO PUSH2 0xBC JUMPI PUSH0 DUP1 REVERT JUMPDEST POP PUSH2 0xD7 PUSH1 0x4 DUP1 CALLDATASIZE SUB DUP2 ADD SWAP1 PUSH2 0xD2 SWAP2 SWAP1 PUSH2 0x713 JUMP JUMPDEST PUSH2 0x492 JUMP JUMPDEST PUSH1 0x40 MLOAD PUSH2 0xE4 SWAP2 SWAP1 PUSH2 0x69C JUMP JUMPDEST PUSH1 0x40 MLOAD DUP1 SWAP2 SUB SWAP1 RETURN JUMPDEST PUSH2 0xF5 PUSH2 0x15D JUMP JUMPDEST STOP JUMPDEST CALLVALUE DUP1 ISZERO PUSH2 0x102 JUMPI PUSH0 DUP1 REVERT JUMPDEST POP PUSH2 0x10B PUSH2 0x4A7 JUMP JUMPDEST PUSH1 0x40 MLOAD PUSH2 0x118 SWAP2 SWAP1 PUSH2 0x74D JUMP JUMPDEST PUSH1 0x40 MLOAD DUP1 SWAP2 SUB SWAP1 RETURN JUMPDEST CALLVALUE DUP1 ISZERO PUSH2 0x12C JUMPI PUSH0 DUP1 REVERT JUMPDEST POP PUSH2 0x147 PUSH1 0x4 DUP1 CALLDATASIZE SUB DUP2 ADD SWAP1 PUSH2 0x142 SWAP2 SWAP1 PUSH2 0x790 JUMP JUMPDEST PUSH2 0x4CB JUMP JUMPDEST PUSH1 0x40 MLOAD PUSH2 0x154 SWAP2 SWAP1 PUSH2 0x74D JUMP JUMPDEST PUSH1 0x40 MLOAD DUP1 SWAP2 SUB SWAP1 RETURN JUMPDEST PUSH8 0x4563918244F40000 PUSH2 0x16F CALLVALUE PUSH2 0x505 JUMP JUMPDEST LT ISZERO PUSH2 0x1A7 JUMPI PUSH1 0x40 MLOAD PUSH32 0x99D735CE00000000000000000000000000000000000000000000000000000000 DUP2 MSTORE PUSH1 0x4 ADD PUSH1 0x40 MLOAD DUP1 SWAP2 SUB SWAP1 REVERT JUMPDEST PUSH0 CALLER SWAP1 DUP1 PUSH1 0x1 DUP2 SLOAD ADD DUP1 DUP3 SSTORE DUP1 SWAP2 POP POP PUSH1 0x1 SWAP1 SUB SWAP1 PUSH0 MSTORE PUSH1 0x20 PUSH0 KECCAK256 ADD PUSH0 SWAP1 SWAP2 SWAP1 SWAP2 SWAP1 SWAP2 PUSH2 0x100 EXP DUP2 SLOAD DUP2 PUSH20 0xFFFFFFFFFFFFFFFFFFFFFFFFFFFFFFFFFFFFFFFF MUL NOT AND SWAP1 DUP4 PUSH20 0xFFFFFFFFFFFFFFFFFFFFFFFFFFFFFFFFFFFFFFFF AND MUL OR SWAP1 SSTORE POP CALLVALUE PUSH1 0x1 PUSH0 CALLER PUSH20 0xFFFFFFFFFFFFFFFFFFFFFFFFFFFFFFFFFFFFFFFF AND PUSH20 0xFFFFFFFFFFFFFFFFFFFFFFFFFFFFFFFFFFFFFFFF AND DUP2 MSTORE PUSH1 0x20 ADD SWAP1 DUP2 MSTORE PUSH1 0x20 ADD PUSH0 KECCAK256 PUSH0 DUP3 DUP3 SLOAD PUSH2 0x252 SWAP2 SWAP1 PUSH2 0x7E8 JUMP JUMPDEST SWAP3 POP POP DUP2 SWAP1 SSTORE POP JUMP JUMPDEST PUSH8 0x4563918244F40000 DUP2 JUMP JUMPDEST PUSH32 0x0 PUSH20 0xFFFFFFFFFFFFFFFFFFFFFFFFFFFFFFFFFFFFFFFF AND CALLER PUSH20 0xFFFFFFFFFFFFFFFFFFFFFFFFFFFFFFFFFFFFFFFF AND EQ PUSH2 0x2EC JUMPI PUSH1 0x40 MLOAD PUSH32 0x251C9D6300000000000000000000000000000000000000000000000000000000 DUP2 MSTORE PUSH1 0x4 ADD PUSH1 0x40 MLOAD DUP1 SWAP2 SUB SWAP1 REVERT JUMPDEST PUSH0 JUMPDEST PUSH0 DUP1 SLOAD SWAP1 POP DUP2 LT ISZERO PUSH2 0x388 JUMPI PUSH0 DUP1 DUP3 DUP2 SLOAD DUP2 LT PUSH2 0x30E JUMPI PUSH2 0x30D PUSH2 0x81B JUMP JUMPDEST JUMPDEST SWAP1 PUSH0 MSTORE PUSH1 0x20 PUSH0 KECCAK256 ADD PUSH0 SWAP1 SLOAD SWAP1 PUSH2 0x100 EXP SWAP1 DIV PUSH20 0xFFFFFFFFFFFFFFFFFFFFFFFFFFFFFFFFFFFFFFFF AND SWAP1 POP PUSH0 PUSH1 0x1 PUSH0 DUP4 PUSH20 0xFFFFFFFFFFFFFFFFFFFFFFFFFFFFFFFFFFFFFFFF AND PUSH20 0xFFFFFFFFFFFFFFFFFFFFFFFFFFFFFFFFFFFFFFFF AND DUP2 MSTORE PUSH1 0x20 ADD SWAP1 DUP2 MSTORE PUSH1 0x20 ADD PUSH0 KECCAK256 DUP2 SWAP1 SSTORE POP POP DUP1 DUP1 PUSH1 0x1 ADD SWAP2 POP POP PUSH2 0x2EE JUMP JUMPDEST POP PUSH0 PUSH8 0xFFFFFFFFFFFFFFFF DUP2 GT ISZERO PUSH2 0x3A3 JUMPI PUSH2 0x3A2 PUSH2 0x848 JUMP JUMPDEST JUMPDEST PUSH1 0x40 MLOAD SWAP1 DUP1 DUP3 MSTORE DUP1 PUSH1 0x20 MUL PUSH1 0x20 ADD DUP3 ADD PUSH1 0x40 MSTORE DUP1 ISZERO PUSH2 0x3D1 JUMPI DUP2 PUSH1 0x20 ADD PUSH1 0x20 DUP3 MUL DUP1 CALLDATASIZE DUP4 CALLDATACOPY DUP1 DUP3 ADD SWAP2 POP POP SWAP1 POP JUMPDEST POP PUSH0 SWAP1 DUP1 MLOAD SWAP1 PUSH1 0x20 ADD SWAP1 PUSH2 0x3E6 SWAP3 SWAP2 SWAP1 PUSH2 0x5E2 JUMP JUMPDEST POP PUSH0 CALLER PUSH20 0xFFFFFFFFFFFFFFFFFFFFFFFFFFFFFFFFFFFFFFFF AND SELFBALANCE PUSH1 0x40 MLOAD PUSH2 0x40C SWAP1 PUSH2 0x8A2 JUMP JUMPDEST PUSH0 PUSH1 0x40 MLOAD DUP1 DUP4 SUB DUP2 DUP6 DUP8 GAS CALL SWAP3 POP POP POP RETURNDATASIZE DUP1 PUSH0 DUP2 EQ PUSH2 0x446 JUMPI PUSH1 0x40 MLOAD SWAP2 POP PUSH1 0x1F NOT PUSH1 0x3F RETURNDATASIZE ADD AND DUP3 ADD PUSH1 0x40 MSTORE RETURNDATASIZE DUP3 MSTORE RETURNDATASIZE PUSH0 PUSH1 0x20 DUP5 ADD RETURNDATACOPY PUSH2 0x44B JUMP JUMPDEST PUSH1 0x60 SWAP2 POP JUMPDEST POP POP SWAP1 POP DUP1 PUSH2 0x48F JUMPI PUSH1 0x40 MLOAD PUSH32 0x8C379A000000000000000000000000000000000000000000000000000000000 DUP2 MSTORE PUSH1 0x4 ADD PUSH2 0x486 SWAP1 PUSH2 0x910 JUMP JUMPDEST PUSH1 0x40 MLOAD DUP1 SWAP2 SUB SWAP1 REVERT JUMPDEST POP JUMP JUMPDEST PUSH1 0x1 PUSH1 0x20 MSTORE DUP1 PUSH0 MSTORE PUSH1 0x40 PUSH0 KECCAK256 PUSH0 SWAP2 POP SWAP1 POP SLOAD DUP2 JUMP JUMPDEST PUSH32 0x0 DUP2 JUMP JUMPDEST PUSH0 DUP2 DUP2 SLOAD DUP2 LT PUSH2 0x4D9 JUMPI PUSH0 DUP1 REVERT JUMPDEST SWAP1 PUSH0 MSTORE PUSH1 0x20 PUSH0 KECCAK256 ADD PUSH0 SWAP2 POP SLOAD SWAP1 PUSH2 0x100 EXP SWAP1 DIV PUSH20 0xFFFFFFFFFFFFFFFFFFFFFFFFFFFFFFFFFFFFFFFF AND DUP2 JUMP JUMPDEST PUSH0 DUP1 PUSH2 0x50F PUSH2 0x53D JUMP JUMPDEST SWAP1 POP PUSH0 PUSH8 0xDE0B6B3A7640000 DUP5 DUP4 PUSH2 0x527 SWAP2 SWAP1 PUSH2 0x92E JUMP JUMPDEST PUSH2 0x531 SWAP2 SWAP1 PUSH2 0x99C JUMP JUMPDEST SWAP1 POP DUP1 SWAP3 POP POP POP SWAP2 SWAP1 POP JUMP JUMPDEST PUSH0 DUP1 PUSH20 0x694AA1769357215DE4FAC081BF1F309ADC325306 SWAP1 POP PUSH0 DUP2 PUSH20 0xFFFFFFFFFFFFFFFFFFFFFFFFFFFFFFFFFFFFFFFF AND PUSH4 0xFEAF968C PUSH1 0x40 MLOAD DUP2 PUSH4 0xFFFFFFFF AND PUSH1 0xE0 SHL DUP2 MSTORE PUSH1 0x4 ADD PUSH1 0xA0 PUSH1 0x40 MLOAD DUP1 DUP4 SUB DUP2 DUP7 GAS STATICCALL ISZERO DUP1 ISZERO PUSH2 0x5A0 JUMPI RETURNDATASIZE PUSH0 DUP1 RETURNDATACOPY RETURNDATASIZE PUSH0 REVERT JUMPDEST POP POP POP POP PUSH1 0x40 MLOAD RETURNDATASIZE PUSH1 0x1F NOT PUSH1 0x1F DUP3 ADD AND DUP3 ADD DUP1 PUSH1 0x40 MSTORE POP DUP2 ADD SWAP1 PUSH2 0x5C4 SWAP2 SWAP1 PUSH2 0xA52 JUMP JUMPDEST POP POP POP SWAP2 POP POP PUSH5 0x2540BE400 DUP2 PUSH2 0x5DB SWAP2 SWAP1 PUSH2 0xAC9 JUMP JUMPDEST SWAP3 POP POP POP SWAP1 JUMP JUMPDEST DUP3 DUP1 SLOAD DUP3 DUP3 SSTORE SWAP1 PUSH0 MSTORE PUSH1 0x20 PUSH0 KECCAK256 SWAP1 DUP2 ADD SWAP3 DUP3 ISZERO PUSH2 0x658 JUMPI SWAP2 PUSH1 0x20 MUL DUP3 ADD JUMPDEST DUP3 DUP2 GT ISZERO PUSH2 0x657 JUMPI DUP3 MLOAD DUP3 PUSH0 PUSH2 0x100 EXP DUP2 SLOAD DUP2 PUSH20 0xFFFFFFFFFFFFFFFFFFFFFFFFFFFFFFFFFFFFFFFF MUL NOT AND SWAP1 DUP4 PUSH20 0xFFFFFFFFFFFFFFFFFFFFFFFFFFFFFFFFFFFFFFFF AND MUL OR SWAP1 SSTORE POP SWAP2 PUSH1 0x20 ADD SWAP2 SWAP1 PUSH1 0x1 ADD SWAP1 PUSH2 0x600 JUMP JUMPDEST JUMPDEST POP SWAP1 POP PUSH2 0x665 SWAP2 SWAP1 PUSH2 0x669 JUMP JUMPDEST POP SWAP1 JUMP JUMPDEST JUMPDEST DUP1 DUP3 GT ISZERO PUSH2 0x680 JUMPI PUSH0 DUP2 PUSH0 SWAP1 SSTORE POP PUSH1 0x1 ADD PUSH2 0x66A JUMP JUMPDEST POP SWAP1 JUMP JUMPDEST PUSH0 DUP2 SWAP1 POP SWAP2 SWAP1 POP JUMP JUMPDEST PUSH2 0x696 DUP2 PUSH2 0x684 JUMP JUMPDEST DUP3 MSTORE POP POP JUMP JUMPDEST PUSH0 PUSH1 0x20 DUP3 ADD SWAP1 POP PUSH2 0x6AF PUSH0 DUP4 ADD DUP5 PUSH2 0x68D JUMP JUMPDEST SWAP3 SWAP2 POP POP JUMP JUMPDEST PUSH0 DUP1 REVERT JUMPDEST PUSH0 PUSH20 0xFFFFFFFFFFFFFFFFFFFFFFFFFFFFFFFFFFFFFFFF DUP3 AND SWAP1 POP SWAP2 SWAP1 POP JUMP JUMPDEST PUSH0 PUSH2 0x6E2 DUP3 PUSH2 0x6B9 JUMP JUMPDEST SWAP1 POP SWAP2 SWAP1 POP JUMP JUMPDEST PUSH2 0x6F2 DUP2 PUSH2 0x6D8 JUMP JUMPDEST DUP2 EQ PUSH2 0x6FC JUMPI PUSH0 DUP1 REVERT JUMPDEST POP JUMP JUMPDEST PUSH0 DUP2 CALLDATALOAD SWAP1 POP PUSH2 0x70D DUP2 PUSH2 0x6E9 JUMP JUMPDEST SWAP3 SWAP2 POP POP JUMP JUMPDEST PUSH0 PUSH1 0x20 DUP3 DUP5 SUB SLT ISZERO PUSH2 0x728 JUMPI PUSH2 0x727 PUSH2 0x6B5 JUMP JUMPDEST JUMPDEST PUSH0 PUSH2 0x735 DUP5 DUP3 DUP6 ADD PUSH2 0x6FF JUMP JUMPDEST SWAP2 POP POP SWAP3 SWAP2 POP POP JUMP JUMPDEST PUSH2 0x747 DUP2 PUSH2 0x6D8 JUMP JUMPDEST DUP3 MSTORE POP POP JUMP JUMPDEST PUSH0 PUSH1 0x20 DUP3 ADD SWAP1 POP PUSH2 0x760 PUSH0 DUP4 ADD DUP5 PUSH2 0x73E JUMP JUMPDEST SWAP3 SWAP2 POP POP JUMP JUMPDEST PUSH2 0x76F DUP2 PUSH2 0x684 JUMP JUMPDEST DUP2 EQ PUSH2 0x779 JUMPI PUSH0 DUP1 REVERT JUMPDEST POP JUMP JUMPDEST PUSH0 DUP2 CALLDATALOAD SWAP1 POP PUSH2 0x78A DUP2 PUSH2 0x766 JUMP JUMPDEST SWAP3 SWAP2 POP POP JUMP JUMPDEST PUSH0 PUSH1 0x20 DUP3 DUP5 SUB SLT ISZERO PUSH2 0x7A5 JUMPI PUSH2 0x7A4 PUSH2 0x6B5 JUMP JUMPDEST JUMPDEST PUSH0 PUSH2 0x7B2 DUP5 DUP3 DUP6 ADD PUSH2 0x77C JUMP JUMPDEST SWAP2 POP POP SWAP3 SWAP2 POP POP JUMP JUMPDEST PUSH32 0x4E487B7100000000000000000000000000000000000000000000000000000000 PUSH0 MSTORE PUSH1 0x11 PUSH1 0x4 MSTORE PUSH1 0x24 PUSH0 REVERT JUMPDEST PUSH0 PUSH2 0x7F2 DUP3 PUSH2 0x684 JUMP JUMPDEST SWAP2 POP PUSH2 0x7FD DUP4 PUSH2 0x684 JUMP JUMPDEST SWAP3 POP DUP3 DUP3 ADD SWAP1 POP DUP1 DUP3 GT ISZERO PUSH2 0x815 JUMPI PUSH2 0x814 PUSH2 0x7BB JUMP JUMPDEST JUMPDEST SWAP3 SWAP2 POP POP JUMP JUMPDEST PUSH32 0x4E487B7100000000000000000000000000000000000000000000000000000000 PUSH0 MSTORE PUSH1 0x32 PUSH1 0x4 MSTORE PUSH1 0x24 PUSH0 REVERT JUMPDEST PUSH32 0x4E487B7100000000000000000000000000000000000000000000000000000000 PUSH0 MSTORE PUSH1 0x41 PUSH1 0x4 MSTORE PUSH1 0x24 PUSH0 REVERT JUMPDEST PUSH0 DUP2 SWAP1 POP SWAP3 SWAP2 POP POP JUMP JUMPDEST POP JUMP JUMPDEST PUSH0 PUSH2 0x88D PUSH0 DUP4 PUSH2 0x875 JUMP JUMPDEST SWAP2 POP PUSH2 0x898 DUP3 PUSH2 0x87F JUMP JUMPDEST PUSH0 DUP3 ADD SWAP1 POP SWAP2 SWAP1 POP JUMP JUMPDEST PUSH0 PUSH2 0x8AC DUP3 PUSH2 0x882 JUMP JUMPDEST SWAP2 POP DUP2 SWAP1 POP SWAP2 SWAP1 POP JUMP JUMPDEST PUSH0 DUP3 DUP3 MSTORE PUSH1 0x20 DUP3 ADD SWAP1 POP SWAP3 SWAP2 POP POP JUMP JUMPDEST PUSH32 0x43616C6C204661696C6564000000000000000000000000000000000000000000 PUSH0 DUP3 ADD MSTORE POP JUMP JUMPDEST PUSH0 PUSH2 0x8FA PUSH1 0xB DUP4 PUSH2 0x8B6 JUMP JUMPDEST SWAP2 POP PUSH2 0x905 DUP3 PUSH2 0x8C6 JUMP JUMPDEST PUSH1 0x20 DUP3 ADD SWAP1 POP SWAP2 SWAP1 POP JUMP JUMPDEST PUSH0 PUSH1 0x20 DUP3 ADD SWAP1 POP DUP2 DUP2 SUB PUSH0 DUP4 ADD MSTORE PUSH2 0x927 DUP2 PUSH2 0x8EE JUMP JUMPDEST SWAP1 POP SWAP2 SWAP1 POP JUMP JUMPDEST PUSH0 PUSH2 0x938 DUP3 PUSH2 0x684 JUMP JUMPDEST SWAP2 POP PUSH2 0x943 DUP4 PUSH2 0x684 JUMP JUMPDEST SWAP3 POP DUP3 DUP3 MUL PUSH2 0x951 DUP2 PUSH2 0x684 JUMP JUMPDEST SWAP2 POP DUP3 DUP3 DIV DUP5 EQ DUP4 ISZERO OR PUSH2 0x968 JUMPI PUSH2 0x967 PUSH2 0x7BB JUMP JUMPDEST JUMPDEST POP SWAP3 SWAP2 POP POP JUMP JUMPDEST PUSH32 0x4E487B7100000000000000000000000000000000000000000000000000000000 PUSH0 MSTORE PUSH1 0x12 PUSH1 0x4 MSTORE PUSH1 0x24 PUSH0 REVERT JUMPDEST PUSH0 PUSH2 0x9A6 DUP3 PUSH2 0x684 JUMP JUMPDEST SWAP2 POP PUSH2 0x9B1 DUP4 PUSH2 0x684 JUMP JUMPDEST SWAP3 POP DUP3 PUSH2 0x9C1 JUMPI PUSH2 0x9C0 PUSH2 0x96F JUMP JUMPDEST JUMPDEST DUP3 DUP3 DIV SWAP1 POP SWAP3 SWAP2 POP POP JUMP JUMPDEST PUSH0 PUSH10 0xFFFFFFFFFFFFFFFFFFFF DUP3 AND SWAP1 POP SWAP2 SWAP1 POP JUMP JUMPDEST PUSH2 0x9EA DUP2 PUSH2 0x9CC JUMP JUMPDEST DUP2 EQ PUSH2 0x9F4 JUMPI PUSH0 DUP1 REVERT JUMPDEST POP JUMP JUMPDEST PUSH0 DUP2 MLOAD SWAP1 POP PUSH2 0xA05 DUP2 PUSH2 0x9E1 JUMP JUMPDEST SWAP3 SWAP2 POP POP JUMP JUMPDEST PUSH0 DUP2 SWAP1 POP SWAP2 SWAP1 POP JUMP JUMPDEST PUSH2 0xA1D DUP2 PUSH2 0xA0B JUMP JUMPDEST DUP2 EQ PUSH2 0xA27 JUMPI PUSH0 DUP1 REVERT JUMPDEST POP JUMP JUMPDEST PUSH0 DUP2 MLOAD SWAP1 POP PUSH2 0xA38 DUP2 PUSH2 0xA14 JUMP JUMPDEST SWAP3 SWAP2 POP POP JUMP JUMPDEST PUSH0 DUP2 MLOAD SWAP1 POP PUSH2 0xA4C DUP2 PUSH2 0x766 JUMP JUMPDEST SWAP3 SWAP2 POP POP JUMP JUMPDEST PUSH0 DUP1 PUSH0 DUP1 PUSH0 PUSH1 0xA0 DUP7 DUP9 SUB SLT ISZERO PUSH2 0xA6B JUMPI PUSH2 0xA6A PUSH2 0x6B5 JUMP JUMPDEST JUMPDEST PUSH0 PUSH2 0xA78 DUP9 DUP3 DUP10 ADD PUSH2 0x9F7 JUMP JUMPDEST SWAP6 POP POP PUSH1 0x20 PUSH2 0xA89 DUP9 DUP3 DUP10 ADD PUSH2 0xA2A JUMP JUMPDEST SWAP5 POP POP PUSH1 0x40 PUSH2 0xA9A DUP9 DUP3 DUP10 ADD PUSH2 0xA3E JUMP JUMPDEST SWAP4 POP POP PUSH1 0x60 PUSH2 0xAAB DUP9 DUP3 DUP10 ADD PUSH2 0xA3E JUMP JUMPDEST SWAP3 POP POP PUSH1 0x80 PUSH2 0xABC DUP9 DUP3 DUP10 ADD PUSH2 0x9F7 JUMP JUMPDEST SWAP2 POP POP SWAP3 SWAP6 POP SWAP3 SWAP6 SWAP1 SWAP4 POP JUMP JUMPDEST PUSH0 PUSH2 0xAD3 DUP3 PUSH2 0xA0B JUMP JUMPDEST SWAP2 POP PUSH2 0xADE DUP4 PUSH2 0xA0B JUMP JUMPDEST SWAP3 POP DUP3 DUP3 MUL PUSH2 0xAEC DUP2 PUSH2 0xA0B JUMP JUMPDEST SWAP2 POP PUSH32 0x8000000000000000000000000000000000000000000000000000000000000000 DUP5 EQ PUSH0 DUP5 SLT AND ISZERO PUSH2 0xB23 JUMPI PUSH2 0xB22 PUSH2 0x7BB JUMP JUMPDEST JUMPDEST DUP3 DUP3 SDIV DUP5 EQ DUP4 ISZERO OR PUSH2 0xB38 JUMPI PUSH2 0xB37 PUSH2 0x7BB JUMP JUMPDEST JUMPDEST POP SWAP3 SWAP2 POP POP JUMP INVALID LOG2 PUSH5 0x6970667358 0x22 SLT KECCAK256 0xB4 0x23 0xB3 0xE5 SUB 0xFB KECCAK256 LOG4 MOD SELFBALANCE NUMBER EXP PUSH21 0x497900A3D3A2E1EFC867B3E92CCA18C3585F166473 PUSH16 0x6C634300081A00330000000000000000 "
				},
				"gasEstimates": {
					"creation": {
						"codeDepositCost": "586600",
						"executionCost": "infinite",
						"totalCost": "infinite"
					},
					"external": {
						"": "infinite",
						"MIN_USD()": "303",
						"fund()": "infinite",
						"funders(uint256)": "5031",
						"i_owner()": "infinite",
						"valueSent(address)": "2824",
						"withdraw()": "infinite"
					}
				},
				"methodIdentifiers": {
					"MIN_USD()": "213dbea2",
					"fund()": "b60d4288",
					"funders(uint256)": "dc0d3dff",
					"i_owner()": "dba6335f",
					"valueSent(address)": "942ccc98",
					"withdraw()": "3ccfd60b"
				}
			},
			"storageLayout": {
				"storage": [
					{
						"astId": 62,
						"contract": "FundMe.sol:FundMe",
						"label": "funders",
						"offset": 0,
						"slot": "0",
						"type": "t_array(t_address)dyn_storage"
					},
					{
						"astId": 66,
						"contract": "FundMe.sol:FundMe",
						"label": "valueSent",
						"offset": 0,
						"slot": "1",
						"type": "t_mapping(t_address,t_uint256)"
					}
				],
				"types": {
					"t_address": {
						"encoding": "inplace",
						"label": "address",
						"numberOfBytes": "20"
					},
					"t_array(t_address)dyn_storage": {
						"base": "t_address",
						"encoding": "dynamic_array",
						"label": "address[]",
						"numberOfBytes": "32"
					},
					"t_mapping(t_address,t_uint256)": {
						"encoding": "mapping",
						"key": "t_address",
						"label": "mapping(address => uint256)",
						"numberOfBytes": "32",
						"value": "t_uint256"
					},
					"t_uint256": {
						"encoding": "inplace",
						"label": "uint256",
						"numberOfBytes": "32"
					}
				}
			},
			"userdoc": {
				"kind": "user",
				"methods": {},
				"version": 1
			}
		}
	}
}