{
	"SimpleStorage.sol": {
		"SimpleStorage": {
			"abi": [
				{
					"inputs": [],
					"name": "Aarti",
					"outputs": [
						{
							"internalType": "string",
							"name": "name",
							"type": "string"
						},
						{
							"internalType": "uint256",
							"name": "favNo",
							"type": "uint256"
						},
						{
							"internalType": "bool",
							"name": "isMale",
							"type": "bool"
						}
					],
					"stateMutability": "view",
					"type": "function"
				},
				{
					"inputs": [],
					"name": "Ajay",
					"outputs": [
						{
							"internalType": "string",
							"name": "name",
							"type": "string"
						},
						{
							"internalType": "uint256",
							"name": "favNo",
							"type": "uint256"
						},
						{
							"internalType": "bool",
							"name": "isMale",
							"type": "bool"
						}
					],
					"stateMutability": "view",
					"type": "function"
				},
				{
					"inputs": [
						{
							"internalType": "uint256",
							"name": "",
							"type": "uint256"
						}
					],
					"name": "Friends",
					"outputs": [
						{
							"internalType": "string",
							"name": "name",
							"type": "string"
						},
						{
							"internalType": "uint256",
							"name": "favNo",
							"type": "uint256"
						},
						{
							"internalType": "bool",
							"name": "isMale",
							"type": "bool"
						}
					],
					"stateMutability": "view",
					"type": "function"
				},
				{
					"inputs": [
						{
							"internalType": "string",
							"name": "_name",
							"type": "string"
						},
						{
							"internalType": "uint256",
							"name": "_number",
							"type": "uint256"
						}
					],
					"name": "GiveNameToNumber",
					"outputs": [],
					"stateMutability": "nonpayable",
					"type": "function"
				},
				{
					"inputs": [
						{
							"internalType": "string",
							"name": "",
							"type": "string"
						}
					],
					"name": "NameToNumber",
					"outputs": [
						{
							"internalType": "uint256",
							"name": "",
							"type": "uint256"
						}
					],
					"stateMutability": "view",
					"type": "function"
				},
				{
					"inputs": [],
					"name": "Vijay",
					"outputs": [
						{
							"internalType": "string",
							"name": "name",
							"type": "string"
						},
						{
							"internalType": "uint256",
							"name": "favNo",
							"type": "uint256"
						},
						{
							"internalType": "bool",
							"name": "isMale",
							"type": "bool"
						}
					],
					"stateMutability": "view",
					"type": "function"
				},
				{
					"inputs": [
						{
							"internalType": "string",
							"name": "_name",
							"type": "string"
						},
						{
							"internalType": "uint256",
							"name": "_numb",
							"type": "uint256"
						},
						{
							"internalType": "bool",
							"name": "_male",
							"type": "bool"
						}
					],
					"name": "addPerson",
					"outputs": [],
					"stateMutability": "nonpayable",
					"type": "function"
				},
				{
					"inputs": [],
					"name": "favoriteNumber",
					"outputs": [
						{
							"internalType": "uint256",
							"name": "",
							"type": "uint256"
						}
					],
					"stateMutability": "view",
					"type": "function"
				},
				{
					"inputs": [],
					"name": "jaadu",
					"outputs": [
						{
							"internalType": "uint256",
							"name": "",
							"type": "uint256"
						}
					],
					"stateMutability": "pure",
					"type": "function"
				},
				{
					"inputs": [],
					"name": "retrieve",
					"outputs": [
						{
							"internalType": "uint256",
							"name": "",
							"type": "uint256"
						}
					],
					"stateMutability": "view",
					"type": "function"
				},
				{
					"inputs": [
						{
							"internalType": "uint256",
							"name": "_favoriteNumber",
							"type": "uint256"
						}
					],
					"name": "store",
					"outputs": [],
					"stateMutability": "nonpayable",
					"type": "function"
				}
			],
			"devdoc": {
				"kind": "dev",
				"methods": {},
				"version": 1
			},
			"evm": {
				"assembly": "    /* \"SimpleStorage.sol\":92:1373  contract SimpleStorage... */\n  mstore(0x40, 0x80)\n    /* \"SimpleStorage.sol\":596:620  Person(\"Ajay\", 21, true) */\n  mload(0x40)\n  dup1\n  0x60\n  add\n  0x40\n  mstore\n  dup1\n  mload(0x40)\n  dup1\n  0x40\n  add\n  0x40\n  mstore\n  dup1\n  0x04\n  dup2\n  mstore\n  0x20\n  add\n  0x416a617900000000000000000000000000000000000000000000000000000000\n  dup2\n  mstore\n  pop\n  dup2\n  mstore\n  0x20\n  add\n    /* \"SimpleStorage.sol\":611:613  21 */\n  0x15\n    /* \"SimpleStorage.sol\":596:620  Person(\"Ajay\", 21, true) */\n  dup2\n  mstore\n  0x20\n  add\n    /* \"SimpleStorage.sol\":615:619  true */\n  0x01\n    /* \"SimpleStorage.sol\":596:620  Person(\"Ajay\", 21, true) */\n  iszero\n  iszero\n  dup2\n  mstore\n  pop\n    /* \"SimpleStorage.sol\":575:620  Person public Ajay = Person(\"Ajay\", 21, true) */\n  0x01\n  0x00\n  dup3\n  add\n  mload\n  dup2\n  0x00\n  add\n  swap1\n  dup2\n  tag_1\n  swap2\n  swap1\n  tag_2\n  jump\t// in\ntag_1:\n  pop\n  0x20\n  dup3\n  add\n  mload\n  dup2\n  0x01\n  add\n  sstore\n  0x40\n  dup3\n  add\n  mload\n  dup2\n  0x02\n  add\n  exp(0x0100, 0x00)\n  dup2\n  sload\n  dup2\n  0xff\n  mul\n  not\n  and\n  swap1\n  dup4\n  iszero\n  iszero\n  mul\n  or\n  swap1\n  sstore\n  pop\n  pop\n  pop\n    /* \"SimpleStorage.sol\":649:696  Person({name: \"Vijay\", favNo: 7, isMale: true}) */\n  mload(0x40)\n  dup1\n  0x60\n  add\n  0x40\n  mstore\n  dup1\n  mload(0x40)\n  dup1\n  0x40\n  add\n  0x40\n  mstore\n  dup1\n  0x05\n  dup2\n  mstore\n  0x20\n  add\n  0x56696a6179000000000000000000000000000000000000000000000000000000\n  dup2\n  mstore\n  pop\n  dup2\n  mstore\n  0x20\n  add\n    /* \"SimpleStorage.sol\":679:680  7 */\n  0x07\n    /* \"SimpleStorage.sol\":649:696  Person({name: \"Vijay\", favNo: 7, isMale: true}) */\n  dup2\n  mstore\n  0x20\n  add\n    /* \"SimpleStorage.sol\":690:694  true */\n  0x01\n    /* \"SimpleStorage.sol\":649:696  Person({name: \"Vijay\", favNo: 7, isMale: true}) */\n  iszero\n  iszero\n  dup2\n  mstore\n  pop\n    /* \"SimpleStorage.sol\":627:696  Person public Vijay = Person({name: \"Vijay\", favNo: 7, isMale: true}) */\n  0x04\n  0x00\n  dup3\n  add\n  mload\n  dup2\n  0x00\n  add\n  swap1\n  dup2\n  tag_3\n  swap2\n  swap1\n  tag_2\n  jump\t// in\ntag_3:\n  pop\n  0x20\n  dup3\n  add\n  mload\n  dup2\n  0x01\n  add\n  sstore\n  0x40\n  dup3\n  add\n  mload\n  dup2\n  0x02\n  add\n  exp(0x0100, 0x00)\n  dup2\n  sload\n  dup2\n  0xff\n  mul\n  not\n  and\n  swap1\n  dup4\n  iszero\n  iszero\n  mul\n  or\n  swap1\n  sstore\n  pop\n  pop\n  pop\n    /* \"SimpleStorage.sol\":725:751  Person(\"Pooja\", 11, false) */\n  mload(0x40)\n  dup1\n  0x60\n  add\n  0x40\n  mstore\n  dup1\n  mload(0x40)\n  dup1\n  0x40\n  add\n  0x40\n  mstore\n  dup1\n  0x05\n  dup2\n  mstore\n  0x20\n  add\n  0x506f6f6a61000000000000000000000000000000000000000000000000000000\n  dup2\n  mstore\n  pop\n  dup2\n  mstore\n  0x20\n  add\n    /* \"SimpleStorage.sol\":741:743  11 */\n  0x0b\n    /* \"SimpleStorage.sol\":725:751  Person(\"Pooja\", 11, false) */\n  dup2\n  mstore\n  0x20\n  add\n    /* \"SimpleStorage.sol\":745:750  false */\n  0x00\n    /* \"SimpleStorage.sol\":725:751  Person(\"Pooja\", 11, false) */\n  iszero\n  iszero\n  dup2\n  mstore\n  pop\n    /* \"SimpleStorage.sol\":703:751  Person public Aarti = Person(\"Pooja\", 11, false) */\n  0x07\n  0x00\n  dup3\n  add\n  mload\n  dup2\n  0x00\n  add\n  swap1\n  dup2\n  tag_4\n  swap2\n  swap1\n  tag_2\n  jump\t// in\ntag_4:\n  pop\n  0x20\n  dup3\n  add\n  mload\n  dup2\n  0x01\n  add\n  sstore\n  0x40\n  dup3\n  add\n  mload\n  dup2\n  0x02\n  add\n  exp(0x0100, 0x00)\n  dup2\n  sload\n  dup2\n  0xff\n  mul\n  not\n  and\n  swap1\n  dup4\n  iszero\n  iszero\n  mul\n  or\n  swap1\n  sstore\n  pop\n  pop\n  pop\n    /* \"SimpleStorage.sol\":92:1373  contract SimpleStorage... */\n  callvalue\n  dup1\n  iszero\n  tag_5\n  jumpi\n  0x00\n  dup1\n  revert\ntag_5:\n  pop\n  jump(tag_6)\n    /* \"#utility.yul\":7:106   */\ntag_7:\n    /* \"#utility.yul\":59:65   */\n  0x00\n    /* \"#utility.yul\":93:98   */\n  dup2\n    /* \"#utility.yul\":87:99   */\n  mload\n    /* \"#utility.yul\":77:99   */\n  swap1\n  pop\n    /* \"#utility.yul\":7:106   */\n  swap2\n  swap1\n  pop\n  jump\t// out\n    /* \"#utility.yul\":112:292   */\ntag_8:\n    /* \"#utility.yul\":160:237   */\n  0x4e487b7100000000000000000000000000000000000000000000000000000000\n    /* \"#utility.yul\":157:158   */\n  0x00\n    /* \"#utility.yul\":150:238   */\n  mstore\n    /* \"#utility.yul\":257:261   */\n  0x41\n    /* \"#utility.yul\":254:255   */\n  0x04\n    /* \"#utility.yul\":247:262   */\n  mstore\n    /* \"#utility.yul\":281:285   */\n  0x24\n    /* \"#utility.yul\":278:279   */\n  0x00\n    /* \"#utility.yul\":271:286   */\n  revert\n    /* \"#utility.yul\":298:478   */\ntag_9:\n    /* \"#utility.yul\":346:423   */\n  0x4e487b7100000000000000000000000000000000000000000000000000000000\n    /* \"#utility.yul\":343:344   */\n  0x00\n    /* \"#utility.yul\":336:424   */\n  mstore\n    /* \"#utility.yul\":443:447   */\n  0x22\n    /* \"#utility.yul\":440:441   */\n  0x04\n    /* \"#utility.yul\":433:448   */\n  mstore\n    /* \"#utility.yul\":467:471   */\n  0x24\n    /* \"#utility.yul\":464:465   */\n  0x00\n    /* \"#utility.yul\":457:472   */\n  revert\n    /* \"#utility.yul\":484:804   */\ntag_10:\n    /* \"#utility.yul\":528:534   */\n  0x00\n    /* \"#utility.yul\":565:566   */\n  0x02\n    /* \"#utility.yul\":559:563   */\n  dup3\n    /* \"#utility.yul\":555:567   */\n  div\n    /* \"#utility.yul\":545:567   */\n  swap1\n  pop\n    /* \"#utility.yul\":612:613   */\n  0x01\n    /* \"#utility.yul\":606:610   */\n  dup3\n    /* \"#utility.yul\":602:614   */\n  and\n    /* \"#utility.yul\":633:651   */\n  dup1\n    /* \"#utility.yul\":623:704   */\n  tag_32\n  jumpi\n    /* \"#utility.yul\":689:693   */\n  0x7f\n    /* \"#utility.yul\":681:687   */\n  dup3\n    /* \"#utility.yul\":677:694   */\n  and\n    /* \"#utility.yul\":667:694   */\n  swap2\n  pop\n    /* \"#utility.yul\":623:704   */\ntag_32:\n    /* \"#utility.yul\":751:753   */\n  0x20\n    /* \"#utility.yul\":743:749   */\n  dup3\n    /* \"#utility.yul\":740:754   */\n  lt\n    /* \"#utility.yul\":720:738   */\n  dup2\n    /* \"#utility.yul\":717:755   */\n  sub\n    /* \"#utility.yul\":714:798   */\n  tag_33\n  jumpi\n    /* \"#utility.yul\":770:788   */\n  tag_34\n  tag_9\n  jump\t// in\ntag_34:\n    /* \"#utility.yul\":714:798   */\ntag_33:\n    /* \"#utility.yul\":535:804   */\n  pop\n    /* \"#utility.yul\":484:804   */\n  swap2\n  swap1\n  pop\n  jump\t// out\n    /* \"#utility.yul\":810:951   */\ntag_11:\n    /* \"#utility.yul\":859:863   */\n  0x00\n    /* \"#utility.yul\":882:885   */\n  dup2\n    /* \"#utility.yul\":874:885   */\n  swap1\n  pop\n    /* \"#utility.yul\":905:908   */\n  dup2\n    /* \"#utility.yul\":902:903   */\n  0x00\n    /* \"#utility.yul\":895:909   */\n  mstore\n    /* \"#utility.yul\":939:943   */\n  0x20\n    /* \"#utility.yul\":936:937   */\n  0x00\n    /* \"#utility.yul\":926:944   */\n  keccak256\n    /* \"#utility.yul\":918:944   */\n  swap1\n  pop\n    /* \"#utility.yul\":810:951   */\n  swap2\n  swap1\n  pop\n  jump\t// out\n    /* \"#utility.yul\":957:1050   */\ntag_12:\n    /* \"#utility.yul\":994:1000   */\n  0x00\n    /* \"#utility.yul\":1041:1043   */\n  0x20\n    /* \"#utility.yul\":1036:1038   */\n  0x1f\n    /* \"#utility.yul\":1029:1034   */\n  dup4\n    /* \"#utility.yul\":1025:1039   */\n  add\n    /* \"#utility.yul\":1021:1044   */\n  div\n    /* \"#utility.yul\":1011:1044   */\n  swap1\n  pop\n    /* \"#utility.yul\":957:1050   */\n  swap2\n  swap1\n  pop\n  jump\t// out\n    /* \"#utility.yul\":1056:1163   */\ntag_13:\n    /* \"#utility.yul\":1100:1108   */\n  0x00\n    /* \"#utility.yul\":1150:1155   */\n  dup3\n    /* \"#utility.yul\":1144:1148   */\n  dup3\n    /* \"#utility.yul\":1140:1156   */\n  shl\n    /* \"#utility.yul\":1119:1156   */\n  swap1\n  pop\n    /* \"#utility.yul\":1056:1163   */\n  swap3\n  swap2\n  pop\n  pop\n  jump\t// out\n    /* \"#utility.yul\":1169:1562   */\ntag_14:\n    /* \"#utility.yul\":1238:1244   */\n  0x00\n    /* \"#utility.yul\":1288:1289   */\n  0x08\n    /* \"#utility.yul\":1276:1286   */\n  dup4\n    /* \"#utility.yul\":1272:1290   */\n  mul\n    /* \"#utility.yul\":1311:1408   */\n  tag_39\n    /* \"#utility.yul\":1341:1407   */\n  0xffffffffffffffffffffffffffffffffffffffffffffffffffffffffffffffff\n    /* \"#utility.yul\":1330:1339   */\n  dup3\n    /* \"#utility.yul\":1311:1408   */\n  tag_13\n  jump\t// in\ntag_39:\n    /* \"#utility.yul\":1429:1468   */\n  tag_40\n    /* \"#utility.yul\":1459:1467   */\n  dup7\n    /* \"#utility.yul\":1448:1457   */\n  dup4\n    /* \"#utility.yul\":1429:1468   */\n  tag_13\n  jump\t// in\ntag_40:\n    /* \"#utility.yul\":1417:1468   */\n  swap6\n  pop\n    /* \"#utility.yul\":1501:1505   */\n  dup1\n    /* \"#utility.yul\":1497:1506   */\n  not\n    /* \"#utility.yul\":1490:1495   */\n  dup5\n    /* \"#utility.yul\":1486:1507   */\n  and\n    /* \"#utility.yul\":1477:1507   */\n  swap4\n  pop\n    /* \"#utility.yul\":1550:1554   */\n  dup1\n    /* \"#utility.yul\":1540:1548   */\n  dup7\n    /* \"#utility.yul\":1536:1555   */\n  and\n    /* \"#utility.yul\":1529:1534   */\n  dup5\n    /* \"#utility.yul\":1526:1556   */\n  or\n    /* \"#utility.yul\":1516:1556   */\n  swap3\n  pop\n    /* \"#utility.yul\":1245:1562   */\n  pop\n  pop\n    /* \"#utility.yul\":1169:1562   */\n  swap4\n  swap3\n  pop\n  pop\n  pop\n  jump\t// out\n    /* \"#utility.yul\":1568:1645   */\ntag_15:\n    /* \"#utility.yul\":1605:1612   */\n  0x00\n    /* \"#utility.yul\":1634:1639   */\n  dup2\n    /* \"#utility.yul\":1623:1639   */\n  swap1\n  pop\n    /* \"#utility.yul\":1568:1645   */\n  swap2\n  swap1\n  pop\n  jump\t// out\n    /* \"#utility.yul\":1651:1711   */\ntag_16:\n    /* \"#utility.yul\":1679:1682   */\n  0x00\n    /* \"#utility.yul\":1700:1705   */\n  dup2\n    /* \"#utility.yul\":1693:1705   */\n  swap1\n  pop\n    /* \"#utility.yul\":1651:1711   */\n  swap2\n  swap1\n  pop\n  jump\t// out\n    /* \"#utility.yul\":1717:1859   */\ntag_17:\n    /* \"#utility.yul\":1767:1776   */\n  0x00\n    /* \"#utility.yul\":1800:1853   */\n  tag_44\n    /* \"#utility.yul\":1818:1852   */\n  tag_45\n    /* \"#utility.yul\":1827:1851   */\n  tag_46\n    /* \"#utility.yul\":1845:1850   */\n  dup5\n    /* \"#utility.yul\":1827:1851   */\n  tag_15\n  jump\t// in\ntag_46:\n    /* \"#utility.yul\":1818:1852   */\n  tag_16\n  jump\t// in\ntag_45:\n    /* \"#utility.yul\":1800:1853   */\n  tag_15\n  jump\t// in\ntag_44:\n    /* \"#utility.yul\":1787:1853   */\n  swap1\n  pop\n    /* \"#utility.yul\":1717:1859   */\n  swap2\n  swap1\n  pop\n  jump\t// out\n    /* \"#utility.yul\":1865:1940   */\ntag_18:\n    /* \"#utility.yul\":1908:1911   */\n  0x00\n    /* \"#utility.yul\":1929:1934   */\n  dup2\n    /* \"#utility.yul\":1922:1934   */\n  swap1\n  pop\n    /* \"#utility.yul\":1865:1940   */\n  swap2\n  swap1\n  pop\n  jump\t// out\n    /* \"#utility.yul\":1946:2215   */\ntag_19:\n    /* \"#utility.yul\":2056:2095   */\n  tag_49\n    /* \"#utility.yul\":2087:2094   */\n  dup4\n    /* \"#utility.yul\":2056:2095   */\n  tag_17\n  jump\t// in\ntag_49:\n    /* \"#utility.yul\":2117:2208   */\n  tag_50\n    /* \"#utility.yul\":2166:2207   */\n  tag_51\n    /* \"#utility.yul\":2190:2206   */\n  dup3\n    /* \"#utility.yul\":2166:2207   */\n  tag_18\n  jump\t// in\ntag_51:\n    /* \"#utility.yul\":2158:2164   */\n  dup5\n    /* \"#utility.yul\":2151:2155   */\n  dup5\n    /* \"#utility.yul\":2145:2156   */\n  sload\n    /* \"#utility.yul\":2117:2208   */\n  tag_14\n  jump\t// in\ntag_50:\n    /* \"#utility.yul\":2111:2115   */\n  dup3\n    /* \"#utility.yul\":2104:2209   */\n  sstore\n    /* \"#utility.yul\":2022:2215   */\n  pop\n    /* \"#utility.yul\":1946:2215   */\n  pop\n  pop\n  pop\n  jump\t// out\n    /* \"#utility.yul\":2221:2294   */\ntag_20:\n    /* \"#utility.yul\":2266:2269   */\n  0x00\n    /* \"#utility.yul\":2221:2294   */\n  swap1\n  jump\t// out\n    /* \"#utility.yul\":2300:2489   */\ntag_21:\n    /* \"#utility.yul\":2377:2409   */\n  tag_54\n  tag_20\n  jump\t// in\ntag_54:\n    /* \"#utility.yul\":2418:2483   */\n  tag_55\n    /* \"#utility.yul\":2476:2482   */\n  dup2\n    /* \"#utility.yul\":2468:2474   */\n  dup5\n    /* \"#utility.yul\":2462:2466   */\n  dup5\n    /* \"#utility.yul\":2418:2483   */\n  tag_19\n  jump\t// in\ntag_55:\n    /* \"#utility.yul\":2353:2489   */\n  pop\n    /* \"#utility.yul\":2300:2489   */\n  pop\n  pop\n  jump\t// out\n    /* \"#utility.yul\":2495:2681   */\ntag_22:\n    /* \"#utility.yul\":2555:2675   */\ntag_57:\n    /* \"#utility.yul\":2572:2575   */\n  dup2\n    /* \"#utility.yul\":2565:2570   */\n  dup2\n    /* \"#utility.yul\":2562:2576   */\n  lt\n    /* \"#utility.yul\":2555:2675   */\n  iszero\n  tag_59\n  jumpi\n    /* \"#utility.yul\":2626:2665   */\n  tag_60\n    /* \"#utility.yul\":2663:2664   */\n  0x00\n    /* \"#utility.yul\":2656:2661   */\n  dup3\n    /* \"#utility.yul\":2626:2665   */\n  tag_21\n  jump\t// in\ntag_60:\n    /* \"#utility.yul\":2599:2600   */\n  0x01\n    /* \"#utility.yul\":2592:2597   */\n  dup2\n    /* \"#utility.yul\":2588:2601   */\n  add\n    /* \"#utility.yul\":2579:2601   */\n  swap1\n  pop\n    /* \"#utility.yul\":2555:2675   */\n  jump(tag_57)\ntag_59:\n    /* \"#utility.yul\":2495:2681   */\n  pop\n  pop\n  jump\t// out\n    /* \"#utility.yul\":2687:3230   */\ntag_23:\n    /* \"#utility.yul\":2788:2790   */\n  0x1f\n    /* \"#utility.yul\":2783:2786   */\n  dup3\n    /* \"#utility.yul\":2780:2791   */\n  gt\n    /* \"#utility.yul\":2777:3223   */\n  iszero\n  tag_62\n  jumpi\n    /* \"#utility.yul\":2822:2860   */\n  tag_63\n    /* \"#utility.yul\":2854:2859   */\n  dup2\n    /* \"#utility.yul\":2822:2860   */\n  tag_11\n  jump\t// in\ntag_63:\n    /* \"#utility.yul\":2906:2935   */\n  tag_64\n    /* \"#utility.yul\":2924:2934   */\n  dup5\n    /* \"#utility.yul\":2906:2935   */\n  tag_12\n  jump\t// in\ntag_64:\n    /* \"#utility.yul\":2896:2904   */\n  dup2\n    /* \"#utility.yul\":2892:2936   */\n  add\n    /* \"#utility.yul\":3089:3091   */\n  0x20\n    /* \"#utility.yul\":3077:3087   */\n  dup6\n    /* \"#utility.yul\":3074:3092   */\n  lt\n    /* \"#utility.yul\":3071:3120   */\n  iszero\n  tag_65\n  jumpi\n    /* \"#utility.yul\":3110:3118   */\n  dup2\n    /* \"#utility.yul\":3095:3118   */\n  swap1\n  pop\n    /* \"#utility.yul\":3071:3120   */\ntag_65:\n    /* \"#utility.yul\":3133:3213   */\n  tag_66\n    /* \"#utility.yul\":3189:3211   */\n  tag_67\n    /* \"#utility.yul\":3207:3210   */\n  dup6\n    /* \"#utility.yul\":3189:3211   */\n  tag_12\n  jump\t// in\ntag_67:\n    /* \"#utility.yul\":3179:3187   */\n  dup4\n    /* \"#utility.yul\":3175:3212   */\n  add\n    /* \"#utility.yul\":3162:3173   */\n  dup3\n    /* \"#utility.yul\":3133:3213   */\n  tag_22\n  jump\t// in\ntag_66:\n    /* \"#utility.yul\":2792:3223   */\n  pop\n  pop\n    /* \"#utility.yul\":2777:3223   */\ntag_62:\n    /* \"#utility.yul\":2687:3230   */\n  pop\n  pop\n  pop\n  jump\t// out\n    /* \"#utility.yul\":3236:3353   */\ntag_24:\n    /* \"#utility.yul\":3290:3298   */\n  0x00\n    /* \"#utility.yul\":3340:3345   */\n  dup3\n    /* \"#utility.yul\":3334:3338   */\n  dup3\n    /* \"#utility.yul\":3330:3346   */\n  shr\n    /* \"#utility.yul\":3309:3346   */\n  swap1\n  pop\n    /* \"#utility.yul\":3236:3353   */\n  swap3\n  swap2\n  pop\n  pop\n  jump\t// out\n    /* \"#utility.yul\":3359:3528   */\ntag_25:\n    /* \"#utility.yul\":3403:3409   */\n  0x00\n    /* \"#utility.yul\":3436:3487   */\n  tag_70\n    /* \"#utility.yul\":3484:3485   */\n  0x00\n    /* \"#utility.yul\":3480:3486   */\n  not\n    /* \"#utility.yul\":3472:3477   */\n  dup5\n    /* \"#utility.yul\":3469:3470   */\n  0x08\n    /* \"#utility.yul\":3465:3478   */\n  mul\n    /* \"#utility.yul\":3436:3487   */\n  tag_24\n  jump\t// in\ntag_70:\n    /* \"#utility.yul\":3432:3488   */\n  not\n    /* \"#utility.yul\":3517:3521   */\n  dup1\n    /* \"#utility.yul\":3511:3515   */\n  dup4\n    /* \"#utility.yul\":3507:3522   */\n  and\n    /* \"#utility.yul\":3497:3522   */\n  swap2\n  pop\n    /* \"#utility.yul\":3410:3528   */\n  pop\n    /* \"#utility.yul\":3359:3528   */\n  swap3\n  swap2\n  pop\n  pop\n  jump\t// out\n    /* \"#utility.yul\":3533:3828   */\ntag_26:\n    /* \"#utility.yul\":3609:3613   */\n  0x00\n    /* \"#utility.yul\":3755:3784   */\n  tag_72\n    /* \"#utility.yul\":3780:3783   */\n  dup4\n    /* \"#utility.yul\":3774:3778   */\n  dup4\n    /* \"#utility.yul\":3755:3784   */\n  tag_25\n  jump\t// in\ntag_72:\n    /* \"#utility.yul\":3747:3784   */\n  swap2\n  pop\n    /* \"#utility.yul\":3817:3820   */\n  dup3\n    /* \"#utility.yul\":3814:3815   */\n  0x02\n    /* \"#utility.yul\":3810:3821   */\n  mul\n    /* \"#utility.yul\":3804:3808   */\n  dup3\n    /* \"#utility.yul\":3801:3822   */\n  or\n    /* \"#utility.yul\":3793:3822   */\n  swap1\n  pop\n    /* \"#utility.yul\":3533:3828   */\n  swap3\n  swap2\n  pop\n  pop\n  jump\t// out\n    /* \"#utility.yul\":3833:5228   */\ntag_2:\n    /* \"#utility.yul\":3950:3987   */\n  tag_74\n    /* \"#utility.yul\":3983:3986   */\n  dup3\n    /* \"#utility.yul\":3950:3987   */\n  tag_7\n  jump\t// in\ntag_74:\n    /* \"#utility.yul\":4052:4070   */\n  0xffffffffffffffff\n    /* \"#utility.yul\":4044:4050   */\n  dup2\n    /* \"#utility.yul\":4041:4071   */\n  gt\n    /* \"#utility.yul\":4038:4094   */\n  iszero\n  tag_75\n  jumpi\n    /* \"#utility.yul\":4074:4092   */\n  tag_76\n  tag_8\n  jump\t// in\ntag_76:\n    /* \"#utility.yul\":4038:4094   */\ntag_75:\n    /* \"#utility.yul\":4118:4156   */\n  tag_77\n    /* \"#utility.yul\":4150:4154   */\n  dup3\n    /* \"#utility.yul\":4144:4155   */\n  sload\n    /* \"#utility.yul\":4118:4156   */\n  tag_10\n  jump\t// in\ntag_77:\n    /* \"#utility.yul\":4203:4270   */\n  tag_78\n    /* \"#utility.yul\":4263:4269   */\n  dup3\n    /* \"#utility.yul\":4255:4261   */\n  dup3\n    /* \"#utility.yul\":4249:4253   */\n  dup6\n    /* \"#utility.yul\":4203:4270   */\n  tag_23\n  jump\t// in\ntag_78:\n    /* \"#utility.yul\":4297:4298   */\n  0x00\n    /* \"#utility.yul\":4321:4325   */\n  0x20\n    /* \"#utility.yul\":4308:4325   */\n  swap1\n  pop\n    /* \"#utility.yul\":4353:4355   */\n  0x1f\n    /* \"#utility.yul\":4345:4351   */\n  dup4\n    /* \"#utility.yul\":4342:4356   */\n  gt\n    /* \"#utility.yul\":4370:4371   */\n  0x01\n    /* \"#utility.yul\":4365:4983   */\n  dup2\n  eq\n  tag_80\n  jumpi\n    /* \"#utility.yul\":5027:5028   */\n  0x00\n    /* \"#utility.yul\":5044:5050   */\n  dup5\n    /* \"#utility.yul\":5041:5118   */\n  iszero\n  tag_81\n  jumpi\n    /* \"#utility.yul\":5093:5102   */\n  dup3\n    /* \"#utility.yul\":5088:5091   */\n  dup8\n    /* \"#utility.yul\":5084:5103   */\n  add\n    /* \"#utility.yul\":5078:5104   */\n  mload\n    /* \"#utility.yul\":5069:5104   */\n  swap1\n  pop\n    /* \"#utility.yul\":5041:5118   */\ntag_81:\n    /* \"#utility.yul\":5144:5211   */\n  tag_82\n    /* \"#utility.yul\":5204:5210   */\n  dup6\n    /* \"#utility.yul\":5197:5202   */\n  dup3\n    /* \"#utility.yul\":5144:5211   */\n  tag_26\n  jump\t// in\ntag_82:\n    /* \"#utility.yul\":5138:5142   */\n  dup7\n    /* \"#utility.yul\":5131:5212   */\n  sstore\n    /* \"#utility.yul\":5000:5222   */\n  pop\n    /* \"#utility.yul\":4335:5222   */\n  jump(tag_79)\n    /* \"#utility.yul\":4365:4983   */\ntag_80:\n    /* \"#utility.yul\":4417:4421   */\n  0x1f\n    /* \"#utility.yul\":4413:4422   */\n  not\n    /* \"#utility.yul\":4405:4411   */\n  dup5\n    /* \"#utility.yul\":4401:4423   */\n  and\n    /* \"#utility.yul\":4451:4488   */\n  tag_83\n    /* \"#utility.yul\":4483:4487   */\n  dup7\n    /* \"#utility.yul\":4451:4488   */\n  tag_11\n  jump\t// in\ntag_83:\n    /* \"#utility.yul\":4510:4511   */\n  0x00\n    /* \"#utility.yul\":4524:4732   */\ntag_84:\n    /* \"#utility.yul\":4538:4545   */\n  dup3\n    /* \"#utility.yul\":4535:4536   */\n  dup2\n    /* \"#utility.yul\":4532:4546   */\n  lt\n    /* \"#utility.yul\":4524:4732   */\n  iszero\n  tag_86\n  jumpi\n    /* \"#utility.yul\":4617:4626   */\n  dup5\n    /* \"#utility.yul\":4612:4615   */\n  dup10\n    /* \"#utility.yul\":4608:4627   */\n  add\n    /* \"#utility.yul\":4602:4628   */\n  mload\n    /* \"#utility.yul\":4594:4600   */\n  dup3\n    /* \"#utility.yul\":4587:4629   */\n  sstore\n    /* \"#utility.yul\":4668:4669   */\n  0x01\n    /* \"#utility.yul\":4660:4666   */\n  dup3\n    /* \"#utility.yul\":4656:4670   */\n  add\n    /* \"#utility.yul\":4646:4670   */\n  swap2\n  pop\n    /* \"#utility.yul\":4715:4717   */\n  0x20\n    /* \"#utility.yul\":4704:4713   */\n  dup6\n    /* \"#utility.yul\":4700:4718   */\n  add\n    /* \"#utility.yul\":4687:4718   */\n  swap5\n  pop\n    /* \"#utility.yul\":4561:4565   */\n  0x20\n    /* \"#utility.yul\":4558:4559   */\n  dup2\n    /* \"#utility.yul\":4554:4566   */\n  add\n    /* \"#utility.yul\":4549:4566   */\n  swap1\n  pop\n    /* \"#utility.yul\":4524:4732   */\n  jump(tag_84)\ntag_86:\n    /* \"#utility.yul\":4760:4766   */\n  dup7\n    /* \"#utility.yul\":4751:4758   */\n  dup4\n    /* \"#utility.yul\":4748:4767   */\n  lt\n    /* \"#utility.yul\":4745:4924   */\n  iszero\n  tag_87\n  jumpi\n    /* \"#utility.yul\":4818:4827   */\n  dup5\n    /* \"#utility.yul\":4813:4816   */\n  dup10\n    /* \"#utility.yul\":4809:4828   */\n  add\n    /* \"#utility.yul\":4803:4829   */\n  mload\n    /* \"#utility.yul\":4861:4909   */\n  tag_88\n    /* \"#utility.yul\":4903:4907   */\n  0x1f\n    /* \"#utility.yul\":4895:4901   */\n  dup10\n    /* \"#utility.yul\":4891:4908   */\n  and\n    /* \"#utility.yul\":4880:4889   */\n  dup3\n    /* \"#utility.yul\":4861:4909   */\n  tag_25\n  jump\t// in\ntag_88:\n    /* \"#utility.yul\":4853:4859   */\n  dup4\n    /* \"#utility.yul\":4846:4910   */\n  sstore\n    /* \"#utility.yul\":4768:4924   */\n  pop\n    /* \"#utility.yul\":4745:4924   */\ntag_87:\n    /* \"#utility.yul\":4970:4971   */\n  0x01\n    /* \"#utility.yul\":4966:4967   */\n  0x02\n    /* \"#utility.yul\":4958:4964   */\n  dup9\n    /* \"#utility.yul\":4954:4968   */\n  mul\n    /* \"#utility.yul\":4950:4972   */\n  add\n    /* \"#utility.yul\":4944:4948   */\n  dup9\n    /* \"#utility.yul\":4937:4973   */\n  sstore\n    /* \"#utility.yul\":4372:4983   */\n  pop\n  pop\n  pop\n    /* \"#utility.yul\":4335:5222   */\ntag_79:\n  pop\n    /* \"#utility.yul\":3925:5228   */\n  pop\n  pop\n  pop\n    /* \"#utility.yul\":3833:5228   */\n  pop\n  pop\n  jump\t// out\n    /* \"SimpleStorage.sol\":92:1373  contract SimpleStorage... */\ntag_6:\n  dataSize(sub_0)\n  dup1\n  dataOffset(sub_0)\n  0x00\n  codecopy\n  0x00\n  return\nstop\n\nsub_0: assembly {\n        /* \"SimpleStorage.sol\":92:1373  contract SimpleStorage... */\n      mstore(0x40, 0x80)\n      callvalue\n      dup1\n      iszero\n      tag_1\n      jumpi\n      0x00\n      dup1\n      revert\n    tag_1:\n      pop\n      jumpi(tag_2, lt(calldatasize, 0x04))\n      shr(0xe0, calldataload(0x00))\n      dup1\n      0x471f7cdf\n      gt\n      tag_14\n      jumpi\n      dup1\n      0x471f7cdf\n      eq\n      tag_8\n      jumpi\n      dup1\n      0x50d4da59\n      eq\n      tag_9\n      jumpi\n      dup1\n      0x6057361d\n      eq\n      tag_10\n      jumpi\n      dup1\n      0x701b6494\n      eq\n      tag_11\n      jumpi\n      dup1\n      0x8a1a8bbf\n      eq\n      tag_12\n      jumpi\n      dup1\n      0xed17db49\n      eq\n      tag_13\n      jumpi\n      jump(tag_2)\n    tag_14:\n      dup1\n      0x032ce9aa\n      eq\n      tag_3\n      jumpi\n      dup1\n      0x0636f42f\n      eq\n      tag_4\n      jumpi\n      dup1\n      0x08839f9a\n      eq\n      tag_5\n      jumpi\n      dup1\n      0x2e64cec1\n      eq\n      tag_6\n      jumpi\n      dup1\n      0x30af0a98\n      eq\n      tag_7\n      jumpi\n    tag_2:\n      0x00\n      dup1\n      revert\n        /* \"SimpleStorage.sol\":790:1182  function addPerson(string memory _name, uint256 _numb, bool _male) public... */\n    tag_3:\n      tag_15\n      0x04\n      dup1\n      calldatasize\n      sub\n      dup2\n      add\n      swap1\n      tag_16\n      swap2\n      swap1\n      tag_17\n      jump\t// in\n    tag_16:\n      tag_18\n      jump\t// in\n    tag_15:\n      stop\n        /* \"SimpleStorage.sol\":389:467  function jaadu() public pure returns(uint256)... */\n    tag_4:\n      tag_19\n      tag_20\n      jump\t// in\n    tag_19:\n      mload(0x40)\n      tag_21\n      swap2\n      swap1\n      tag_22\n      jump\t// in\n    tag_21:\n      mload(0x40)\n      dup1\n      swap2\n      sub\n      swap1\n      return\n        /* \"SimpleStorage.sol\":575:620  Person public Ajay = Person(\"Ajay\", 21, true) */\n    tag_5:\n      tag_23\n      tag_24\n      jump\t// in\n    tag_23:\n      mload(0x40)\n      tag_25\n      swap4\n      swap3\n      swap2\n      swap1\n      tag_26\n      jump\t// in\n    tag_25:\n      mload(0x40)\n      dup1\n      swap2\n      sub\n      swap1\n      return\n        /* \"SimpleStorage.sol\":286:381  function retrieve() public view returns(uint256)... */\n    tag_6:\n      tag_27\n      tag_28\n      jump\t// in\n    tag_27:\n      mload(0x40)\n      tag_29\n      swap2\n      swap1\n      tag_22\n      jump\t// in\n    tag_29:\n      mload(0x40)\n      dup1\n      swap2\n      sub\n      swap1\n      return\n        /* \"SimpleStorage.sol\":703:751  Person public Aarti = Person(\"Pooja\", 11, false) */\n    tag_7:\n      tag_30\n      tag_31\n      jump\t// in\n    tag_30:\n      mload(0x40)\n      tag_32\n      swap4\n      swap3\n      swap2\n      swap1\n      tag_26\n      jump\t// in\n    tag_32:\n      mload(0x40)\n      dup1\n      swap2\n      sub\n      swap1\n      return\n        /* \"SimpleStorage.sol\":123:152  uint256 public favoriteNumber */\n    tag_8:\n      tag_33\n      tag_34\n      jump\t// in\n    tag_33:\n      mload(0x40)\n      tag_35\n      swap2\n      swap1\n      tag_22\n      jump\t// in\n    tag_35:\n      mload(0x40)\n      dup1\n      swap2\n      sub\n      swap1\n      return\n        /* \"SimpleStorage.sol\":1242:1364  function GiveNameToNumber(string memory _name, uint256 _number) public... */\n    tag_9:\n      tag_36\n      0x04\n      dup1\n      calldatasize\n      sub\n      dup2\n      add\n      swap1\n      tag_37\n      swap2\n      swap1\n      tag_38\n      jump\t// in\n    tag_37:\n      tag_39\n      jump\t// in\n    tag_36:\n      stop\n        /* \"SimpleStorage.sol\":159:278  function store(uint256 _favoriteNumber) public... */\n    tag_10:\n      tag_40\n      0x04\n      dup1\n      calldatasize\n      sub\n      dup2\n      add\n      swap1\n      tag_41\n      swap2\n      swap1\n      tag_42\n      jump\t// in\n    tag_41:\n      tag_43\n      jump\t// in\n    tag_40:\n      stop\n        /* \"SimpleStorage.sol\":627:696  Person public Vijay = Person({name: \"Vijay\", favNo: 7, isMale: true}) */\n    tag_11:\n      tag_44\n      tag_45\n      jump\t// in\n    tag_44:\n      mload(0x40)\n      tag_46\n      swap4\n      swap3\n      swap2\n      swap1\n      tag_26\n      jump\t// in\n    tag_46:\n      mload(0x40)\n      dup1\n      swap2\n      sub\n      swap1\n      return\n        /* \"SimpleStorage.sol\":760:783  Person[] public Friends */\n    tag_12:\n      tag_47\n      0x04\n      dup1\n      calldatasize\n      sub\n      dup2\n      add\n      swap1\n      tag_48\n      swap2\n      swap1\n      tag_42\n      jump\t// in\n    tag_48:\n      tag_49\n      jump\t// in\n    tag_47:\n      mload(0x40)\n      tag_50\n      swap4\n      swap3\n      swap2\n      swap1\n      tag_26\n      jump\t// in\n    tag_50:\n      mload(0x40)\n      dup1\n      swap2\n      sub\n      swap1\n      return\n        /* \"SimpleStorage.sol\":1190:1235  mapping (string=>uint256) public NameToNumber */\n    tag_13:\n      tag_51\n      0x04\n      dup1\n      calldatasize\n      sub\n      dup2\n      add\n      swap1\n      tag_52\n      swap2\n      swap1\n      tag_53\n      jump\t// in\n    tag_52:\n      tag_54\n      jump\t// in\n    tag_51:\n      mload(0x40)\n      tag_55\n      swap2\n      swap1\n      tag_22\n      jump\t// in\n    tag_55:\n      mload(0x40)\n      dup1\n      swap2\n      sub\n      swap1\n      return\n        /* \"SimpleStorage.sol\":790:1182  function addPerson(string memory _name, uint256 _numb, bool _male) public... */\n    tag_18:\n        /* \"SimpleStorage.sol\":948:971  Person memory newPerson */\n      0x00\n        /* \"SimpleStorage.sol\":974:1001  Person(_name, _numb, _male) */\n      mload(0x40)\n      dup1\n      0x60\n      add\n      0x40\n      mstore\n      dup1\n        /* \"SimpleStorage.sol\":981:986  _name */\n      dup6\n        /* \"SimpleStorage.sol\":974:1001  Person(_name, _numb, _male) */\n      dup2\n      mstore\n      0x20\n      add\n        /* \"SimpleStorage.sol\":988:993  _numb */\n      dup5\n        /* \"SimpleStorage.sol\":974:1001  Person(_name, _numb, _male) */\n      dup2\n      mstore\n      0x20\n      add\n        /* \"SimpleStorage.sol\":995:1000  _male */\n      dup4\n        /* \"SimpleStorage.sol\":974:1001  Person(_name, _numb, _male) */\n      iszero\n      iszero\n      dup2\n      mstore\n      pop\n        /* \"SimpleStorage.sol\":948:1001  Person memory newPerson = Person(_name, _numb, _male) */\n      swap1\n      pop\n        /* \"SimpleStorage.sol\":1012:1019  Friends */\n      0x0a\n        /* \"SimpleStorage.sol\":1025:1034  newPerson */\n      dup2\n        /* \"SimpleStorage.sol\":1012:1035  Friends.push(newPerson) */\n      swap1\n      dup1\n      0x01\n      dup2\n      sload\n      add\n      dup1\n      dup3\n      sstore\n      dup1\n      swap2\n      pop\n      pop\n      0x01\n      swap1\n      sub\n      swap1\n      0x00\n      mstore\n      keccak256(0x00, 0x20)\n      swap1\n      0x03\n      mul\n      add\n      0x00\n      swap1\n      swap2\n      swap1\n      swap2\n      swap1\n      swap2\n      pop\n      0x00\n      dup3\n      add\n      mload\n      dup2\n      0x00\n      add\n      swap1\n      dup2\n      tag_58\n      swap2\n      swap1\n      tag_59\n      jump\t// in\n    tag_58:\n      pop\n      0x20\n      dup3\n      add\n      mload\n      dup2\n      0x01\n      add\n      sstore\n      0x40\n      dup3\n      add\n      mload\n      dup2\n      0x02\n      add\n      exp(0x0100, 0x00)\n      dup2\n      sload\n      dup2\n      0xff\n      mul\n      not\n      and\n      swap1\n      dup4\n      iszero\n      iszero\n      mul\n      or\n      swap1\n      sstore\n      pop\n      pop\n      pop\n        /* \"SimpleStorage.sol\":1096:1103  Friends */\n      0x0a\n        /* \"SimpleStorage.sol\":1109:1113  Ajay */\n      0x01\n        /* \"SimpleStorage.sol\":1096:1114  Friends.push(Ajay) */\n      swap1\n      dup1\n      0x01\n      dup2\n      sload\n      add\n      dup1\n      dup3\n      sstore\n      dup1\n      swap2\n      pop\n      pop\n      0x01\n      swap1\n      sub\n      swap1\n      0x00\n      mstore\n      keccak256(0x00, 0x20)\n      swap1\n      0x03\n      mul\n      add\n      0x00\n      swap1\n      swap2\n      swap1\n      swap2\n      swap1\n      swap2\n      pop\n      0x00\n      dup3\n      add\n      dup2\n      0x00\n      add\n      swap1\n      dup2\n      tag_61\n      swap2\n      swap1\n      tag_62\n      jump\t// in\n    tag_61:\n      pop\n      0x01\n      dup3\n      add\n      sload\n      dup2\n      0x01\n      add\n      sstore\n      0x02\n      dup3\n      add\n      0x00\n      swap1\n      sload\n      swap1\n      0x0100\n      exp\n      swap1\n      div\n      0xff\n      and\n      dup2\n      0x02\n      add\n      exp(0x0100, 0x00)\n      dup2\n      sload\n      dup2\n      0xff\n      mul\n      not\n      and\n      swap1\n      dup4\n      iszero\n      iszero\n      mul\n      or\n      swap1\n      sstore\n      pop\n      pop\n      pop\n        /* \"SimpleStorage.sol\":1125:1132  Friends */\n      0x0a\n        /* \"SimpleStorage.sol\":1138:1143  Vijay */\n      0x04\n        /* \"SimpleStorage.sol\":1125:1144  Friends.push(Vijay) */\n      swap1\n      dup1\n      0x01\n      dup2\n      sload\n      add\n      dup1\n      dup3\n      sstore\n      dup1\n      swap2\n      pop\n      pop\n      0x01\n      swap1\n      sub\n      swap1\n      0x00\n      mstore\n      keccak256(0x00, 0x20)\n      swap1\n      0x03\n      mul\n      add\n      0x00\n      swap1\n      swap2\n      swap1\n      swap2\n      swap1\n      swap2\n      pop\n      0x00\n      dup3\n      add\n      dup2\n      0x00\n      add\n      swap1\n      dup2\n      tag_64\n      swap2\n      swap1\n      tag_62\n      jump\t// in\n    tag_64:\n      pop\n      0x01\n      dup3\n      add\n      sload\n      dup2\n      0x01\n      add\n      sstore\n      0x02\n      dup3\n      add\n      0x00\n      swap1\n      sload\n      swap1\n      0x0100\n      exp\n      swap1\n      div\n      0xff\n      and\n      dup2\n      0x02\n      add\n      exp(0x0100, 0x00)\n      dup2\n      sload\n      dup2\n      0xff\n      mul\n      not\n      and\n      swap1\n      dup4\n      iszero\n      iszero\n      mul\n      or\n      swap1\n      sstore\n      pop\n      pop\n      pop\n        /* \"SimpleStorage.sol\":1155:1162  Friends */\n      0x0a\n        /* \"SimpleStorage.sol\":1168:1173  Aarti */\n      0x07\n        /* \"SimpleStorage.sol\":1155:1174  Friends.push(Aarti) */\n      swap1\n      dup1\n      0x01\n      dup2\n      sload\n      add\n      dup1\n      dup3\n      sstore\n      dup1\n      swap2\n      pop\n      pop\n      0x01\n      swap1\n      sub\n      swap1\n      0x00\n      mstore\n      keccak256(0x00, 0x20)\n      swap1\n      0x03\n      mul\n      add\n      0x00\n      swap1\n      swap2\n      swap1\n      swap2\n      swap1\n      swap2\n      pop\n      0x00\n      dup3\n      add\n      dup2\n      0x00\n      add\n      swap1\n      dup2\n      tag_66\n      swap2\n      swap1\n      tag_62\n      jump\t// in\n    tag_66:\n      pop\n      0x01\n      dup3\n      add\n      sload\n      dup2\n      0x01\n      add\n      sstore\n      0x02\n      dup3\n      add\n      0x00\n      swap1\n      sload\n      swap1\n      0x0100\n      exp\n      swap1\n      div\n      0xff\n      and\n      dup2\n      0x02\n      add\n      exp(0x0100, 0x00)\n      dup2\n      sload\n      dup2\n      0xff\n      mul\n      not\n      and\n      swap1\n      dup4\n      iszero\n      iszero\n      mul\n      or\n      swap1\n      sstore\n      pop\n      pop\n      pop\n        /* \"SimpleStorage.sol\":869:1182  {... */\n      pop\n        /* \"SimpleStorage.sol\":790:1182  function addPerson(string memory _name, uint256 _numb, bool _male) public... */\n      pop\n      pop\n      pop\n      jump\t// out\n        /* \"SimpleStorage.sol\":389:467  function jaadu() public pure returns(uint256)... */\n    tag_20:\n        /* \"SimpleStorage.sol\":426:433  uint256 */\n      0x00\n        /* \"SimpleStorage.sol\":458:459  7 */\n      0x07\n        /* \"SimpleStorage.sol\":451:459  return 7 */\n      swap1\n      pop\n        /* \"SimpleStorage.sol\":389:467  function jaadu() public pure returns(uint256)... */\n      swap1\n      jump\t// out\n        /* \"SimpleStorage.sol\":575:620  Person public Ajay = Person(\"Ajay\", 21, true) */\n    tag_24:\n      0x01\n      dup1\n      0x00\n      add\n      dup1\n      sload\n      tag_68\n      swap1\n      tag_69\n      jump\t// in\n    tag_68:\n      dup1\n      0x1f\n      add\n      0x20\n      dup1\n      swap2\n      div\n      mul\n      0x20\n      add\n      mload(0x40)\n      swap1\n      dup2\n      add\n      0x40\n      mstore\n      dup1\n      swap3\n      swap2\n      swap1\n      dup2\n      dup2\n      mstore\n      0x20\n      add\n      dup3\n      dup1\n      sload\n      tag_70\n      swap1\n      tag_69\n      jump\t// in\n    tag_70:\n      dup1\n      iszero\n      tag_71\n      jumpi\n      dup1\n      0x1f\n      lt\n      tag_72\n      jumpi\n      0x0100\n      dup1\n      dup4\n      sload\n      div\n      mul\n      dup4\n      mstore\n      swap2\n      0x20\n      add\n      swap2\n      jump(tag_71)\n    tag_72:\n      dup3\n      add\n      swap2\n      swap1\n      0x00\n      mstore\n      keccak256(0x00, 0x20)\n      swap1\n    tag_73:\n      dup2\n      sload\n      dup2\n      mstore\n      swap1\n      0x01\n      add\n      swap1\n      0x20\n      add\n      dup1\n      dup4\n      gt\n      tag_73\n      jumpi\n      dup3\n      swap1\n      sub\n      0x1f\n      and\n      dup3\n      add\n      swap2\n    tag_71:\n      pop\n      pop\n      pop\n      pop\n      pop\n      swap1\n      dup1\n      0x01\n      add\n      sload\n      swap1\n      dup1\n      0x02\n      add\n      0x00\n      swap1\n      sload\n      swap1\n      0x0100\n      exp\n      swap1\n      div\n      0xff\n      and\n      swap1\n      pop\n      dup4\n      jump\t// out\n        /* \"SimpleStorage.sol\":286:381  function retrieve() public view returns(uint256)... */\n    tag_28:\n        /* \"SimpleStorage.sol\":326:333  uint256 */\n      0x00\n        /* \"SimpleStorage.sol\":358:372  favoriteNumber */\n      dup1\n      sload\n        /* \"SimpleStorage.sol\":351:372  return favoriteNumber */\n      swap1\n      pop\n        /* \"SimpleStorage.sol\":286:381  function retrieve() public view returns(uint256)... */\n      swap1\n      jump\t// out\n        /* \"SimpleStorage.sol\":703:751  Person public Aarti = Person(\"Pooja\", 11, false) */\n    tag_31:\n      0x07\n      dup1\n      0x00\n      add\n      dup1\n      sload\n      tag_75\n      swap1\n      tag_69\n      jump\t// in\n    tag_75:\n      dup1\n      0x1f\n      add\n      0x20\n      dup1\n      swap2\n      div\n      mul\n      0x20\n      add\n      mload(0x40)\n      swap1\n      dup2\n      add\n      0x40\n      mstore\n      dup1\n      swap3\n      swap2\n      swap1\n      dup2\n      dup2\n      mstore\n      0x20\n      add\n      dup3\n      dup1\n      sload\n      tag_76\n      swap1\n      tag_69\n      jump\t// in\n    tag_76:\n      dup1\n      iszero\n      tag_77\n      jumpi\n      dup1\n      0x1f\n      lt\n      tag_78\n      jumpi\n      0x0100\n      dup1\n      dup4\n      sload\n      div\n      mul\n      dup4\n      mstore\n      swap2\n      0x20\n      add\n      swap2\n      jump(tag_77)\n    tag_78:\n      dup3\n      add\n      swap2\n      swap1\n      0x00\n      mstore\n      keccak256(0x00, 0x20)\n      swap1\n    tag_79:\n      dup2\n      sload\n      dup2\n      mstore\n      swap1\n      0x01\n      add\n      swap1\n      0x20\n      add\n      dup1\n      dup4\n      gt\n      tag_79\n      jumpi\n      dup3\n      swap1\n      sub\n      0x1f\n      and\n      dup3\n      add\n      swap2\n    tag_77:\n      pop\n      pop\n      pop\n      pop\n      pop\n      swap1\n      dup1\n      0x01\n      add\n      sload\n      swap1\n      dup1\n      0x02\n      add\n      0x00\n      swap1\n      sload\n      swap1\n      0x0100\n      exp\n      swap1\n      div\n      0xff\n      and\n      swap1\n      pop\n      dup4\n      jump\t// out\n        /* \"SimpleStorage.sol\":123:152  uint256 public favoriteNumber */\n    tag_34:\n      sload(0x00)\n      dup2\n      jump\t// out\n        /* \"SimpleStorage.sol\":1242:1364  function GiveNameToNumber(string memory _name, uint256 _number) public... */\n    tag_39:\n        /* \"SimpleStorage.sol\":1349:1356  _number */\n      dup1\n        /* \"SimpleStorage.sol\":1329:1341  NameToNumber */\n      0x0b\n        /* \"SimpleStorage.sol\":1342:1347  _name */\n      dup4\n        /* \"SimpleStorage.sol\":1329:1348  NameToNumber[_name] */\n      mload(0x40)\n      tag_81\n      swap2\n      swap1\n      tag_82\n      jump\t// in\n    tag_81:\n      swap1\n      dup2\n      mstore\n      0x20\n      add\n      mload(0x40)\n      dup1\n      swap2\n      sub\n      swap1\n      keccak256\n        /* \"SimpleStorage.sol\":1329:1356  NameToNumber[_name]=_number */\n      dup2\n      swap1\n      sstore\n      pop\n        /* \"SimpleStorage.sol\":1242:1364  function GiveNameToNumber(string memory _name, uint256 _number) public... */\n      pop\n      pop\n      jump\t// out\n        /* \"SimpleStorage.sol\":159:278  function store(uint256 _favoriteNumber) public... */\n    tag_43:\n        /* \"SimpleStorage.sol\":237:252  _favoriteNumber */\n      dup1\n        /* \"SimpleStorage.sol\":222:236  favoriteNumber */\n      0x00\n        /* \"SimpleStorage.sol\":222:252  favoriteNumber=_favoriteNumber */\n      dup2\n      swap1\n      sstore\n      pop\n        /* \"SimpleStorage.sol\":263:270  jaadu() */\n      tag_84\n        /* \"SimpleStorage.sol\":263:268  jaadu */\n      tag_20\n        /* \"SimpleStorage.sol\":263:270  jaadu() */\n      jump\t// in\n    tag_84:\n      pop\n        /* \"SimpleStorage.sol\":159:278  function store(uint256 _favoriteNumber) public... */\n      pop\n      jump\t// out\n        /* \"SimpleStorage.sol\":627:696  Person public Vijay = Person({name: \"Vijay\", favNo: 7, isMale: true}) */\n    tag_45:\n      0x04\n      dup1\n      0x00\n      add\n      dup1\n      sload\n      tag_85\n      swap1\n      tag_69\n      jump\t// in\n    tag_85:\n      dup1\n      0x1f\n      add\n      0x20\n      dup1\n      swap2\n      div\n      mul\n      0x20\n      add\n      mload(0x40)\n      swap1\n      dup2\n      add\n      0x40\n      mstore\n      dup1\n      swap3\n      swap2\n      swap1\n      dup2\n      dup2\n      mstore\n      0x20\n      add\n      dup3\n      dup1\n      sload\n      tag_86\n      swap1\n      tag_69\n      jump\t// in\n    tag_86:\n      dup1\n      iszero\n      tag_87\n      jumpi\n      dup1\n      0x1f\n      lt\n      tag_88\n      jumpi\n      0x0100\n      dup1\n      dup4\n      sload\n      div\n      mul\n      dup4\n      mstore\n      swap2\n      0x20\n      add\n      swap2\n      jump(tag_87)\n    tag_88:\n      dup3\n      add\n      swap2\n      swap1\n      0x00\n      mstore\n      keccak256(0x00, 0x20)\n      swap1\n    tag_89:\n      dup2\n      sload\n      dup2\n      mstore\n      swap1\n      0x01\n      add\n      swap1\n      0x20\n      add\n      dup1\n      dup4\n      gt\n      tag_89\n      jumpi\n      dup3\n      swap1\n      sub\n      0x1f\n      and\n      dup3\n      add\n      swap2\n    tag_87:\n      pop\n      pop\n      pop\n      pop\n      pop\n      swap1\n      dup1\n      0x01\n      add\n      sload\n      swap1\n      dup1\n      0x02\n      add\n      0x00\n      swap1\n      sload\n      swap1\n      0x0100\n      exp\n      swap1\n      div\n      0xff\n      and\n      swap1\n      pop\n      dup4\n      jump\t// out\n        /* \"SimpleStorage.sol\":760:783  Person[] public Friends */\n    tag_49:\n      0x0a\n      dup2\n      dup2\n      sload\n      dup2\n      lt\n      tag_90\n      jumpi\n      0x00\n      dup1\n      revert\n    tag_90:\n      swap1\n      0x00\n      mstore\n      keccak256(0x00, 0x20)\n      swap1\n      0x03\n      mul\n      add\n      0x00\n      swap2\n      pop\n      swap1\n      pop\n      dup1\n      0x00\n      add\n      dup1\n      sload\n      tag_92\n      swap1\n      tag_69\n      jump\t// in\n    tag_92:\n      dup1\n      0x1f\n      add\n      0x20\n      dup1\n      swap2\n      div\n      mul\n      0x20\n      add\n      mload(0x40)\n      swap1\n      dup2\n      add\n      0x40\n      mstore\n      dup1\n      swap3\n      swap2\n      swap1\n      dup2\n      dup2\n      mstore\n      0x20\n      add\n      dup3\n      dup1\n      sload\n      tag_93\n      swap1\n      tag_69\n      jump\t// in\n    tag_93:\n      dup1\n      iszero\n      tag_94\n      jumpi\n      dup1\n      0x1f\n      lt\n      tag_95\n      jumpi\n      0x0100\n      dup1\n      dup4\n      sload\n      div\n      mul\n      dup4\n      mstore\n      swap2\n      0x20\n      add\n      swap2\n      jump(tag_94)\n    tag_95:\n      dup3\n      add\n      swap2\n      swap1\n      0x00\n      mstore\n      keccak256(0x00, 0x20)\n      swap1\n    tag_96:\n      dup2\n      sload\n      dup2\n      mstore\n      swap1\n      0x01\n      add\n      swap1\n      0x20\n      add\n      dup1\n      dup4\n      gt\n      tag_96\n      jumpi\n      dup3\n      swap1\n      sub\n      0x1f\n      and\n      dup3\n      add\n      swap2\n    tag_94:\n      pop\n      pop\n      pop\n      pop\n      pop\n      swap1\n      dup1\n      0x01\n      add\n      sload\n      swap1\n      dup1\n      0x02\n      add\n      0x00\n      swap1\n      sload\n      swap1\n      0x0100\n      exp\n      swap1\n      div\n      0xff\n      and\n      swap1\n      pop\n      dup4\n      jump\t// out\n        /* \"SimpleStorage.sol\":1190:1235  mapping (string=>uint256) public NameToNumber */\n    tag_54:\n      0x0b\n      dup2\n      dup1\n      mload\n      0x20\n      dup2\n      add\n      dup3\n      add\n      dup1\n      mload\n      dup5\n      dup3\n      mstore\n      0x20\n      dup4\n      add\n      0x20\n      dup6\n      add\n      keccak256\n      dup2\n      dup4\n      mstore\n      dup1\n      swap6\n      pop\n      pop\n      pop\n      pop\n      pop\n      pop\n      0x00\n      swap2\n      pop\n      swap1\n      pop\n      sload\n      dup2\n      jump\t// out\n        /* \"#utility.yul\":7:82   */\n    tag_97:\n        /* \"#utility.yul\":40:46   */\n      0x00\n        /* \"#utility.yul\":73:75   */\n      0x40\n        /* \"#utility.yul\":67:76   */\n      mload\n        /* \"#utility.yul\":57:76   */\n      swap1\n      pop\n        /* \"#utility.yul\":7:82   */\n      swap1\n      jump\t// out\n        /* \"#utility.yul\":88:205   */\n    tag_98:\n        /* \"#utility.yul\":197:198   */\n      0x00\n        /* \"#utility.yul\":194:195   */\n      dup1\n        /* \"#utility.yul\":187:199   */\n      revert\n        /* \"#utility.yul\":211:328   */\n    tag_99:\n        /* \"#utility.yul\":320:321   */\n      0x00\n        /* \"#utility.yul\":317:318   */\n      dup1\n        /* \"#utility.yul\":310:322   */\n      revert\n        /* \"#utility.yul\":334:451   */\n    tag_100:\n        /* \"#utility.yul\":443:444   */\n      0x00\n        /* \"#utility.yul\":440:441   */\n      dup1\n        /* \"#utility.yul\":433:445   */\n      revert\n        /* \"#utility.yul\":457:574   */\n    tag_101:\n        /* \"#utility.yul\":566:567   */\n      0x00\n        /* \"#utility.yul\":563:564   */\n      dup1\n        /* \"#utility.yul\":556:568   */\n      revert\n        /* \"#utility.yul\":580:682   */\n    tag_102:\n        /* \"#utility.yul\":621:627   */\n      0x00\n        /* \"#utility.yul\":672:674   */\n      0x1f\n        /* \"#utility.yul\":668:675   */\n      not\n        /* \"#utility.yul\":663:665   */\n      0x1f\n        /* \"#utility.yul\":656:661   */\n      dup4\n        /* \"#utility.yul\":652:666   */\n      add\n        /* \"#utility.yul\":648:676   */\n      and\n        /* \"#utility.yul\":638:676   */\n      swap1\n      pop\n        /* \"#utility.yul\":580:682   */\n      swap2\n      swap1\n      pop\n      jump\t// out\n        /* \"#utility.yul\":688:868   */\n    tag_103:\n        /* \"#utility.yul\":736:813   */\n      0x4e487b7100000000000000000000000000000000000000000000000000000000\n        /* \"#utility.yul\":733:734   */\n      0x00\n        /* \"#utility.yul\":726:814   */\n      mstore\n        /* \"#utility.yul\":833:837   */\n      0x41\n        /* \"#utility.yul\":830:831   */\n      0x04\n        /* \"#utility.yul\":823:838   */\n      mstore\n        /* \"#utility.yul\":857:861   */\n      0x24\n        /* \"#utility.yul\":854:855   */\n      0x00\n        /* \"#utility.yul\":847:862   */\n      revert\n        /* \"#utility.yul\":874:1155   */\n    tag_104:\n        /* \"#utility.yul\":957:984   */\n      tag_150\n        /* \"#utility.yul\":979:983   */\n      dup3\n        /* \"#utility.yul\":957:984   */\n      tag_102\n      jump\t// in\n    tag_150:\n        /* \"#utility.yul\":949:955   */\n      dup2\n        /* \"#utility.yul\":945:985   */\n      add\n        /* \"#utility.yul\":1087:1093   */\n      dup2\n        /* \"#utility.yul\":1075:1085   */\n      dup2\n        /* \"#utility.yul\":1072:1094   */\n      lt\n        /* \"#utility.yul\":1051:1069   */\n      0xffffffffffffffff\n        /* \"#utility.yul\":1039:1049   */\n      dup3\n        /* \"#utility.yul\":1036:1070   */\n      gt\n        /* \"#utility.yul\":1033:1095   */\n      or\n        /* \"#utility.yul\":1030:1118   */\n      iszero\n      tag_151\n      jumpi\n        /* \"#utility.yul\":1098:1116   */\n      tag_152\n      tag_103\n      jump\t// in\n    tag_152:\n        /* \"#utility.yul\":1030:1118   */\n    tag_151:\n        /* \"#utility.yul\":1138:1148   */\n      dup1\n        /* \"#utility.yul\":1134:1136   */\n      0x40\n        /* \"#utility.yul\":1127:1149   */\n      mstore\n        /* \"#utility.yul\":917:1155   */\n      pop\n        /* \"#utility.yul\":874:1155   */\n      pop\n      pop\n      jump\t// out\n        /* \"#utility.yul\":1161:1290   */\n    tag_105:\n        /* \"#utility.yul\":1195:1201   */\n      0x00\n        /* \"#utility.yul\":1222:1242   */\n      tag_154\n      tag_97\n      jump\t// in\n    tag_154:\n        /* \"#utility.yul\":1212:1242   */\n      swap1\n      pop\n        /* \"#utility.yul\":1251:1284   */\n      tag_155\n        /* \"#utility.yul\":1279:1283   */\n      dup3\n        /* \"#utility.yul\":1271:1277   */\n      dup3\n        /* \"#utility.yul\":1251:1284   */\n      tag_104\n      jump\t// in\n    tag_155:\n        /* \"#utility.yul\":1161:1290   */\n      swap2\n      swap1\n      pop\n      jump\t// out\n        /* \"#utility.yul\":1296:1604   */\n    tag_106:\n        /* \"#utility.yul\":1358:1362   */\n      0x00\n        /* \"#utility.yul\":1448:1466   */\n      0xffffffffffffffff\n        /* \"#utility.yul\":1440:1446   */\n      dup3\n        /* \"#utility.yul\":1437:1467   */\n      gt\n        /* \"#utility.yul\":1434:1490   */\n      iszero\n      tag_157\n      jumpi\n        /* \"#utility.yul\":1470:1488   */\n      tag_158\n      tag_103\n      jump\t// in\n    tag_158:\n        /* \"#utility.yul\":1434:1490   */\n    tag_157:\n        /* \"#utility.yul\":1508:1537   */\n      tag_159\n        /* \"#utility.yul\":1530:1536   */\n      dup3\n        /* \"#utility.yul\":1508:1537   */\n      tag_102\n      jump\t// in\n    tag_159:\n        /* \"#utility.yul\":1500:1537   */\n      swap1\n      pop\n        /* \"#utility.yul\":1592:1596   */\n      0x20\n        /* \"#utility.yul\":1586:1590   */\n      dup2\n        /* \"#utility.yul\":1582:1597   */\n      add\n        /* \"#utility.yul\":1574:1597   */\n      swap1\n      pop\n        /* \"#utility.yul\":1296:1604   */\n      swap2\n      swap1\n      pop\n      jump\t// out\n        /* \"#utility.yul\":1610:1758   */\n    tag_107:\n        /* \"#utility.yul\":1708:1714   */\n      dup3\n        /* \"#utility.yul\":1703:1706   */\n      dup2\n        /* \"#utility.yul\":1698:1701   */\n      dup4\n        /* \"#utility.yul\":1685:1715   */\n      calldatacopy\n        /* \"#utility.yul\":1749:1750   */\n      0x00\n        /* \"#utility.yul\":1740:1746   */\n      dup4\n        /* \"#utility.yul\":1735:1738   */\n      dup4\n        /* \"#utility.yul\":1731:1747   */\n      add\n        /* \"#utility.yul\":1724:1751   */\n      mstore\n        /* \"#utility.yul\":1610:1758   */\n      pop\n      pop\n      pop\n      jump\t// out\n        /* \"#utility.yul\":1764:2189   */\n    tag_108:\n        /* \"#utility.yul\":1842:1847   */\n      0x00\n        /* \"#utility.yul\":1867:1933   */\n      tag_162\n        /* \"#utility.yul\":1883:1932   */\n      tag_163\n        /* \"#utility.yul\":1925:1931   */\n      dup5\n        /* \"#utility.yul\":1883:1932   */\n      tag_106\n      jump\t// in\n    tag_163:\n        /* \"#utility.yul\":1867:1933   */\n      tag_105\n      jump\t// in\n    tag_162:\n        /* \"#utility.yul\":1858:1933   */\n      swap1\n      pop\n        /* \"#utility.yul\":1956:1962   */\n      dup3\n        /* \"#utility.yul\":1949:1954   */\n      dup2\n        /* \"#utility.yul\":1942:1963   */\n      mstore\n        /* \"#utility.yul\":1994:1998   */\n      0x20\n        /* \"#utility.yul\":1987:1992   */\n      dup2\n        /* \"#utility.yul\":1983:1999   */\n      add\n        /* \"#utility.yul\":2032:2035   */\n      dup5\n        /* \"#utility.yul\":2023:2029   */\n      dup5\n        /* \"#utility.yul\":2018:2021   */\n      dup5\n        /* \"#utility.yul\":2014:2030   */\n      add\n        /* \"#utility.yul\":2011:2036   */\n      gt\n        /* \"#utility.yul\":2008:2120   */\n      iszero\n      tag_164\n      jumpi\n        /* \"#utility.yul\":2039:2118   */\n      tag_165\n      tag_101\n      jump\t// in\n    tag_165:\n        /* \"#utility.yul\":2008:2120   */\n    tag_164:\n        /* \"#utility.yul\":2129:2183   */\n      tag_166\n        /* \"#utility.yul\":2176:2182   */\n      dup5\n        /* \"#utility.yul\":2171:2174   */\n      dup3\n        /* \"#utility.yul\":2166:2169   */\n      dup6\n        /* \"#utility.yul\":2129:2183   */\n      tag_107\n      jump\t// in\n    tag_166:\n        /* \"#utility.yul\":1848:2189   */\n      pop\n        /* \"#utility.yul\":1764:2189   */\n      swap4\n      swap3\n      pop\n      pop\n      pop\n      jump\t// out\n        /* \"#utility.yul\":2209:2549   */\n    tag_109:\n        /* \"#utility.yul\":2265:2270   */\n      0x00\n        /* \"#utility.yul\":2314:2317   */\n      dup3\n        /* \"#utility.yul\":2307:2311   */\n      0x1f\n        /* \"#utility.yul\":2299:2305   */\n      dup4\n        /* \"#utility.yul\":2295:2312   */\n      add\n        /* \"#utility.yul\":2291:2318   */\n      slt\n        /* \"#utility.yul\":2281:2403   */\n      tag_168\n      jumpi\n        /* \"#utility.yul\":2322:2401   */\n      tag_169\n      tag_100\n      jump\t// in\n    tag_169:\n        /* \"#utility.yul\":2281:2403   */\n    tag_168:\n        /* \"#utility.yul\":2439:2445   */\n      dup2\n        /* \"#utility.yul\":2426:2446   */\n      calldataload\n        /* \"#utility.yul\":2464:2543   */\n      tag_170\n        /* \"#utility.yul\":2539:2542   */\n      dup5\n        /* \"#utility.yul\":2531:2537   */\n      dup3\n        /* \"#utility.yul\":2524:2528   */\n      0x20\n        /* \"#utility.yul\":2516:2522   */\n      dup7\n        /* \"#utility.yul\":2512:2529   */\n      add\n        /* \"#utility.yul\":2464:2543   */\n      tag_108\n      jump\t// in\n    tag_170:\n        /* \"#utility.yul\":2455:2543   */\n      swap2\n      pop\n        /* \"#utility.yul\":2271:2549   */\n      pop\n        /* \"#utility.yul\":2209:2549   */\n      swap3\n      swap2\n      pop\n      pop\n      jump\t// out\n        /* \"#utility.yul\":2555:2632   */\n    tag_110:\n        /* \"#utility.yul\":2592:2599   */\n      0x00\n        /* \"#utility.yul\":2621:2626   */\n      dup2\n        /* \"#utility.yul\":2610:2626   */\n      swap1\n      pop\n        /* \"#utility.yul\":2555:2632   */\n      swap2\n      swap1\n      pop\n      jump\t// out\n        /* \"#utility.yul\":2638:2760   */\n    tag_111:\n        /* \"#utility.yul\":2711:2735   */\n      tag_173\n        /* \"#utility.yul\":2729:2734   */\n      dup2\n        /* \"#utility.yul\":2711:2735   */\n      tag_110\n      jump\t// in\n    tag_173:\n        /* \"#utility.yul\":2704:2709   */\n      dup2\n        /* \"#utility.yul\":2701:2736   */\n      eq\n        /* \"#utility.yul\":2691:2754   */\n      tag_174\n      jumpi\n        /* \"#utility.yul\":2750:2751   */\n      0x00\n        /* \"#utility.yul\":2747:2748   */\n      dup1\n        /* \"#utility.yul\":2740:2752   */\n      revert\n        /* \"#utility.yul\":2691:2754   */\n    tag_174:\n        /* \"#utility.yul\":2638:2760   */\n      pop\n      jump\t// out\n        /* \"#utility.yul\":2766:2905   */\n    tag_112:\n        /* \"#utility.yul\":2812:2817   */\n      0x00\n        /* \"#utility.yul\":2850:2856   */\n      dup2\n        /* \"#utility.yul\":2837:2857   */\n      calldataload\n        /* \"#utility.yul\":2828:2857   */\n      swap1\n      pop\n        /* \"#utility.yul\":2866:2899   */\n      tag_176\n        /* \"#utility.yul\":2893:2898   */\n      dup2\n        /* \"#utility.yul\":2866:2899   */\n      tag_111\n      jump\t// in\n    tag_176:\n        /* \"#utility.yul\":2766:2905   */\n      swap3\n      swap2\n      pop\n      pop\n      jump\t// out\n        /* \"#utility.yul\":2911:3001   */\n    tag_113:\n        /* \"#utility.yul\":2945:2952   */\n      0x00\n        /* \"#utility.yul\":2988:2993   */\n      dup2\n        /* \"#utility.yul\":2981:2994   */\n      iszero\n        /* \"#utility.yul\":2974:2995   */\n      iszero\n        /* \"#utility.yul\":2963:2995   */\n      swap1\n      pop\n        /* \"#utility.yul\":2911:3001   */\n      swap2\n      swap1\n      pop\n      jump\t// out\n        /* \"#utility.yul\":3007:3123   */\n    tag_114:\n        /* \"#utility.yul\":3077:3098   */\n      tag_179\n        /* \"#utility.yul\":3092:3097   */\n      dup2\n        /* \"#utility.yul\":3077:3098   */\n      tag_113\n      jump\t// in\n    tag_179:\n        /* \"#utility.yul\":3070:3075   */\n      dup2\n        /* \"#utility.yul\":3067:3099   */\n      eq\n        /* \"#utility.yul\":3057:3117   */\n      tag_180\n      jumpi\n        /* \"#utility.yul\":3113:3114   */\n      0x00\n        /* \"#utility.yul\":3110:3111   */\n      dup1\n        /* \"#utility.yul\":3103:3115   */\n      revert\n        /* \"#utility.yul\":3057:3117   */\n    tag_180:\n        /* \"#utility.yul\":3007:3123   */\n      pop\n      jump\t// out\n        /* \"#utility.yul\":3129:3262   */\n    tag_115:\n        /* \"#utility.yul\":3172:3177   */\n      0x00\n        /* \"#utility.yul\":3210:3216   */\n      dup2\n        /* \"#utility.yul\":3197:3217   */\n      calldataload\n        /* \"#utility.yul\":3188:3217   */\n      swap1\n      pop\n        /* \"#utility.yul\":3226:3256   */\n      tag_182\n        /* \"#utility.yul\":3250:3255   */\n      dup2\n        /* \"#utility.yul\":3226:3256   */\n      tag_114\n      jump\t// in\n    tag_182:\n        /* \"#utility.yul\":3129:3262   */\n      swap3\n      swap2\n      pop\n      pop\n      jump\t// out\n        /* \"#utility.yul\":3268:4061   */\n    tag_17:\n        /* \"#utility.yul\":3352:3358   */\n      0x00\n        /* \"#utility.yul\":3360:3366   */\n      dup1\n        /* \"#utility.yul\":3368:3374   */\n      0x00\n        /* \"#utility.yul\":3417:3419   */\n      0x60\n        /* \"#utility.yul\":3405:3414   */\n      dup5\n        /* \"#utility.yul\":3396:3403   */\n      dup7\n        /* \"#utility.yul\":3392:3415   */\n      sub\n        /* \"#utility.yul\":3388:3420   */\n      slt\n        /* \"#utility.yul\":3385:3504   */\n      iszero\n      tag_184\n      jumpi\n        /* \"#utility.yul\":3423:3502   */\n      tag_185\n      tag_98\n      jump\t// in\n    tag_185:\n        /* \"#utility.yul\":3385:3504   */\n    tag_184:\n        /* \"#utility.yul\":3571:3572   */\n      0x00\n        /* \"#utility.yul\":3560:3569   */\n      dup5\n        /* \"#utility.yul\":3556:3573   */\n      add\n        /* \"#utility.yul\":3543:3574   */\n      calldataload\n        /* \"#utility.yul\":3601:3619   */\n      0xffffffffffffffff\n        /* \"#utility.yul\":3593:3599   */\n      dup2\n        /* \"#utility.yul\":3590:3620   */\n      gt\n        /* \"#utility.yul\":3587:3704   */\n      iszero\n      tag_186\n      jumpi\n        /* \"#utility.yul\":3623:3702   */\n      tag_187\n      tag_99\n      jump\t// in\n    tag_187:\n        /* \"#utility.yul\":3587:3704   */\n    tag_186:\n        /* \"#utility.yul\":3728:3791   */\n      tag_188\n        /* \"#utility.yul\":3783:3790   */\n      dup7\n        /* \"#utility.yul\":3774:3780   */\n      dup3\n        /* \"#utility.yul\":3763:3772   */\n      dup8\n        /* \"#utility.yul\":3759:3781   */\n      add\n        /* \"#utility.yul\":3728:3791   */\n      tag_109\n      jump\t// in\n    tag_188:\n        /* \"#utility.yul\":3718:3791   */\n      swap4\n      pop\n        /* \"#utility.yul\":3514:3801   */\n      pop\n        /* \"#utility.yul\":3840:3842   */\n      0x20\n        /* \"#utility.yul\":3866:3919   */\n      tag_189\n        /* \"#utility.yul\":3911:3918   */\n      dup7\n        /* \"#utility.yul\":3902:3908   */\n      dup3\n        /* \"#utility.yul\":3891:3900   */\n      dup8\n        /* \"#utility.yul\":3887:3909   */\n      add\n        /* \"#utility.yul\":3866:3919   */\n      tag_112\n      jump\t// in\n    tag_189:\n        /* \"#utility.yul\":3856:3919   */\n      swap3\n      pop\n        /* \"#utility.yul\":3811:3929   */\n      pop\n        /* \"#utility.yul\":3968:3970   */\n      0x40\n        /* \"#utility.yul\":3994:4044   */\n      tag_190\n        /* \"#utility.yul\":4036:4043   */\n      dup7\n        /* \"#utility.yul\":4027:4033   */\n      dup3\n        /* \"#utility.yul\":4016:4025   */\n      dup8\n        /* \"#utility.yul\":4012:4034   */\n      add\n        /* \"#utility.yul\":3994:4044   */\n      tag_115\n      jump\t// in\n    tag_190:\n        /* \"#utility.yul\":3984:4044   */\n      swap2\n      pop\n        /* \"#utility.yul\":3939:4054   */\n      pop\n        /* \"#utility.yul\":3268:4061   */\n      swap3\n      pop\n      swap3\n      pop\n      swap3\n      jump\t// out\n        /* \"#utility.yul\":4067:4185   */\n    tag_116:\n        /* \"#utility.yul\":4154:4178   */\n      tag_192\n        /* \"#utility.yul\":4172:4177   */\n      dup2\n        /* \"#utility.yul\":4154:4178   */\n      tag_110\n      jump\t// in\n    tag_192:\n        /* \"#utility.yul\":4149:4152   */\n      dup3\n        /* \"#utility.yul\":4142:4179   */\n      mstore\n        /* \"#utility.yul\":4067:4185   */\n      pop\n      pop\n      jump\t// out\n        /* \"#utility.yul\":4191:4413   */\n    tag_22:\n        /* \"#utility.yul\":4284:4288   */\n      0x00\n        /* \"#utility.yul\":4322:4324   */\n      0x20\n        /* \"#utility.yul\":4311:4320   */\n      dup3\n        /* \"#utility.yul\":4307:4325   */\n      add\n        /* \"#utility.yul\":4299:4325   */\n      swap1\n      pop\n        /* \"#utility.yul\":4335:4406   */\n      tag_194\n        /* \"#utility.yul\":4403:4404   */\n      0x00\n        /* \"#utility.yul\":4392:4401   */\n      dup4\n        /* \"#utility.yul\":4388:4405   */\n      add\n        /* \"#utility.yul\":4379:4385   */\n      dup5\n        /* \"#utility.yul\":4335:4406   */\n      tag_116\n      jump\t// in\n    tag_194:\n        /* \"#utility.yul\":4191:4413   */\n      swap3\n      swap2\n      pop\n      pop\n      jump\t// out\n        /* \"#utility.yul\":4419:4518   */\n    tag_117:\n        /* \"#utility.yul\":4471:4477   */\n      0x00\n        /* \"#utility.yul\":4505:4510   */\n      dup2\n        /* \"#utility.yul\":4499:4511   */\n      mload\n        /* \"#utility.yul\":4489:4511   */\n      swap1\n      pop\n        /* \"#utility.yul\":4419:4518   */\n      swap2\n      swap1\n      pop\n      jump\t// out\n        /* \"#utility.yul\":4524:4693   */\n    tag_118:\n        /* \"#utility.yul\":4608:4619   */\n      0x00\n        /* \"#utility.yul\":4642:4648   */\n      dup3\n        /* \"#utility.yul\":4637:4640   */\n      dup3\n        /* \"#utility.yul\":4630:4649   */\n      mstore\n        /* \"#utility.yul\":4682:4686   */\n      0x20\n        /* \"#utility.yul\":4677:4680   */\n      dup3\n        /* \"#utility.yul\":4673:4687   */\n      add\n        /* \"#utility.yul\":4658:4687   */\n      swap1\n      pop\n        /* \"#utility.yul\":4524:4693   */\n      swap3\n      swap2\n      pop\n      pop\n      jump\t// out\n        /* \"#utility.yul\":4699:4838   */\n    tag_119:\n        /* \"#utility.yul\":4788:4794   */\n      dup3\n        /* \"#utility.yul\":4783:4786   */\n      dup2\n        /* \"#utility.yul\":4778:4781   */\n      dup4\n        /* \"#utility.yul\":4772:4795   */\n      mcopy\n        /* \"#utility.yul\":4829:4830   */\n      0x00\n        /* \"#utility.yul\":4820:4826   */\n      dup4\n        /* \"#utility.yul\":4815:4818   */\n      dup4\n        /* \"#utility.yul\":4811:4827   */\n      add\n        /* \"#utility.yul\":4804:4831   */\n      mstore\n        /* \"#utility.yul\":4699:4838   */\n      pop\n      pop\n      pop\n      jump\t// out\n        /* \"#utility.yul\":4844:5221   */\n    tag_120:\n        /* \"#utility.yul\":4932:4935   */\n      0x00\n        /* \"#utility.yul\":4960:4999   */\n      tag_199\n        /* \"#utility.yul\":4993:4998   */\n      dup3\n        /* \"#utility.yul\":4960:4999   */\n      tag_117\n      jump\t// in\n    tag_199:\n        /* \"#utility.yul\":5015:5086   */\n      tag_200\n        /* \"#utility.yul\":5079:5085   */\n      dup2\n        /* \"#utility.yul\":5074:5077   */\n      dup6\n        /* \"#utility.yul\":5015:5086   */\n      tag_118\n      jump\t// in\n    tag_200:\n        /* \"#utility.yul\":5008:5086   */\n      swap4\n      pop\n        /* \"#utility.yul\":5095:5160   */\n      tag_201\n        /* \"#utility.yul\":5153:5159   */\n      dup2\n        /* \"#utility.yul\":5148:5151   */\n      dup6\n        /* \"#utility.yul\":5141:5145   */\n      0x20\n        /* \"#utility.yul\":5134:5139   */\n      dup7\n        /* \"#utility.yul\":5130:5146   */\n      add\n        /* \"#utility.yul\":5095:5160   */\n      tag_119\n      jump\t// in\n    tag_201:\n        /* \"#utility.yul\":5185:5214   */\n      tag_202\n        /* \"#utility.yul\":5207:5213   */\n      dup2\n        /* \"#utility.yul\":5185:5214   */\n      tag_102\n      jump\t// in\n    tag_202:\n        /* \"#utility.yul\":5180:5183   */\n      dup5\n        /* \"#utility.yul\":5176:5215   */\n      add\n        /* \"#utility.yul\":5169:5215   */\n      swap2\n      pop\n        /* \"#utility.yul\":4936:5221   */\n      pop\n        /* \"#utility.yul\":4844:5221   */\n      swap3\n      swap2\n      pop\n      pop\n      jump\t// out\n        /* \"#utility.yul\":5227:5336   */\n    tag_121:\n        /* \"#utility.yul\":5308:5329   */\n      tag_204\n        /* \"#utility.yul\":5323:5328   */\n      dup2\n        /* \"#utility.yul\":5308:5329   */\n      tag_113\n      jump\t// in\n    tag_204:\n        /* \"#utility.yul\":5303:5306   */\n      dup3\n        /* \"#utility.yul\":5296:5330   */\n      mstore\n        /* \"#utility.yul\":5227:5336   */\n      pop\n      pop\n      jump\t// out\n        /* \"#utility.yul\":5342:5863   */\n    tag_26:\n        /* \"#utility.yul\":5505:5509   */\n      0x00\n        /* \"#utility.yul\":5543:5545   */\n      0x60\n        /* \"#utility.yul\":5532:5541   */\n      dup3\n        /* \"#utility.yul\":5528:5546   */\n      add\n        /* \"#utility.yul\":5520:5546   */\n      swap1\n      pop\n        /* \"#utility.yul\":5592:5601   */\n      dup2\n        /* \"#utility.yul\":5586:5590   */\n      dup2\n        /* \"#utility.yul\":5582:5602   */\n      sub\n        /* \"#utility.yul\":5578:5579   */\n      0x00\n        /* \"#utility.yul\":5567:5576   */\n      dup4\n        /* \"#utility.yul\":5563:5580   */\n      add\n        /* \"#utility.yul\":5556:5603   */\n      mstore\n        /* \"#utility.yul\":5620:5698   */\n      tag_206\n        /* \"#utility.yul\":5693:5697   */\n      dup2\n        /* \"#utility.yul\":5684:5690   */\n      dup7\n        /* \"#utility.yul\":5620:5698   */\n      tag_120\n      jump\t// in\n    tag_206:\n        /* \"#utility.yul\":5612:5698   */\n      swap1\n      pop\n        /* \"#utility.yul\":5708:5780   */\n      tag_207\n        /* \"#utility.yul\":5776:5778   */\n      0x20\n        /* \"#utility.yul\":5765:5774   */\n      dup4\n        /* \"#utility.yul\":5761:5779   */\n      add\n        /* \"#utility.yul\":5752:5758   */\n      dup6\n        /* \"#utility.yul\":5708:5780   */\n      tag_116\n      jump\t// in\n    tag_207:\n        /* \"#utility.yul\":5790:5856   */\n      tag_208\n        /* \"#utility.yul\":5852:5854   */\n      0x40\n        /* \"#utility.yul\":5841:5850   */\n      dup4\n        /* \"#utility.yul\":5837:5855   */\n      add\n        /* \"#utility.yul\":5828:5834   */\n      dup5\n        /* \"#utility.yul\":5790:5856   */\n      tag_121\n      jump\t// in\n    tag_208:\n        /* \"#utility.yul\":5342:5863   */\n      swap5\n      swap4\n      pop\n      pop\n      pop\n      pop\n      jump\t// out\n        /* \"#utility.yul\":5869:6523   */\n    tag_38:\n        /* \"#utility.yul\":5947:5953   */\n      0x00\n        /* \"#utility.yul\":5955:5961   */\n      dup1\n        /* \"#utility.yul\":6004:6006   */\n      0x40\n        /* \"#utility.yul\":5992:6001   */\n      dup4\n        /* \"#utility.yul\":5983:5990   */\n      dup6\n        /* \"#utility.yul\":5979:6002   */\n      sub\n        /* \"#utility.yul\":5975:6007   */\n      slt\n        /* \"#utility.yul\":5972:6091   */\n      iszero\n      tag_210\n      jumpi\n        /* \"#utility.yul\":6010:6089   */\n      tag_211\n      tag_98\n      jump\t// in\n    tag_211:\n        /* \"#utility.yul\":5972:6091   */\n    tag_210:\n        /* \"#utility.yul\":6158:6159   */\n      0x00\n        /* \"#utility.yul\":6147:6156   */\n      dup4\n        /* \"#utility.yul\":6143:6160   */\n      add\n        /* \"#utility.yul\":6130:6161   */\n      calldataload\n        /* \"#utility.yul\":6188:6206   */\n      0xffffffffffffffff\n        /* \"#utility.yul\":6180:6186   */\n      dup2\n        /* \"#utility.yul\":6177:6207   */\n      gt\n        /* \"#utility.yul\":6174:6291   */\n      iszero\n      tag_212\n      jumpi\n        /* \"#utility.yul\":6210:6289   */\n      tag_213\n      tag_99\n      jump\t// in\n    tag_213:\n        /* \"#utility.yul\":6174:6291   */\n    tag_212:\n        /* \"#utility.yul\":6315:6378   */\n      tag_214\n        /* \"#utility.yul\":6370:6377   */\n      dup6\n        /* \"#utility.yul\":6361:6367   */\n      dup3\n        /* \"#utility.yul\":6350:6359   */\n      dup7\n        /* \"#utility.yul\":6346:6368   */\n      add\n        /* \"#utility.yul\":6315:6378   */\n      tag_109\n      jump\t// in\n    tag_214:\n        /* \"#utility.yul\":6305:6378   */\n      swap3\n      pop\n        /* \"#utility.yul\":6101:6388   */\n      pop\n        /* \"#utility.yul\":6427:6429   */\n      0x20\n        /* \"#utility.yul\":6453:6506   */\n      tag_215\n        /* \"#utility.yul\":6498:6505   */\n      dup6\n        /* \"#utility.yul\":6489:6495   */\n      dup3\n        /* \"#utility.yul\":6478:6487   */\n      dup7\n        /* \"#utility.yul\":6474:6496   */\n      add\n        /* \"#utility.yul\":6453:6506   */\n      tag_112\n      jump\t// in\n    tag_215:\n        /* \"#utility.yul\":6443:6506   */\n      swap2\n      pop\n        /* \"#utility.yul\":6398:6516   */\n      pop\n        /* \"#utility.yul\":5869:6523   */\n      swap3\n      pop\n      swap3\n      swap1\n      pop\n      jump\t// out\n        /* \"#utility.yul\":6529:6858   */\n    tag_42:\n        /* \"#utility.yul\":6588:6594   */\n      0x00\n        /* \"#utility.yul\":6637:6639   */\n      0x20\n        /* \"#utility.yul\":6625:6634   */\n      dup3\n        /* \"#utility.yul\":6616:6623   */\n      dup5\n        /* \"#utility.yul\":6612:6635   */\n      sub\n        /* \"#utility.yul\":6608:6640   */\n      slt\n        /* \"#utility.yul\":6605:6724   */\n      iszero\n      tag_217\n      jumpi\n        /* \"#utility.yul\":6643:6722   */\n      tag_218\n      tag_98\n      jump\t// in\n    tag_218:\n        /* \"#utility.yul\":6605:6724   */\n    tag_217:\n        /* \"#utility.yul\":6763:6764   */\n      0x00\n        /* \"#utility.yul\":6788:6841   */\n      tag_219\n        /* \"#utility.yul\":6833:6840   */\n      dup5\n        /* \"#utility.yul\":6824:6830   */\n      dup3\n        /* \"#utility.yul\":6813:6822   */\n      dup6\n        /* \"#utility.yul\":6809:6831   */\n      add\n        /* \"#utility.yul\":6788:6841   */\n      tag_112\n      jump\t// in\n    tag_219:\n        /* \"#utility.yul\":6778:6841   */\n      swap2\n      pop\n        /* \"#utility.yul\":6734:6851   */\n      pop\n        /* \"#utility.yul\":6529:6858   */\n      swap3\n      swap2\n      pop\n      pop\n      jump\t// out\n        /* \"#utility.yul\":6864:7373   */\n    tag_53:\n        /* \"#utility.yul\":6933:6939   */\n      0x00\n        /* \"#utility.yul\":6982:6984   */\n      0x20\n        /* \"#utility.yul\":6970:6979   */\n      dup3\n        /* \"#utility.yul\":6961:6968   */\n      dup5\n        /* \"#utility.yul\":6957:6980   */\n      sub\n        /* \"#utility.yul\":6953:6985   */\n      slt\n        /* \"#utility.yul\":6950:7069   */\n      iszero\n      tag_221\n      jumpi\n        /* \"#utility.yul\":6988:7067   */\n      tag_222\n      tag_98\n      jump\t// in\n    tag_222:\n        /* \"#utility.yul\":6950:7069   */\n    tag_221:\n        /* \"#utility.yul\":7136:7137   */\n      0x00\n        /* \"#utility.yul\":7125:7134   */\n      dup3\n        /* \"#utility.yul\":7121:7138   */\n      add\n        /* \"#utility.yul\":7108:7139   */\n      calldataload\n        /* \"#utility.yul\":7166:7184   */\n      0xffffffffffffffff\n        /* \"#utility.yul\":7158:7164   */\n      dup2\n        /* \"#utility.yul\":7155:7185   */\n      gt\n        /* \"#utility.yul\":7152:7269   */\n      iszero\n      tag_223\n      jumpi\n        /* \"#utility.yul\":7188:7267   */\n      tag_224\n      tag_99\n      jump\t// in\n    tag_224:\n        /* \"#utility.yul\":7152:7269   */\n    tag_223:\n        /* \"#utility.yul\":7293:7356   */\n      tag_225\n        /* \"#utility.yul\":7348:7355   */\n      dup5\n        /* \"#utility.yul\":7339:7345   */\n      dup3\n        /* \"#utility.yul\":7328:7337   */\n      dup6\n        /* \"#utility.yul\":7324:7346   */\n      add\n        /* \"#utility.yul\":7293:7356   */\n      tag_109\n      jump\t// in\n    tag_225:\n        /* \"#utility.yul\":7283:7356   */\n      swap2\n      pop\n        /* \"#utility.yul\":7079:7366   */\n      pop\n        /* \"#utility.yul\":6864:7373   */\n      swap3\n      swap2\n      pop\n      pop\n      jump\t// out\n        /* \"#utility.yul\":7379:7559   */\n    tag_122:\n        /* \"#utility.yul\":7427:7504   */\n      0x4e487b7100000000000000000000000000000000000000000000000000000000\n        /* \"#utility.yul\":7424:7425   */\n      0x00\n        /* \"#utility.yul\":7417:7505   */\n      mstore\n        /* \"#utility.yul\":7524:7528   */\n      0x22\n        /* \"#utility.yul\":7521:7522   */\n      0x04\n        /* \"#utility.yul\":7514:7529   */\n      mstore\n        /* \"#utility.yul\":7548:7552   */\n      0x24\n        /* \"#utility.yul\":7545:7546   */\n      0x00\n        /* \"#utility.yul\":7538:7553   */\n      revert\n        /* \"#utility.yul\":7565:7885   */\n    tag_69:\n        /* \"#utility.yul\":7609:7615   */\n      0x00\n        /* \"#utility.yul\":7646:7647   */\n      0x02\n        /* \"#utility.yul\":7640:7644   */\n      dup3\n        /* \"#utility.yul\":7636:7648   */\n      div\n        /* \"#utility.yul\":7626:7648   */\n      swap1\n      pop\n        /* \"#utility.yul\":7693:7694   */\n      0x01\n        /* \"#utility.yul\":7687:7691   */\n      dup3\n        /* \"#utility.yul\":7683:7695   */\n      and\n        /* \"#utility.yul\":7714:7732   */\n      dup1\n        /* \"#utility.yul\":7704:7785   */\n      tag_228\n      jumpi\n        /* \"#utility.yul\":7770:7774   */\n      0x7f\n        /* \"#utility.yul\":7762:7768   */\n      dup3\n        /* \"#utility.yul\":7758:7775   */\n      and\n        /* \"#utility.yul\":7748:7775   */\n      swap2\n      pop\n        /* \"#utility.yul\":7704:7785   */\n    tag_228:\n        /* \"#utility.yul\":7832:7834   */\n      0x20\n        /* \"#utility.yul\":7824:7830   */\n      dup3\n        /* \"#utility.yul\":7821:7835   */\n      lt\n        /* \"#utility.yul\":7801:7819   */\n      dup2\n        /* \"#utility.yul\":7798:7836   */\n      sub\n        /* \"#utility.yul\":7795:7879   */\n      tag_229\n      jumpi\n        /* \"#utility.yul\":7851:7869   */\n      tag_230\n      tag_122\n      jump\t// in\n    tag_230:\n        /* \"#utility.yul\":7795:7879   */\n    tag_229:\n        /* \"#utility.yul\":7616:7885   */\n      pop\n        /* \"#utility.yul\":7565:7885   */\n      swap2\n      swap1\n      pop\n      jump\t// out\n        /* \"#utility.yul\":7891:8032   */\n    tag_123:\n        /* \"#utility.yul\":7940:7944   */\n      0x00\n        /* \"#utility.yul\":7963:7966   */\n      dup2\n        /* \"#utility.yul\":7955:7966   */\n      swap1\n      pop\n        /* \"#utility.yul\":7986:7989   */\n      dup2\n        /* \"#utility.yul\":7983:7984   */\n      0x00\n        /* \"#utility.yul\":7976:7990   */\n      mstore\n        /* \"#utility.yul\":8020:8024   */\n      0x20\n        /* \"#utility.yul\":8017:8018   */\n      0x00\n        /* \"#utility.yul\":8007:8025   */\n      keccak256\n        /* \"#utility.yul\":7999:8025   */\n      swap1\n      pop\n        /* \"#utility.yul\":7891:8032   */\n      swap2\n      swap1\n      pop\n      jump\t// out\n        /* \"#utility.yul\":8038:8131   */\n    tag_124:\n        /* \"#utility.yul\":8075:8081   */\n      0x00\n        /* \"#utility.yul\":8122:8124   */\n      0x20\n        /* \"#utility.yul\":8117:8119   */\n      0x1f\n        /* \"#utility.yul\":8110:8115   */\n      dup4\n        /* \"#utility.yul\":8106:8120   */\n      add\n        /* \"#utility.yul\":8102:8125   */\n      div\n        /* \"#utility.yul\":8092:8125   */\n      swap1\n      pop\n        /* \"#utility.yul\":8038:8131   */\n      swap2\n      swap1\n      pop\n      jump\t// out\n        /* \"#utility.yul\":8137:8244   */\n    tag_125:\n        /* \"#utility.yul\":8181:8189   */\n      0x00\n        /* \"#utility.yul\":8231:8236   */\n      dup3\n        /* \"#utility.yul\":8225:8229   */\n      dup3\n        /* \"#utility.yul\":8221:8237   */\n      shl\n        /* \"#utility.yul\":8200:8237   */\n      swap1\n      pop\n        /* \"#utility.yul\":8137:8244   */\n      swap3\n      swap2\n      pop\n      pop\n      jump\t// out\n        /* \"#utility.yul\":8250:8643   */\n    tag_126:\n        /* \"#utility.yul\":8319:8325   */\n      0x00\n        /* \"#utility.yul\":8369:8370   */\n      0x08\n        /* \"#utility.yul\":8357:8367   */\n      dup4\n        /* \"#utility.yul\":8353:8371   */\n      mul\n        /* \"#utility.yul\":8392:8489   */\n      tag_235\n        /* \"#utility.yul\":8422:8488   */\n      0xffffffffffffffffffffffffffffffffffffffffffffffffffffffffffffffff\n        /* \"#utility.yul\":8411:8420   */\n      dup3\n        /* \"#utility.yul\":8392:8489   */\n      tag_125\n      jump\t// in\n    tag_235:\n        /* \"#utility.yul\":8510:8549   */\n      tag_236\n        /* \"#utility.yul\":8540:8548   */\n      dup7\n        /* \"#utility.yul\":8529:8538   */\n      dup4\n        /* \"#utility.yul\":8510:8549   */\n      tag_125\n      jump\t// in\n    tag_236:\n        /* \"#utility.yul\":8498:8549   */\n      swap6\n      pop\n        /* \"#utility.yul\":8582:8586   */\n      dup1\n        /* \"#utility.yul\":8578:8587   */\n      not\n        /* \"#utility.yul\":8571:8576   */\n      dup5\n        /* \"#utility.yul\":8567:8588   */\n      and\n        /* \"#utility.yul\":8558:8588   */\n      swap4\n      pop\n        /* \"#utility.yul\":8631:8635   */\n      dup1\n        /* \"#utility.yul\":8621:8629   */\n      dup7\n        /* \"#utility.yul\":8617:8636   */\n      and\n        /* \"#utility.yul\":8610:8615   */\n      dup5\n        /* \"#utility.yul\":8607:8637   */\n      or\n        /* \"#utility.yul\":8597:8637   */\n      swap3\n      pop\n        /* \"#utility.yul\":8326:8643   */\n      pop\n      pop\n        /* \"#utility.yul\":8250:8643   */\n      swap4\n      swap3\n      pop\n      pop\n      pop\n      jump\t// out\n        /* \"#utility.yul\":8649:8709   */\n    tag_127:\n        /* \"#utility.yul\":8677:8680   */\n      0x00\n        /* \"#utility.yul\":8698:8703   */\n      dup2\n        /* \"#utility.yul\":8691:8703   */\n      swap1\n      pop\n        /* \"#utility.yul\":8649:8709   */\n      swap2\n      swap1\n      pop\n      jump\t// out\n        /* \"#utility.yul\":8715:8857   */\n    tag_128:\n        /* \"#utility.yul\":8765:8774   */\n      0x00\n        /* \"#utility.yul\":8798:8851   */\n      tag_239\n        /* \"#utility.yul\":8816:8850   */\n      tag_240\n        /* \"#utility.yul\":8825:8849   */\n      tag_241\n        /* \"#utility.yul\":8843:8848   */\n      dup5\n        /* \"#utility.yul\":8825:8849   */\n      tag_110\n      jump\t// in\n    tag_241:\n        /* \"#utility.yul\":8816:8850   */\n      tag_127\n      jump\t// in\n    tag_240:\n        /* \"#utility.yul\":8798:8851   */\n      tag_110\n      jump\t// in\n    tag_239:\n        /* \"#utility.yul\":8785:8851   */\n      swap1\n      pop\n        /* \"#utility.yul\":8715:8857   */\n      swap2\n      swap1\n      pop\n      jump\t// out\n        /* \"#utility.yul\":8863:8938   */\n    tag_129:\n        /* \"#utility.yul\":8906:8909   */\n      0x00\n        /* \"#utility.yul\":8927:8932   */\n      dup2\n        /* \"#utility.yul\":8920:8932   */\n      swap1\n      pop\n        /* \"#utility.yul\":8863:8938   */\n      swap2\n      swap1\n      pop\n      jump\t// out\n        /* \"#utility.yul\":8944:9213   */\n    tag_130:\n        /* \"#utility.yul\":9054:9093   */\n      tag_244\n        /* \"#utility.yul\":9085:9092   */\n      dup4\n        /* \"#utility.yul\":9054:9093   */\n      tag_128\n      jump\t// in\n    tag_244:\n        /* \"#utility.yul\":9115:9206   */\n      tag_245\n        /* \"#utility.yul\":9164:9205   */\n      tag_246\n        /* \"#utility.yul\":9188:9204   */\n      dup3\n        /* \"#utility.yul\":9164:9205   */\n      tag_129\n      jump\t// in\n    tag_246:\n        /* \"#utility.yul\":9156:9162   */\n      dup5\n        /* \"#utility.yul\":9149:9153   */\n      dup5\n        /* \"#utility.yul\":9143:9154   */\n      sload\n        /* \"#utility.yul\":9115:9206   */\n      tag_126\n      jump\t// in\n    tag_245:\n        /* \"#utility.yul\":9109:9113   */\n      dup3\n        /* \"#utility.yul\":9102:9207   */\n      sstore\n        /* \"#utility.yul\":9020:9213   */\n      pop\n        /* \"#utility.yul\":8944:9213   */\n      pop\n      pop\n      pop\n      jump\t// out\n        /* \"#utility.yul\":9219:9292   */\n    tag_131:\n        /* \"#utility.yul\":9264:9267   */\n      0x00\n        /* \"#utility.yul\":9219:9292   */\n      swap1\n      jump\t// out\n        /* \"#utility.yul\":9298:9487   */\n    tag_132:\n        /* \"#utility.yul\":9375:9407   */\n      tag_249\n      tag_131\n      jump\t// in\n    tag_249:\n        /* \"#utility.yul\":9416:9481   */\n      tag_250\n        /* \"#utility.yul\":9474:9480   */\n      dup2\n        /* \"#utility.yul\":9466:9472   */\n      dup5\n        /* \"#utility.yul\":9460:9464   */\n      dup5\n        /* \"#utility.yul\":9416:9481   */\n      tag_130\n      jump\t// in\n    tag_250:\n        /* \"#utility.yul\":9351:9487   */\n      pop\n        /* \"#utility.yul\":9298:9487   */\n      pop\n      pop\n      jump\t// out\n        /* \"#utility.yul\":9493:9679   */\n    tag_133:\n        /* \"#utility.yul\":9553:9673   */\n    tag_252:\n        /* \"#utility.yul\":9570:9573   */\n      dup2\n        /* \"#utility.yul\":9563:9568   */\n      dup2\n        /* \"#utility.yul\":9560:9574   */\n      lt\n        /* \"#utility.yul\":9553:9673   */\n      iszero\n      tag_254\n      jumpi\n        /* \"#utility.yul\":9624:9663   */\n      tag_255\n        /* \"#utility.yul\":9661:9662   */\n      0x00\n        /* \"#utility.yul\":9654:9659   */\n      dup3\n        /* \"#utility.yul\":9624:9663   */\n      tag_132\n      jump\t// in\n    tag_255:\n        /* \"#utility.yul\":9597:9598   */\n      0x01\n        /* \"#utility.yul\":9590:9595   */\n      dup2\n        /* \"#utility.yul\":9586:9599   */\n      add\n        /* \"#utility.yul\":9577:9599   */\n      swap1\n      pop\n        /* \"#utility.yul\":9553:9673   */\n      jump(tag_252)\n    tag_254:\n        /* \"#utility.yul\":9493:9679   */\n      pop\n      pop\n      jump\t// out\n        /* \"#utility.yul\":9685:10228   */\n    tag_134:\n        /* \"#utility.yul\":9786:9788   */\n      0x1f\n        /* \"#utility.yul\":9781:9784   */\n      dup3\n        /* \"#utility.yul\":9778:9789   */\n      gt\n        /* \"#utility.yul\":9775:10221   */\n      iszero\n      tag_257\n      jumpi\n        /* \"#utility.yul\":9820:9858   */\n      tag_258\n        /* \"#utility.yul\":9852:9857   */\n      dup2\n        /* \"#utility.yul\":9820:9858   */\n      tag_123\n      jump\t// in\n    tag_258:\n        /* \"#utility.yul\":9904:9933   */\n      tag_259\n        /* \"#utility.yul\":9922:9932   */\n      dup5\n        /* \"#utility.yul\":9904:9933   */\n      tag_124\n      jump\t// in\n    tag_259:\n        /* \"#utility.yul\":9894:9902   */\n      dup2\n        /* \"#utility.yul\":9890:9934   */\n      add\n        /* \"#utility.yul\":10087:10089   */\n      0x20\n        /* \"#utility.yul\":10075:10085   */\n      dup6\n        /* \"#utility.yul\":10072:10090   */\n      lt\n        /* \"#utility.yul\":10069:10118   */\n      iszero\n      tag_260\n      jumpi\n        /* \"#utility.yul\":10108:10116   */\n      dup2\n        /* \"#utility.yul\":10093:10116   */\n      swap1\n      pop\n        /* \"#utility.yul\":10069:10118   */\n    tag_260:\n        /* \"#utility.yul\":10131:10211   */\n      tag_261\n        /* \"#utility.yul\":10187:10209   */\n      tag_262\n        /* \"#utility.yul\":10205:10208   */\n      dup6\n        /* \"#utility.yul\":10187:10209   */\n      tag_124\n      jump\t// in\n    tag_262:\n        /* \"#utility.yul\":10177:10185   */\n      dup4\n        /* \"#utility.yul\":10173:10210   */\n      add\n        /* \"#utility.yul\":10160:10171   */\n      dup3\n        /* \"#utility.yul\":10131:10211   */\n      tag_133\n      jump\t// in\n    tag_261:\n        /* \"#utility.yul\":9790:10221   */\n      pop\n      pop\n        /* \"#utility.yul\":9775:10221   */\n    tag_257:\n        /* \"#utility.yul\":9685:10228   */\n      pop\n      pop\n      pop\n      jump\t// out\n        /* \"#utility.yul\":10234:10351   */\n    tag_135:\n        /* \"#utility.yul\":10288:10296   */\n      0x00\n        /* \"#utility.yul\":10338:10343   */\n      dup3\n        /* \"#utility.yul\":10332:10336   */\n      dup3\n        /* \"#utility.yul\":10328:10344   */\n      shr\n        /* \"#utility.yul\":10307:10344   */\n      swap1\n      pop\n        /* \"#utility.yul\":10234:10351   */\n      swap3\n      swap2\n      pop\n      pop\n      jump\t// out\n        /* \"#utility.yul\":10357:10526   */\n    tag_136:\n        /* \"#utility.yul\":10401:10407   */\n      0x00\n        /* \"#utility.yul\":10434:10485   */\n      tag_265\n        /* \"#utility.yul\":10482:10483   */\n      0x00\n        /* \"#utility.yul\":10478:10484   */\n      not\n        /* \"#utility.yul\":10470:10475   */\n      dup5\n        /* \"#utility.yul\":10467:10468   */\n      0x08\n        /* \"#utility.yul\":10463:10476   */\n      mul\n        /* \"#utility.yul\":10434:10485   */\n      tag_135\n      jump\t// in\n    tag_265:\n        /* \"#utility.yul\":10430:10486   */\n      not\n        /* \"#utility.yul\":10515:10519   */\n      dup1\n        /* \"#utility.yul\":10509:10513   */\n      dup4\n        /* \"#utility.yul\":10505:10520   */\n      and\n        /* \"#utility.yul\":10495:10520   */\n      swap2\n      pop\n        /* \"#utility.yul\":10408:10526   */\n      pop\n        /* \"#utility.yul\":10357:10526   */\n      swap3\n      swap2\n      pop\n      pop\n      jump\t// out\n        /* \"#utility.yul\":10531:10826   */\n    tag_137:\n        /* \"#utility.yul\":10607:10611   */\n      0x00\n        /* \"#utility.yul\":10753:10782   */\n      tag_267\n        /* \"#utility.yul\":10778:10781   */\n      dup4\n        /* \"#utility.yul\":10772:10776   */\n      dup4\n        /* \"#utility.yul\":10753:10782   */\n      tag_136\n      jump\t// in\n    tag_267:\n        /* \"#utility.yul\":10745:10782   */\n      swap2\n      pop\n        /* \"#utility.yul\":10815:10818   */\n      dup3\n        /* \"#utility.yul\":10812:10813   */\n      0x02\n        /* \"#utility.yul\":10808:10819   */\n      mul\n        /* \"#utility.yul\":10802:10806   */\n      dup3\n        /* \"#utility.yul\":10799:10820   */\n      or\n        /* \"#utility.yul\":10791:10820   */\n      swap1\n      pop\n        /* \"#utility.yul\":10531:10826   */\n      swap3\n      swap2\n      pop\n      pop\n      jump\t// out\n        /* \"#utility.yul\":10831:12226   */\n    tag_59:\n        /* \"#utility.yul\":10948:10985   */\n      tag_269\n        /* \"#utility.yul\":10981:10984   */\n      dup3\n        /* \"#utility.yul\":10948:10985   */\n      tag_117\n      jump\t// in\n    tag_269:\n        /* \"#utility.yul\":11050:11068   */\n      0xffffffffffffffff\n        /* \"#utility.yul\":11042:11048   */\n      dup2\n        /* \"#utility.yul\":11039:11069   */\n      gt\n        /* \"#utility.yul\":11036:11092   */\n      iszero\n      tag_270\n      jumpi\n        /* \"#utility.yul\":11072:11090   */\n      tag_271\n      tag_103\n      jump\t// in\n    tag_271:\n        /* \"#utility.yul\":11036:11092   */\n    tag_270:\n        /* \"#utility.yul\":11116:11154   */\n      tag_272\n        /* \"#utility.yul\":11148:11152   */\n      dup3\n        /* \"#utility.yul\":11142:11153   */\n      sload\n        /* \"#utility.yul\":11116:11154   */\n      tag_69\n      jump\t// in\n    tag_272:\n        /* \"#utility.yul\":11201:11268   */\n      tag_273\n        /* \"#utility.yul\":11261:11267   */\n      dup3\n        /* \"#utility.yul\":11253:11259   */\n      dup3\n        /* \"#utility.yul\":11247:11251   */\n      dup6\n        /* \"#utility.yul\":11201:11268   */\n      tag_134\n      jump\t// in\n    tag_273:\n        /* \"#utility.yul\":11295:11296   */\n      0x00\n        /* \"#utility.yul\":11319:11323   */\n      0x20\n        /* \"#utility.yul\":11306:11323   */\n      swap1\n      pop\n        /* \"#utility.yul\":11351:11353   */\n      0x1f\n        /* \"#utility.yul\":11343:11349   */\n      dup4\n        /* \"#utility.yul\":11340:11354   */\n      gt\n        /* \"#utility.yul\":11368:11369   */\n      0x01\n        /* \"#utility.yul\":11363:11981   */\n      dup2\n      eq\n      tag_275\n      jumpi\n        /* \"#utility.yul\":12025:12026   */\n      0x00\n        /* \"#utility.yul\":12042:12048   */\n      dup5\n        /* \"#utility.yul\":12039:12116   */\n      iszero\n      tag_276\n      jumpi\n        /* \"#utility.yul\":12091:12100   */\n      dup3\n        /* \"#utility.yul\":12086:12089   */\n      dup8\n        /* \"#utility.yul\":12082:12101   */\n      add\n        /* \"#utility.yul\":12076:12102   */\n      mload\n        /* \"#utility.yul\":12067:12102   */\n      swap1\n      pop\n        /* \"#utility.yul\":12039:12116   */\n    tag_276:\n        /* \"#utility.yul\":12142:12209   */\n      tag_277\n        /* \"#utility.yul\":12202:12208   */\n      dup6\n        /* \"#utility.yul\":12195:12200   */\n      dup3\n        /* \"#utility.yul\":12142:12209   */\n      tag_137\n      jump\t// in\n    tag_277:\n        /* \"#utility.yul\":12136:12140   */\n      dup7\n        /* \"#utility.yul\":12129:12210   */\n      sstore\n        /* \"#utility.yul\":11998:12220   */\n      pop\n        /* \"#utility.yul\":11333:12220   */\n      jump(tag_274)\n        /* \"#utility.yul\":11363:11981   */\n    tag_275:\n        /* \"#utility.yul\":11415:11419   */\n      0x1f\n        /* \"#utility.yul\":11411:11420   */\n      not\n        /* \"#utility.yul\":11403:11409   */\n      dup5\n        /* \"#utility.yul\":11399:11421   */\n      and\n        /* \"#utility.yul\":11449:11486   */\n      tag_278\n        /* \"#utility.yul\":11481:11485   */\n      dup7\n        /* \"#utility.yul\":11449:11486   */\n      tag_123\n      jump\t// in\n    tag_278:\n        /* \"#utility.yul\":11508:11509   */\n      0x00\n        /* \"#utility.yul\":11522:11730   */\n    tag_279:\n        /* \"#utility.yul\":11536:11543   */\n      dup3\n        /* \"#utility.yul\":11533:11534   */\n      dup2\n        /* \"#utility.yul\":11530:11544   */\n      lt\n        /* \"#utility.yul\":11522:11730   */\n      iszero\n      tag_281\n      jumpi\n        /* \"#utility.yul\":11615:11624   */\n      dup5\n        /* \"#utility.yul\":11610:11613   */\n      dup10\n        /* \"#utility.yul\":11606:11625   */\n      add\n        /* \"#utility.yul\":11600:11626   */\n      mload\n        /* \"#utility.yul\":11592:11598   */\n      dup3\n        /* \"#utility.yul\":11585:11627   */\n      sstore\n        /* \"#utility.yul\":11666:11667   */\n      0x01\n        /* \"#utility.yul\":11658:11664   */\n      dup3\n        /* \"#utility.yul\":11654:11668   */\n      add\n        /* \"#utility.yul\":11644:11668   */\n      swap2\n      pop\n        /* \"#utility.yul\":11713:11715   */\n      0x20\n        /* \"#utility.yul\":11702:11711   */\n      dup6\n        /* \"#utility.yul\":11698:11716   */\n      add\n        /* \"#utility.yul\":11685:11716   */\n      swap5\n      pop\n        /* \"#utility.yul\":11559:11563   */\n      0x20\n        /* \"#utility.yul\":11556:11557   */\n      dup2\n        /* \"#utility.yul\":11552:11564   */\n      add\n        /* \"#utility.yul\":11547:11564   */\n      swap1\n      pop\n        /* \"#utility.yul\":11522:11730   */\n      jump(tag_279)\n    tag_281:\n        /* \"#utility.yul\":11758:11764   */\n      dup7\n        /* \"#utility.yul\":11749:11756   */\n      dup4\n        /* \"#utility.yul\":11746:11765   */\n      lt\n        /* \"#utility.yul\":11743:11922   */\n      iszero\n      tag_282\n      jumpi\n        /* \"#utility.yul\":11816:11825   */\n      dup5\n        /* \"#utility.yul\":11811:11814   */\n      dup10\n        /* \"#utility.yul\":11807:11826   */\n      add\n        /* \"#utility.yul\":11801:11827   */\n      mload\n        /* \"#utility.yul\":11859:11907   */\n      tag_283\n        /* \"#utility.yul\":11901:11905   */\n      0x1f\n        /* \"#utility.yul\":11893:11899   */\n      dup10\n        /* \"#utility.yul\":11889:11906   */\n      and\n        /* \"#utility.yul\":11878:11887   */\n      dup3\n        /* \"#utility.yul\":11859:11907   */\n      tag_136\n      jump\t// in\n    tag_283:\n        /* \"#utility.yul\":11851:11857   */\n      dup4\n        /* \"#utility.yul\":11844:11908   */\n      sstore\n        /* \"#utility.yul\":11766:11922   */\n      pop\n        /* \"#utility.yul\":11743:11922   */\n    tag_282:\n        /* \"#utility.yul\":11968:11969   */\n      0x01\n        /* \"#utility.yul\":11964:11965   */\n      0x02\n        /* \"#utility.yul\":11956:11962   */\n      dup9\n        /* \"#utility.yul\":11952:11966   */\n      mul\n        /* \"#utility.yul\":11948:11970   */\n      add\n        /* \"#utility.yul\":11942:11946   */\n      dup9\n        /* \"#utility.yul\":11935:11971   */\n      sstore\n        /* \"#utility.yul\":11370:11981   */\n      pop\n      pop\n      pop\n        /* \"#utility.yul\":11333:12220   */\n    tag_274:\n      pop\n        /* \"#utility.yul\":10923:12226   */\n      pop\n      pop\n      pop\n        /* \"#utility.yul\":10831:12226   */\n      pop\n      pop\n      jump\t// out\n        /* \"#utility.yul\":12232:12381   */\n    tag_138:\n        /* \"#utility.yul\":12281:12287   */\n      0x00\n        /* \"#utility.yul\":12315:12320   */\n      dup2\n        /* \"#utility.yul\":12309:12321   */\n      sload\n        /* \"#utility.yul\":12299:12321   */\n      swap1\n      pop\n        /* \"#utility.yul\":12341:12374   */\n      tag_285\n        /* \"#utility.yul\":12367:12373   */\n      dup2\n        /* \"#utility.yul\":12341:12374   */\n      tag_69\n      jump\t// in\n    tag_285:\n        /* \"#utility.yul\":12331:12374   */\n      swap1\n      pop\n        /* \"#utility.yul\":12232:12381   */\n      swap2\n      swap1\n      pop\n      jump\t// out\n        /* \"#utility.yul\":12387:13838   */\n    tag_62:\n        /* \"#utility.yul\":12498:12501   */\n      dup2\n        /* \"#utility.yul\":12492:12496   */\n      dup2\n        /* \"#utility.yul\":12489:12502   */\n      sub\n        /* \"#utility.yul\":12486:12512   */\n      tag_287\n      jumpi\n        /* \"#utility.yul\":12505:12510   */\n      pop\n      pop\n      jump(tag_286)\n        /* \"#utility.yul\":12486:12512   */\n    tag_287:\n        /* \"#utility.yul\":12536:12570   */\n      tag_288\n        /* \"#utility.yul\":12566:12569   */\n      dup3\n        /* \"#utility.yul\":12536:12570   */\n      tag_138\n      jump\t// in\n    tag_288:\n        /* \"#utility.yul\":12635:12653   */\n      0xffffffffffffffff\n        /* \"#utility.yul\":12627:12633   */\n      dup2\n        /* \"#utility.yul\":12624:12654   */\n      gt\n        /* \"#utility.yul\":12621:12677   */\n      iszero\n      tag_289\n      jumpi\n        /* \"#utility.yul\":12657:12675   */\n      tag_290\n      tag_103\n      jump\t// in\n    tag_290:\n        /* \"#utility.yul\":12621:12677   */\n    tag_289:\n        /* \"#utility.yul\":12701:12739   */\n      tag_291\n        /* \"#utility.yul\":12733:12737   */\n      dup3\n        /* \"#utility.yul\":12727:12738   */\n      sload\n        /* \"#utility.yul\":12701:12739   */\n      tag_69\n      jump\t// in\n    tag_291:\n        /* \"#utility.yul\":12786:12853   */\n      tag_292\n        /* \"#utility.yul\":12846:12852   */\n      dup3\n        /* \"#utility.yul\":12838:12844   */\n      dup3\n        /* \"#utility.yul\":12832:12836   */\n      dup6\n        /* \"#utility.yul\":12786:12853   */\n      tag_134\n      jump\t// in\n    tag_292:\n        /* \"#utility.yul\":12880:12881   */\n      0x00\n        /* \"#utility.yul\":12909:12911   */\n      0x1f\n        /* \"#utility.yul\":12901:12907   */\n      dup4\n        /* \"#utility.yul\":12898:12912   */\n      gt\n        /* \"#utility.yul\":12926:12927   */\n      0x01\n        /* \"#utility.yul\":12921:13593   */\n      dup2\n      eq\n      tag_294\n      jumpi\n        /* \"#utility.yul\":13637:13638   */\n      0x00\n        /* \"#utility.yul\":13654:13660   */\n      dup5\n        /* \"#utility.yul\":13651:13728   */\n      iszero\n      tag_295\n      jumpi\n        /* \"#utility.yul\":13703:13712   */\n      dup3\n        /* \"#utility.yul\":13698:13701   */\n      dup8\n        /* \"#utility.yul\":13694:13713   */\n      add\n        /* \"#utility.yul\":13688:13714   */\n      sload\n        /* \"#utility.yul\":13679:13714   */\n      swap1\n      pop\n        /* \"#utility.yul\":13651:13728   */\n    tag_295:\n        /* \"#utility.yul\":13754:13821   */\n      tag_296\n        /* \"#utility.yul\":13814:13820   */\n      dup6\n        /* \"#utility.yul\":13807:13812   */\n      dup3\n        /* \"#utility.yul\":13754:13821   */\n      tag_137\n      jump\t// in\n    tag_296:\n        /* \"#utility.yul\":13748:13752   */\n      dup7\n        /* \"#utility.yul\":13741:13822   */\n      sstore\n        /* \"#utility.yul\":13610:13832   */\n      pop\n        /* \"#utility.yul\":12891:13832   */\n      jump(tag_293)\n        /* \"#utility.yul\":12921:13593   */\n    tag_294:\n        /* \"#utility.yul\":12973:12977   */\n      0x1f\n        /* \"#utility.yul\":12969:12978   */\n      not\n        /* \"#utility.yul\":12961:12967   */\n      dup5\n        /* \"#utility.yul\":12957:12979   */\n      and\n        /* \"#utility.yul\":12999:13035   */\n      tag_297\n        /* \"#utility.yul\":13031:13034   */\n      dup8\n        /* \"#utility.yul\":12999:13035   */\n      tag_123\n      jump\t// in\n    tag_297:\n        /* \"#utility.yul\":12992:13035   */\n      swap7\n      pop\n        /* \"#utility.yul\":13062:13099   */\n      tag_298\n        /* \"#utility.yul\":13094:13098   */\n      dup7\n        /* \"#utility.yul\":13062:13099   */\n      tag_123\n      jump\t// in\n    tag_298:\n        /* \"#utility.yul\":13121:13122   */\n      0x00\n        /* \"#utility.yul\":13135:13342   */\n    tag_299:\n        /* \"#utility.yul\":13149:13156   */\n      dup3\n        /* \"#utility.yul\":13146:13147   */\n      dup2\n        /* \"#utility.yul\":13143:13157   */\n      lt\n        /* \"#utility.yul\":13135:13342   */\n      iszero\n      tag_301\n      jumpi\n        /* \"#utility.yul\":13228:13237   */\n      dup5\n        /* \"#utility.yul\":13223:13226   */\n      dup10\n        /* \"#utility.yul\":13219:13238   */\n      add\n        /* \"#utility.yul\":13213:13239   */\n      sload\n        /* \"#utility.yul\":13205:13211   */\n      dup3\n        /* \"#utility.yul\":13198:13240   */\n      sstore\n        /* \"#utility.yul\":13279:13280   */\n      0x01\n        /* \"#utility.yul\":13271:13277   */\n      dup3\n        /* \"#utility.yul\":13267:13281   */\n      add\n        /* \"#utility.yul\":13257:13281   */\n      swap2\n      pop\n        /* \"#utility.yul\":13326:13327   */\n      0x01\n        /* \"#utility.yul\":13315:13324   */\n      dup6\n        /* \"#utility.yul\":13311:13328   */\n      add\n        /* \"#utility.yul\":13298:13328   */\n      swap5\n      pop\n        /* \"#utility.yul\":13172:13176   */\n      0x20\n        /* \"#utility.yul\":13169:13170   */\n      dup2\n        /* \"#utility.yul\":13165:13177   */\n      add\n        /* \"#utility.yul\":13160:13177   */\n      swap1\n      pop\n        /* \"#utility.yul\":13135:13342   */\n      jump(tag_299)\n    tag_301:\n        /* \"#utility.yul\":13370:13376   */\n      dup7\n        /* \"#utility.yul\":13361:13368   */\n      dup4\n        /* \"#utility.yul\":13358:13377   */\n      lt\n        /* \"#utility.yul\":13355:13534   */\n      iszero\n      tag_302\n      jumpi\n        /* \"#utility.yul\":13428:13437   */\n      dup5\n        /* \"#utility.yul\":13423:13426   */\n      dup10\n        /* \"#utility.yul\":13419:13438   */\n      add\n        /* \"#utility.yul\":13413:13439   */\n      sload\n        /* \"#utility.yul\":13471:13519   */\n      tag_303\n        /* \"#utility.yul\":13513:13517   */\n      0x1f\n        /* \"#utility.yul\":13505:13511   */\n      dup10\n        /* \"#utility.yul\":13501:13518   */\n      and\n        /* \"#utility.yul\":13490:13499   */\n      dup3\n        /* \"#utility.yul\":13471:13519   */\n      tag_136\n      jump\t// in\n    tag_303:\n        /* \"#utility.yul\":13463:13469   */\n      dup4\n        /* \"#utility.yul\":13456:13520   */\n      sstore\n        /* \"#utility.yul\":13378:13534   */\n      pop\n        /* \"#utility.yul\":13355:13534   */\n    tag_302:\n        /* \"#utility.yul\":13580:13581   */\n      0x01\n        /* \"#utility.yul\":13576:13577   */\n      0x02\n        /* \"#utility.yul\":13568:13574   */\n      dup9\n        /* \"#utility.yul\":13564:13578   */\n      mul\n        /* \"#utility.yul\":13560:13582   */\n      add\n        /* \"#utility.yul\":13554:13558   */\n      dup9\n        /* \"#utility.yul\":13547:13583   */\n      sstore\n        /* \"#utility.yul\":12928:13593   */\n      pop\n      pop\n      pop\n        /* \"#utility.yul\":12891:13832   */\n    tag_293:\n      pop\n        /* \"#utility.yul\":12476:13838   */\n      pop\n      pop\n      pop\n        /* \"#utility.yul\":12387:13838   */\n      pop\n      pop\n    tag_286:\n      jump\t// out\n        /* \"#utility.yul\":13844:13992   */\n    tag_139:\n        /* \"#utility.yul\":13946:13957   */\n      0x00\n        /* \"#utility.yul\":13983:13986   */\n      dup2\n        /* \"#utility.yul\":13968:13986   */\n      swap1\n      pop\n        /* \"#utility.yul\":13844:13992   */\n      swap3\n      swap2\n      pop\n      pop\n      jump\t// out\n        /* \"#utility.yul\":13998:14388   */\n    tag_140:\n        /* \"#utility.yul\":14104:14107   */\n      0x00\n        /* \"#utility.yul\":14132:14171   */\n      tag_306\n        /* \"#utility.yul\":14165:14170   */\n      dup3\n        /* \"#utility.yul\":14132:14171   */\n      tag_117\n      jump\t// in\n    tag_306:\n        /* \"#utility.yul\":14187:14276   */\n      tag_307\n        /* \"#utility.yul\":14269:14275   */\n      dup2\n        /* \"#utility.yul\":14264:14267   */\n      dup6\n        /* \"#utility.yul\":14187:14276   */\n      tag_139\n      jump\t// in\n    tag_307:\n        /* \"#utility.yul\":14180:14276   */\n      swap4\n      pop\n        /* \"#utility.yul\":14285:14350   */\n      tag_308\n        /* \"#utility.yul\":14343:14349   */\n      dup2\n        /* \"#utility.yul\":14338:14341   */\n      dup6\n        /* \"#utility.yul\":14331:14335   */\n      0x20\n        /* \"#utility.yul\":14324:14329   */\n      dup7\n        /* \"#utility.yul\":14320:14336   */\n      add\n        /* \"#utility.yul\":14285:14350   */\n      tag_119\n      jump\t// in\n    tag_308:\n        /* \"#utility.yul\":14375:14381   */\n      dup1\n        /* \"#utility.yul\":14370:14373   */\n      dup5\n        /* \"#utility.yul\":14366:14382   */\n      add\n        /* \"#utility.yul\":14359:14382   */\n      swap2\n      pop\n        /* \"#utility.yul\":14108:14388   */\n      pop\n        /* \"#utility.yul\":13998:14388   */\n      swap3\n      swap2\n      pop\n      pop\n      jump\t// out\n        /* \"#utility.yul\":14394:14669   */\n    tag_82:\n        /* \"#utility.yul\":14526:14529   */\n      0x00\n        /* \"#utility.yul\":14548:14643   */\n      tag_310\n        /* \"#utility.yul\":14639:14642   */\n      dup3\n        /* \"#utility.yul\":14630:14636   */\n      dup5\n        /* \"#utility.yul\":14548:14643   */\n      tag_140\n      jump\t// in\n    tag_310:\n        /* \"#utility.yul\":14541:14643   */\n      swap2\n      pop\n        /* \"#utility.yul\":14660:14663   */\n      dup2\n        /* \"#utility.yul\":14653:14663   */\n      swap1\n      pop\n        /* \"#utility.yul\":14394:14669   */\n      swap3\n      swap2\n      pop\n      pop\n      jump\t// out\n\n    auxdata: 0xa2646970667358221220ba717667495957d3fc6183a4a721ea176d8c43962b72fa08bac9f21deb03a5bd64736f6c634300081a0033\n}\n",
				"bytecode": {
					"linkReferences": {},
					"object": "608060405260405180606001604052806040518060400160405280600481526020017f416a6179000000000000000000000000000000000000000000000000000000008152508152602001601581526020016001151581525060015f820151815f01908161006d919061040d565b50602082015181600101556040820151816002015f6101000a81548160ff021916908315150217905550505060405180606001604052806040518060400160405280600581526020017f56696a61790000000000000000000000000000000000000000000000000000008152508152602001600781526020016001151581525060045f820151815f019081610102919061040d565b50602082015181600101556040820151816002015f6101000a81548160ff021916908315150217905550505060405180606001604052806040518060400160405280600581526020017f506f6f6a610000000000000000000000000000000000000000000000000000008152508152602001600b81526020015f151581525060075f820151815f019081610196919061040d565b50602082015181600101556040820151816002015f6101000a81548160ff02191690831515021790555050503480156101cd575f80fd5b506104dc565b5f81519050919050565b7f4e487b71000000000000000000000000000000000000000000000000000000005f52604160045260245ffd5b7f4e487b71000000000000000000000000000000000000000000000000000000005f52602260045260245ffd5b5f600282049050600182168061024e57607f821691505b6020821081036102615761026061020a565b5b50919050565b5f819050815f5260205f209050919050565b5f6020601f8301049050919050565b5f82821b905092915050565b5f600883026102c37fffffffffffffffffffffffffffffffffffffffffffffffffffffffffffffffff82610288565b6102cd8683610288565b95508019841693508086168417925050509392505050565b5f819050919050565b5f819050919050565b5f61031161030c610307846102e5565b6102ee565b6102e5565b9050919050565b5f819050919050565b61032a836102f7565b61033e61033682610318565b848454610294565b825550505050565b5f90565b610352610346565b61035d818484610321565b505050565b5b81811015610380576103755f8261034a565b600181019050610363565b5050565b601f8211156103c55761039681610267565b61039f84610279565b810160208510156103ae578190505b6103c26103ba85610279565b830182610362565b50505b505050565b5f82821c905092915050565b5f6103e55f19846008026103ca565b1980831691505092915050565b5f6103fd83836103d6565b9150826002028217905092915050565b610416826101d3565b67ffffffffffffffff81111561042f5761042e6101dd565b5b6104398254610237565b610444828285610384565b5f60209050601f831160018114610475575f8415610463578287015190505b61046d85826103f2565b8655506104d4565b601f19841661048386610267565b5f5b828110156104aa57848901518255600182019150602085019450602081019050610485565b868310156104c757848901516104c3601f8916826103d6565b8355505b6001600288020188555050505b505050505050565b610f4b806104e95f395ff3fe608060405234801561000f575f80fd5b50600436106100a7575f3560e01c8063471f7cdf1161006f578063471f7cdf1461014357806350d4da59146101615780636057361d1461017d578063701b6494146101995780638a1a8bbf146101b9578063ed17db49146101eb576100a7565b8063032ce9aa146100ab5780630636f42f146100c757806308839f9a146100e55780632e64cec11461010557806330af0a9814610123575b5f80fd5b6100c560048036038101906100c091906108f7565b61021b565b005b6100cf610405565b6040516100dc9190610972565b60405180910390f35b6100ed61040d565b6040516100fc939291906109fa565b60405180910390f35b61010d6104b6565b60405161011a9190610972565b60405180910390f35b61012b6104be565b60405161013a939291906109fa565b60405180910390f35b61014b610567565b6040516101589190610972565b60405180910390f35b61017b60048036038101906101769190610a36565b61056c565b005b61019760048036038101906101929190610a90565b610593565b005b6101a16105a5565b6040516101b0939291906109fa565b60405180910390f35b6101d360048036038101906101ce9190610a90565b61064e565b6040516101e2939291906109fa565b60405180910390f35b61020560048036038101906102009190610abb565b610715565b6040516102129190610972565b60405180910390f35b5f60405180606001604052808581526020018481526020018315158152509050600a81908060018154018082558091505060019003905f5260205f2090600302015f909190919091505f820151815f0190816102779190610cfc565b50602082015181600101556040820151816002015f6101000a81548160ff0219169083151502179055505050600a6001908060018154018082558091505060019003905f5260205f2090600302015f909190919091505f8201815f0190816102df9190610de0565b5060018201548160010155600282015f9054906101000a900460ff16816002015f6101000a81548160ff0219169083151502179055505050600a6004908060018154018082558091505060019003905f5260205f2090600302015f909190919091505f8201815f0190816103539190610de0565b5060018201548160010155600282015f9054906101000a900460ff16816002015f6101000a81548160ff0219169083151502179055505050600a6007908060018154018082558091505060019003905f5260205f2090600302015f909190919091505f8201815f0190816103c79190610de0565b5060018201548160010155600282015f9054906101000a900460ff16816002015f6101000a81548160ff021916908315150217905550505050505050565b5f6007905090565b6001805f01805461041d90610b2f565b80601f016020809104026020016040519081016040528092919081815260200182805461044990610b2f565b80156104945780601f1061046b57610100808354040283529160200191610494565b820191905f5260205f20905b81548152906001019060200180831161047757829003601f168201915b505050505090806001015490806002015f9054906101000a900460ff16905083565b5f8054905090565b6007805f0180546104ce90610b2f565b80601f01602080910402602001604051908101604052809291908181526020018280546104fa90610b2f565b80156105455780601f1061051c57610100808354040283529160200191610545565b820191905f5260205f20905b81548152906001019060200180831161052857829003601f168201915b505050505090806001015490806002015f9054906101000a900460ff16905083565b5f5481565b80600b8360405161057d9190610eff565b9081526020016040518091039020819055505050565b805f819055506105a1610405565b5050565b6004805f0180546105b590610b2f565b80601f01602080910402602001604051908101604052809291908181526020018280546105e190610b2f565b801561062c5780601f106106035761010080835404028352916020019161062c565b820191905f5260205f20905b81548152906001019060200180831161060f57829003601f168201915b505050505090806001015490806002015f9054906101000a900460ff16905083565b600a818154811061065d575f80fd5b905f5260205f2090600302015f91509050805f01805461067c90610b2f565b80601f01602080910402602001604051908101604052809291908181526020018280546106a890610b2f565b80156106f35780601f106106ca576101008083540402835291602001916106f3565b820191905f5260205f20905b8154815290600101906020018083116106d657829003601f168201915b505050505090806001015490806002015f9054906101000a900460ff16905083565b600b818051602081018201805184825260208301602085012081835280955050505050505f915090505481565b5f604051905090565b5f80fd5b5f80fd5b5f80fd5b5f80fd5b5f601f19601f8301169050919050565b7f4e487b71000000000000000000000000000000000000000000000000000000005f52604160045260245ffd5b6107a18261075b565b810181811067ffffffffffffffff821117156107c0576107bf61076b565b5b80604052505050565b5f6107d2610742565b90506107de8282610798565b919050565b5f67ffffffffffffffff8211156107fd576107fc61076b565b5b6108068261075b565b9050602081019050919050565b828183375f83830152505050565b5f61083361082e846107e3565b6107c9565b90508281526020810184848401111561084f5761084e610757565b5b61085a848285610813565b509392505050565b5f82601f83011261087657610875610753565b5b8135610886848260208601610821565b91505092915050565b5f819050919050565b6108a18161088f565b81146108ab575f80fd5b50565b5f813590506108bc81610898565b92915050565b5f8115159050919050565b6108d6816108c2565b81146108e0575f80fd5b50565b5f813590506108f1816108cd565b92915050565b5f805f6060848603121561090e5761090d61074b565b5b5f84013567ffffffffffffffff81111561092b5761092a61074f565b5b61093786828701610862565b9350506020610948868287016108ae565b9250506040610959868287016108e3565b9150509250925092565b61096c8161088f565b82525050565b5f6020820190506109855f830184610963565b92915050565b5f81519050919050565b5f82825260208201905092915050565b8281835e5f83830152505050565b5f6109bd8261098b565b6109c78185610995565b93506109d78185602086016109a5565b6109e08161075b565b840191505092915050565b6109f4816108c2565b82525050565b5f6060820190508181035f830152610a1281866109b3565b9050610a216020830185610963565b610a2e60408301846109eb565b949350505050565b5f8060408385031215610a4c57610a4b61074b565b5b5f83013567ffffffffffffffff811115610a6957610a6861074f565b5b610a7585828601610862565b9250506020610a86858286016108ae565b9150509250929050565b5f60208284031215610aa557610aa461074b565b5b5f610ab2848285016108ae565b91505092915050565b5f60208284031215610ad057610acf61074b565b5b5f82013567ffffffffffffffff811115610aed57610aec61074f565b5b610af984828501610862565b91505092915050565b7f4e487b71000000000000000000000000000000000000000000000000000000005f52602260045260245ffd5b5f6002820490506001821680610b4657607f821691505b602082108103610b5957610b58610b02565b5b50919050565b5f819050815f5260205f209050919050565b5f6020601f8301049050919050565b5f82821b905092915050565b5f60088302610bbb7fffffffffffffffffffffffffffffffffffffffffffffffffffffffffffffffff82610b80565b610bc58683610b80565b95508019841693508086168417925050509392505050565b5f819050919050565b5f610c00610bfb610bf68461088f565b610bdd565b61088f565b9050919050565b5f819050919050565b610c1983610be6565b610c2d610c2582610c07565b848454610b8c565b825550505050565b5f90565b610c41610c35565b610c4c818484610c10565b505050565b5b81811015610c6f57610c645f82610c39565b600181019050610c52565b5050565b601f821115610cb457610c8581610b5f565b610c8e84610b71565b81016020851015610c9d578190505b610cb1610ca985610b71565b830182610c51565b50505b505050565b5f82821c905092915050565b5f610cd45f1984600802610cb9565b1980831691505092915050565b5f610cec8383610cc5565b9150826002028217905092915050565b610d058261098b565b67ffffffffffffffff811115610d1e57610d1d61076b565b5b610d288254610b2f565b610d33828285610c73565b5f60209050601f831160018114610d64575f8415610d52578287015190505b610d5c8582610ce1565b865550610dc3565b601f198416610d7286610b5f565b5f5b82811015610d9957848901518255600182019150602085019450602081019050610d74565b86831015610db65784890151610db2601f891682610cc5565b8355505b6001600288020188555050505b505050505050565b5f81549050610dd981610b2f565b9050919050565b818103610dee575050610ec3565b610df782610dcb565b67ffffffffffffffff811115610e1057610e0f61076b565b5b610e1a8254610b2f565b610e25828285610c73565b5f601f831160018114610e52575f8415610e40578287015490505b610e4a8582610ce1565b865550610ebc565b601f198416610e6087610b5f565b9650610e6b86610b5f565b5f5b82811015610e9257848901548255600182019150600185019450602081019050610e6d565b86831015610eaf5784890154610eab601f891682610cc5565b8355505b6001600288020188555050505b5050505050505b565b5f81905092915050565b5f610ed98261098b565b610ee38185610ec5565b9350610ef38185602086016109a5565b80840191505092915050565b5f610f0a8284610ecf565b91508190509291505056fea2646970667358221220ba717667495957d3fc6183a4a721ea176d8c43962b72fa08bac9f21deb03a5bd64736f6c634300081a0033",
					"opcodes": "PUSH1 0x80 PUSH1 0x40 MSTORE PUSH1 0x40 MLOAD DUP1 PUSH1 0x60 ADD PUSH1 0x40 MSTORE DUP1 PUSH1 0x40 MLOAD DUP1 PUSH1 0x40 ADD PUSH1 0x40 MSTORE DUP1 PUSH1 0x4 DUP2 MSTORE PUSH1 0x20 ADD PUSH32 0x416A617900000000000000000000000000000000000000000000000000000000 DUP2 MSTORE POP DUP2 MSTORE PUSH1 0x20 ADD PUSH1 0x15 DUP2 MSTORE PUSH1 0x20 ADD PUSH1 0x1 ISZERO ISZERO DUP2 MSTORE POP PUSH1 0x1 PUSH0 DUP3 ADD MLOAD DUP2 PUSH0 ADD SWAP1 DUP2 PUSH2 0x6D SWAP2 SWAP1 PUSH2 0x40D JUMP JUMPDEST POP PUSH1 0x20 DUP3 ADD MLOAD DUP2 PUSH1 0x1 ADD SSTORE PUSH1 0x40 DUP3 ADD MLOAD DUP2 PUSH1 0x2 ADD PUSH0 PUSH2 0x100 EXP DUP2 SLOAD DUP2 PUSH1 0xFF MUL NOT AND SWAP1 DUP4 ISZERO ISZERO MUL OR SWAP1 SSTORE POP POP POP PUSH1 0x40 MLOAD DUP1 PUSH1 0x60 ADD PUSH1 0x40 MSTORE DUP1 PUSH1 0x40 MLOAD DUP1 PUSH1 0x40 ADD PUSH1 0x40 MSTORE DUP1 PUSH1 0x5 DUP2 MSTORE PUSH1 0x20 ADD PUSH32 0x56696A6179000000000000000000000000000000000000000000000000000000 DUP2 MSTORE POP DUP2 MSTORE PUSH1 0x20 ADD PUSH1 0x7 DUP2 MSTORE PUSH1 0x20 ADD PUSH1 0x1 ISZERO ISZERO DUP2 MSTORE POP PUSH1 0x4 PUSH0 DUP3 ADD MLOAD DUP2 PUSH0 ADD SWAP1 DUP2 PUSH2 0x102 SWAP2 SWAP1 PUSH2 0x40D JUMP JUMPDEST POP PUSH1 0x20 DUP3 ADD MLOAD DUP2 PUSH1 0x1 ADD SSTORE PUSH1 0x40 DUP3 ADD MLOAD DUP2 PUSH1 0x2 ADD PUSH0 PUSH2 0x100 EXP DUP2 SLOAD DUP2 PUSH1 0xFF MUL NOT AND SWAP1 DUP4 ISZERO ISZERO MUL OR SWAP1 SSTORE POP POP POP PUSH1 0x40 MLOAD DUP1 PUSH1 0x60 ADD PUSH1 0x40 MSTORE DUP1 PUSH1 0x40 MLOAD DUP1 PUSH1 0x40 ADD PUSH1 0x40 MSTORE DUP1 PUSH1 0x5 DUP2 MSTORE PUSH1 0x20 ADD PUSH32 0x506F6F6A61000000000000000000000000000000000000000000000000000000 DUP2 MSTORE POP DUP2 MSTORE PUSH1 0x20 ADD PUSH1 0xB DUP2 MSTORE PUSH1 0x20 ADD PUSH0 ISZERO ISZERO DUP2 MSTORE POP PUSH1 0x7 PUSH0 DUP3 ADD MLOAD DUP2 PUSH0 ADD SWAP1 DUP2 PUSH2 0x196 SWAP2 SWAP1 PUSH2 0x40D JUMP JUMPDEST POP PUSH1 0x20 DUP3 ADD MLOAD DUP2 PUSH1 0x1 ADD SSTORE PUSH1 0x40 DUP3 ADD MLOAD DUP2 PUSH1 0x2 ADD PUSH0 PUSH2 0x100 EXP DUP2 SLOAD DUP2 PUSH1 0xFF MUL NOT AND SWAP1 DUP4 ISZERO ISZERO MUL OR SWAP1 SSTORE POP POP POP CALLVALUE DUP1 ISZERO PUSH2 0x1CD JUMPI PUSH0 DUP1 REVERT JUMPDEST POP PUSH2 0x4DC JUMP JUMPDEST PUSH0 DUP2 MLOAD SWAP1 POP SWAP2 SWAP1 POP JUMP JUMPDEST PUSH32 0x4E487B7100000000000000000000000000000000000000000000000000000000 PUSH0 MSTORE PUSH1 0x41 PUSH1 0x4 MSTORE PUSH1 0x24 PUSH0 REVERT JUMPDEST PUSH32 0x4E487B7100000000000000000000000000000000000000000000000000000000 PUSH0 MSTORE PUSH1 0x22 PUSH1 0x4 MSTORE PUSH1 0x24 PUSH0 REVERT JUMPDEST PUSH0 PUSH1 0x2 DUP3 DIV SWAP1 POP PUSH1 0x1 DUP3 AND DUP1 PUSH2 0x24E JUMPI PUSH1 0x7F DUP3 AND SWAP2 POP JUMPDEST PUSH1 0x20 DUP3 LT DUP2 SUB PUSH2 0x261 JUMPI PUSH2 0x260 PUSH2 0x20A JUMP JUMPDEST JUMPDEST POP SWAP2 SWAP1 POP JUMP JUMPDEST PUSH0 DUP2 SWAP1 POP DUP2 PUSH0 MSTORE PUSH1 0x20 PUSH0 KECCAK256 SWAP1 POP SWAP2 SWAP1 POP JUMP JUMPDEST PUSH0 PUSH1 0x20 PUSH1 0x1F DUP4 ADD DIV SWAP1 POP SWAP2 SWAP1 POP JUMP JUMPDEST PUSH0 DUP3 DUP3 SHL SWAP1 POP SWAP3 SWAP2 POP POP JUMP JUMPDEST PUSH0 PUSH1 0x8 DUP4 MUL PUSH2 0x2C3 PUSH32 0xFFFFFFFFFFFFFFFFFFFFFFFFFFFFFFFFFFFFFFFFFFFFFFFFFFFFFFFFFFFFFFFF DUP3 PUSH2 0x288 JUMP JUMPDEST PUSH2 0x2CD DUP7 DUP4 PUSH2 0x288 JUMP JUMPDEST SWAP6 POP DUP1 NOT DUP5 AND SWAP4 POP DUP1 DUP7 AND DUP5 OR SWAP3 POP POP POP SWAP4 SWAP3 POP POP POP JUMP JUMPDEST PUSH0 DUP2 SWAP1 POP SWAP2 SWAP1 POP JUMP JUMPDEST PUSH0 DUP2 SWAP1 POP SWAP2 SWAP1 POP JUMP JUMPDEST PUSH0 PUSH2 0x311 PUSH2 0x30C PUSH2 0x307 DUP5 PUSH2 0x2E5 JUMP JUMPDEST PUSH2 0x2EE JUMP JUMPDEST PUSH2 0x2E5 JUMP JUMPDEST SWAP1 POP SWAP2 SWAP1 POP JUMP JUMPDEST PUSH0 DUP2 SWAP1 POP SWAP2 SWAP1 POP JUMP JUMPDEST PUSH2 0x32A DUP4 PUSH2 0x2F7 JUMP JUMPDEST PUSH2 0x33E PUSH2 0x336 DUP3 PUSH2 0x318 JUMP JUMPDEST DUP5 DUP5 SLOAD PUSH2 0x294 JUMP JUMPDEST DUP3 SSTORE POP POP POP POP JUMP JUMPDEST PUSH0 SWAP1 JUMP JUMPDEST PUSH2 0x352 PUSH2 0x346 JUMP JUMPDEST PUSH2 0x35D DUP2 DUP5 DUP5 PUSH2 0x321 JUMP JUMPDEST POP POP POP JUMP JUMPDEST JUMPDEST DUP2 DUP2 LT ISZERO PUSH2 0x380 JUMPI PUSH2 0x375 PUSH0 DUP3 PUSH2 0x34A JUMP JUMPDEST PUSH1 0x1 DUP2 ADD SWAP1 POP PUSH2 0x363 JUMP JUMPDEST POP POP JUMP JUMPDEST PUSH1 0x1F DUP3 GT ISZERO PUSH2 0x3C5 JUMPI PUSH2 0x396 DUP2 PUSH2 0x267 JUMP JUMPDEST PUSH2 0x39F DUP5 PUSH2 0x279 JUMP JUMPDEST DUP2 ADD PUSH1 0x20 DUP6 LT ISZERO PUSH2 0x3AE JUMPI DUP2 SWAP1 POP JUMPDEST PUSH2 0x3C2 PUSH2 0x3BA DUP6 PUSH2 0x279 JUMP JUMPDEST DUP4 ADD DUP3 PUSH2 0x362 JUMP JUMPDEST POP POP JUMPDEST POP POP POP JUMP JUMPDEST PUSH0 DUP3 DUP3 SHR SWAP1 POP SWAP3 SWAP2 POP POP JUMP JUMPDEST PUSH0 PUSH2 0x3E5 PUSH0 NOT DUP5 PUSH1 0x8 MUL PUSH2 0x3CA JUMP JUMPDEST NOT DUP1 DUP4 AND SWAP2 POP POP SWAP3 SWAP2 POP POP JUMP JUMPDEST PUSH0 PUSH2 0x3FD DUP4 DUP4 PUSH2 0x3D6 JUMP JUMPDEST SWAP2 POP DUP3 PUSH1 0x2 MUL DUP3 OR SWAP1 POP SWAP3 SWAP2 POP POP JUMP JUMPDEST PUSH2 0x416 DUP3 PUSH2 0x1D3 JUMP JUMPDEST PUSH8 0xFFFFFFFFFFFFFFFF DUP2 GT ISZERO PUSH2 0x42F JUMPI PUSH2 0x42E PUSH2 0x1DD JUMP JUMPDEST JUMPDEST PUSH2 0x439 DUP3 SLOAD PUSH2 0x237 JUMP JUMPDEST PUSH2 0x444 DUP3 DUP3 DUP6 PUSH2 0x384 JUMP JUMPDEST PUSH0 PUSH1 0x20 SWAP1 POP PUSH1 0x1F DUP4 GT PUSH1 0x1 DUP2 EQ PUSH2 0x475 JUMPI PUSH0 DUP5 ISZERO PUSH2 0x463 JUMPI DUP3 DUP8 ADD MLOAD SWAP1 POP JUMPDEST PUSH2 0x46D DUP6 DUP3 PUSH2 0x3F2 JUMP JUMPDEST DUP7 SSTORE POP PUSH2 0x4D4 JUMP JUMPDEST PUSH1 0x1F NOT DUP5 AND PUSH2 0x483 DUP7 PUSH2 0x267 JUMP JUMPDEST PUSH0 JUMPDEST DUP3 DUP2 LT ISZERO PUSH2 0x4AA JUMPI DUP5 DUP10 ADD MLOAD DUP3 SSTORE PUSH1 0x1 DUP3 ADD SWAP2 POP PUSH1 0x20 DUP6 ADD SWAP5 POP PUSH1 0x20 DUP2 ADD SWAP1 POP PUSH2 0x485 JUMP JUMPDEST DUP7 DUP4 LT ISZERO PUSH2 0x4C7 JUMPI DUP5 DUP10 ADD MLOAD PUSH2 0x4C3 PUSH1 0x1F DUP10 AND DUP3 PUSH2 0x3D6 JUMP JUMPDEST DUP4 SSTORE POP JUMPDEST PUSH1 0x1 PUSH1 0x2 DUP9 MUL ADD DUP9 SSTORE POP POP POP JUMPDEST POP POP POP POP POP POP JUMP JUMPDEST PUSH2 0xF4B DUP1 PUSH2 0x4E9 PUSH0 CODECOPY PUSH0 RETURN INVALID PUSH1 0x80 PUSH1 0x40 MSTORE CALLVALUE DUP1 ISZERO PUSH2 0xF JUMPI PUSH0 DUP1 REVERT JUMPDEST POP PUSH1 0x4 CALLDATASIZE LT PUSH2 0xA7 JUMPI PUSH0 CALLDATALOAD PUSH1 0xE0 SHR DUP1 PUSH4 0x471F7CDF GT PUSH2 0x6F JUMPI DUP1 PUSH4 0x471F7CDF EQ PUSH2 0x143 JUMPI DUP1 PUSH4 0x50D4DA59 EQ PUSH2 0x161 JUMPI DUP1 PUSH4 0x6057361D EQ PUSH2 0x17D JUMPI DUP1 PUSH4 0x701B6494 EQ PUSH2 0x199 JUMPI DUP1 PUSH4 0x8A1A8BBF EQ PUSH2 0x1B9 JUMPI DUP1 PUSH4 0xED17DB49 EQ PUSH2 0x1EB JUMPI PUSH2 0xA7 JUMP JUMPDEST DUP1 PUSH4 0x32CE9AA EQ PUSH2 0xAB JUMPI DUP1 PUSH4 0x636F42F EQ PUSH2 0xC7 JUMPI DUP1 PUSH4 0x8839F9A EQ PUSH2 0xE5 JUMPI DUP1 PUSH4 0x2E64CEC1 EQ PUSH2 0x105 JUMPI DUP1 PUSH4 0x30AF0A98 EQ PUSH2 0x123 JUMPI JUMPDEST PUSH0 DUP1 REVERT JUMPDEST PUSH2 0xC5 PUSH1 0x4 DUP1 CALLDATASIZE SUB DUP2 ADD SWAP1 PUSH2 0xC0 SWAP2 SWAP1 PUSH2 0x8F7 JUMP JUMPDEST PUSH2 0x21B JUMP JUMPDEST STOP JUMPDEST PUSH2 0xCF PUSH2 0x405 JUMP JUMPDEST PUSH1 0x40 MLOAD PUSH2 0xDC SWAP2 SWAP1 PUSH2 0x972 JUMP JUMPDEST PUSH1 0x40 MLOAD DUP1 SWAP2 SUB SWAP1 RETURN JUMPDEST PUSH2 0xED PUSH2 0x40D JUMP JUMPDEST PUSH1 0x40 MLOAD PUSH2 0xFC SWAP4 SWAP3 SWAP2 SWAP1 PUSH2 0x9FA JUMP JUMPDEST PUSH1 0x40 MLOAD DUP1 SWAP2 SUB SWAP1 RETURN JUMPDEST PUSH2 0x10D PUSH2 0x4B6 JUMP JUMPDEST PUSH1 0x40 MLOAD PUSH2 0x11A SWAP2 SWAP1 PUSH2 0x972 JUMP JUMPDEST PUSH1 0x40 MLOAD DUP1 SWAP2 SUB SWAP1 RETURN JUMPDEST PUSH2 0x12B PUSH2 0x4BE JUMP JUMPDEST PUSH1 0x40 MLOAD PUSH2 0x13A SWAP4 SWAP3 SWAP2 SWAP1 PUSH2 0x9FA JUMP JUMPDEST PUSH1 0x40 MLOAD DUP1 SWAP2 SUB SWAP1 RETURN JUMPDEST PUSH2 0x14B PUSH2 0x567 JUMP JUMPDEST PUSH1 0x40 MLOAD PUSH2 0x158 SWAP2 SWAP1 PUSH2 0x972 JUMP JUMPDEST PUSH1 0x40 MLOAD DUP1 SWAP2 SUB SWAP1 RETURN JUMPDEST PUSH2 0x17B PUSH1 0x4 DUP1 CALLDATASIZE SUB DUP2 ADD SWAP1 PUSH2 0x176 SWAP2 SWAP1 PUSH2 0xA36 JUMP JUMPDEST PUSH2 0x56C JUMP JUMPDEST STOP JUMPDEST PUSH2 0x197 PUSH1 0x4 DUP1 CALLDATASIZE SUB DUP2 ADD SWAP1 PUSH2 0x192 SWAP2 SWAP1 PUSH2 0xA90 JUMP JUMPDEST PUSH2 0x593 JUMP JUMPDEST STOP JUMPDEST PUSH2 0x1A1 PUSH2 0x5A5 JUMP JUMPDEST PUSH1 0x40 MLOAD PUSH2 0x1B0 SWAP4 SWAP3 SWAP2 SWAP1 PUSH2 0x9FA JUMP JUMPDEST PUSH1 0x40 MLOAD DUP1 SWAP2 SUB SWAP1 RETURN JUMPDEST PUSH2 0x1D3 PUSH1 0x4 DUP1 CALLDATASIZE SUB DUP2 ADD SWAP1 PUSH2 0x1CE SWAP2 SWAP1 PUSH2 0xA90 JUMP JUMPDEST PUSH2 0x64E JUMP JUMPDEST PUSH1 0x40 MLOAD PUSH2 0x1E2 SWAP4 SWAP3 SWAP2 SWAP1 PUSH2 0x9FA JUMP JUMPDEST PUSH1 0x40 MLOAD DUP1 SWAP2 SUB SWAP1 RETURN JUMPDEST PUSH2 0x205 PUSH1 0x4 DUP1 CALLDATASIZE SUB DUP2 ADD SWAP1 PUSH2 0x200 SWAP2 SWAP1 PUSH2 0xABB JUMP JUMPDEST PUSH2 0x715 JUMP JUMPDEST PUSH1 0x40 MLOAD PUSH2 0x212 SWAP2 SWAP1 PUSH2 0x972 JUMP JUMPDEST PUSH1 0x40 MLOAD DUP1 SWAP2 SUB SWAP1 RETURN JUMPDEST PUSH0 PUSH1 0x40 MLOAD DUP1 PUSH1 0x60 ADD PUSH1 0x40 MSTORE DUP1 DUP6 DUP2 MSTORE PUSH1 0x20 ADD DUP5 DUP2 MSTORE PUSH1 0x20 ADD DUP4 ISZERO ISZERO DUP2 MSTORE POP SWAP1 POP PUSH1 0xA DUP2 SWAP1 DUP1 PUSH1 0x1 DUP2 SLOAD ADD DUP1 DUP3 SSTORE DUP1 SWAP2 POP POP PUSH1 0x1 SWAP1 SUB SWAP1 PUSH0 MSTORE PUSH1 0x20 PUSH0 KECCAK256 SWAP1 PUSH1 0x3 MUL ADD PUSH0 SWAP1 SWAP2 SWAP1 SWAP2 SWAP1 SWAP2 POP PUSH0 DUP3 ADD MLOAD DUP2 PUSH0 ADD SWAP1 DUP2 PUSH2 0x277 SWAP2 SWAP1 PUSH2 0xCFC JUMP JUMPDEST POP PUSH1 0x20 DUP3 ADD MLOAD DUP2 PUSH1 0x1 ADD SSTORE PUSH1 0x40 DUP3 ADD MLOAD DUP2 PUSH1 0x2 ADD PUSH0 PUSH2 0x100 EXP DUP2 SLOAD DUP2 PUSH1 0xFF MUL NOT AND SWAP1 DUP4 ISZERO ISZERO MUL OR SWAP1 SSTORE POP POP POP PUSH1 0xA PUSH1 0x1 SWAP1 DUP1 PUSH1 0x1 DUP2 SLOAD ADD DUP1 DUP3 SSTORE DUP1 SWAP2 POP POP PUSH1 0x1 SWAP1 SUB SWAP1 PUSH0 MSTORE PUSH1 0x20 PUSH0 KECCAK256 SWAP1 PUSH1 0x3 MUL ADD PUSH0 SWAP1 SWAP2 SWAP1 SWAP2 SWAP1 SWAP2 POP PUSH0 DUP3 ADD DUP2 PUSH0 ADD SWAP1 DUP2 PUSH2 0x2DF SWAP2 SWAP1 PUSH2 0xDE0 JUMP JUMPDEST POP PUSH1 0x1 DUP3 ADD SLOAD DUP2 PUSH1 0x1 ADD SSTORE PUSH1 0x2 DUP3 ADD PUSH0 SWAP1 SLOAD SWAP1 PUSH2 0x100 EXP SWAP1 DIV PUSH1 0xFF AND DUP2 PUSH1 0x2 ADD PUSH0 PUSH2 0x100 EXP DUP2 SLOAD DUP2 PUSH1 0xFF MUL NOT AND SWAP1 DUP4 ISZERO ISZERO MUL OR SWAP1 SSTORE POP POP POP PUSH1 0xA PUSH1 0x4 SWAP1 DUP1 PUSH1 0x1 DUP2 SLOAD ADD DUP1 DUP3 SSTORE DUP1 SWAP2 POP POP PUSH1 0x1 SWAP1 SUB SWAP1 PUSH0 MSTORE PUSH1 0x20 PUSH0 KECCAK256 SWAP1 PUSH1 0x3 MUL ADD PUSH0 SWAP1 SWAP2 SWAP1 SWAP2 SWAP1 SWAP2 POP PUSH0 DUP3 ADD DUP2 PUSH0 ADD SWAP1 DUP2 PUSH2 0x353 SWAP2 SWAP1 PUSH2 0xDE0 JUMP JUMPDEST POP PUSH1 0x1 DUP3 ADD SLOAD DUP2 PUSH1 0x1 ADD SSTORE PUSH1 0x2 DUP3 ADD PUSH0 SWAP1 SLOAD SWAP1 PUSH2 0x100 EXP SWAP1 DIV PUSH1 0xFF AND DUP2 PUSH1 0x2 ADD PUSH0 PUSH2 0x100 EXP DUP2 SLOAD DUP2 PUSH1 0xFF MUL NOT AND SWAP1 DUP4 ISZERO ISZERO MUL OR SWAP1 SSTORE POP POP POP PUSH1 0xA PUSH1 0x7 SWAP1 DUP1 PUSH1 0x1 DUP2 SLOAD ADD DUP1 DUP3 SSTORE DUP1 SWAP2 POP POP PUSH1 0x1 SWAP1 SUB SWAP1 PUSH0 MSTORE PUSH1 0x20 PUSH0 KECCAK256 SWAP1 PUSH1 0x3 MUL ADD PUSH0 SWAP1 SWAP2 SWAP1 SWAP2 SWAP1 SWAP2 POP PUSH0 DUP3 ADD DUP2 PUSH0 ADD SWAP1 DUP2 PUSH2 0x3C7 SWAP2 SWAP1 PUSH2 0xDE0 JUMP JUMPDEST POP PUSH1 0x1 DUP3 ADD SLOAD DUP2 PUSH1 0x1 ADD SSTORE PUSH1 0x2 DUP3 ADD PUSH0 SWAP1 SLOAD SWAP1 PUSH2 0x100 EXP SWAP1 DIV PUSH1 0xFF AND DUP2 PUSH1 0x2 ADD PUSH0 PUSH2 0x100 EXP DUP2 SLOAD DUP2 PUSH1 0xFF MUL NOT AND SWAP1 DUP4 ISZERO ISZERO MUL OR SWAP1 SSTORE POP POP POP POP POP POP POP JUMP JUMPDEST PUSH0 PUSH1 0x7 SWAP1 POP SWAP1 JUMP JUMPDEST PUSH1 0x1 DUP1 PUSH0 ADD DUP1 SLOAD PUSH2 0x41D SWAP1 PUSH2 0xB2F JUMP JUMPDEST DUP1 PUSH1 0x1F ADD PUSH1 0x20 DUP1 SWAP2 DIV MUL PUSH1 0x20 ADD PUSH1 0x40 MLOAD SWAP1 DUP2 ADD PUSH1 0x40 MSTORE DUP1 SWAP3 SWAP2 SWAP1 DUP2 DUP2 MSTORE PUSH1 0x20 ADD DUP3 DUP1 SLOAD PUSH2 0x449 SWAP1 PUSH2 0xB2F JUMP JUMPDEST DUP1 ISZERO PUSH2 0x494 JUMPI DUP1 PUSH1 0x1F LT PUSH2 0x46B JUMPI PUSH2 0x100 DUP1 DUP4 SLOAD DIV MUL DUP4 MSTORE SWAP2 PUSH1 0x20 ADD SWAP2 PUSH2 0x494 JUMP JUMPDEST DUP3 ADD SWAP2 SWAP1 PUSH0 MSTORE PUSH1 0x20 PUSH0 KECCAK256 SWAP1 JUMPDEST DUP2 SLOAD DUP2 MSTORE SWAP1 PUSH1 0x1 ADD SWAP1 PUSH1 0x20 ADD DUP1 DUP4 GT PUSH2 0x477 JUMPI DUP3 SWAP1 SUB PUSH1 0x1F AND DUP3 ADD SWAP2 JUMPDEST POP POP POP POP POP SWAP1 DUP1 PUSH1 0x1 ADD SLOAD SWAP1 DUP1 PUSH1 0x2 ADD PUSH0 SWAP1 SLOAD SWAP1 PUSH2 0x100 EXP SWAP1 DIV PUSH1 0xFF AND SWAP1 POP DUP4 JUMP JUMPDEST PUSH0 DUP1 SLOAD SWAP1 POP SWAP1 JUMP JUMPDEST PUSH1 0x7 DUP1 PUSH0 ADD DUP1 SLOAD PUSH2 0x4CE SWAP1 PUSH2 0xB2F JUMP JUMPDEST DUP1 PUSH1 0x1F ADD PUSH1 0x20 DUP1 SWAP2 DIV MUL PUSH1 0x20 ADD PUSH1 0x40 MLOAD SWAP1 DUP2 ADD PUSH1 0x40 MSTORE DUP1 SWAP3 SWAP2 SWAP1 DUP2 DUP2 MSTORE PUSH1 0x20 ADD DUP3 DUP1 SLOAD PUSH2 0x4FA SWAP1 PUSH2 0xB2F JUMP JUMPDEST DUP1 ISZERO PUSH2 0x545 JUMPI DUP1 PUSH1 0x1F LT PUSH2 0x51C JUMPI PUSH2 0x100 DUP1 DUP4 SLOAD DIV MUL DUP4 MSTORE SWAP2 PUSH1 0x20 ADD SWAP2 PUSH2 0x545 JUMP JUMPDEST DUP3 ADD SWAP2 SWAP1 PUSH0 MSTORE PUSH1 0x20 PUSH0 KECCAK256 SWAP1 JUMPDEST DUP2 SLOAD DUP2 MSTORE SWAP1 PUSH1 0x1 ADD SWAP1 PUSH1 0x20 ADD DUP1 DUP4 GT PUSH2 0x528 JUMPI DUP3 SWAP1 SUB PUSH1 0x1F AND DUP3 ADD SWAP2 JUMPDEST POP POP POP POP POP SWAP1 DUP1 PUSH1 0x1 ADD SLOAD SWAP1 DUP1 PUSH1 0x2 ADD PUSH0 SWAP1 SLOAD SWAP1 PUSH2 0x100 EXP SWAP1 DIV PUSH1 0xFF AND SWAP1 POP DUP4 JUMP JUMPDEST PUSH0 SLOAD DUP2 JUMP JUMPDEST DUP1 PUSH1 0xB DUP4 PUSH1 0x40 MLOAD PUSH2 0x57D SWAP2 SWAP1 PUSH2 0xEFF JUMP JUMPDEST SWAP1 DUP2 MSTORE PUSH1 0x20 ADD PUSH1 0x40 MLOAD DUP1 SWAP2 SUB SWAP1 KECCAK256 DUP2 SWAP1 SSTORE POP POP POP JUMP JUMPDEST DUP1 PUSH0 DUP2 SWAP1 SSTORE POP PUSH2 0x5A1 PUSH2 0x405 JUMP JUMPDEST POP POP JUMP JUMPDEST PUSH1 0x4 DUP1 PUSH0 ADD DUP1 SLOAD PUSH2 0x5B5 SWAP1 PUSH2 0xB2F JUMP JUMPDEST DUP1 PUSH1 0x1F ADD PUSH1 0x20 DUP1 SWAP2 DIV MUL PUSH1 0x20 ADD PUSH1 0x40 MLOAD SWAP1 DUP2 ADD PUSH1 0x40 MSTORE DUP1 SWAP3 SWAP2 SWAP1 DUP2 DUP2 MSTORE PUSH1 0x20 ADD DUP3 DUP1 SLOAD PUSH2 0x5E1 SWAP1 PUSH2 0xB2F JUMP JUMPDEST DUP1 ISZERO PUSH2 0x62C JUMPI DUP1 PUSH1 0x1F LT PUSH2 0x603 JUMPI PUSH2 0x100 DUP1 DUP4 SLOAD DIV MUL DUP4 MSTORE SWAP2 PUSH1 0x20 ADD SWAP2 PUSH2 0x62C JUMP JUMPDEST DUP3 ADD SWAP2 SWAP1 PUSH0 MSTORE PUSH1 0x20 PUSH0 KECCAK256 SWAP1 JUMPDEST DUP2 SLOAD DUP2 MSTORE SWAP1 PUSH1 0x1 ADD SWAP1 PUSH1 0x20 ADD DUP1 DUP4 GT PUSH2 0x60F JUMPI DUP3 SWAP1 SUB PUSH1 0x1F AND DUP3 ADD SWAP2 JUMPDEST POP POP POP POP POP SWAP1 DUP1 PUSH1 0x1 ADD SLOAD SWAP1 DUP1 PUSH1 0x2 ADD PUSH0 SWAP1 SLOAD SWAP1 PUSH2 0x100 EXP SWAP1 DIV PUSH1 0xFF AND SWAP1 POP DUP4 JUMP JUMPDEST PUSH1 0xA DUP2 DUP2 SLOAD DUP2 LT PUSH2 0x65D JUMPI PUSH0 DUP1 REVERT JUMPDEST SWAP1 PUSH0 MSTORE PUSH1 0x20 PUSH0 KECCAK256 SWAP1 PUSH1 0x3 MUL ADD PUSH0 SWAP2 POP SWAP1 POP DUP1 PUSH0 ADD DUP1 SLOAD PUSH2 0x67C SWAP1 PUSH2 0xB2F JUMP JUMPDEST DUP1 PUSH1 0x1F ADD PUSH1 0x20 DUP1 SWAP2 DIV MUL PUSH1 0x20 ADD PUSH1 0x40 MLOAD SWAP1 DUP2 ADD PUSH1 0x40 MSTORE DUP1 SWAP3 SWAP2 SWAP1 DUP2 DUP2 MSTORE PUSH1 0x20 ADD DUP3 DUP1 SLOAD PUSH2 0x6A8 SWAP1 PUSH2 0xB2F JUMP JUMPDEST DUP1 ISZERO PUSH2 0x6F3 JUMPI DUP1 PUSH1 0x1F LT PUSH2 0x6CA JUMPI PUSH2 0x100 DUP1 DUP4 SLOAD DIV MUL DUP4 MSTORE SWAP2 PUSH1 0x20 ADD SWAP2 PUSH2 0x6F3 JUMP JUMPDEST DUP3 ADD SWAP2 SWAP1 PUSH0 MSTORE PUSH1 0x20 PUSH0 KECCAK256 SWAP1 JUMPDEST DUP2 SLOAD DUP2 MSTORE SWAP1 PUSH1 0x1 ADD SWAP1 PUSH1 0x20 ADD DUP1 DUP4 GT PUSH2 0x6D6 JUMPI DUP3 SWAP1 SUB PUSH1 0x1F AND DUP3 ADD SWAP2 JUMPDEST POP POP POP POP POP SWAP1 DUP1 PUSH1 0x1 ADD SLOAD SWAP1 DUP1 PUSH1 0x2 ADD PUSH0 SWAP1 SLOAD SWAP1 PUSH2 0x100 EXP SWAP1 DIV PUSH1 0xFF AND SWAP1 POP DUP4 JUMP JUMPDEST PUSH1 0xB DUP2 DUP1 MLOAD PUSH1 0x20 DUP2 ADD DUP3 ADD DUP1 MLOAD DUP5 DUP3 MSTORE PUSH1 0x20 DUP4 ADD PUSH1 0x20 DUP6 ADD KECCAK256 DUP2 DUP4 MSTORE DUP1 SWAP6 POP POP POP POP POP POP PUSH0 SWAP2 POP SWAP1 POP SLOAD DUP2 JUMP JUMPDEST PUSH0 PUSH1 0x40 MLOAD SWAP1 POP SWAP1 JUMP JUMPDEST PUSH0 DUP1 REVERT JUMPDEST PUSH0 DUP1 REVERT JUMPDEST PUSH0 DUP1 REVERT JUMPDEST PUSH0 DUP1 REVERT JUMPDEST PUSH0 PUSH1 0x1F NOT PUSH1 0x1F DUP4 ADD AND SWAP1 POP SWAP2 SWAP1 POP JUMP JUMPDEST PUSH32 0x4E487B7100000000000000000000000000000000000000000000000000000000 PUSH0 MSTORE PUSH1 0x41 PUSH1 0x4 MSTORE PUSH1 0x24 PUSH0 REVERT JUMPDEST PUSH2 0x7A1 DUP3 PUSH2 0x75B JUMP JUMPDEST DUP2 ADD DUP2 DUP2 LT PUSH8 0xFFFFFFFFFFFFFFFF DUP3 GT OR ISZERO PUSH2 0x7C0 JUMPI PUSH2 0x7BF PUSH2 0x76B JUMP JUMPDEST JUMPDEST DUP1 PUSH1 0x40 MSTORE POP POP POP JUMP JUMPDEST PUSH0 PUSH2 0x7D2 PUSH2 0x742 JUMP JUMPDEST SWAP1 POP PUSH2 0x7DE DUP3 DUP3 PUSH2 0x798 JUMP JUMPDEST SWAP2 SWAP1 POP JUMP JUMPDEST PUSH0 PUSH8 0xFFFFFFFFFFFFFFFF DUP3 GT ISZERO PUSH2 0x7FD JUMPI PUSH2 0x7FC PUSH2 0x76B JUMP JUMPDEST JUMPDEST PUSH2 0x806 DUP3 PUSH2 0x75B JUMP JUMPDEST SWAP1 POP PUSH1 0x20 DUP2 ADD SWAP1 POP SWAP2 SWAP1 POP JUMP JUMPDEST DUP3 DUP2 DUP4 CALLDATACOPY PUSH0 DUP4 DUP4 ADD MSTORE POP POP POP JUMP JUMPDEST PUSH0 PUSH2 0x833 PUSH2 0x82E DUP5 PUSH2 0x7E3 JUMP JUMPDEST PUSH2 0x7C9 JUMP JUMPDEST SWAP1 POP DUP3 DUP2 MSTORE PUSH1 0x20 DUP2 ADD DUP5 DUP5 DUP5 ADD GT ISZERO PUSH2 0x84F JUMPI PUSH2 0x84E PUSH2 0x757 JUMP JUMPDEST JUMPDEST PUSH2 0x85A DUP5 DUP3 DUP6 PUSH2 0x813 JUMP JUMPDEST POP SWAP4 SWAP3 POP POP POP JUMP JUMPDEST PUSH0 DUP3 PUSH1 0x1F DUP4 ADD SLT PUSH2 0x876 JUMPI PUSH2 0x875 PUSH2 0x753 JUMP JUMPDEST JUMPDEST DUP2 CALLDATALOAD PUSH2 0x886 DUP5 DUP3 PUSH1 0x20 DUP7 ADD PUSH2 0x821 JUMP JUMPDEST SWAP2 POP POP SWAP3 SWAP2 POP POP JUMP JUMPDEST PUSH0 DUP2 SWAP1 POP SWAP2 SWAP1 POP JUMP JUMPDEST PUSH2 0x8A1 DUP2 PUSH2 0x88F JUMP JUMPDEST DUP2 EQ PUSH2 0x8AB JUMPI PUSH0 DUP1 REVERT JUMPDEST POP JUMP JUMPDEST PUSH0 DUP2 CALLDATALOAD SWAP1 POP PUSH2 0x8BC DUP2 PUSH2 0x898 JUMP JUMPDEST SWAP3 SWAP2 POP POP JUMP JUMPDEST PUSH0 DUP2 ISZERO ISZERO SWAP1 POP SWAP2 SWAP1 POP JUMP JUMPDEST PUSH2 0x8D6 DUP2 PUSH2 0x8C2 JUMP JUMPDEST DUP2 EQ PUSH2 0x8E0 JUMPI PUSH0 DUP1 REVERT JUMPDEST POP JUMP JUMPDEST PUSH0 DUP2 CALLDATALOAD SWAP1 POP PUSH2 0x8F1 DUP2 PUSH2 0x8CD JUMP JUMPDEST SWAP3 SWAP2 POP POP JUMP JUMPDEST PUSH0 DUP1 PUSH0 PUSH1 0x60 DUP5 DUP7 SUB SLT ISZERO PUSH2 0x90E JUMPI PUSH2 0x90D PUSH2 0x74B JUMP JUMPDEST JUMPDEST PUSH0 DUP5 ADD CALLDATALOAD PUSH8 0xFFFFFFFFFFFFFFFF DUP2 GT ISZERO PUSH2 0x92B JUMPI PUSH2 0x92A PUSH2 0x74F JUMP JUMPDEST JUMPDEST PUSH2 0x937 DUP7 DUP3 DUP8 ADD PUSH2 0x862 JUMP JUMPDEST SWAP4 POP POP PUSH1 0x20 PUSH2 0x948 DUP7 DUP3 DUP8 ADD PUSH2 0x8AE JUMP JUMPDEST SWAP3 POP POP PUSH1 0x40 PUSH2 0x959 DUP7 DUP3 DUP8 ADD PUSH2 0x8E3 JUMP JUMPDEST SWAP2 POP POP SWAP3 POP SWAP3 POP SWAP3 JUMP JUMPDEST PUSH2 0x96C DUP2 PUSH2 0x88F JUMP JUMPDEST DUP3 MSTORE POP POP JUMP JUMPDEST PUSH0 PUSH1 0x20 DUP3 ADD SWAP1 POP PUSH2 0x985 PUSH0 DUP4 ADD DUP5 PUSH2 0x963 JUMP JUMPDEST SWAP3 SWAP2 POP POP JUMP JUMPDEST PUSH0 DUP2 MLOAD SWAP1 POP SWAP2 SWAP1 POP JUMP JUMPDEST PUSH0 DUP3 DUP3 MSTORE PUSH1 0x20 DUP3 ADD SWAP1 POP SWAP3 SWAP2 POP POP JUMP JUMPDEST DUP3 DUP2 DUP4 MCOPY PUSH0 DUP4 DUP4 ADD MSTORE POP POP POP JUMP JUMPDEST PUSH0 PUSH2 0x9BD DUP3 PUSH2 0x98B JUMP JUMPDEST PUSH2 0x9C7 DUP2 DUP6 PUSH2 0x995 JUMP JUMPDEST SWAP4 POP PUSH2 0x9D7 DUP2 DUP6 PUSH1 0x20 DUP7 ADD PUSH2 0x9A5 JUMP JUMPDEST PUSH2 0x9E0 DUP2 PUSH2 0x75B JUMP JUMPDEST DUP5 ADD SWAP2 POP POP SWAP3 SWAP2 POP POP JUMP JUMPDEST PUSH2 0x9F4 DUP2 PUSH2 0x8C2 JUMP JUMPDEST DUP3 MSTORE POP POP JUMP JUMPDEST PUSH0 PUSH1 0x60 DUP3 ADD SWAP1 POP DUP2 DUP2 SUB PUSH0 DUP4 ADD MSTORE PUSH2 0xA12 DUP2 DUP7 PUSH2 0x9B3 JUMP JUMPDEST SWAP1 POP PUSH2 0xA21 PUSH1 0x20 DUP4 ADD DUP6 PUSH2 0x963 JUMP JUMPDEST PUSH2 0xA2E PUSH1 0x40 DUP4 ADD DUP5 PUSH2 0x9EB JUMP JUMPDEST SWAP5 SWAP4 POP POP POP POP JUMP JUMPDEST PUSH0 DUP1 PUSH1 0x40 DUP4 DUP6 SUB SLT ISZERO PUSH2 0xA4C JUMPI PUSH2 0xA4B PUSH2 0x74B JUMP JUMPDEST JUMPDEST PUSH0 DUP4 ADD CALLDATALOAD PUSH8 0xFFFFFFFFFFFFFFFF DUP2 GT ISZERO PUSH2 0xA69 JUMPI PUSH2 0xA68 PUSH2 0x74F JUMP JUMPDEST JUMPDEST PUSH2 0xA75 DUP6 DUP3 DUP7 ADD PUSH2 0x862 JUMP JUMPDEST SWAP3 POP POP PUSH1 0x20 PUSH2 0xA86 DUP6 DUP3 DUP7 ADD PUSH2 0x8AE JUMP JUMPDEST SWAP2 POP POP SWAP3 POP SWAP3 SWAP1 POP JUMP JUMPDEST PUSH0 PUSH1 0x20 DUP3 DUP5 SUB SLT ISZERO PUSH2 0xAA5 JUMPI PUSH2 0xAA4 PUSH2 0x74B JUMP JUMPDEST JUMPDEST PUSH0 PUSH2 0xAB2 DUP5 DUP3 DUP6 ADD PUSH2 0x8AE JUMP JUMPDEST SWAP2 POP POP SWAP3 SWAP2 POP POP JUMP JUMPDEST PUSH0 PUSH1 0x20 DUP3 DUP5 SUB SLT ISZERO PUSH2 0xAD0 JUMPI PUSH2 0xACF PUSH2 0x74B JUMP JUMPDEST JUMPDEST PUSH0 DUP3 ADD CALLDATALOAD PUSH8 0xFFFFFFFFFFFFFFFF DUP2 GT ISZERO PUSH2 0xAED JUMPI PUSH2 0xAEC PUSH2 0x74F JUMP JUMPDEST JUMPDEST PUSH2 0xAF9 DUP5 DUP3 DUP6 ADD PUSH2 0x862 JUMP JUMPDEST SWAP2 POP POP SWAP3 SWAP2 POP POP JUMP JUMPDEST PUSH32 0x4E487B7100000000000000000000000000000000000000000000000000000000 PUSH0 MSTORE PUSH1 0x22 PUSH1 0x4 MSTORE PUSH1 0x24 PUSH0 REVERT JUMPDEST PUSH0 PUSH1 0x2 DUP3 DIV SWAP1 POP PUSH1 0x1 DUP3 AND DUP1 PUSH2 0xB46 JUMPI PUSH1 0x7F DUP3 AND SWAP2 POP JUMPDEST PUSH1 0x20 DUP3 LT DUP2 SUB PUSH2 0xB59 JUMPI PUSH2 0xB58 PUSH2 0xB02 JUMP JUMPDEST JUMPDEST POP SWAP2 SWAP1 POP JUMP JUMPDEST PUSH0 DUP2 SWAP1 POP DUP2 PUSH0 MSTORE PUSH1 0x20 PUSH0 KECCAK256 SWAP1 POP SWAP2 SWAP1 POP JUMP JUMPDEST PUSH0 PUSH1 0x20 PUSH1 0x1F DUP4 ADD DIV SWAP1 POP SWAP2 SWAP1 POP JUMP JUMPDEST PUSH0 DUP3 DUP3 SHL SWAP1 POP SWAP3 SWAP2 POP POP JUMP JUMPDEST PUSH0 PUSH1 0x8 DUP4 MUL PUSH2 0xBBB PUSH32 0xFFFFFFFFFFFFFFFFFFFFFFFFFFFFFFFFFFFFFFFFFFFFFFFFFFFFFFFFFFFFFFFF DUP3 PUSH2 0xB80 JUMP JUMPDEST PUSH2 0xBC5 DUP7 DUP4 PUSH2 0xB80 JUMP JUMPDEST SWAP6 POP DUP1 NOT DUP5 AND SWAP4 POP DUP1 DUP7 AND DUP5 OR SWAP3 POP POP POP SWAP4 SWAP3 POP POP POP JUMP JUMPDEST PUSH0 DUP2 SWAP1 POP SWAP2 SWAP1 POP JUMP JUMPDEST PUSH0 PUSH2 0xC00 PUSH2 0xBFB PUSH2 0xBF6 DUP5 PUSH2 0x88F JUMP JUMPDEST PUSH2 0xBDD JUMP JUMPDEST PUSH2 0x88F JUMP JUMPDEST SWAP1 POP SWAP2 SWAP1 POP JUMP JUMPDEST PUSH0 DUP2 SWAP1 POP SWAP2 SWAP1 POP JUMP JUMPDEST PUSH2 0xC19 DUP4 PUSH2 0xBE6 JUMP JUMPDEST PUSH2 0xC2D PUSH2 0xC25 DUP3 PUSH2 0xC07 JUMP JUMPDEST DUP5 DUP5 SLOAD PUSH2 0xB8C JUMP JUMPDEST DUP3 SSTORE POP POP POP POP JUMP JUMPDEST PUSH0 SWAP1 JUMP JUMPDEST PUSH2 0xC41 PUSH2 0xC35 JUMP JUMPDEST PUSH2 0xC4C DUP2 DUP5 DUP5 PUSH2 0xC10 JUMP JUMPDEST POP POP POP JUMP JUMPDEST JUMPDEST DUP2 DUP2 LT ISZERO PUSH2 0xC6F JUMPI PUSH2 0xC64 PUSH0 DUP3 PUSH2 0xC39 JUMP JUMPDEST PUSH1 0x1 DUP2 ADD SWAP1 POP PUSH2 0xC52 JUMP JUMPDEST POP POP JUMP JUMPDEST PUSH1 0x1F DUP3 GT ISZERO PUSH2 0xCB4 JUMPI PUSH2 0xC85 DUP2 PUSH2 0xB5F JUMP JUMPDEST PUSH2 0xC8E DUP5 PUSH2 0xB71 JUMP JUMPDEST DUP2 ADD PUSH1 0x20 DUP6 LT ISZERO PUSH2 0xC9D JUMPI DUP2 SWAP1 POP JUMPDEST PUSH2 0xCB1 PUSH2 0xCA9 DUP6 PUSH2 0xB71 JUMP JUMPDEST DUP4 ADD DUP3 PUSH2 0xC51 JUMP JUMPDEST POP POP JUMPDEST POP POP POP JUMP JUMPDEST PUSH0 DUP3 DUP3 SHR SWAP1 POP SWAP3 SWAP2 POP POP JUMP JUMPDEST PUSH0 PUSH2 0xCD4 PUSH0 NOT DUP5 PUSH1 0x8 MUL PUSH2 0xCB9 JUMP JUMPDEST NOT DUP1 DUP4 AND SWAP2 POP POP SWAP3 SWAP2 POP POP JUMP JUMPDEST PUSH0 PUSH2 0xCEC DUP4 DUP4 PUSH2 0xCC5 JUMP JUMPDEST SWAP2 POP DUP3 PUSH1 0x2 MUL DUP3 OR SWAP1 POP SWAP3 SWAP2 POP POP JUMP JUMPDEST PUSH2 0xD05 DUP3 PUSH2 0x98B JUMP JUMPDEST PUSH8 0xFFFFFFFFFFFFFFFF DUP2 GT ISZERO PUSH2 0xD1E JUMPI PUSH2 0xD1D PUSH2 0x76B JUMP JUMPDEST JUMPDEST PUSH2 0xD28 DUP3 SLOAD PUSH2 0xB2F JUMP JUMPDEST PUSH2 0xD33 DUP3 DUP3 DUP6 PUSH2 0xC73 JUMP JUMPDEST PUSH0 PUSH1 0x20 SWAP1 POP PUSH1 0x1F DUP4 GT PUSH1 0x1 DUP2 EQ PUSH2 0xD64 JUMPI PUSH0 DUP5 ISZERO PUSH2 0xD52 JUMPI DUP3 DUP8 ADD MLOAD SWAP1 POP JUMPDEST PUSH2 0xD5C DUP6 DUP3 PUSH2 0xCE1 JUMP JUMPDEST DUP7 SSTORE POP PUSH2 0xDC3 JUMP JUMPDEST PUSH1 0x1F NOT DUP5 AND PUSH2 0xD72 DUP7 PUSH2 0xB5F JUMP JUMPDEST PUSH0 JUMPDEST DUP3 DUP2 LT ISZERO PUSH2 0xD99 JUMPI DUP5 DUP10 ADD MLOAD DUP3 SSTORE PUSH1 0x1 DUP3 ADD SWAP2 POP PUSH1 0x20 DUP6 ADD SWAP5 POP PUSH1 0x20 DUP2 ADD SWAP1 POP PUSH2 0xD74 JUMP JUMPDEST DUP7 DUP4 LT ISZERO PUSH2 0xDB6 JUMPI DUP5 DUP10 ADD MLOAD PUSH2 0xDB2 PUSH1 0x1F DUP10 AND DUP3 PUSH2 0xCC5 JUMP JUMPDEST DUP4 SSTORE POP JUMPDEST PUSH1 0x1 PUSH1 0x2 DUP9 MUL ADD DUP9 SSTORE POP POP POP JUMPDEST POP POP POP POP POP POP JUMP JUMPDEST PUSH0 DUP2 SLOAD SWAP1 POP PUSH2 0xDD9 DUP2 PUSH2 0xB2F JUMP JUMPDEST SWAP1 POP SWAP2 SWAP1 POP JUMP JUMPDEST DUP2 DUP2 SUB PUSH2 0xDEE JUMPI POP POP PUSH2 0xEC3 JUMP JUMPDEST PUSH2 0xDF7 DUP3 PUSH2 0xDCB JUMP JUMPDEST PUSH8 0xFFFFFFFFFFFFFFFF DUP2 GT ISZERO PUSH2 0xE10 JUMPI PUSH2 0xE0F PUSH2 0x76B JUMP JUMPDEST JUMPDEST PUSH2 0xE1A DUP3 SLOAD PUSH2 0xB2F JUMP JUMPDEST PUSH2 0xE25 DUP3 DUP3 DUP6 PUSH2 0xC73 JUMP JUMPDEST PUSH0 PUSH1 0x1F DUP4 GT PUSH1 0x1 DUP2 EQ PUSH2 0xE52 JUMPI PUSH0 DUP5 ISZERO PUSH2 0xE40 JUMPI DUP3 DUP8 ADD SLOAD SWAP1 POP JUMPDEST PUSH2 0xE4A DUP6 DUP3 PUSH2 0xCE1 JUMP JUMPDEST DUP7 SSTORE POP PUSH2 0xEBC JUMP JUMPDEST PUSH1 0x1F NOT DUP5 AND PUSH2 0xE60 DUP8 PUSH2 0xB5F JUMP JUMPDEST SWAP7 POP PUSH2 0xE6B DUP7 PUSH2 0xB5F JUMP JUMPDEST PUSH0 JUMPDEST DUP3 DUP2 LT ISZERO PUSH2 0xE92 JUMPI DUP5 DUP10 ADD SLOAD DUP3 SSTORE PUSH1 0x1 DUP3 ADD SWAP2 POP PUSH1 0x1 DUP6 ADD SWAP5 POP PUSH1 0x20 DUP2 ADD SWAP1 POP PUSH2 0xE6D JUMP JUMPDEST DUP7 DUP4 LT ISZERO PUSH2 0xEAF JUMPI DUP5 DUP10 ADD SLOAD PUSH2 0xEAB PUSH1 0x1F DUP10 AND DUP3 PUSH2 0xCC5 JUMP JUMPDEST DUP4 SSTORE POP JUMPDEST PUSH1 0x1 PUSH1 0x2 DUP9 MUL ADD DUP9 SSTORE POP POP POP JUMPDEST POP POP POP POP POP POP JUMPDEST JUMP JUMPDEST PUSH0 DUP2 SWAP1 POP SWAP3 SWAP2 POP POP JUMP JUMPDEST PUSH0 PUSH2 0xED9 DUP3 PUSH2 0x98B JUMP JUMPDEST PUSH2 0xEE3 DUP2 DUP6 PUSH2 0xEC5 JUMP JUMPDEST SWAP4 POP PUSH2 0xEF3 DUP2 DUP6 PUSH1 0x20 DUP7 ADD PUSH2 0x9A5 JUMP JUMPDEST DUP1 DUP5 ADD SWAP2 POP POP SWAP3 SWAP2 POP POP JUMP JUMPDEST PUSH0 PUSH2 0xF0A DUP3 DUP5 PUSH2 0xECF JUMP JUMPDEST SWAP2 POP DUP2 SWAP1 POP SWAP3 SWAP2 POP POP JUMP INVALID LOG2 PUSH5 0x6970667358 0x22 SLT KECCAK256 0xBA PUSH18 0x7667495957D3FC6183A4A721EA176D8C4396 0x2B PUSH19 0xFA08BAC9F21DEB03A5BD64736F6C634300081A STOP CALLER "
				},
				"gasEstimates": {
					"creation": {
						"codeDepositCost": "783000",
						"executionCost": "infinite",
						"totalCost": "infinite"
					},
					"external": {
						"Aarti()": "infinite",
						"Ajay()": "infinite",
						"Friends(uint256)": "infinite",
						"GiveNameToNumber(string,uint256)": "infinite",
						"NameToNumber(string)": "infinite",
						"Vijay()": "infinite",
						"addPerson(string,uint256,bool)": "infinite",
						"favoriteNumber()": "2424",
						"jaadu()": "355",
						"retrieve()": "2499",
						"store(uint256)": "22597"
					}
				},
				"methodIdentifiers": {
					"Aarti()": "30af0a98",
					"Ajay()": "08839f9a",
					"Friends(uint256)": "8a1a8bbf",
					"GiveNameToNumber(string,uint256)": "50d4da59",
					"NameToNumber(string)": "ed17db49",
					"Vijay()": "701b6494",
					"addPerson(string,uint256,bool)": "032ce9aa",
					"favoriteNumber()": "471f7cdf",
					"jaadu()": "0636f42f",
					"retrieve()": "2e64cec1",
					"store(uint256)": "6057361d"
				}
			},
			"storageLayout": {
				"storage": [
					{
						"astId": 3,
						"contract": "SimpleStorage.sol:SimpleStorage",
						"label": "favoriteNumber",
						"offset": 0,
						"slot": "0",
						"type": "t_uint256"
					},
					{
						"astId": 47,
						"contract": "SimpleStorage.sol:SimpleStorage",
						"label": "Ajay",
						"offset": 0,
						"slot": "1",
						"type": "t_struct(Person)39_storage"
					},
					{
						"astId": 55,
						"contract": "SimpleStorage.sol:SimpleStorage",
						"label": "Vijay",
						"offset": 0,
						"slot": "4",
						"type": "t_struct(Person)39_storage"
					},
					{
						"astId": 63,
						"contract": "SimpleStorage.sol:SimpleStorage",
						"label": "Aarti",
						"offset": 0,
						"slot": "7",
						"type": "t_struct(Person)39_storage"
					},
					{
						"astId": 67,
						"contract": "SimpleStorage.sol:SimpleStorage",
						"label": "Friends",
						"offset": 0,
						"slot": "10",
						"type": "t_array(t_struct(Person)39_storage)dyn_storage"
					},
					{
						"astId": 114,
						"contract": "SimpleStorage.sol:SimpleStorage",
						"label": "NameToNumber",
						"offset": 0,
						"slot": "11",
						"type": "t_mapping(t_string_memory_ptr,t_uint256)"
					}
				],
				"types": {
					"t_array(t_struct(Person)39_storage)dyn_storage": {
						"base": "t_struct(Person)39_storage",
						"encoding": "dynamic_array",
						"label": "struct SimpleStorage.Person[]",
						"numberOfBytes": "32"
					},
					"t_bool": {
						"encoding": "inplace",
						"label": "bool",
						"numberOfBytes": "1"
					},
					"t_mapping(t_string_memory_ptr,t_uint256)": {
						"encoding": "mapping",
						"key": "t_string_memory_ptr",
						"label": "mapping(string => uint256)",
						"numberOfBytes": "32",
						"value": "t_uint256"
					},
					"t_string_memory_ptr": {
						"encoding": "bytes",
						"label": "string",
						"numberOfBytes": "32"
					},
					"t_string_storage": {
						"encoding": "bytes",
						"label": "string",
						"numberOfBytes": "32"
					},
					"t_struct(Person)39_storage": {
						"encoding": "inplace",
						"label": "struct SimpleStorage.Person",
						"members": [
							{
								"astId": 34,
								"contract": "SimpleStorage.sol:SimpleStorage",
								"label": "name",
								"offset": 0,
								"slot": "0",
								"type": "t_string_storage"
							},
							{
								"astId": 36,
								"contract": "SimpleStorage.sol:SimpleStorage",
								"label": "favNo",
								"offset": 0,
								"slot": "1",
								"type": "t_uint256"
							},
							{
								"astId": 38,
								"contract": "SimpleStorage.sol:SimpleStorage",
								"label": "isMale",
								"offset": 0,
								"slot": "2",
								"type": "t_bool"
							}
						],
						"numberOfBytes": "96"
					},
					"t_uint256": {
						"encoding": "inplace",
						"label": "uint256",
						"numberOfBytes": "32"
					}
				}
			},
			"userdoc": {
				"kind": "user",
				"methods": {},
				"version": 1
			}
		}
	}
}