{
	"data": {
		"bytecode": {
			"linkReferences": {},
			"object": "608060405260405180606001604052806040518060400160405280600481526020017f416a6179000000000000000000000000000000000000000000000000000000008152508152602001601581526020016001151581525060015f820151815f01908161006d919061040d565b50602082015181600101556040820151816002015f6101000a81548160ff021916908315150217905550505060405180606001604052806040518060400160405280600581526020017f56696a61790000000000000000000000000000000000000000000000000000008152508152602001600781526020016001151581525060045f820151815f019081610102919061040d565b50602082015181600101556040820151816002015f6101000a81548160ff021916908315150217905550505060405180606001604052806040518060400160405280600581526020017f506f6f6a610000000000000000000000000000000000000000000000000000008152508152602001600b81526020015f151581525060075f820151815f019081610196919061040d565b50602082015181600101556040820151816002015f6101000a81548160ff02191690831515021790555050503480156101cd575f80fd5b506104dc565b5f81519050919050565b7f4e487b71000000000000000000000000000000000000000000000000000000005f52604160045260245ffd5b7f4e487b71000000000000000000000000000000000000000000000000000000005f52602260045260245ffd5b5f600282049050600182168061024e57607f821691505b6020821081036102615761026061020a565b5b50919050565b5f819050815f5260205f209050919050565b5f6020601f8301049050919050565b5f82821b905092915050565b5f600883026102c37fffffffffffffffffffffffffffffffffffffffffffffffffffffffffffffffff82610288565b6102cd8683610288565b95508019841693508086168417925050509392505050565b5f819050919050565b5f819050919050565b5f61031161030c610307846102e5565b6102ee565b6102e5565b9050919050565b5f819050919050565b61032a836102f7565b61033e61033682610318565b848454610294565b825550505050565b5f90565b610352610346565b61035d818484610321565b505050565b5b81811015610380576103755f8261034a565b600181019050610363565b5050565b601f8211156103c55761039681610267565b61039f84610279565b810160208510156103ae578190505b6103c26103ba85610279565b830182610362565b50505b505050565b5f82821c905092915050565b5f6103e55f19846008026103ca565b1980831691505092915050565b5f6103fd83836103d6565b9150826002028217905092915050565b610416826101d3565b67ffffffffffffffff81111561042f5761042e6101dd565b5b6104398254610237565b610444828285610384565b5f60209050601f831160018114610475575f8415610463578287015190505b61046d85826103f2565b8655506104d4565b601f19841661048386610267565b5f5b828110156104aa57848901518255600182019150602085019450602081019050610485565b868310156104c757848901516104c3601f8916826103d6565b8355505b6001600288020188555050505b505050505050565b610da4806104e95f395ff3fe608060405234801561000f575f80fd5b5060043610610091575f3560e01c806330af0a981161006457806330af0a981461010d578063471f7cdf1461012d5780636057361d1461014b578063701b6494146101675780638a1a8bbf1461018757610091565b8063032ce9aa146100955780630636f42f146100b157806308839f9a146100cf5780632e64cec1146100ef575b5f80fd5b6100af60048036038101906100aa9190610841565b6101b9565b005b6100b96103a3565b6040516100c691906108bc565b60405180910390f35b6100d76103ab565b6040516100e693929190610944565b60405180910390f35b6100f7610454565b60405161010491906108bc565b60405180910390f35b61011561045c565b60405161012493929190610944565b60405180910390f35b610135610505565b60405161014291906108bc565b60405180910390f35b61016560048036038101906101609190610980565b61050a565b005b61016f61051c565b60405161017e93929190610944565b60405180910390f35b6101a1600480360381019061019c9190610980565b6105c5565b6040516101b093929190610944565b60405180910390f35b5f60405180606001604052808581526020018481526020018315158152509050600a81908060018154018082558091505060019003905f5260205f2090600302015f909190919091505f820151815f0190816102159190610ba5565b50602082015181600101556040820151816002015f6101000a81548160ff0219169083151502179055505050600a6001908060018154018082558091505060019003905f5260205f2090600302015f909190919091505f8201815f01908161027d9190610c89565b5060018201548160010155600282015f9054906101000a900460ff16816002015f6101000a81548160ff0219169083151502179055505050600a6004908060018154018082558091505060019003905f5260205f2090600302015f909190919091505f8201815f0190816102f19190610c89565b5060018201548160010155600282015f9054906101000a900460ff16816002015f6101000a81548160ff0219169083151502179055505050600a6007908060018154018082558091505060019003905f5260205f2090600302015f909190919091505f8201815f0190816103659190610c89565b5060018201548160010155600282015f9054906101000a900460ff16816002015f6101000a81548160ff021916908315150217905550505050505050565b5f6007905090565b6001805f0180546103bb906109d8565b80601f01602080910402602001604051908101604052809291908181526020018280546103e7906109d8565b80156104325780601f1061040957610100808354040283529160200191610432565b820191905f5260205f20905b81548152906001019060200180831161041557829003601f168201915b505050505090806001015490806002015f9054906101000a900460ff16905083565b5f8054905090565b6007805f01805461046c906109d8565b80601f0160208091040260200160405190810160405280929190818152602001828054610498906109d8565b80156104e35780601f106104ba576101008083540402835291602001916104e3565b820191905f5260205f20905b8154815290600101906020018083116104c657829003601f168201915b505050505090806001015490806002015f9054906101000a900460ff16905083565b5f5481565b805f819055506105186103a3565b5050565b6004805f01805461052c906109d8565b80601f0160208091040260200160405190810160405280929190818152602001828054610558906109d8565b80156105a35780601f1061057a576101008083540402835291602001916105a3565b820191905f5260205f20905b81548152906001019060200180831161058657829003601f168201915b505050505090806001015490806002015f9054906101000a900460ff16905083565b600a81815481106105d4575f80fd5b905f5260205f2090600302015f91509050805f0180546105f3906109d8565b80601f016020809104026020016040519081016040528092919081815260200182805461061f906109d8565b801561066a5780601f106106415761010080835404028352916020019161066a565b820191905f5260205f20905b81548152906001019060200180831161064d57829003601f168201915b505050505090806001015490806002015f9054906101000a900460ff16905083565b5f604051905090565b5f80fd5b5f80fd5b5f80fd5b5f80fd5b5f601f19601f8301169050919050565b7f4e487b71000000000000000000000000000000000000000000000000000000005f52604160045260245ffd5b6106eb826106a5565b810181811067ffffffffffffffff8211171561070a576107096106b5565b5b80604052505050565b5f61071c61068c565b905061072882826106e2565b919050565b5f67ffffffffffffffff821115610747576107466106b5565b5b610750826106a5565b9050602081019050919050565b828183375f83830152505050565b5f61077d6107788461072d565b610713565b905082815260208101848484011115610799576107986106a1565b5b6107a484828561075d565b509392505050565b5f82601f8301126107c0576107bf61069d565b5b81356107d084826020860161076b565b91505092915050565b5f819050919050565b6107eb816107d9565b81146107f5575f80fd5b50565b5f81359050610806816107e2565b92915050565b5f8115159050919050565b6108208161080c565b811461082a575f80fd5b50565b5f8135905061083b81610817565b92915050565b5f805f6060848603121561085857610857610695565b5b5f84013567ffffffffffffffff81111561087557610874610699565b5b610881868287016107ac565b9350506020610892868287016107f8565b92505060406108a38682870161082d565b9150509250925092565b6108b6816107d9565b82525050565b5f6020820190506108cf5f8301846108ad565b92915050565b5f81519050919050565b5f82825260208201905092915050565b8281835e5f83830152505050565b5f610907826108d5565b61091181856108df565b93506109218185602086016108ef565b61092a816106a5565b840191505092915050565b61093e8161080c565b82525050565b5f6060820190508181035f83015261095c81866108fd565b905061096b60208301856108ad565b6109786040830184610935565b949350505050565b5f6020828403121561099557610994610695565b5b5f6109a2848285016107f8565b91505092915050565b7f4e487b71000000000000000000000000000000000000000000000000000000005f52602260045260245ffd5b5f60028204905060018216806109ef57607f821691505b602082108103610a0257610a016109ab565b5b50919050565b5f819050815f5260205f209050919050565b5f6020601f8301049050919050565b5f82821b905092915050565b5f60088302610a647fffffffffffffffffffffffffffffffffffffffffffffffffffffffffffffffff82610a29565b610a6e8683610a29565b95508019841693508086168417925050509392505050565b5f819050919050565b5f610aa9610aa4610a9f846107d9565b610a86565b6107d9565b9050919050565b5f819050919050565b610ac283610a8f565b610ad6610ace82610ab0565b848454610a35565b825550505050565b5f90565b610aea610ade565b610af5818484610ab9565b505050565b5b81811015610b1857610b0d5f82610ae2565b600181019050610afb565b5050565b601f821115610b5d57610b2e81610a08565b610b3784610a1a565b81016020851015610b46578190505b610b5a610b5285610a1a565b830182610afa565b50505b505050565b5f82821c905092915050565b5f610b7d5f1984600802610b62565b1980831691505092915050565b5f610b958383610b6e565b9150826002028217905092915050565b610bae826108d5565b67ffffffffffffffff811115610bc757610bc66106b5565b5b610bd182546109d8565b610bdc828285610b1c565b5f60209050601f831160018114610c0d575f8415610bfb578287015190505b610c058582610b8a565b865550610c6c565b601f198416610c1b86610a08565b5f5b82811015610c4257848901518255600182019150602085019450602081019050610c1d565b86831015610c5f5784890151610c5b601f891682610b6e565b8355505b6001600288020188555050505b505050505050565b5f81549050610c82816109d8565b9050919050565b818103610c97575050610d6c565b610ca082610c74565b67ffffffffffffffff811115610cb957610cb86106b5565b5b610cc382546109d8565b610cce828285610b1c565b5f601f831160018114610cfb575f8415610ce9578287015490505b610cf38582610b8a565b865550610d65565b601f198416610d0987610a08565b9650610d1486610a08565b5f5b82811015610d3b57848901548255600182019150600185019450602081019050610d16565b86831015610d585784890154610d54601f891682610b6e565b8355505b6001600288020188555050505b5050505050505b56fea2646970667358221220e6c04a1d0c95f7ba1e31e2be0bbc379946bd4d73330754b1cdbf78bfdbba786564736f6c634300081a0033",
			"opcodes": "PUSH1 0x80 PUSH1 0x40 MSTORE PUSH1 0x40 MLOAD DUP1 PUSH1 0x60 ADD PUSH1 0x40 MSTORE DUP1 PUSH1 0x40 MLOAD DUP1 PUSH1 0x40 ADD PUSH1 0x40 MSTORE DUP1 PUSH1 0x4 DUP2 MSTORE PUSH1 0x20 ADD PUSH32 0x416A617900000000000000000000000000000000000000000000000000000000 DUP2 MSTORE POP DUP2 MSTORE PUSH1 0x20 ADD PUSH1 0x15 DUP2 MSTORE PUSH1 0x20 ADD PUSH1 0x1 ISZERO ISZERO DUP2 MSTORE POP PUSH1 0x1 PUSH0 DUP3 ADD MLOAD DUP2 PUSH0 ADD SWAP1 DUP2 PUSH2 0x6D SWAP2 SWAP1 PUSH2 0x40D JUMP JUMPDEST POP PUSH1 0x20 DUP3 ADD MLOAD DUP2 PUSH1 0x1 ADD SSTORE PUSH1 0x40 DUP3 ADD MLOAD DUP2 PUSH1 0x2 ADD PUSH0 PUSH2 0x100 EXP DUP2 SLOAD DUP2 PUSH1 0xFF MUL NOT AND SWAP1 DUP4 ISZERO ISZERO MUL OR SWAP1 SSTORE POP POP POP PUSH1 0x40 MLOAD DUP1 PUSH1 0x60 ADD PUSH1 0x40 MSTORE DUP1 PUSH1 0x40 MLOAD DUP1 PUSH1 0x40 ADD PUSH1 0x40 MSTORE DUP1 PUSH1 0x5 DUP2 MSTORE PUSH1 0x20 ADD PUSH32 0x56696A6179000000000000000000000000000000000000000000000000000000 DUP2 MSTORE POP DUP2 MSTORE PUSH1 0x20 ADD PUSH1 0x7 DUP2 MSTORE PUSH1 0x20 ADD PUSH1 0x1 ISZERO ISZERO DUP2 MSTORE POP PUSH1 0x4 PUSH0 DUP3 ADD MLOAD DUP2 PUSH0 ADD SWAP1 DUP2 PUSH2 0x102 SWAP2 SWAP1 PUSH2 0x40D JUMP JUMPDEST POP PUSH1 0x20 DUP3 ADD MLOAD DUP2 PUSH1 0x1 ADD SSTORE PUSH1 0x40 DUP3 ADD MLOAD DUP2 PUSH1 0x2 ADD PUSH0 PUSH2 0x100 EXP DUP2 SLOAD DUP2 PUSH1 0xFF MUL NOT AND SWAP1 DUP4 ISZERO ISZERO MUL OR SWAP1 SSTORE POP POP POP PUSH1 0x40 MLOAD DUP1 PUSH1 0x60 ADD PUSH1 0x40 MSTORE DUP1 PUSH1 0x40 MLOAD DUP1 PUSH1 0x40 ADD PUSH1 0x40 MSTORE DUP1 PUSH1 0x5 DUP2 MSTORE PUSH1 0x20 ADD PUSH32 0x506F6F6A61000000000000000000000000000000000000000000000000000000 DUP2 MSTORE POP DUP2 MSTORE PUSH1 0x20 ADD PUSH1 0xB DUP2 MSTORE PUSH1 0x20 ADD PUSH0 ISZERO ISZERO DUP2 MSTORE POP PUSH1 0x7 PUSH0 DUP3 ADD MLOAD DUP2 PUSH0 ADD SWAP1 DUP2 PUSH2 0x196 SWAP2 SWAP1 PUSH2 0x40D JUMP JUMPDEST POP PUSH1 0x20 DUP3 ADD MLOAD DUP2 PUSH1 0x1 ADD SSTORE PUSH1 0x40 DUP3 ADD MLOAD DUP2 PUSH1 0x2 ADD PUSH0 PUSH2 0x100 EXP DUP2 SLOAD DUP2 PUSH1 0xFF MUL NOT AND SWAP1 DUP4 ISZERO ISZERO MUL OR SWAP1 SSTORE POP POP POP CALLVALUE DUP1 ISZERO PUSH2 0x1CD JUMPI PUSH0 DUP1 REVERT JUMPDEST POP PUSH2 0x4DC JUMP JUMPDEST PUSH0 DUP2 MLOAD SWAP1 POP SWAP2 SWAP1 POP JUMP JUMPDEST PUSH32 0x4E487B7100000000000000000000000000000000000000000000000000000000 PUSH0 MSTORE PUSH1 0x41 PUSH1 0x4 MSTORE PUSH1 0x24 PUSH0 REVERT JUMPDEST PUSH32 0x4E487B7100000000000000000000000000000000000000000000000000000000 PUSH0 MSTORE PUSH1 0x22 PUSH1 0x4 MSTORE PUSH1 0x24 PUSH0 REVERT JUMPDEST PUSH0 PUSH1 0x2 DUP3 DIV SWAP1 POP PUSH1 0x1 DUP3 AND DUP1 PUSH2 0x24E JUMPI PUSH1 0x7F DUP3 AND SWAP2 POP JUMPDEST PUSH1 0x20 DUP3 LT DUP2 SUB PUSH2 0x261 JUMPI PUSH2 0x260 PUSH2 0x20A JUMP JUMPDEST JUMPDEST POP SWAP2 SWAP1 POP JUMP JUMPDEST PUSH0 DUP2 SWAP1 POP DUP2 PUSH0 MSTORE PUSH1 0x20 PUSH0 KECCAK256 SWAP1 POP SWAP2 SWAP1 POP JUMP JUMPDEST PUSH0 PUSH1 0x20 PUSH1 0x1F DUP4 ADD DIV SWAP1 POP SWAP2 SWAP1 POP JUMP JUMPDEST PUSH0 DUP3 DUP3 SHL SWAP1 POP SWAP3 SWAP2 POP POP JUMP JUMPDEST PUSH0 PUSH1 0x8 DUP4 MUL PUSH2 0x2C3 PUSH32 0xFFFFFFFFFFFFFFFFFFFFFFFFFFFFFFFFFFFFFFFFFFFFFFFFFFFFFFFFFFFFFFFF DUP3 PUSH2 0x288 JUMP JUMPDEST PUSH2 0x2CD DUP7 DUP4 PUSH2 0x288 JUMP JUMPDEST SWAP6 POP DUP1 NOT DUP5 AND SWAP4 POP DUP1 DUP7 AND DUP5 OR SWAP3 POP POP POP SWAP4 SWAP3 POP POP POP JUMP JUMPDEST PUSH0 DUP2 SWAP1 POP SWAP2 SWAP1 POP JUMP JUMPDEST PUSH0 DUP2 SWAP1 POP SWAP2 SWAP1 POP JUMP JUMPDEST PUSH0 PUSH2 0x311 PUSH2 0x30C PUSH2 0x307 DUP5 PUSH2 0x2E5 JUMP JUMPDEST PUSH2 0x2EE JUMP JUMPDEST PUSH2 0x2E5 JUMP JUMPDEST SWAP1 POP SWAP2 SWAP1 POP JUMP JUMPDEST PUSH0 DUP2 SWAP1 POP SWAP2 SWAP1 POP JUMP JUMPDEST PUSH2 0x32A DUP4 PUSH2 0x2F7 JUMP JUMPDEST PUSH2 0x33E PUSH2 0x336 DUP3 PUSH2 0x318 JUMP JUMPDEST DUP5 DUP5 SLOAD PUSH2 0x294 JUMP JUMPDEST DUP3 SSTORE POP POP POP POP JUMP JUMPDEST PUSH0 SWAP1 JUMP JUMPDEST PUSH2 0x352 PUSH2 0x346 JUMP JUMPDEST PUSH2 0x35D DUP2 DUP5 DUP5 PUSH2 0x321 JUMP JUMPDEST POP POP POP JUMP JUMPDEST JUMPDEST DUP2 DUP2 LT ISZERO PUSH2 0x380 JUMPI PUSH2 0x375 PUSH0 DUP3 PUSH2 0x34A JUMP JUMPDEST PUSH1 0x1 DUP2 ADD SWAP1 POP PUSH2 0x363 JUMP JUMPDEST POP POP JUMP JUMPDEST PUSH1 0x1F DUP3 GT ISZERO PUSH2 0x3C5 JUMPI PUSH2 0x396 DUP2 PUSH2 0x267 JUMP JUMPDEST PUSH2 0x39F DUP5 PUSH2 0x279 JUMP JUMPDEST DUP2 ADD PUSH1 0x20 DUP6 LT ISZERO PUSH2 0x3AE JUMPI DUP2 SWAP1 POP JUMPDEST PUSH2 0x3C2 PUSH2 0x3BA DUP6 PUSH2 0x279 JUMP JUMPDEST DUP4 ADD DUP3 PUSH2 0x362 JUMP JUMPDEST POP POP JUMPDEST POP POP POP JUMP JUMPDEST PUSH0 DUP3 DUP3 SHR SWAP1 POP SWAP3 SWAP2 POP POP JUMP JUMPDEST PUSH0 PUSH2 0x3E5 PUSH0 NOT DUP5 PUSH1 0x8 MUL PUSH2 0x3CA JUMP JUMPDEST NOT DUP1 DUP4 AND SWAP2 POP POP SWAP3 SWAP2 POP POP JUMP JUMPDEST PUSH0 PUSH2 0x3FD DUP4 DUP4 PUSH2 0x3D6 JUMP JUMPDEST SWAP2 POP DUP3 PUSH1 0x2 MUL DUP3 OR SWAP1 POP SWAP3 SWAP2 POP POP JUMP JUMPDEST PUSH2 0x416 DUP3 PUSH2 0x1D3 JUMP JUMPDEST PUSH8 0xFFFFFFFFFFFFFFFF DUP2 GT ISZERO PUSH2 0x42F JUMPI PUSH2 0x42E PUSH2 0x1DD JUMP JUMPDEST JUMPDEST PUSH2 0x439 DUP3 SLOAD PUSH2 0x237 JUMP JUMPDEST PUSH2 0x444 DUP3 DUP3 DUP6 PUSH2 0x384 JUMP JUMPDEST PUSH0 PUSH1 0x20 SWAP1 POP PUSH1 0x1F DUP4 GT PUSH1 0x1 DUP2 EQ PUSH2 0x475 JUMPI PUSH0 DUP5 ISZERO PUSH2 0x463 JUMPI DUP3 DUP8 ADD MLOAD SWAP1 POP JUMPDEST PUSH2 0x46D DUP6 DUP3 PUSH2 0x3F2 JUMP JUMPDEST DUP7 SSTORE POP PUSH2 0x4D4 JUMP JUMPDEST PUSH1 0x1F NOT DUP5 AND PUSH2 0x483 DUP7 PUSH2 0x267 JUMP JUMPDEST PUSH0 JUMPDEST DUP3 DUP2 LT ISZERO PUSH2 0x4AA JUMPI DUP5 DUP10 ADD MLOAD DUP3 SSTORE PUSH1 0x1 DUP3 ADD SWAP2 POP PUSH1 0x20 DUP6 ADD SWAP5 POP PUSH1 0x20 DUP2 ADD SWAP1 POP PUSH2 0x485 JUMP JUMPDEST DUP7 DUP4 LT ISZERO PUSH2 0x4C7 JUMPI DUP5 DUP10 ADD MLOAD PUSH2 0x4C3 PUSH1 0x1F DUP10 AND DUP3 PUSH2 0x3D6 JUMP JUMPDEST DUP4 SSTORE POP JUMPDEST PUSH1 0x1 PUSH1 0x2 DUP9 MUL ADD DUP9 SSTORE POP POP POP JUMPDEST POP POP POP POP POP POP JUMP JUMPDEST PUSH2 0xDA4 DUP1 PUSH2 0x4E9 PUSH0 CODECOPY PUSH0 RETURN INVALID PUSH1 0x80 PUSH1 0x40 MSTORE CALLVALUE DUP1 ISZERO PUSH2 0xF JUMPI PUSH0 DUP1 REVERT JUMPDEST POP PUSH1 0x4 CALLDATASIZE LT PUSH2 0x91 JUMPI PUSH0 CALLDATALOAD PUSH1 0xE0 SHR DUP1 PUSH4 0x30AF0A98 GT PUSH2 0x64 JUMPI DUP1 PUSH4 0x30AF0A98 EQ PUSH2 0x10D JUMPI DUP1 PUSH4 0x471F7CDF EQ PUSH2 0x12D JUMPI DUP1 PUSH4 0x6057361D EQ PUSH2 0x14B JUMPI DUP1 PUSH4 0x701B6494 EQ PUSH2 0x167 JUMPI DUP1 PUSH4 0x8A1A8BBF EQ PUSH2 0x187 JUMPI PUSH2 0x91 JUMP JUMPDEST DUP1 PUSH4 0x32CE9AA EQ PUSH2 0x95 JUMPI DUP1 PUSH4 0x636F42F EQ PUSH2 0xB1 JUMPI DUP1 PUSH4 0x8839F9A EQ PUSH2 0xCF JUMPI DUP1 PUSH4 0x2E64CEC1 EQ PUSH2 0xEF JUMPI JUMPDEST PUSH0 DUP1 REVERT JUMPDEST PUSH2 0xAF PUSH1 0x4 DUP1 CALLDATASIZE SUB DUP2 ADD SWAP1 PUSH2 0xAA SWAP2 SWAP1 PUSH2 0x841 JUMP JUMPDEST PUSH2 0x1B9 JUMP JUMPDEST STOP JUMPDEST PUSH2 0xB9 PUSH2 0x3A3 JUMP JUMPDEST PUSH1 0x40 MLOAD PUSH2 0xC6 SWAP2 SWAP1 PUSH2 0x8BC JUMP JUMPDEST PUSH1 0x40 MLOAD DUP1 SWAP2 SUB SWAP1 RETURN JUMPDEST PUSH2 0xD7 PUSH2 0x3AB JUMP JUMPDEST PUSH1 0x40 MLOAD PUSH2 0xE6 SWAP4 SWAP3 SWAP2 SWAP1 PUSH2 0x944 JUMP JUMPDEST PUSH1 0x40 MLOAD DUP1 SWAP2 SUB SWAP1 RETURN JUMPDEST PUSH2 0xF7 PUSH2 0x454 JUMP JUMPDEST PUSH1 0x40 MLOAD PUSH2 0x104 SWAP2 SWAP1 PUSH2 0x8BC JUMP JUMPDEST PUSH1 0x40 MLOAD DUP1 SWAP2 SUB SWAP1 RETURN JUMPDEST PUSH2 0x115 PUSH2 0x45C JUMP JUMPDEST PUSH1 0x40 MLOAD PUSH2 0x124 SWAP4 SWAP3 SWAP2 SWAP1 PUSH2 0x944 JUMP JUMPDEST PUSH1 0x40 MLOAD DUP1 SWAP2 SUB SWAP1 RETURN JUMPDEST PUSH2 0x135 PUSH2 0x505 JUMP JUMPDEST PUSH1 0x40 MLOAD PUSH2 0x142 SWAP2 SWAP1 PUSH2 0x8BC JUMP JUMPDEST PUSH1 0x40 MLOAD DUP1 SWAP2 SUB SWAP1 RETURN JUMPDEST PUSH2 0x165 PUSH1 0x4 DUP1 CALLDATASIZE SUB DUP2 ADD SWAP1 PUSH2 0x160 SWAP2 SWAP1 PUSH2 0x980 JUMP JUMPDEST PUSH2 0x50A JUMP JUMPDEST STOP JUMPDEST PUSH2 0x16F PUSH2 0x51C JUMP JUMPDEST PUSH1 0x40 MLOAD PUSH2 0x17E SWAP4 SWAP3 SWAP2 SWAP1 PUSH2 0x944 JUMP JUMPDEST PUSH1 0x40 MLOAD DUP1 SWAP2 SUB SWAP1 RETURN JUMPDEST PUSH2 0x1A1 PUSH1 0x4 DUP1 CALLDATASIZE SUB DUP2 ADD SWAP1 PUSH2 0x19C SWAP2 SWAP1 PUSH2 0x980 JUMP JUMPDEST PUSH2 0x5C5 JUMP JUMPDEST PUSH1 0x40 MLOAD PUSH2 0x1B0 SWAP4 SWAP3 SWAP2 SWAP1 PUSH2 0x944 JUMP JUMPDEST PUSH1 0x40 MLOAD DUP1 SWAP2 SUB SWAP1 RETURN JUMPDEST PUSH0 PUSH1 0x40 MLOAD DUP1 PUSH1 0x60 ADD PUSH1 0x40 MSTORE DUP1 DUP6 DUP2 MSTORE PUSH1 0x20 ADD DUP5 DUP2 MSTORE PUSH1 0x20 ADD DUP4 ISZERO ISZERO DUP2 MSTORE POP SWAP1 POP PUSH1 0xA DUP2 SWAP1 DUP1 PUSH1 0x1 DUP2 SLOAD ADD DUP1 DUP3 SSTORE DUP1 SWAP2 POP POP PUSH1 0x1 SWAP1 SUB SWAP1 PUSH0 MSTORE PUSH1 0x20 PUSH0 KECCAK256 SWAP1 PUSH1 0x3 MUL ADD PUSH0 SWAP1 SWAP2 SWAP1 SWAP2 SWAP1 SWAP2 POP PUSH0 DUP3 ADD MLOAD DUP2 PUSH0 ADD SWAP1 DUP2 PUSH2 0x215 SWAP2 SWAP1 PUSH2 0xBA5 JUMP JUMPDEST POP PUSH1 0x20 DUP3 ADD MLOAD DUP2 PUSH1 0x1 ADD SSTORE PUSH1 0x40 DUP3 ADD MLOAD DUP2 PUSH1 0x2 ADD PUSH0 PUSH2 0x100 EXP DUP2 SLOAD DUP2 PUSH1 0xFF MUL NOT AND SWAP1 DUP4 ISZERO ISZERO MUL OR SWAP1 SSTORE POP POP POP PUSH1 0xA PUSH1 0x1 SWAP1 DUP1 PUSH1 0x1 DUP2 SLOAD ADD DUP1 DUP3 SSTORE DUP1 SWAP2 POP POP PUSH1 0x1 SWAP1 SUB SWAP1 PUSH0 MSTORE PUSH1 0x20 PUSH0 KECCAK256 SWAP1 PUSH1 0x3 MUL ADD PUSH0 SWAP1 SWAP2 SWAP1 SWAP2 SWAP1 SWAP2 POP PUSH0 DUP3 ADD DUP2 PUSH0 ADD SWAP1 DUP2 PUSH2 0x27D SWAP2 SWAP1 PUSH2 0xC89 JUMP JUMPDEST POP PUSH1 0x1 DUP3 ADD SLOAD DUP2 PUSH1 0x1 ADD SSTORE PUSH1 0x2 DUP3 ADD PUSH0 SWAP1 SLOAD SWAP1 PUSH2 0x100 EXP SWAP1 DIV PUSH1 0xFF AND DUP2 PUSH1 0x2 ADD PUSH0 PUSH2 0x100 EXP DUP2 SLOAD DUP2 PUSH1 0xFF MUL NOT AND SWAP1 DUP4 ISZERO ISZERO MUL OR SWAP1 SSTORE POP POP POP PUSH1 0xA PUSH1 0x4 SWAP1 DUP1 PUSH1 0x1 DUP2 SLOAD ADD DUP1 DUP3 SSTORE DUP1 SWAP2 POP POP PUSH1 0x1 SWAP1 SUB SWAP1 PUSH0 MSTORE PUSH1 0x20 PUSH0 KECCAK256 SWAP1 PUSH1 0x3 MUL ADD PUSH0 SWAP1 SWAP2 SWAP1 SWAP2 SWAP1 SWAP2 POP PUSH0 DUP3 ADD DUP2 PUSH0 ADD SWAP1 DUP2 PUSH2 0x2F1 SWAP2 SWAP1 PUSH2 0xC89 JUMP JUMPDEST POP PUSH1 0x1 DUP3 ADD SLOAD DUP2 PUSH1 0x1 ADD SSTORE PUSH1 0x2 DUP3 ADD PUSH0 SWAP1 SLOAD SWAP1 PUSH2 0x100 EXP SWAP1 DIV PUSH1 0xFF AND DUP2 PUSH1 0x2 ADD PUSH0 PUSH2 0x100 EXP DUP2 SLOAD DUP2 PUSH1 0xFF MUL NOT AND SWAP1 DUP4 ISZERO ISZERO MUL OR SWAP1 SSTORE POP POP POP PUSH1 0xA PUSH1 0x7 SWAP1 DUP1 PUSH1 0x1 DUP2 SLOAD ADD DUP1 DUP3 SSTORE DUP1 SWAP2 POP POP PUSH1 0x1 SWAP1 SUB SWAP1 PUSH0 MSTORE PUSH1 0x20 PUSH0 KECCAK256 SWAP1 PUSH1 0x3 MUL ADD PUSH0 SWAP1 SWAP2 SWAP1 SWAP2 SWAP1 SWAP2 POP PUSH0 DUP3 ADD DUP2 PUSH0 ADD SWAP1 DUP2 PUSH2 0x365 SWAP2 SWAP1 PUSH2 0xC89 JUMP JUMPDEST POP PUSH1 0x1 DUP3 ADD SLOAD DUP2 PUSH1 0x1 ADD SSTORE PUSH1 0x2 DUP3 ADD PUSH0 SWAP1 SLOAD SWAP1 PUSH2 0x100 EXP SWAP1 DIV PUSH1 0xFF AND DUP2 PUSH1 0x2 ADD PUSH0 PUSH2 0x100 EXP DUP2 SLOAD DUP2 PUSH1 0xFF MUL NOT AND SWAP1 DUP4 ISZERO ISZERO MUL OR SWAP1 SSTORE POP POP POP POP POP POP POP JUMP JUMPDEST PUSH0 PUSH1 0x7 SWAP1 POP SWAP1 JUMP JUMPDEST PUSH1 0x1 DUP1 PUSH0 ADD DUP1 SLOAD PUSH2 0x3BB SWAP1 PUSH2 0x9D8 JUMP JUMPDEST DUP1 PUSH1 0x1F ADD PUSH1 0x20 DUP1 SWAP2 DIV MUL PUSH1 0x20 ADD PUSH1 0x40 MLOAD SWAP1 DUP2 ADD PUSH1 0x40 MSTORE DUP1 SWAP3 SWAP2 SWAP1 DUP2 DUP2 MSTORE PUSH1 0x20 ADD DUP3 DUP1 SLOAD PUSH2 0x3E7 SWAP1 PUSH2 0x9D8 JUMP JUMPDEST DUP1 ISZERO PUSH2 0x432 JUMPI DUP1 PUSH1 0x1F LT PUSH2 0x409 JUMPI PUSH2 0x100 DUP1 DUP4 SLOAD DIV MUL DUP4 MSTORE SWAP2 PUSH1 0x20 ADD SWAP2 PUSH2 0x432 JUMP JUMPDEST DUP3 ADD SWAP2 SWAP1 PUSH0 MSTORE PUSH1 0x20 PUSH0 KECCAK256 SWAP1 JUMPDEST DUP2 SLOAD DUP2 MSTORE SWAP1 PUSH1 0x1 ADD SWAP1 PUSH1 0x20 ADD DUP1 DUP4 GT PUSH2 0x415 JUMPI DUP3 SWAP1 SUB PUSH1 0x1F AND DUP3 ADD SWAP2 JUMPDEST POP POP POP POP POP SWAP1 DUP1 PUSH1 0x1 ADD SLOAD SWAP1 DUP1 PUSH1 0x2 ADD PUSH0 SWAP1 SLOAD SWAP1 PUSH2 0x100 EXP SWAP1 DIV PUSH1 0xFF AND SWAP1 POP DUP4 JUMP JUMPDEST PUSH0 DUP1 SLOAD SWAP1 POP SWAP1 JUMP JUMPDEST PUSH1 0x7 DUP1 PUSH0 ADD DUP1 SLOAD PUSH2 0x46C SWAP1 PUSH2 0x9D8 JUMP JUMPDEST DUP1 PUSH1 0x1F ADD PUSH1 0x20 DUP1 SWAP2 DIV MUL PUSH1 0x20 ADD PUSH1 0x40 MLOAD SWAP1 DUP2 ADD PUSH1 0x40 MSTORE DUP1 SWAP3 SWAP2 SWAP1 DUP2 DUP2 MSTORE PUSH1 0x20 ADD DUP3 DUP1 SLOAD PUSH2 0x498 SWAP1 PUSH2 0x9D8 JUMP JUMPDEST DUP1 ISZERO PUSH2 0x4E3 JUMPI DUP1 PUSH1 0x1F LT PUSH2 0x4BA JUMPI PUSH2 0x100 DUP1 DUP4 SLOAD DIV MUL DUP4 MSTORE SWAP2 PUSH1 0x20 ADD SWAP2 PUSH2 0x4E3 JUMP JUMPDEST DUP3 ADD SWAP2 SWAP1 PUSH0 MSTORE PUSH1 0x20 PUSH0 KECCAK256 SWAP1 JUMPDEST DUP2 SLOAD DUP2 MSTORE SWAP1 PUSH1 0x1 ADD SWAP1 PUSH1 0x20 ADD DUP1 DUP4 GT PUSH2 0x4C6 JUMPI DUP3 SWAP1 SUB PUSH1 0x1F AND DUP3 ADD SWAP2 JUMPDEST POP POP POP POP POP SWAP1 DUP1 PUSH1 0x1 ADD SLOAD SWAP1 DUP1 PUSH1 0x2 ADD PUSH0 SWAP1 SLOAD SWAP1 PUSH2 0x100 EXP SWAP1 DIV PUSH1 0xFF AND SWAP1 POP DUP4 JUMP JUMPDEST PUSH0 SLOAD DUP2 JUMP JUMPDEST DUP1 PUSH0 DUP2 SWAP1 SSTORE POP PUSH2 0x518 PUSH2 0x3A3 JUMP JUMPDEST POP POP JUMP JUMPDEST PUSH1 0x4 DUP1 PUSH0 ADD DUP1 SLOAD PUSH2 0x52C SWAP1 PUSH2 0x9D8 JUMP JUMPDEST DUP1 PUSH1 0x1F ADD PUSH1 0x20 DUP1 SWAP2 DIV MUL PUSH1 0x20 ADD PUSH1 0x40 MLOAD SWAP1 DUP2 ADD PUSH1 0x40 MSTORE DUP1 SWAP3 SWAP2 SWAP1 DUP2 DUP2 MSTORE PUSH1 0x20 ADD DUP3 DUP1 SLOAD PUSH2 0x558 SWAP1 PUSH2 0x9D8 JUMP JUMPDEST DUP1 ISZERO PUSH2 0x5A3 JUMPI DUP1 PUSH1 0x1F LT PUSH2 0x57A JUMPI PUSH2 0x100 DUP1 DUP4 SLOAD DIV MUL DUP4 MSTORE SWAP2 PUSH1 0x20 ADD SWAP2 PUSH2 0x5A3 JUMP JUMPDEST DUP3 ADD SWAP2 SWAP1 PUSH0 MSTORE PUSH1 0x20 PUSH0 KECCAK256 SWAP1 JUMPDEST DUP2 SLOAD DUP2 MSTORE SWAP1 PUSH1 0x1 ADD SWAP1 PUSH1 0x20 ADD DUP1 DUP4 GT PUSH2 0x586 JUMPI DUP3 SWAP1 SUB PUSH1 0x1F AND DUP3 ADD SWAP2 JUMPDEST POP POP POP POP POP SWAP1 DUP1 PUSH1 0x1 ADD SLOAD SWAP1 DUP1 PUSH1 0x2 ADD PUSH0 SWAP1 SLOAD SWAP1 PUSH2 0x100 EXP SWAP1 DIV PUSH1 0xFF AND SWAP1 POP DUP4 JUMP JUMPDEST PUSH1 0xA DUP2 DUP2 SLOAD DUP2 LT PUSH2 0x5D4 JUMPI PUSH0 DUP1 REVERT JUMPDEST SWAP1 PUSH0 MSTORE PUSH1 0x20 PUSH0 KECCAK256 SWAP1 PUSH1 0x3 MUL ADD PUSH0 SWAP2 POP SWAP1 POP DUP1 PUSH0 ADD DUP1 SLOAD PUSH2 0x5F3 SWAP1 PUSH2 0x9D8 JUMP JUMPDEST DUP1 PUSH1 0x1F ADD PUSH1 0x20 DUP1 SWAP2 DIV MUL PUSH1 0x20 ADD PUSH1 0x40 MLOAD SWAP1 DUP2 ADD PUSH1 0x40 MSTORE DUP1 SWAP3 SWAP2 SWAP1 DUP2 DUP2 MSTORE PUSH1 0x20 ADD DUP3 DUP1 SLOAD PUSH2 0x61F SWAP1 PUSH2 0x9D8 JUMP JUMPDEST DUP1 ISZERO PUSH2 0x66A JUMPI DUP1 PUSH1 0x1F LT PUSH2 0x641 JUMPI PUSH2 0x100 DUP1 DUP4 SLOAD DIV MUL DUP4 MSTORE SWAP2 PUSH1 0x20 ADD SWAP2 PUSH2 0x66A JUMP JUMPDEST DUP3 ADD SWAP2 SWAP1 PUSH0 MSTORE PUSH1 0x20 PUSH0 KECCAK256 SWAP1 JUMPDEST DUP2 SLOAD DUP2 MSTORE SWAP1 PUSH1 0x1 ADD SWAP1 PUSH1 0x20 ADD DUP1 DUP4 GT PUSH2 0x64D JUMPI DUP3 SWAP1 SUB PUSH1 0x1F AND DUP3 ADD SWAP2 JUMPDEST POP POP POP POP POP SWAP1 DUP1 PUSH1 0x1 ADD SLOAD SWAP1 DUP1 PUSH1 0x2 ADD PUSH0 SWAP1 SLOAD SWAP1 PUSH2 0x100 EXP SWAP1 DIV PUSH1 0xFF AND SWAP1 POP DUP4 JUMP JUMPDEST PUSH0 PUSH1 0x40 MLOAD SWAP1 POP SWAP1 JUMP JUMPDEST PUSH0 DUP1 REVERT JUMPDEST PUSH0 DUP1 REVERT JUMPDEST PUSH0 DUP1 REVERT JUMPDEST PUSH0 DUP1 REVERT JUMPDEST PUSH0 PUSH1 0x1F NOT PUSH1 0x1F DUP4 ADD AND SWAP1 POP SWAP2 SWAP1 POP JUMP JUMPDEST PUSH32 0x4E487B7100000000000000000000000000000000000000000000000000000000 PUSH0 MSTORE PUSH1 0x41 PUSH1 0x4 MSTORE PUSH1 0x24 PUSH0 REVERT JUMPDEST PUSH2 0x6EB DUP3 PUSH2 0x6A5 JUMP JUMPDEST DUP2 ADD DUP2 DUP2 LT PUSH8 0xFFFFFFFFFFFFFFFF DUP3 GT OR ISZERO PUSH2 0x70A JUMPI PUSH2 0x709 PUSH2 0x6B5 JUMP JUMPDEST JUMPDEST DUP1 PUSH1 0x40 MSTORE POP POP POP JUMP JUMPDEST PUSH0 PUSH2 0x71C PUSH2 0x68C JUMP JUMPDEST SWAP1 POP PUSH2 0x728 DUP3 DUP3 PUSH2 0x6E2 JUMP JUMPDEST SWAP2 SWAP1 POP JUMP JUMPDEST PUSH0 PUSH8 0xFFFFFFFFFFFFFFFF DUP3 GT ISZERO PUSH2 0x747 JUMPI PUSH2 0x746 PUSH2 0x6B5 JUMP JUMPDEST JUMPDEST PUSH2 0x750 DUP3 PUSH2 0x6A5 JUMP JUMPDEST SWAP1 POP PUSH1 0x20 DUP2 ADD SWAP1 POP SWAP2 SWAP1 POP JUMP JUMPDEST DUP3 DUP2 DUP4 CALLDATACOPY PUSH0 DUP4 DUP4 ADD MSTORE POP POP POP JUMP JUMPDEST PUSH0 PUSH2 0x77D PUSH2 0x778 DUP5 PUSH2 0x72D JUMP JUMPDEST PUSH2 0x713 JUMP JUMPDEST SWAP1 POP DUP3 DUP2 MSTORE PUSH1 0x20 DUP2 ADD DUP5 DUP5 DUP5 ADD GT ISZERO PUSH2 0x799 JUMPI PUSH2 0x798 PUSH2 0x6A1 JUMP JUMPDEST JUMPDEST PUSH2 0x7A4 DUP5 DUP3 DUP6 PUSH2 0x75D JUMP JUMPDEST POP SWAP4 SWAP3 POP POP POP JUMP JUMPDEST PUSH0 DUP3 PUSH1 0x1F DUP4 ADD SLT PUSH2 0x7C0 JUMPI PUSH2 0x7BF PUSH2 0x69D JUMP JUMPDEST JUMPDEST DUP2 CALLDATALOAD PUSH2 0x7D0 DUP5 DUP3 PUSH1 0x20 DUP7 ADD PUSH2 0x76B JUMP JUMPDEST SWAP2 POP POP SWAP3 SWAP2 POP POP JUMP JUMPDEST PUSH0 DUP2 SWAP1 POP SWAP2 SWAP1 POP JUMP JUMPDEST PUSH2 0x7EB DUP2 PUSH2 0x7D9 JUMP JUMPDEST DUP2 EQ PUSH2 0x7F5 JUMPI PUSH0 DUP1 REVERT JUMPDEST POP JUMP JUMPDEST PUSH0 DUP2 CALLDATALOAD SWAP1 POP PUSH2 0x806 DUP2 PUSH2 0x7E2 JUMP JUMPDEST SWAP3 SWAP2 POP POP JUMP JUMPDEST PUSH0 DUP2 ISZERO ISZERO SWAP1 POP SWAP2 SWAP1 POP JUMP JUMPDEST PUSH2 0x820 DUP2 PUSH2 0x80C JUMP JUMPDEST DUP2 EQ PUSH2 0x82A JUMPI PUSH0 DUP1 REVERT JUMPDEST POP JUMP JUMPDEST PUSH0 DUP2 CALLDATALOAD SWAP1 POP PUSH2 0x83B DUP2 PUSH2 0x817 JUMP JUMPDEST SWAP3 SWAP2 POP POP JUMP JUMPDEST PUSH0 DUP1 PUSH0 PUSH1 0x60 DUP5 DUP7 SUB SLT ISZERO PUSH2 0x858 JUMPI PUSH2 0x857 PUSH2 0x695 JUMP JUMPDEST JUMPDEST PUSH0 DUP5 ADD CALLDATALOAD PUSH8 0xFFFFFFFFFFFFFFFF DUP2 GT ISZERO PUSH2 0x875 JUMPI PUSH2 0x874 PUSH2 0x699 JUMP JUMPDEST JUMPDEST PUSH2 0x881 DUP7 DUP3 DUP8 ADD PUSH2 0x7AC JUMP JUMPDEST SWAP4 POP POP PUSH1 0x20 PUSH2 0x892 DUP7 DUP3 DUP8 ADD PUSH2 0x7F8 JUMP JUMPDEST SWAP3 POP POP PUSH1 0x40 PUSH2 0x8A3 DUP7 DUP3 DUP8 ADD PUSH2 0x82D JUMP JUMPDEST SWAP2 POP POP SWAP3 POP SWAP3 POP SWAP3 JUMP JUMPDEST PUSH2 0x8B6 DUP2 PUSH2 0x7D9 JUMP JUMPDEST DUP3 MSTORE POP POP JUMP JUMPDEST PUSH0 PUSH1 0x20 DUP3 ADD SWAP1 POP PUSH2 0x8CF PUSH0 DUP4 ADD DUP5 PUSH2 0x8AD JUMP JUMPDEST SWAP3 SWAP2 POP POP JUMP JUMPDEST PUSH0 DUP2 MLOAD SWAP1 POP SWAP2 SWAP1 POP JUMP JUMPDEST PUSH0 DUP3 DUP3 MSTORE PUSH1 0x20 DUP3 ADD SWAP1 POP SWAP3 SWAP2 POP POP JUMP JUMPDEST DUP3 DUP2 DUP4 MCOPY PUSH0 DUP4 DUP4 ADD MSTORE POP POP POP JUMP JUMPDEST PUSH0 PUSH2 0x907 DUP3 PUSH2 0x8D5 JUMP JUMPDEST PUSH2 0x911 DUP2 DUP6 PUSH2 0x8DF JUMP JUMPDEST SWAP4 POP PUSH2 0x921 DUP2 DUP6 PUSH1 0x20 DUP7 ADD PUSH2 0x8EF JUMP JUMPDEST PUSH2 0x92A DUP2 PUSH2 0x6A5 JUMP JUMPDEST DUP5 ADD SWAP2 POP POP SWAP3 SWAP2 POP POP JUMP JUMPDEST PUSH2 0x93E DUP2 PUSH2 0x80C JUMP JUMPDEST DUP3 MSTORE POP POP JUMP JUMPDEST PUSH0 PUSH1 0x60 DUP3 ADD SWAP1 POP DUP2 DUP2 SUB PUSH0 DUP4 ADD MSTORE PUSH2 0x95C DUP2 DUP7 PUSH2 0x8FD JUMP JUMPDEST SWAP1 POP PUSH2 0x96B PUSH1 0x20 DUP4 ADD DUP6 PUSH2 0x8AD JUMP JUMPDEST PUSH2 0x978 PUSH1 0x40 DUP4 ADD DUP5 PUSH2 0x935 JUMP JUMPDEST SWAP5 SWAP4 POP POP POP POP JUMP JUMPDEST PUSH0 PUSH1 0x20 DUP3 DUP5 SUB SLT ISZERO PUSH2 0x995 JUMPI PUSH2 0x994 PUSH2 0x695 JUMP JUMPDEST JUMPDEST PUSH0 PUSH2 0x9A2 DUP5 DUP3 DUP6 ADD PUSH2 0x7F8 JUMP JUMPDEST SWAP2 POP POP SWAP3 SWAP2 POP POP JUMP JUMPDEST PUSH32 0x4E487B7100000000000000000000000000000000000000000000000000000000 PUSH0 MSTORE PUSH1 0x22 PUSH1 0x4 MSTORE PUSH1 0x24 PUSH0 REVERT JUMPDEST PUSH0 PUSH1 0x2 DUP3 DIV SWAP1 POP PUSH1 0x1 DUP3 AND DUP1 PUSH2 0x9EF JUMPI PUSH1 0x7F DUP3 AND SWAP2 POP JUMPDEST PUSH1 0x20 DUP3 LT DUP2 SUB PUSH2 0xA02 JUMPI PUSH2 0xA01 PUSH2 0x9AB JUMP JUMPDEST JUMPDEST POP SWAP2 SWAP1 POP JUMP JUMPDEST PUSH0 DUP2 SWAP1 POP DUP2 PUSH0 MSTORE PUSH1 0x20 PUSH0 KECCAK256 SWAP1 POP SWAP2 SWAP1 POP JUMP JUMPDEST PUSH0 PUSH1 0x20 PUSH1 0x1F DUP4 ADD DIV SWAP1 POP SWAP2 SWAP1 POP JUMP JUMPDEST PUSH0 DUP3 DUP3 SHL SWAP1 POP SWAP3 SWAP2 POP POP JUMP JUMPDEST PUSH0 PUSH1 0x8 DUP4 MUL PUSH2 0xA64 PUSH32 0xFFFFFFFFFFFFFFFFFFFFFFFFFFFFFFFFFFFFFFFFFFFFFFFFFFFFFFFFFFFFFFFF DUP3 PUSH2 0xA29 JUMP JUMPDEST PUSH2 0xA6E DUP7 DUP4 PUSH2 0xA29 JUMP JUMPDEST SWAP6 POP DUP1 NOT DUP5 AND SWAP4 POP DUP1 DUP7 AND DUP5 OR SWAP3 POP POP POP SWAP4 SWAP3 POP POP POP JUMP JUMPDEST PUSH0 DUP2 SWAP1 POP SWAP2 SWAP1 POP JUMP JUMPDEST PUSH0 PUSH2 0xAA9 PUSH2 0xAA4 PUSH2 0xA9F DUP5 PUSH2 0x7D9 JUMP JUMPDEST PUSH2 0xA86 JUMP JUMPDEST PUSH2 0x7D9 JUMP JUMPDEST SWAP1 POP SWAP2 SWAP1 POP JUMP JUMPDEST PUSH0 DUP2 SWAP1 POP SWAP2 SWAP1 POP JUMP JUMPDEST PUSH2 0xAC2 DUP4 PUSH2 0xA8F JUMP JUMPDEST PUSH2 0xAD6 PUSH2 0xACE DUP3 PUSH2 0xAB0 JUMP JUMPDEST DUP5 DUP5 SLOAD PUSH2 0xA35 JUMP JUMPDEST DUP3 SSTORE POP POP POP POP JUMP JUMPDEST PUSH0 SWAP1 JUMP JUMPDEST PUSH2 0xAEA PUSH2 0xADE JUMP JUMPDEST PUSH2 0xAF5 DUP2 DUP5 DUP5 PUSH2 0xAB9 JUMP JUMPDEST POP POP POP JUMP JUMPDEST JUMPDEST DUP2 DUP2 LT ISZERO PUSH2 0xB18 JUMPI PUSH2 0xB0D PUSH0 DUP3 PUSH2 0xAE2 JUMP JUMPDEST PUSH1 0x1 DUP2 ADD SWAP1 POP PUSH2 0xAFB JUMP JUMPDEST POP POP JUMP JUMPDEST PUSH1 0x1F DUP3 GT ISZERO PUSH2 0xB5D JUMPI PUSH2 0xB2E DUP2 PUSH2 0xA08 JUMP JUMPDEST PUSH2 0xB37 DUP5 PUSH2 0xA1A JUMP JUMPDEST DUP2 ADD PUSH1 0x20 DUP6 LT ISZERO PUSH2 0xB46 JUMPI DUP2 SWAP1 POP JUMPDEST PUSH2 0xB5A PUSH2 0xB52 DUP6 PUSH2 0xA1A JUMP JUMPDEST DUP4 ADD DUP3 PUSH2 0xAFA JUMP JUMPDEST POP POP JUMPDEST POP POP POP JUMP JUMPDEST PUSH0 DUP3 DUP3 SHR SWAP1 POP SWAP3 SWAP2 POP POP JUMP JUMPDEST PUSH0 PUSH2 0xB7D PUSH0 NOT DUP5 PUSH1 0x8 MUL PUSH2 0xB62 JUMP JUMPDEST NOT DUP1 DUP4 AND SWAP2 POP POP SWAP3 SWAP2 POP POP JUMP JUMPDEST PUSH0 PUSH2 0xB95 DUP4 DUP4 PUSH2 0xB6E JUMP JUMPDEST SWAP2 POP DUP3 PUSH1 0x2 MUL DUP3 OR SWAP1 POP SWAP3 SWAP2 POP POP JUMP JUMPDEST PUSH2 0xBAE DUP3 PUSH2 0x8D5 JUMP JUMPDEST PUSH8 0xFFFFFFFFFFFFFFFF DUP2 GT ISZERO PUSH2 0xBC7 JUMPI PUSH2 0xBC6 PUSH2 0x6B5 JUMP JUMPDEST JUMPDEST PUSH2 0xBD1 DUP3 SLOAD PUSH2 0x9D8 JUMP JUMPDEST PUSH2 0xBDC DUP3 DUP3 DUP6 PUSH2 0xB1C JUMP JUMPDEST PUSH0 PUSH1 0x20 SWAP1 POP PUSH1 0x1F DUP4 GT PUSH1 0x1 DUP2 EQ PUSH2 0xC0D JUMPI PUSH0 DUP5 ISZERO PUSH2 0xBFB JUMPI DUP3 DUP8 ADD MLOAD SWAP1 POP JUMPDEST PUSH2 0xC05 DUP6 DUP3 PUSH2 0xB8A JUMP JUMPDEST DUP7 SSTORE POP PUSH2 0xC6C JUMP JUMPDEST PUSH1 0x1F NOT DUP5 AND PUSH2 0xC1B DUP7 PUSH2 0xA08 JUMP JUMPDEST PUSH0 JUMPDEST DUP3 DUP2 LT ISZERO PUSH2 0xC42 JUMPI DUP5 DUP10 ADD MLOAD DUP3 SSTORE PUSH1 0x1 DUP3 ADD SWAP2 POP PUSH1 0x20 DUP6 ADD SWAP5 POP PUSH1 0x20 DUP2 ADD SWAP1 POP PUSH2 0xC1D JUMP JUMPDEST DUP7 DUP4 LT ISZERO PUSH2 0xC5F JUMPI DUP5 DUP10 ADD MLOAD PUSH2 0xC5B PUSH1 0x1F DUP10 AND DUP3 PUSH2 0xB6E JUMP JUMPDEST DUP4 SSTORE POP JUMPDEST PUSH1 0x1 PUSH1 0x2 DUP9 MUL ADD DUP9 SSTORE POP POP POP JUMPDEST POP POP POP POP POP POP JUMP JUMPDEST PUSH0 DUP2 SLOAD SWAP1 POP PUSH2 0xC82 DUP2 PUSH2 0x9D8 JUMP JUMPDEST SWAP1 POP SWAP2 SWAP1 POP JUMP JUMPDEST DUP2 DUP2 SUB PUSH2 0xC97 JUMPI POP POP PUSH2 0xD6C JUMP JUMPDEST PUSH2 0xCA0 DUP3 PUSH2 0xC74 JUMP JUMPDEST PUSH8 0xFFFFFFFFFFFFFFFF DUP2 GT ISZERO PUSH2 0xCB9 JUMPI PUSH2 0xCB8 PUSH2 0x6B5 JUMP JUMPDEST JUMPDEST PUSH2 0xCC3 DUP3 SLOAD PUSH2 0x9D8 JUMP JUMPDEST PUSH2 0xCCE DUP3 DUP3 DUP6 PUSH2 0xB1C JUMP JUMPDEST PUSH0 PUSH1 0x1F DUP4 GT PUSH1 0x1 DUP2 EQ PUSH2 0xCFB JUMPI PUSH0 DUP5 ISZERO PUSH2 0xCE9 JUMPI DUP3 DUP8 ADD SLOAD SWAP1 POP JUMPDEST PUSH2 0xCF3 DUP6 DUP3 PUSH2 0xB8A JUMP JUMPDEST DUP7 SSTORE POP PUSH2 0xD65 JUMP JUMPDEST PUSH1 0x1F NOT DUP5 AND PUSH2 0xD09 DUP8 PUSH2 0xA08 JUMP JUMPDEST SWAP7 POP PUSH2 0xD14 DUP7 PUSH2 0xA08 JUMP JUMPDEST PUSH0 JUMPDEST DUP3 DUP2 LT ISZERO PUSH2 0xD3B JUMPI DUP5 DUP10 ADD SLOAD DUP3 SSTORE PUSH1 0x1 DUP3 ADD SWAP2 POP PUSH1 0x1 DUP6 ADD SWAP5 POP PUSH1 0x20 DUP2 ADD SWAP1 POP PUSH2 0xD16 JUMP JUMPDEST DUP7 DUP4 LT ISZERO PUSH2 0xD58 JUMPI DUP5 DUP10 ADD SLOAD PUSH2 0xD54 PUSH1 0x1F DUP10 AND DUP3 PUSH2 0xB6E JUMP JUMPDEST DUP4 SSTORE POP JUMPDEST PUSH1 0x1 PUSH1 0x2 DUP9 MUL ADD DUP9 SSTORE POP POP POP JUMPDEST POP POP POP POP POP POP JUMPDEST JUMP INVALID LOG2 PUSH5 0x6970667358 0x22 SLT KECCAK256 0xE6 0xC0 BLOBBASEFEE SAR 0xC SWAP6 0xF7 0xBA 0x1E BALANCE 0xE2 0xBE SIGNEXTEND 0xBC CALLDATACOPY SWAP10 CHAINID 0xBD 0x4D PUSH20 0x330754B1CDBF78BFDBBA786564736F6C63430008 BYTE STOP CALLER "
		},
		"gasEstimates": {
			"creation": {
				"codeDepositCost": "698400",
				"executionCost": "infinite",
				"totalCost": "infinite"
			},
			"external": {
				"Aarti()": "infinite",
				"Ajay()": "infinite",
				"Friends(uint256)": "infinite",
				"Vijay()": "infinite",
				"addPerson(string,uint256,bool)": "infinite",
				"favoriteNumber()": "2446",
				"jaadu()": "355",
				"retrieve()": "2499",
				"store(uint256)": "22597"
			}
		},
		"methodIdentifiers": {
			"Aarti()": "30af0a98",
			"Ajay()": "08839f9a",
			"Friends(uint256)": "8a1a8bbf",
			"Vijay()": "701b6494",
			"addPerson(string,uint256,bool)": "032ce9aa",
			"favoriteNumber()": "471f7cdf",
			"jaadu()": "0636f42f",
			"retrieve()": "2e64cec1",
			"store(uint256)": "6057361d"
		}
	},
	"abi": [
		{
			"inputs": [],
			"name": "Aarti",
			"outputs": [
				{
					"internalType": "string",
					"name": "name",
					"type": "string"
				},
				{
					"internalType": "uint256",
					"name": "favNo",
					"type": "uint256"
				},
				{
					"internalType": "bool",
					"name": "isMale",
					"type": "bool"
				}
			],
			"stateMutability": "view",
			"type": "function"
		},
		{
			"inputs": [],
			"name": "Ajay",
			"outputs": [
				{
					"internalType": "string",
					"name": "name",
					"type": "string"
				},
				{
					"internalType": "uint256",
					"name": "favNo",
					"type": "uint256"
				},
				{
					"internalType": "bool",
					"name": "isMale",
					"type": "bool"
				}
			],
			"stateMutability": "view",
			"type": "function"
		},
		{
			"inputs": [
				{
					"internalType": "uint256",
					"name": "",
					"type": "uint256"
				}
			],
			"name": "Friends",
			"outputs": [
				{
					"internalType": "string",
					"name": "name",
					"type": "string"
				},
				{
					"internalType": "uint256",
					"name": "favNo",
					"type": "uint256"
				},
				{
					"internalType": "bool",
					"name": "isMale",
					"type": "bool"
				}
			],
			"stateMutability": "view",
			"type": "function"
		},
		{
			"inputs": [],
			"name": "Vijay",
			"outputs": [
				{
					"internalType": "string",
					"name": "name",
					"type": "string"
				},
				{
					"internalType": "uint256",
					"name": "favNo",
					"type": "uint256"
				},
				{
					"internalType": "bool",
					"name": "isMale",
					"type": "bool"
				}
			],
			"stateMutability": "view",
			"type": "function"
		},
		{
			"inputs": [
				{
					"internalType": "string",
					"name": "_name",
					"type": "string"
				},
				{
					"internalType": "uint256",
					"name": "_numb",
					"type": "uint256"
				},
				{
					"internalType": "bool",
					"name": "_male",
					"type": "bool"
				}
			],
			"name": "addPerson",
			"outputs": [],
			"stateMutability": "nonpayable",
			"type": "function"
		},
		{
			"inputs": [],
			"name": "favoriteNumber",
			"outputs": [
				{
					"internalType": "uint256",
					"name": "",
					"type": "uint256"
				}
			],
			"stateMutability": "view",
			"type": "function"
		},
		{
			"inputs": [],
			"name": "jaadu",
			"outputs": [
				{
					"internalType": "uint256",
					"name": "",
					"type": "uint256"
				}
			],
			"stateMutability": "pure",
			"type": "function"
		},
		{
			"inputs": [],
			"name": "retrieve",
			"outputs": [
				{
					"internalType": "uint256",
					"name": "",
					"type": "uint256"
				}
			],
			"stateMutability": "view",
			"type": "function"
		},
		{
			"inputs": [
				{
					"internalType": "uint256",
					"name": "_favoriteNumber",
					"type": "uint256"
				}
			],
			"name": "store",
			"outputs": [],
			"stateMutability": "nonpayable",
			"type": "function"
		}
	]
}